:100000000C949F060C94C7060C94C7060C94C70664
:100010000C94C7060C94C7060C94C7060C94C7062C
:100020000C94C7060C94C7060C9457100C94C91076
:100030000C94C7060C94C7060C94C7060C94C7060C
:100040000C94C7060C94C7060C94C7060C94C706FC
:100050000C94C7060C94C7060C94C7060C94E413C2
:100060000C94C7060C94C7060C94C7060C94C706DC
:100070000C94C7060C94C7060C94C7060C94C706CC
:100080000C942E140C94C7060C94C7060C94C70647
:100090000C94C7060C94C7060C94C7060C94C706AC
:1000A0000C94C7060C94C7060C94C706D5F08D14A3
:1000B000A1C881CFD9F1AF2000430D00F800FCF8B2
:1000C000FEFCFF0CFF0CFF1CFF18FE00FCF8FEFC02
:1000D000FF0CFF0CFFFCFFF8FE00FEFCFFFCFF78AE
:1000E000FEF0FC78FEFCFFFCFF00FEFCFFFCFFCCFA
:1000F000FFCCFFFCFF78FE00FE3CFF7CFFE0FEE053
:10010000FE7CFF3CFF00FEF8FEFCFF0CFF0CFF1C1A
:10011000FF18FE00FCF8FEFCFF0CFF0CFFFCFFF8D4
:10012000FE00FEFCFFFCFFCCFFCCFFFCFF78FE00D6
:10013000FEFCFFFCFF6CFF6CFF0CFF0CFF001E00C1
:100140000C00030007030F071F061F061F071F03EE
:100150000F0007030F071F061F061F071F030F00CF
:100160000F071F071F000F0007000F071F071F00C3
:100170000F071F071F000F0007000300010000000A
:1001800007000F071F071F000F00070007030F07D7
:100190001F061F061F071F030F0007030F071F0679
:1001A0001F061F071F030F000F071F071F000F0069
:1001B0000F071F071F000F071F071F061F061F0639
:1001C0001F061F000F0006412E0000000000000067
:1001D000000000000000C0E0F0F8FCFCFEFE04009F
:1001E000000000000000000080808080808080800F
:1001F000808080800002071FFFFEFEFCFCF8F0E01C
:10020000800000000000000000000000000000006E
:100210000000000000001E7FFFFFFFFFFFFFFFFF49
:10022000FEFCFC06060303030301010101010101B9
:10023000010101010103030307070F1F3F7FFFFFB8
:100240003F070000000000000000000000808080E8
:10025000808080C0C0C0C0E0F0FD8F0307070707A3
:10026000070301000080C0E0E0F0F0F0F0F0F06083
:1002700000C0E0E0F0F0F0F0F0E0D83C9CDCDC986E
:10028000333F7FFFDFDF6F6F371B0E0402070D1B4D
:100290003337676F6FCFCFCFCFDFDF1F1E00000078
:1002A0000000000000010D070301010130180C0CD3
:1002B0000C1800030F1F7FFF9F9F0F0F0FCD3303FD
:1002C00001000000FFFF000000000000000000002F
:1002D0000000000000000000000000030F1C306060
:1002E000C0800000000000000000000000000000CE
:1002F00000000000003830200020202111D1D0E87B
:10030000C7E2B01C0F030000000000000000000066
:1003100000000000000000000000000000000000DD
:10032000000001030306060C0C18181818303030B2
:100330003030303018181818180C0C0C0606030151
:10034000030703000000000000000000000000415F
:100350002E00000000000000000000000000C0E0CF
:10036000F0F8FCFCFEFE04000000000000000000AD
:100370008080808080808080808080800002071F55
:10038000FFFEFEFCFCF8F0E0800000000000000032
:1003900000000000000000000000000000001E7FC0
:1003A000FFFFFFFFFFFFFFFFFEFCFC06060303034A
:1003B0000301010101010101010101010103030325
:1003C00007070F1F3F7FFFFF3F07000000000000EF
:1003D0000000000000808080808080C0C0C0C0E03D
:1003E000F0FD8F0307070707070301000080C0E047
:1003F000E0F0F0F0F0F0F06000C0E0E0F0F0F0F0DD
:10040000F0E0D83C9CDCDC98333F7FFFDFDF6F6F90
:10041000371B0E0402070D1B3337676F6FCFCFCF2B
:10042000CFDFDF1F1E0000000000000000010D07ED
:1004300003010101183C7E7E7E3C18030F1F7FFFE5
:100440009F9F0F0F0FCD330301000000FFFF00003F
:10045000000000000000000000000000000000009C
:10046000000000030F1C3060C0800000000000008E
:1004700000000000000000000000000000383020F4
:100480000020202111D1D0E8C7E2B01C0F030000EA
:10049000000000000000000000000000000000005C
:1004A0000000000000000000000001030306060C2D
:1004B0000C18181818303030303030301818181820
:1004C000180C0C0C060603010307030000000000D3
:1004D0000000000000000010100000000000F0E02C
:1004E000F0E0F0E0F0E0F0E0F0E0F0E0F0E0F0E08C
:1004F000F0E0F000F0000000000000000000FF7FCE
:10050000FF7FFF7FFF7FFF7FFF79FF7FFF7FFF7907
:10051000FF7FFF00FF000000000000000000C0801F
:10052000F8F0F8F0F8F0F8E0F8E0F0E0F0E0F0C013
:10053000F0C0E0C0E000E000000000003E1C3F1FF3
:100540003F1F7F3F7F3F7F3F7F3CFF7FFF7FFF7CE1
:10055000FF0FFF011F0003000000000000008000EB
:10056000C080F0E0F8F0FCF8FCF0FCE0F8C0F0C06F
:10057000E080E000C00080000000000007020F07DC
:100580001F0F1F0F3F1F7F3FFF7CFF3FFF1F7F0499
:100590003F030F0107000300000000008000C0803F
:1005A000E0C0F0E0F8F0FCF8FCF8FCF0FCE0F8C08B
:1005B000F080E000C00080000000000007030F078B
:1005C0001F0F3F1F7F3FFF7FFF7CFF3FFF1F7F0C01
:1005D0003F071F030F000700000000008000C080DD
:1005E000E0C0E0C0F0E0F8F0FCF8FCF0FCE0F880DF
:1005F000F000C000800000000000000003010703BD
:100600000F073F1F7F3FFF7FFF3CFF1F7F0F3F0C08
:100610001F071F020F00070000000000E0C0E0C03D
:10062000E0C0F0E0F0E0F0E0F0E0F8F0F8F0F8F032
:10063000F880F800C00000000000000003011F0F58
:10064000FF7FFF7FFF7FFF3FFF3C7F3F7F3F7F1CA0
:100650007F1F3F1C3F003E000010180000000000FC
:10066000000000000000F0E0FFFEFFFEFFE0FF00E2
:10067000F00000000000000000000000000000008A
:100680008000F0E0FFCCFF7BFF7BFFCDFFFFFFFE94
:10069000FFE0FF00F0008000000000000000783064
:1006A0007F3F7F3F7F387F3C7F3C7F387F3F7F3F6E
:1006B0007F3F7F3F7F307F00780000000000000018
:1006C000000000000000E0C0FEFCFEFCFEC0FE00DA
:1006D000E00000000000000000000000000000003A
:1006E0000000E0C0FEFCFF37FFEFFFEFFF37FFFC2D
:1006F000FFC0FE00E0000000000000000000F0600D
:10070000FF7EFF7FFF7FFF73FF79FF79FF73FF7F1E
:10071000FF7FFF7EFF60FF00F00000080800FF7E03
:10072000FF42FF42E742FF7EFF7EFF00FF00E742FD
:10073000E742FF7EFF7EFF40FF40E000E000FF7ADF
:10074000FF5AFF5AFF5AFF5EFF5EFF00FF00FF5A8D
:10075000FF5AFF5AFF5AFF7EFF7EFF00FF003F1E39
:100760003F183F183C18FF7EFF7EFF00FF00FF5E32
:10077000FF5AFF5AFF5AFF7AFF7AFF00FF00FF7E01
:10078000FF5AFF5AFF5AFF7AFF7AFF00FF00070265
:10079000070207020702FF7EFF7EFF00FF00FF7EC9
:1007A000FF5AFF5AFF5AFF7EFF7EFF00FF003F1EE9
:1007B0003F1A3F1A3F1AFF7EFF7EFF00FF00000036
:1007C00000003E5B4F5B3E3E6B4F6B3E1C3E7C3EF3
:1007D0001C183C7E3C181C577D571C1C5E7F5E1C01
:1007E00000183C1800FFE7C3E7FF0018241800FFBB
:1007F000E7DBE7FF30483A060E2629792926407FB5
:10080000050507407F05253F5A3CE73C5A7F3E1CC3
:100810001C08081C1C3E7F14227F22145F5F005FAF
:100820005F06097F017F006689956A60606060608D
:1008300094A2FFA29408047E040810207E201008D1
:10084000082A1C08081C2A08081E101010100C1E6C
:100850000C1E0C30383E3830060E3E0E06000000EE
:10086000000000005F00000007000700147F147FF5
:1008700014242A7F2A122313086462364956205012
:100880000008070300001C2241000041221C002A2E
:100890001C7F1C2A08083E080800807030000808E9
:1008A000080808000060600020100804023E51495A
:1008B000453E00427F400072494949462141494D29
:1008C000331814127F1027454545393C4A494931B0
:1008D00041211109073649494936464949291E002F
:1008E00000140000004034000000081422411414D9
:1008F000141414004122140802015909063E415DF6
:10090000594E7C1211127C7F494949363E41414182
:10091000227F4141413E7F494949417F09090901FF
:100920003E414151737F0808087F00417F4100200C
:1009300040413F017F081422417F404040407F02F8
:100940001C027F7F0408107F3E4141413E7F090920
:1009500009063E4151215E7F091929462649494928
:100960003203017F01033F4040403F1F2040201FD2
:100970003F4038403F631408146303047804036164
:1009800059494D43007F4141410204081020004174
:1009900041417F04020102044040404040000307FF
:1009A000080020545478407F284444383844444454
:1009B00028384444287F385454541800087E0902CB
:1009C00018A4A49C787F0804047800447D4000208B
:1009D00040403D007F1028440000417F40007C04DF
:1009E0007804787C080404783844444438FC18249B
:1009F000241818242418FC7C08040408485454546F
:100A00002404043F44243C4040207C1C2040201C03
:100A10003C4030403C44281028444C9090907C440A
:100A200064544C4400083641000000770000004147
:100A300036080002010204023C2623263C1EA1A126
:100A400061123A4040207A3854545559215555790D
:100A500041215454784121555478402054557940CF
:100A60000C1E52721239555555593954545459392E
:100A7000555454580000457C410002457D42000118
:100A8000457C40F0292429F0F0282528F07C545595
:100A900045002054547C547C0A097F493249494915
:100AA000323248484832324A4848303A4141217A45
:100AB0003A42402078009DA0A07D39444444393D0D
:100AC0004040403D3C24FF2424487E4943662B2F70
:100AD000FC2F2BFF0929F620C0887E0903205454DF
:100AE00079410000447D413048484A323840402234
:100AF0007A007A0A0A727D0D19317D2629292F285C
:100B0000262929292630484D402038080808080899
:100B1000080808382F10C8ACBA2F102834FA000083
:100B20007B000008142A142222142A14089500229B
:100B30000095AA005500AAAA55AA55AA000000FFD0
:100B400000101010FF00141414FF001010FF00FF1D
:100B50001010F010F0141414FC001414F700FF002F
:100B600000FF00FF1414F404FC141417101F1010DD
:100B70001F101F1414141F00101010F000000000AC
:100B80001F101010101F10101010F010000000FFA8
:100B9000101010101010101010FF10000000FF14A3
:100BA0000000FF00FF00001F10170000FC04F414F9
:100BB000141710171414F404F40000FF00F71414B1
:100BC0001414141414F700F7141414171410101F2D
:100BD000101F141414F4141010F010F000001F1063
:100BE0001F0000001F14000000FC140000F010F0B3
:100BF0001010FF10FF141414FF141010101F000029
:100C00000000F010FFFFFFFFFFF0F0F0F0F0FFFF3B
:100C1000FF0000000000FFFF0F0F0F0F0F384444CC
:100C200038447C2A2A3E147E02020606027E027E98
:100C30000263554941633844443C04407E201E20F1
:100C400006027E020299A5E7A5991C2A492A1C4C96
:100C50007201724C304A4D4D303048784830BC6299
:100C60005A463D3E494949007E0101017E2A2A2A11
:100C70002A2A44445F444440514A444040444A5133
:100C8000400000FF0103E080FF000008086B6B08D4
:100C90003612362436060F090F0600001818000019
:100CA000001010003040FF0101001F01011E00195B
:100CB0001D1712003C3C3C3C0000000000010204F7
:100CC0000810204080080B00020202010009040005
:100CD00000010202000005240010010524010101A9
:100CE00004240206052406000107058103100040C4
:100CF00009040100020A000000070502024000008A
:100D0000070583024000000403090412010002EFFA
:100D10000201404123368000010102030141726457
:100D200075696E6F204C4C430041726475696E6F3B
:100D3000204C656F6E6172646F004A1C3C1C11246C
:100D40001FBECFEFDAE0DEBFCDBF12E0A0E0B1E022
:100D5000EEE2F6E402C005900D92AA32B107D9F78F
:100D600027E0AAE2B2E001C01D92AF36B207E1F778
:100D700016E0CEE9D6E004C02197FE010E942522AC
:100D8000CD39D107C9F70E9475150C940A230C942C
:100D9000000080912D0208950895089580E090E06C
:100DA0000895CB0108957F928F929F92AF92BF9248
:100DB000CF92DF92EF92FF920F931F93CF93DF9327
:100DC000EC0149015A018B01C12CD12C7601C814C8
:100DD000D904EA04FB0484F5F80171908F018F8532
:100DE00080FF0BC0E881F9810084F185E02D20E1CE
:100DF00044E060E070E0CE010995EB85FC858D85CF
:100E00009E85E817F90738F470828B859C850196DA
:100E10009C878B870BC0E881F981672D70E0028C7D
:100E2000F38DE02DCE010995019649F02FEFC21AFE
:100E3000D20AE20AF20ACBCFB401C50102C0B60160
:100E4000C701DF91CF911F910F91FF90EF90DF903D
:100E5000CF90BF90AF909F908F907F900895CF9349
:100E6000DF93EC01E881F9810288F389E02D09958F
:100E70008F3F2FEF920731F02D813E812F5F3F4F43
:100E80003E832D83DF91CF9108958FEF9FEF0895DB
:100E900060E070E0CB01089580E090E00895CB0120
:100EA0000895CF93DF93EC0188899989DC01ED9156
:100EB000FC910084F185E02D0995892BA9F388899F
:100EC0009989DC01ED91FC910284F385E02DDF919D
:100ED000CF910994CF93DF93EC0188899989DC0144
:100EE000ED91FC910084F185E02D0995892BA9F302
:100EF00088899989DC01ED91FC910484F585E02DC8
:100F0000DF91CF910994AF92BF92CF92DF92EF928F
:100F1000FF920F931F93CF93DF9300D000D0CDB7F4
:100F2000DEB78C015B01C12CD12C7601F8018089E0
:100F30009189DC01ED91FC910284F385E02D2983F8
:100F40003A834B835C83099529813A814B815C818B
:100F50008F3F71F0C216D306E406F5064CF4D501B6
:100F60008D935D01BFEFCB1ADB0AEB0AFB0ADECFE4
:100F7000C701B6010F900F900F900F90DF91CF91A6
:100F80001F910F91FF90EF90DF90CF90BF90AF90A7
:100F90000895DC0150968D919C915197DC01ED9163
:100FA000FC910084F185E02D099480E090E00895A3
:100FB00080E090E0089580E090E0089580E090E087
:100FC00008950895CF93DF93C091AF06D091B006F6
:100FD000E881F9810084F185E02DCE010995892B06
:100FE000B9F3E881F9810284F385E02DCE01DF9128
:100FF000CF9109941F93CF93DF93182FC091AF0621
:10100000D091B0068A3041F4E881F9810190F081F5
:10101000E02D6DE0CE010995E881F9810190F08124
:10102000E02D612FCE01099521E030E0019711F408
:1010300020E030E0C901DF91CF911F9108950F9317
:101040001F93CF93DF938C01EB016F3F8FEF7807F6
:1010500019F480E090E00FC06A3031F46DE0F801DF
:10106000808991890E94F9126C2FF80180899189F9
:101070000E94F912CE01DF91CF911F910F91089537
:101080008F929F92BF92CF92DF92EF92FF920F9337
:101090001F93CF93DF9300D000D0CDB7DEB78C0184
:1010A0004B01C12CD12C7601C216D306E406F506FD
:1010B00044F5F401B1904F01FAE0BF120EC06DE0AB
:1010C000F8018089918929833A834B835C830E944C
:1010D000F9125C814B813A8129816B2DF80180895D
:1010E000918929833A834B835C830E94F912FFEF35
:1010F000CF1ADF0AEF0AFF0A5C814B813A8129810E
:10110000D3CFCA01B9010F900F900F900F90DF91CC
:10111000CF911F910F91FF90EF90DF90CF90BF90F4
:101120009F908F9008950C94E61EFB0120813181E1
:10113000FC0131832083FB0142815381F901369701
:1011400020813181FC01E20FF31F51834083089518
:1011500026E831E0FC013183208320E931E0318F42
:10116000208F66E971E00C949508DC01ED91FC910B
:10117000369720813181820F931F0C94A808CF935A
:10118000DF93EC010E94A808CE01DF91CF910C946F
:10119000E61EDC01ED91FC91369720813181820FB2
:1011A000931F0C94BF08089508950C94E61EDC016B
:1011B000ED91FC91369720813181820F931F0C9421
:1011C000D5080C94E61EFB0120813181FC0131839E
:1011D0002083FB0142815381F901369720813181BF
:1011E000FC01E20FF31F5183408308952EEF31E09D
:1011F000FC013183208328E032E0358B248B6EE0C4
:1012000072E00C94E308DC01ED91FC9136972081AB
:101210003181820F931F0C94F608CF93DF93EC017A
:101220000E94F608CE01DF91CF910C94E61EDC01FE
:10123000ED91FC91369720813181820F931F0C94A0
:101240000D09089508950C94E61EDC01ED91FC91C2
:10125000369720813181820F931F0C9423090C94BF
:10126000E61ECF92DF92EF92FF920F931F93CF93E0
:10127000DF930E948E14811520E8920761F480911B
:1012800071008D7F8093710010929100469847986D
:10129000109239028BC021E020933902813020E87E
:1012A000920751F48091320290913302909335026B
:1012B000809334020E948E1497FD05C0209138025D
:1012C000222309F43FC02091370221113BC021E0C5
:1012D00020933A02EC01DF77209769F481E0809354
:1012E0003B0246983FE9C32E3FE0D32EE12CF12C80
:1012F000CAEFD0E014C08E0120E030E060E472E478
:101300008FE090E0A90198010E94CF2069017A0145
:1013100081E0C81AD108E108F10810923B02E0917F
:101320005A06F0915B060995811103C081E0809314
:101330003B0280913A028823B9F180913B028111EE
:1013400033C003C010923A02C5CF46992DC0479AC8
:101350000E948E14009771F09C01DE010E945A21B8
:10136000DC01CB0129E0B595A795979587952A953E
:10137000D1F703C08FEF9FEFDC01109290002AE0BD
:1013800020939100D0929900C092980080933C02E3
:1013900090933D02A0933E02B0933F028091710072
:1013A00082608093710002C04798D2CFDF91CF91C5
:1013B0001F910F91FF90EF90DF90CF9008954F9283
:1013C0005F926F927F928F929F92AF92BF92CF92D5
:1013D000DF92EF92FF920F931F93CF93DF9300D092
:1013E00000D0CDB7DEB749012C2DA02EB12CDC01E9
:1013F000AA0DBB1D1A161B060CF0B3C1803891054F
:101400000CF0AFC1FB01EE0DF11D1E161F060CF016
:10141000A8C1603471050CF0A4C14115510509F44F
:10142000A0C1FB0177FF04C0EE27FF27E61BF70BE7
:101430003E2F3770732EFB0177FD379633E0F5951D
:10144000E7953A95E1F73E2F77FF07C0772029F01F
:101450003FEF3E0F68E06719762E97FF05C0EE2735
:10146000FF27E81BF90B02C0E0E0F0E0A038B1056F
:1014700024F060E8F62EF81A01C0F02EFE1A632F51
:10148000032E000C770B3F3F1CF4A62FA09501C044
:10149000A0E011E0BE2DB77009F410E0E694E694E8
:1014A000E694E10E6E0D711D693071051CF068E067
:1014B000E62EE31AEA1A3A0F60E83603800D911D12
:1014C00011248E0F9F1FA09FE00DF11D11244E0FC0
:1014D0005F1F61E070E0072C02C0660F771F0A945F
:1014E000E2F7233009F4FCC098F4213009F4AEC0CF
:1014F000223009F036C12FEF269F8001279F100D63
:101500001124009510951C830B835C80E30E27C08B
:101510002A3F29F02B3F09F024C1E30E83C0E30EDC
:101520004EC0FA01EC0DFD1DE491E69F4001E79FDE
:10153000900C11249A82898237FD04C02C912023BB
:10154000822A8C92711014C0EFEFCE1ADE0A119627
:10155000CF1438F33F5F4A0D5B1D80589F4F3E15F7
:1015600009F4FFC0DC01A45BBD4FC12CD12CF0CF2E
:10157000373054F7FD01E058FF4F208125219A8034
:1015800029292083E1CFFA01E00FF11FE491E69FC2
:101590006001E79FD00C1124DA82C98237FD03C0B5
:1015A0002C91C22ACC92711013C00F5F1F4F11965D
:1015B0000F1548F33F5F4A0D5B1D80589F4F3E1546
:1015C00009F4CFC0DC01A45BBD4F00E010E0F0CF18
:1015D00037305CF7FD01E058FF4FD0802A812D297C
:1015E0002083E3CFFA01EC0DFD1DE491E69FD001CD
:1015F000E79FB00D1124BA83A98337FD05C0A095DC
:10160000F8012081A223A083711015C0FFEFCF1A2B
:10161000DF0A0F5F1F4FCF1428F33F5F4A0D5B1D9A
:1016200080589F4F3E1509F49CC08C01045B1D4FF0
:10163000C12CD12CF0CF37304CF7F801E058FF4FD8
:101640002A812095A0812A232083E0CFD401AE0FE8
:10165000BF1FE30E3E1509F484C0FC01E45BFD4F9F
:101660004F01C12CD12CCF1498F5FD01EC0DFD1DBF
:10167000E491E69F8001E79F100D112400951095DD
:101680001C830B83FA01EC0DFD1DE491E69F200104
:10169000E79F500C11245A82498237FD05C0F4019E
:1016A00020810223402A4082772059F037304CF4C1
:1016B000F401E058FF4F10812C8121231A81212B46
:1016C0002083FFEFCF1ADF0A2FEF821A920ACBCFC7
:1016D0003F5F4A0D5B1DAA0DBB1D80589F4FBACFBF
:1016E000CF2CD12CE40FF51FDC01A45BBD4FAC0166
:1016F00044535D4F00E810E00C191D09AC18BD08FB
:10170000AA0CBB1C6F2C2E2DCF93DF93EA01859082
:10171000C590772059F0869E4001C69E6001373003
:101720002CF49881D0949D219929999333233AF0F0
:101730009C91C0949C2198299D930C94A00B119688
:10174000FA9429F7EA9451F0F62C33951124EA0D16
:10175000F11DA00FB11DC00FD11DD9CFDF91CF91C9
:1017600011240F900F900F900F90DF91CF911F9148
:101770000F91FF90EF90DF90CF90BF90AF909F9030
:101780008F907F906F905F904F900895CF92DF92EF
:10179000EF920F931F93CF93DF934115510591F172
:1017A000FA0104913196E4904E5F5F4F222321F1BC
:1017B00030E0220F331FC02FD0E0AE2DA695A695A6
:1017C000A695EA2FF0E0A1E0B0E01E2D177011F40D
:1017D000A0E0B0E0AE0FBF1FCA9F6001CB9FD00C4E
:1017E000DA9FD00C11242C9DF0012D9DF00D3C9D15
:1017F000F00D11244E0F5F1F23E0C22E20E030E0D9
:101800000E94DF09DF91CF911F910F91EF90DF9040
:10181000CF900895BC0180E090E00C9425138FB127
:101820002CB193B130E02095309520743327A90175
:1018300023E0559547952A95E1F7292F30E020952B
:101840003095207133273595279535952795242B8D
:101850008095807F822B089583B7817F83BF83B774
:10186000816083BF889583B78E7F83BF08958EBDC7
:1018700000000DB407FEFDCF0895FC01840F911DFB
:1018800018161906E4F5E038F105CCF5F7FF02C0AB
:10189000E0E0F0E08138910514F080E890E0382F26
:1018A0003E1BAB0177FF02C0495F5F4F83E0559558
:1018B00047958A95E1F75695542F442757954795B4
:1018C000E40FF51FE45BFD4F6770772781E090E040
:1018D00001C0880F6A95EAF7482F222349F021308A
:1018E00071F4315020F08081842B8193FACF0895D8
:1018F0008095315020F0908198239193FACF0895EC
:10190000EDEBFCE090E1969FD001A0781124A80FA8
:101910006770E60FF11D9491A45BBD4F442319F04D
:101920008C91982B03C090958C9198239C9308954B
:101930002F923F924F925F926F927F928F929F92DF
:10194000AF92BF92CF92DF92EF92FF920F931F93CD
:10195000CF93DF93CDB7DEB727970FB6F894DEBFEE
:101960000FBECDBFFC016A3069F4248D808D918D4E
:1019700038E0239F800D911D1124918F808F178A4D
:10198000168AA6C06D3009F4A3C09F838E83348C61
:10199000238D2983328D3A83608C718CE688F78899
:1019A00080E8E816F104C4F0AE81BF815C962C910A
:1019B0005C97422F50E056968D919C915797B6E0D8
:1019C0002B9F800D911D1124EE81FF81978B868BBB
:1019D000258D211167C07CC0F0E46F16710424F7D7
:1019E000C70125E0329E800D911D1124181619069D
:1019F000DCF6432C512CC30138E0339E800D911D41
:101A000011241816190684F685E0689F80011124B8
:101A10000354184F20E0F8012490253009F4212CBC
:101A2000430158E020FC02C0398101C03A813111E4
:101A30000BC0F9818A81F81307C026945150840C99
:101A4000951C5111EFCF25C067018C2D8E19831580
:101A5000A0F754018A2D88198315B8F490E8C916A7
:101A6000D10478F4A0E4AA16B10458F4432FB501C8
:101A7000C6012C833B835D830E94800C5D813B818A
:101A80002C81BFEFAB1ABB0AE5CFEFEFCE1ADE0A0F
:101A9000DCCF2F5FE40CF51C0F5F1F4F263009F0E1
:101AA000BACF82CF6AEF64039001659F300D112495
:101AB00020583F4F281739075CF4AE81BF81ED9164
:101AC000FC9111970190F081E02D6AE0CD0109951C
:101AD00081E090E027960FB6F894DEBF0FBECDBF31
:101AE000DF91CF911F910F91FF90EF90DF90CF90FA
:101AF000BF90AF909F908F907F906F905F904F902E
:101B00003F902F9008950895089508958F929F9281
:101B1000AF92BF92CF92DF92EF92FF920F931F93FB
:101B2000CF93DF93EC01FF84F394F3941E851E5F43
:101B30006C857D85072E000C880B990B0E949C1FDD
:101B40002C813D814E815F810E946A2120E030E03E
:101B500040E85FE30E9469210E94D6214B015C01AD
:101B60008A859B85BC01990F880B990B0E949C1F4D
:101B7000288139814A815B810E946A2120E030E01E
:101B800040E85FE30E9469210E94D621DC01CB017D
:101B900000E02F2D412FB4010E94F114FF84FA942C
:101BA000FA941E8512506C857D85072E000C880BDB
:101BB000990B0E949C1F2C813D814E815F810E9468
:101BC0006A2120E030E040E85FE30E946A210E9441
:101BD000D6214B015C018A859B85BC01990F880B3E
:101BE000990B0E949C1F288139814A815B810E9448
:101BF0006A2120E030E040E85FE30E946A210E9411
:101C0000D621DC01CB012F2D412FB4010E94F1140C
:101C10006C857D85072E000C880B990B0E949C1FFC
:101C20002C813D814E815F810E946A210E94D621D4
:101C30006B017C018A859B85BC01990F880B990BF0
:101C40000E949C1F288139814A815B810E946A2100
:101C50000E94D621DC01CB0101E02F854E85B60123
:101C60000E94F114DF91CF911F910F91FF90EF909F
:101C7000DF90CF90BF90AF909F908F900895FC0120
:101C800060A571A5772780919806909199060E948A
:101C90001122892B69F427A1422F50E086A190E000
:101CA0000197481759071CF42F5F27A3089517A21F
:101CB00008958F929F92AF92BF92CF92DF92EF9250
:101CC000FF920F931F93CF93DF93EC01CE88DF88B1
:101CD000E88CF98C2C813D814E815F81C701B60172
:101CE0000E946A214B015C016C837D838E839F83FC
:101CF000098510E0B801012E000C880B990B0E9499
:101D00009C1F9B01AC01C501B4010E946A2120E027
:101D100030E048E552E40E94951F87FF0DC02A8DF0
:101D20003B8D4C8D5D8DC701B6010E946A216E8B83
:101D30007F8B888F998F12C01E8A1F8A188E198EEA
:101D400066E370E0601B710B072E000C880B990B8B
:101D50000E949C1F6C837D838E839F83DF91CF9134
:101D60001F910F91FF90EF90DF90CF90BF90AF90B9
:101D70009F908F9008954091470250914802209182
:101D800045023091460242175307B4F49091E8009F
:101D90009570E1F39091E80092FD19C08093F100F5
:101DA000809147029091480201968F739927892B61
:101DB00019F48EEF8093E8008091470290914802D9
:101DC0000196909348028093470281E0089580E055
:101DD0000895DF92EF92FF920F931F93CF93DF93BB
:101DE000D82E8A017B01E40EF51EEB01CE15DF052E
:101DF00071F0D7FE03C0FE01849101C088810E946A
:101E0000BB0E21968111F2CF8FEF9FEF01C0C80169
:101E1000DF91CF911F910F91FF90EF90DF90089588
:101E2000615030F02091F100FC0120830196F8CF41
:101E3000289884E680934A020895CF92DF92EF9229
:101E4000FF920F931F93CF93DF936C017A018B0165
:101E5000C0E0D0E0CE15DF0589F0D8016D918D018D
:101E6000D601ED91FC910190F081E02DC60109951C
:101E7000892B11F47E0102C02196ECCFC701DF91BE
:101E8000CF911F910F91FF90EF90DF90CF90089529
:101E9000CF93DF931F92CDB7DEB76983DC01ED915D
:101EA000FC910280F381E02D41E050E0BE016F5FC4
:101EB0007F4F09950F90DF91CF91089583E0809334
:101EC000E9008091F200882319F08AE38093E8000A
:101ED0000895FC018485958597FD0BC09FB7F89404
:101EE00082E08093E9008091F2009FBF90E001962C
:101EF00008959FB7F89482E08093E9008091F20002
:101F00009FBF90E008950E94F5220F931F93CF93F7
:101F1000DF931F92CDB7DEB782E0898342E450E0C1
:101F200065EC7CE080E80E94E90E0E946115DC010E
:101F300012960D911C9113970115110569F0D801A6
:101F4000ED91FC910280F381E02DBE016F5F7F4F28
:101F5000C801099597FF07C089810F90DF91CF9144
:101F60001F910F910895F80100851185E5CF0E941A
:101F7000501590E00895CF93DF931F92CDB7DEB751
:101F8000FC018485958597FD05C02FEF3FEF3587D0
:101F900024870BC0CE0101960E942615019719F4E3
:101FA000898190E002C08FEF9FEF0F90DF91CF917A
:101FB00008950F931F93CF93DF931F92CDB7DEB792
:101FC0008C01FC018485958597FF0EC0CE0101969A
:101FD0000E942615019719F4298130E002C02FEFE5
:101FE0003FEFF80135872487F801848595850F90A8
:101FF000DF91CF911F910F9108950F931F93CF936E
:10200000DF93EC0188819981009729F02A813B8137
:102010002617370788F48B016F5F7F4F0E942B22B2
:10202000009761F0998388831B830A832C813D810B
:10203000232B11F4FC01108281E001C080E0DF91CC
:10204000CF911F910F910895CF93DF93EC01888179
:102050009981009711F00E94E61E198218821D8254
:102060001C821B821A82DF91CF910895EF92FF921A
:102070000F931F93CF93DF93EC017B018A01BA0189
:102080000E94FD0F811104C0CE010E94241007C0E0
:102090001D830C83B701888199810E940323CE019F
:1020A000DF91CF911F910F91FF90EF9008951F92B4
:1020B0000F920FB60F9211248F939F938091E1009E
:1020C0009091E100937F9093E10083FF0FC0109205
:1020D000E90091E09093EB001092EC0092E3909372
:1020E000ED0010924B0298E09093F00082FF20C028
:1020F00093E09093E9009091F200992319F09AE30C
:102100009093E80090914902992339F09091490207
:10211000915090934902992389F190914A02992311
:1021200039F090914A02915090934A02992341F1DB
:1021300084FF10C08091E2008E7E81608093E20077
:102140008091E1008F7E8093E10080912B028E7E52
:10215000806111C080FF16C08091E2008E7E806198
:102160008093E2008091E1008E7E8093E100809177
:102170002B028E7E816080932B0204C05D9ACDCFAE
:10218000289AD6CF9F918F910F900FBE0F901F90DE
:1021900018951F920F920FB60F921124CF92DF92D3
:1021A000EF92FF920F931F932F933F934F935F9361
:1021B0006F937F938F939F93AF93BF93EF93FF930F
:1021C000CF93DF93CDB7DEB76C97DEBFCDBF109254
:1021D000E9008091E80083FFEDC168E0CE014596FB
:1021E0000E94100F82EF8093E8008D8987FF05C061
:1021F0009091E80090FFFCCF03C09EEF9093E80021
:10220000982F907609F0C6C09E892F89188D91115C
:102210000CC0803829F480912C028093F10002C018
:102220001092F1001092F10048C1422F50E0512B62
:10223000913051F4811141C14130510509F03DC146
:1022400080912C028D7F0BC0933061F4811135C1D8
:102250004130510509F031C180912C028260809398
:102260002C022BC1953041F48091E80080FFFCCF17
:1022700020682093E30021C1963009F05FC0EB8C09
:10228000FC8C1092E9001092480210924702123022
:1022900091F510924602109245020E94850F99E036
:1022A000BE016F5F7F4FDB01E92F1D92EA95E9F7D1
:1022B00099831A8391E09E8390EA98879AEF998791
:1022C0002091470230914802275F3F4F3C832B8388
:1022D0008D831092E9001092480210924702F0920A
:1022E0004602E092450249E050E080E00E94E90E9B
:1022F0000E94850FE2C0F0924602E09245020E94E1
:102300006115DC011296ED90FC901397E114F10435
:1023100009F4C0C0D701ED91FC910480F581E02D56
:10232000BE016B5E7F4FC7010995009719F00CF055
:10233000C4C0C7C0F701E084F184E8CF973009F446
:10234000C0C0983021F481E08093F100B6C099308C
:1023500009F0B3C0837009F0B4C0E6E2F1E081E0B7
:1023600021E036E39081992361F08093E900209386
:10237000EB0091919093EC003093ED008F5F8730EC
:1023800089F78EE78093EA001092EA008F898093A4
:102390004B0293C08B8D9C8D1092E90010924802E5
:1023A000109247029093460280934502898D8111D5
:1023B00056C08E899D89913A59F4813209F081C0C5
:1023C00047E050E06CE071E080E00E94E90E75C0EB
:1023D000913209F076C0833289F4888D90E0982F8D
:1023E00088272F89822BA0E0B0E08093080190938A
:1023F0000901A0930A01B0930B015FC0803269F418
:102400008091E80082FFFCCF67E08CE091E00E94C1
:10241000100F8BEF8093E80006C0823209F04DC0A8
:102420008F898093130180912A02882319F0EEEF9F
:10243000FAE002C0E0E0F8E080910C0190910D011B
:10244000A0910E01B0910F01803B9440A105B10510
:1024500009F07BC08091130180FF93C076C00E9479
:102460006115DC0112960D911C9113970115110550
:1024700041F1D801ED91FC910190F081E02DBE0178
:102480006B5E7F4FC8010995811117C0F801008567
:102490001185ECCF113009F44EC0133091F48F89BF
:1024A000882309F445C0823081F440E860E189E284
:1024B0009DE00E94FF1B882321F08EEF8093E800AF
:1024C00079C081E28093EB0075C0813029F440E847
:1024D0006BE08DE19DE0EDCF833099F70E946115AF
:1024E000DC011296ED90FC9013978E010F5F1F4F49
:1024F0006801E114F10479F0D701ED91FC910680B7
:10250000F781E02DB801C7010995080F111DF701EA
:10251000E084F184EECFD8011C92F60101900020F6
:10252000E9F73197BF016C197D0940E0C601C1CFC1
:1025300067E07DE002C06BE07DE06115710509F2A6
:10254000FB01449150E080E840CF0FB6F894A89585
:1025500080916000886180936000109260000FBEDF
:10256000A895EE3F2AE0F20739F08091FE0A90919B
:10257000FF0A91838083A1CF1092FF0A1092FE0A76
:102580009CCFEE3F8AE0F80731F0808191819093F3
:10259000FF0A8093FE0A87E797E7918380839BE099
:1025A00088E10FB6F894A895809360000FBE9093D1
:1025B000600083CF6C960FB6F894DEBF0FBECDBF20
:1025C000DF91CF91FF91EF91BF91AF919F918F914B
:1025D0007F916F915F914F913F912F911F910F913B
:1025E000FF90EF90DF90CF900F900FBE0F901F9055
:1025F0001895DC01ED91FC910190F081E02D09949A
:102600003FB7F8948091410290914202A091430219
:10261000B091440226B5A89B05C02F3F19F0019642
:10262000A11DB11D3FBFBA2FA92F982F8827820F58
:10263000911DA11DB11DBC01CD0142E0660F771FA8
:10264000881F991F4A95D1F708958F929F92AF9254
:10265000BF92CF92DF92EF92FF926B017C010E94BA
:1026600000134B015C01C114D104E104F104F1F049
:102670000E940013DC01CB0188199909AA09BB0942
:10268000883E9340A105B10570F321E0C21AD1083C
:10269000E108F10888EE880E83E0981EA11CB11CA9
:1026A000C114D104E104F10419F7DDCFFF90EF90DC
:1026B000DF90CF90BF90AF909F908F9008958F92B2
:1026C0009F92AF92BF92CF92DF92EF92FF920F93C1
:1026D0001F93CF93DF935C016B017A01809113010B
:1026E000882309F45BC080914B02882309F456C00B
:1026F00080912B0280FF05C08091E0008260809372
:10270000E000E70110E00AEF83E0882E9AE3992EBB
:102710002097D9F10E94501581110AC0015009F487
:102720003DC061E070E080E090E00E942513F0CFB2
:10273000282F30E0C217D3070CF48C2F4FB7F89432
:102740008092E9009091E80095FF1DC0282F30E0AD
:10275000C21BD30BF601982F915020F081918093EA
:10276000F100FACFC20ED31E112319F09092E800A7
:1027700009C08091E80085FD06C09092E80011E054
:10278000209709F010E04FBFC3CF1111C3CF5D9860
:1027900084E6809349021E141F0444F081E090E017
:1027A000F5019383828380E090E001C0C701DF914F
:1027B000CF911F910F91FF90EF90DF90CF90BF903E
:1027C000AF909F908F9008951F920F920FB60F9227
:1027D00011242F933F938F939F93AF93BF93809137
:1027E0002E0290912F02A0913002B09131023091CF
:1027F000400223E0230F2D3720F40196A11DB11DC7
:1028000005C026E8230F0296A11DB11D20934002AA
:1028100080932E0290932F02A0933002B093310246
:102820008091410290914202A0914302B0914402F2
:102830000196A11DB11D8093410290934202A09385
:102840004302B0934402BF91AF919F918F913F910A
:102850002F910F900FBE0F901F9018951F920F92FF
:102860000FB60F9211242F933F934F935F936F9363
:102870007F938F939F93AF93BF93EF93FF93809139
:102880003C0290913D02A0913E02B0913F02892B03
:102890008A2B8B2B81F180913B0281110BC098B167
:1028A00080E4892788B980913A02882319F088B199
:1028B000805888B980913C0290913D02A0913E02DF
:1028C000B0913F02181619061A061B06B4F480913F
:1028D0003C0290913D02A0913E02B0913F020197CF
:1028E000A109B10980933C0290933D02A0933E025E
:1028F000B0933F0202C00E943109FF91EF91BF9156
:10290000AF919F918F917F916F915F914F913F9187
:102910002F910F900FBE0F901F9018958091360247
:10292000E0913402F0913502882349F0CF010296FC
:102930009093350280933402859194910895CF014C
:10294000029690933502809334028081918108959C
:1029500080914C028EBDEDE4F2E081910DB407FE52
:10296000FDCF8EBD86E0EC34F807B9F70DB407FE55
:10297000FDCF0895CF92DF92EF92FF920F931F93B6
:10298000CF93DF931F92CDB7DEB77C018B01040F8D
:10299000111D6B0177FF14C0C12CD12C11C0C616BC
:1029A000D706ACF480E8E816F10438F4422FB601FB
:1029B000C70129830E94800C29818FEFC81AD80A89
:1029C000B801013411055CF360E470E0E8CF0F90CA
:1029D000DF91CF911F910F91FF90EF90DF90CF90FB
:1029E0000895DF92EF92FF920F931F93CF93DF939F
:1029F000EC017B01D42E122F6034710520F4202FBE
:102A0000CE010E943D0CB701610F711D615071092B
:102A10006034710528F4202F4D2DCE010E943D0C0D
:102A2000202F412FB701CE010E94BA14CE018D0D87
:102A3000911D202F412FB7010197DF91CF911F9159
:102A40000F91FF90EF90DF900C94BA14FC018091ED
:102A50004B02811103C08FEF9FEF08959FB7F89449
:102A600082E08093E9002091F20030E01216130614
:102A700014F421E030E02115310559F0289884E65E
:102A800080934A028091F10080838091F200882334
:102A900019F09FBFC90108958BE68093E800F9CF34
:102AA0002FB7F89483E08093E9009091E800892F94
:102AB000807295FF04C09091F20080E4891B2FBFC3
:102AC00008958091B50681110DC082E08093B10612
:102AD00084E08093B2061092B4061092B30681E0AF
:102AE0008093B50681EB96E00895CF93DF93CDB741
:102AF000DEB7E4970FB6F894DEBF0FBECDBF789473
:102B000084B5826084BD84B5816084BD85B58260F2
:102B100085BD85B5816085BD80916E0081608093A3
:102B20006E0010928100809181008260809381000C
:102B3000809181008160809381008091800081601C
:102B400080938000809191008260809391008091B9
:102B500091008160809391008091900081608093CA
:102B600090008091C10084608093C1008091C10079
:102B700082608093C1008091C10081608093C10018
:102B80008091C30081608093C3008091C000826007
:102B90008093C0008091C20081608093C2008091C8
:102BA0007A00846080937A0080917A0082608093BA
:102BB0007A0080917A00816080937A0080917A0017
:102BC000806880937A0010924B0210922C0210922F
:102BD0002B028091D70081608093D70080EA809398
:102BE000D80089B5806189BD89B5826089BD09B485
:102BF00000FEFDCF61E070E080E090E00E942513D0
:102C00008091D8008F7C80618093D8008091E00013
:102C1000807F8093E0008091E1008E7E8093E100D0
:102C20008DE08093E200559A209AEEEFFFE78591C0
:102C300094918B3F9C4D19F481E080932A0281ECA2
:102C400080937C0085B1806F85B9249884B1866EAD
:102C500084B95E9A5F988AB1806D8AB9769A6E98C7
:102C600081B3806F81BB899880B38D7080BB80E514
:102C70008CBD81E08DBD85E090E00E940A0C5F9ADA
:102C800085E090E00E940A0C5E985C980CEA10E0E7
:102C9000BDE0FB2EF00EF80184910E94370C0F5F0F
:102CA0001F4FF012F8CF5C9A81E88093640081E0B6
:102CB0008093650000E014E080E00E94370C015032
:102CC0001109D1F70E940F0C87FF1FC05C9885EA9D
:102CD0000E94370C5C9A2E982F982D988091640052
:102CE0008062809364000E942C0CFDCF2D980E947E
:102CF0000F0C8478843871F00E940F0C8471843139
:102D000029F188EC90E00E940A0C0E940F0C82FDD1
:102D1000EDCF38C02D9A88EC90E00E940A0C2F98D5
:102D200082E090E00E94B9208F3F29F06FEF82E0AF
:102D300090E00E94C12084EF91E00E940A0C2F9A3B
:102D40000E940F0C84788438D9F3D6CF2D9A88EC62
:102D500090E00E940A0C2E9882E090E00E94B92038
:102D6000882329F060E082E090E00E94C12084EF97
:102D700091E00E940A0C2E9A0E940F0C84718431FB
:102D8000D9F3BFCF2D9A82E090E00E94B92088232A
:102D900031F03E9A3F9A81E080932D0204C0109258
:102DA0002D023E983F9882E390E00E940A0C0E9418
:102DB0000F0C8111F8CF809164008E7F80936400A6
:102DC00080917A00806480937A0080917A0086FDF9
:102DD000FCCF00917800109179000E94001320E050
:102DE00030E0980111270027600F711F821F931F89
:102DF000611571058105910511F00E94BC1D80913E
:102E00006400816080936400AE014F5F5F4F1A01E0
:102E10002FB7F89480912E0290912F02A09130024A
:102E2000B09131022FBF4091A1065091A20660914E
:102E3000A3067091A4060091A506002341F02091FD
:102E40009D06821B8093A6061092A5067DC484175A
:102E50009507A607B70738F4481B423008F474C436
:102E60000E942C0C71C411E01093A50680939D065E
:102E700090939E06A0939F06B093A00620919C0677
:102E8000820F911DA11DB11D8093A1069093A206F2
:102E9000A093A306B093A4068091980690919906FA
:102EA0000196909399068093980680919A06809354
:102EB0009B060E940F0C80939A06802FECE4F2E0B0
:102EC00081118FEF002481938193819381930394E7
:102ED000D1F71092AA061092A9061092A806109295
:102EE000A70660910301709104012091050130E073
:102EF00062177307C4F46F5F7F4F70930401609390
:102F000003018091020190E0EFE4F3E00491E0E539
:102F1000F3E0E490FAEFCF2E20E030E041E553E01B
:102F20000E94DF090FC4809198069091990666E986
:102F300070E00E941122892B21F0809100018823EA
:102F400031F081E08093000100E010E05CC030933C
:102F500004012093030180910101811133C080910C
:102F600071008D7F80937100109236028CE496E0A0
:102F7000909335028093340290933302809332020F
:102F800086E194E090934D0680934C0682E390E0B6
:102F900090934F0680934E068DE298E090935106F1
:102FA0008093500684E690E09093530680935206F7
:102FB00080E090E890935506809354060E94310972
:102FC000109301016091030170910401809102014D
:102FD00090E0E7ECF1E00491E8ECF1E0E490EAEF56
:102FE000CE2E20E030E049EC51E00E94DF096091F4
:102FF000070170E08091060120E049EB50E090E08D
:103000000E94C60B9FC321E04DE063E370E0C8015E
:103010000E94BA140F5F1F4F00381105A1F70E94DC
:10302000B71D24E630E040E050E00E94CF2062303F
:103030007105810591050CF0B3C086E0EEE1F1E089
:10304000DE011B9601900D928A95E1F7E0906006F3
:10305000F090610687010F5F1F4FE016F10608F040
:1030600098C020915E0630915F0620173107B0F5B9
:10307000C70109962817390788F5C0905C06D090DB
:103080005D0690935F0680935E062AE2BC01269F50
:10309000C001279F900D11240E94511E80935C0651
:1030A00090935D06A6019C0160E070E08AE26E15D7
:1030B0007F0589F02115310539F0FA01D901982FE2
:1030C00001900D929A95E1F76F5F7F4F465D5F4FDC
:1030D000265D3F4FECCFC6010E94E61E8091600640
:1030E000909161062AE2289FA001299F500D11248A
:1030F00020E030E0A0E1FA2EB8E1EB2E62E0D62E1F
:103100007AE2C72E8017910708F046C0A0915C06AE
:10311000B0915D06B901640F751FA60FB71F109718
:10312000A1F1812C912C60E1A62E63E4B62E898258
:103130009A82AB82BC821D821E821F821886F9860B
:10314000EA861F8A188E198E1A8E812C912CA12C3A
:103150007FE3B72E8B8E9C8EAD8EBE8E812C912CF4
:10316000E0ECAE2EEFE3BE2E8F8E98A2A9A2BAA2FB
:10317000DFA218A6F0E1AF2EB12CBAA6A9A6F101E4
:103180006C2D01900D926A95E1F70196265D3F4FF7
:10319000B9CF0E151F0520F4109361060093600649
:1031A00080918F06909190061CA61BA61EA61DA6B8
:1031B00018AA1FA64AE0B1010E94C51DF1010190A5
:1031C0000020E9F73197AF0142195309B101CE014F
:1031D0008B960E9436104FA558A920918D063091EC
:1031E0008E064217530708F042C01A8219821C82C9
:1031F0001B821E821D8241E050E068E272E0C10144
:103200000E9436108FA598A9EBA4FCA40D811E8105
:10321000E114F10409F4A0C20097A1F0080F191FEE
:10322000B801C1010E94FD0F882309F495C22981CC
:103230003A818D819E81B701820F931F0E940323E3
:103240001E830D8369817A816115710539F04D8185
:103250005E81CE018B960E94361004C0CE018B9603
:103260000E94241089819A810E94E61EB4CF69EFE2
:1032700062038001639F100D112403581F4F1A82AF
:1032800019821C821B821E821D826BA57CA5C10136
:103290006115710519F00E94361002C00E942410B9
:1032A000E12CF12C2D813E8189819A81E216F30671
:1032B000B0F4009729F0FC01EE0DFF1D208101C044
:1032C00020E020534BE157E063E070E0C8010E942A
:1032D000C60B095F1F4F2FEFE21AF20AE3CF0E94DD
:1032E000E61E8BA59CA50E94E61EE12CF12C3AE27D
:1032F000532EA0906006B0906106EA14FB0408F01B
:10330000F6C080905C0690905D065E9C60015F9CBC
:10331000D00C112484010C0D1D1DF801608570E096
:10332000719561957109072E000C880B990B0E940D
:103330009C1F9B01AC01F8016081718182819381A6
:103340000E940C2218160CF0A0C0C8010E943F0E6B
:10335000C8010E94590EF80180809180A280B3803C
:1033600064857585072E000C880B990B0E949C1FA5
:10337000F80124813581468157810E946A210E948B
:10338000D62169AB7AAB8BAB9CABF80166847784B2
:1033900062857385072E000C880B990B0E949C1F79
:1033A0009B01AC01C501B4010E946A210E94D62193
:1033B000F801718B608B49A95AA9538B428B648A9F
:1033C000758A268D378D40A151A1C501B4010E9497
:1033D0006921F801608371838283938300915C0685
:1033E00010915D060C0D1D1DF801648175818681AB
:1033F00097810E94D6214B015C01F80160817181A7
:10340000828193810E94D621DC01CB01F80127A1A2
:1034100049E556E0B4010E94C60B80915C0690918C
:103420005D068C0D9D1D0E94860DE0915C06F0915D
:103430005D06EC0DFD1D6091730670917406409160
:10344000750650917606A091780620893189828987
:1034500093891489B589E09177064B018E0E911CF2
:10346000281539050CF03FC0210F311D6217730775
:10347000D4F59A012A0F311D82179307A4F58B0FFB
:10348000911D481759077CF56BC1C6019595879525
:103490004DE35FEC849F9001859F300D949F300D2C
:1034A000112440E050E0C50101972817390788F43E
:1034B0002F5F3F4FDA01AC0DBD1DA80DB91DFD01F9
:1034C000BA96652D01900D926A95E1F7465D5F4FC2
:1034D000ECCF8A159B0520F49093610680936006DB
:1034E00051E0E51AF1086FEFE61AF60A02CF809173
:1034F0009B068C78B9F580919A068C7899F1609149
:103500006C0670E080E090E00E949C1F20916706AE
:10351000309168064091690650916A060E946A21BE
:1035200020E030E048E552E40E94951F81111AC066
:103530002091850630918606409187065091880635
:103540006091790670917A0680917B0690917C0655
:103550000E9469216093790670937A0680937B06B6
:1035600090937C060E940F0C85FF1FC0209181065E
:1035700030918206409183065091840660916306E3
:103580007091640680916506909166060E9469219B
:103590006B017C0120E030E0A9010E940C2218168A
:1035A0000CF045C084E090E02FC00E940F0C86FF15
:1035B00038C0209181063091820640918306509157
:1035C000840660916306709164068091650690910F
:1035D00066060E946A216B017C0160916B0670E0B7
:1035E00080E090E00E949C1F9B01AC01C701B601E6
:1035F0000E946A2120E030E040E053E40E94951FE1
:1036000087FF15C082E090E090938C0680938B0634
:10361000C0926306D0926406E0926506F092660658
:1036200006C083E090E090938C0680938B0683E63F
:1036300096E00E943F0E83E696E00E94590EC090ED
:103640006306D0906406E0906506F0906606809070
:10365000670690906806A0906906B0906A0660912F
:103660006F0670917006072E000C880B990B0E9454
:103670009C1F9B01AC01C501B4010E946A210E94FC
:10368000D6212B013C0100917106109172066091C8
:103690006D0670916E06072E000C880B990B0E9428
:1036A0009C1F9B01AC01C701B6010E946A210E94C8
:1036B000D6217093740660937306509276064092FA
:1036C000750600937706109378068091980690917E
:1036D00099066CE370E00E941122892BE1F420E04E
:1036E00030E040E05CE3C701B6010E94FB1F20E030
:1036F00030E040E850E40E94FB1F0E94D6216F5F3B
:103700007F4F80918F0690919006680F791F70937C
:10371000900660938F06C501B4010E94D6214B012B
:103720005C01C701B6010E94D621DC01CB012091CA
:103730008A0647ED54E0B4010E94C60B83E696E08A
:103740000E94860D0E94A81480E090E0892B09F465
:103750005FCB0E94000058CBC1010E94241072CDA3
:1037600080918F069091900688519C4F909390067F
:1037700080938F06B8CE0F931F93CF93DF938C0166
:1037800081E090E00E94B92080FF31C08AE090E0A3
:103790000E94B9209FEF980F9E3F48F522E330E04A
:1037A000D80157963C932E93569728E330E05996CC
:1037B0003C932E935897CBE0D0E0D801ED91FC914B
:1037C0000190F081E02D682FC8010995CE010E947B
:1037D000B9202196C131D10581F70E94A81488EE45
:1037E00093E0DF91CF911F910F910C940A0CDF9120
:1037F000CF911F910F91089504970C94BB1BCF920A
:10380000DF92EF92FF920F931F93CF93DF931F925C
:10381000CDB7DEB7182F062FE42E862F880F8E5FC8
:1038200099830E94BB0E83E00E94BB0EF12EC12E35
:103830009981D92E8C2D8F19801798F4F601E7FE07
:1038400002C0849101C080810E94BB0E182F80E0CD
:103850000E94BB0E8123FFEFCF1ADF0A8111EACF4E
:1038600001C081E00F90DF91CF911F910F91FF90E8
:10387000EF90DF90CF90089580915C0690915D0667
:103880000E94E61E8DEB96E00E94A8088BE397E06D
:103890000C94F608EF92FF921F93CF93DF93ABEE59
:1038A000B6E013961C921E92129748EE53E060E029
:1038B00070E014964D935D936D937C9317978EE50E
:1038C00091E011969C938E93CFEFDFEF1D96DC93E2
:1038D000CE931C97EBE3F7E081E2E82EF12CF08E1B
:1038E000E78A118E128E138E46E050E060E070E0A1
:1038F000448F558F668F778F10A211A212A213A248
:1039000020E224A316A215A211A68DE397E090A7AA
:1039100087A38EEF91E09183808388E092E0958B7E
:10392000848B168215821086178212861186148661
:10393000138616861586108A17868CED91E0938380
:103940008283B38BA28B10E1118BEDEBF6E0F48E4A
:10395000E38E158E168E178E40A351A362A373A318
:1039600014A215A216A217A220A712A611A615A688
:10397000128213821482158223EC36E034A723A727
:1039800026E831E03183208320E931E0318F208F38
:10399000128611861486138616861586108A178657
:1039A000128A118A148A138A97838683B78BA68B0F
:1039B00088E0858BB093B006A093AF0662EE77E007
:1039C0008AEF97E00E94EA1DE1E9F6E01382128295
:1039D000118612861387D087C783108A118A128AAC
:1039E000138A148A88E192E09183808386E292E0D0
:1039F00095838483178A168A118E108E81E0828FB8
:103A0000138E848F158E89EC96E090935B068093DD
:103A10005A0680E090E8909359068093580646989D
:103A20003E9A47983F9AC3E6D6E087E090E09BA78E
:103A30008AA71DA61CA680E090E0A0E2B1E48883DE
:103A40009983AA83BB831C821D821E821F821887D2
:103A5000198786E0ECE2F1E0ADE6B6E001900D9268
:103A60008A95E1F71E8A1F8A188E198E83E393E3E5
:103A7000A3EBBEE38A8F9B8FAC8FBD8F80E090E07D
:103A8000A0ECBFE38E8F9F8FA8A3B9A380E090E046
:103A9000A0EAB0E48AA39BA3ACA3BDA386E08EA357
:103AA0001FA283E090E099A788A7CCE5D6E088E044
:103AB00090E09B838A831D821C8280E591E00E94B6
:103AC000511E99838883DF91CF911F91FF90EF90D2
:103AD00008958F929F92AF92BF92CF92DF92EF9212
:103AE000FF92CF93DF93EC01688179818A819B817A
:103AF000611571058105910521F464E279ED8BE58D
:103B000097E02DE133EF41E050E00E94CF204901E2
:103B10005A019B01AC01A7EAB1E40E94EE206B01BF
:103B20007C01ACEEB4EFA50194010E94FC20DC0105
:103B3000CB018C0D9D1DAE1DBF1DB7FF03C00197AE
:103B4000A109B04888839983AA83BB83BC01CD01B6
:103B50009F77DF91CF91FF90EF90DF90CF90BF9054
:103B6000AF909F908F9008950E94691D089584E101
:103B700091E00E94691D08956093140170931501EE
:103B800080931601909317010895BB274A3031F4B2
:103B9000992322F4BDE2909581959F4F0C94D11DFD
:103BA000BB27FB015527AA27880F991FAA1FA41717
:103BB00010F0A41B83955051B9F7A05DAA3308F00B
:103BC000A95DA193009779F7B111B1931192CB013F
:103BD0000C94851F0F931F93CF93DF93009731F4BD
:103BE0006115710519F480E090E03AC08B01EC0199
:103BF0006EE070E081E090E00E94351EFC01892BB0
:103C000091F380E883830115110571F01387028712
:103C100081E883838091650790916607892B21F461
:103C2000F0936607E09365072097C9F0D187C087B6
:103C30008381826083838091670790916807892BD5
:103C400071F4F0936807E09367078091690790919A
:103C50006A07892B21F4F0936A07E0936907CF0183
:103C6000DF91CF911F910F9108950F931F93CF93E1
:103C7000DF93869F8001879F100D969F100D112462
:103C8000C8010E94511EEC01009729F0A80160E0D4
:103C900070E00E947E1FCE01DF91CF911F910F91A6
:103CA0000895CF93DF938230910510F482E090E085
:103CB000E0916D07F0916E0720E030E0C0E0D0E0C9
:103CC000309711F14081518148175907C0F04817CA
:103CD000590761F482819381209719F09B838A832D
:103CE0002BC090936E0780936D0726C02115310578
:103CF00019F04217530718F49A01BE01DF01EF01D2
:103D00000280F381E02DDCCF2115310509F1281B5C
:103D1000390B2430310590F412968D919C911397B4
:103D20006115710521F0FB019383828304C0909398
:103D30006E0780936D07FD01329644C0FD01E20FCE
:103D4000F31F81939193225031092D933C933AC0F4
:103D500020916B0730916C07232B41F420911A01BD
:103D600030911B0130936C0720936B072091180151
:103D7000309119012115310541F42DB73EB740911D
:103D80001C0150911D01241B350BE0916B07F09134
:103D90006C07E217F307A0F42E1B3F0B2817390717
:103DA00078F0AC014E5F5F4F2417350748F04E0F97
:103DB0005F1F50936C0740936B078193919302C0F0
:103DC000E0E0F0E0CF01DF91CF9108950F931F93D2
:103DD000CF93DF93009709F48CC0FC0132971382D4
:103DE000128200916D0710916E070115110581F483
:103DF00020813181820F931F20916B0730916C07D6
:103E00002817390779F5F0936C07E0936B0771C0B9
:103E1000D80140E050E0AE17BF0750F412962D9144
:103E20003C911397AD012115310509F1D901F3CF6B
:103E30009D01DA013383228360817181860F971F90
:103E40008217930769F4EC0128813981260F371F07
:103E50002E5F3F4F318320838A819B8193838283AE
:103E6000452B29F4F0936E07E0936D0742C013963B
:103E7000FC93EE931297ED01499159919E01240F05
:103E8000351FE217F30771F480819181840F951F2C
:103E9000029611969C938E938281938113969C93A4
:103EA0008E931297E0E0F0E0D80112968D919C91EC
:103EB0001397009719F0F8018C01F6CF8D919C9122
:103EC00098012E5F3F4F820F931F20916B07309117
:103ED0006C072817390769F4309729F410926E0798
:103EE00010926D0702C01382128210936C07009328
:103EF0006B07DF91CF911F910F910895DC0101C0F5
:103F00006D9341505040E0F70895DC01FC01672FAC
:103F100071917723E1F7329704C07C916D937083A0
:103F20006291AE17BF07C8F308950E94D71F08F427
:103F300081E00895E89409C097FB3EF49095809540
:103F4000709561957F4F8F4F9F4F9923A9F0F92F5F
:103F500096E9BB279395F695879577956795B795DD
:103F6000F111F8CFFAF4BB0F11F460FF1BC06F5FC3
:103F70007F4F8F4F9F4F16C0882311F096E911C0D5
:103F8000772321F09EE8872F762F05C0662371F0F6
:103F900096E8862F70E060E02AF09A95660F771F0A
:103FA000881FDAF7880F9695879597F90895990FE6
:103FB0000008550FAA0BE0E8FEEF16161706E807F3
:103FC000F907C0F012161306E407F50798F0621B14
:103FD000730B840B950B39F40A2661F0232B242BE9
:103FE000252B21F408950A2609F4A140A6958FEF08
:103FF000811D811D08950E940E200C947F200E9437
:10400000712038F00E94782020F0952311F00C9454
:1040100068200C946E2011240C94B3200E949020F0
:1040200070F3959FC1F3950F50E0551F629FF0010B
:10403000729FBB27F00DB11D639FAA27F00DB11D24
:10404000AA1F649F6627B00DA11D661F829F2227AD
:10405000B00DA11D621F739FB00DA11D621F839F34
:10406000A00D611D221F749F3327A00D611D231F0A
:10407000849F600D211D822F762F6A2F11249F5758
:1040800050409AF0F1F088234AF0EE0FFF1FBB1F5B
:10409000661F771F881F91505040A9F79E3F51051A
:1040A00080F00C9468200C94B3205F3FE4F3983EBA
:1040B000D4F3869577956795B795F795E7959F5FC4
:1040C000C1F7FE2B880F911D9695879597F9089556
:1040D00097F99F6780E870E060E008959FEF80ECBB
:1040E000089500240A94161617061806090608955E
:1040F00000240A9412161306140605060895092EC4
:104100000394000C11F4882352F0BB0F40F4BF2B32
:1041100011F460FF04C06F5F7F4F8F4F9F4F089572
:1041200057FD9058440F551F59F05F3F71F0479568
:10413000880F97FB991F61F09F3F79F0879508954D
:10414000121613061406551FF2CF4695F1DF08C06C
:10415000161617061806991FF1CF86957105610589
:1041600008940895E894BB2766277727CB0197F931
:104170000895F999FECF92BD81BDF89A992780B52F
:104180000895262FF999FECF1FBA92BD81BD20BD9B
:104190000FB6F894FA9AF99A0FBE01960895052E73
:1041A00097FB1EF400940E94E62057FD07D00E9462
:1041B000382107FC03D04EF40C94E620509540952E
:1041C000309521953F4F4F4F5F4F089590958095C3
:1041D000709561957F4F8F4F9F4F08950E945A2190
:1041E000A59F900DB49F900DA49F800D911D11244B
:1041F0000895B7FF0C94EE200E94EE20821B930BD3
:1042000008952F923F924F925F926F927F928F927A
:104210009F92AF92BF92CF92DF92EF92FF920F9355
:104220001F93CF93DF93CDB7DEB7CA1BDB0B0FB65F
:10423000F894DEBF0FBECDBF09942A88398848881C
:104240005F846E847D848C849B84AA84B984C884B2
:10425000DF80EE80FD800C811B81AA81B981CE0FA9
:10426000D11D0FB6F894DEBF0FBECDBFED0108958E
:10427000A1E21A2EAA1BBB1BFD010DC0AA1FBB1F6A
:10428000EE1FFF1FA217B307E407F50720F0A21BDC
:10429000B30BE40BF50B661F771F881F991F1A9449
:1042A00069F760957095809590959B01AC01BD0173
:1042B000CF010895A29FB001B39FC001A39F700DCD
:1042C000811D1124911DB29F700D811D1124911D1E
:1042D00008955058BB27AA270E9481210C947F2063
:1042E0000E94712038F00E94782020F039F49F3F1E
:1042F00019F426F40C946E200EF4E095E7FB0C9470
:104300006820E92F0E94902058F3BA1762077307BC
:104310008407950720F079F4A6F50C94B2200EF4EA
:10432000E0950B2EBA2FA02D0B01B90190010C01C5
:10433000CA01A0011124FF27591B99F0593F50F4DD
:10434000503E68F11A16F040A22F232F342F442735
:10435000585FF3CF469537952795A795F04053952D
:10436000C9F77EF41F16BA0B620B730B840BBAF0FD
:104370009150A1F0FF0FBB1F661F771F881FC2F768
:104380000EC0BA0F621F731F841F48F4879577957C
:104390006795B795F7959E3F08F0B0CF9395880F36
:1043A00008F09927EE0F9795879508950E94DD21D3
:1043B0006894B1110C94B32008950E94982088F05D
:1043C0009F5798F0B92F9927B751B0F0E1F0660FD9
:1043D000771F881F991F1AF0BA95C9F714C0B1301A
:1043E00091F00E94B220B1E008950C94B220672FA2
:1043F000782F8827B85F39F0B93FCCF38695779549
:104400006795B395D9F73EF4909580957095619531
:104410007F4F8F4F9F4F08950E94D71F08F48FEF53
:104420000895AA1BBB1B51E107C0AA1FBB1FA617FB
:10443000B70710F0A61BB70B881F991F5A95A9F74D
:1044400080959095BC01CD010895EE0FFF1F05905A
:10445000F491E02D0994A0E0B0E0E1E3F2E20C94E5
:104460000521EC01009721F4CB010E94511EB8C038
:10447000FC01E60FF71F9C0122503109E217F307F8
:1044800008F4ACC0D9010D911C91119706171707BC
:10449000B0F00530110508F49FC0C80104978617D5
:1044A000970708F499C002501109061B170B0193D6
:1044B00011936D937C93CF010E94E61E8DC05B012A
:1044C000A01AB10A4C01800E911EA0916D07B09107
:1044D0006E0740E050E0E12CF12C109709F44AC03F
:1044E000A815B905D1F56D907C901197630182E014
:1044F000C80ED11CCA14DB0480F1A3014A195B0960
:104500006A0182E0C80ED11C1296BC9012971396D5
:10451000AC91B5E0CB16D10440F0B282A3835183B5
:104520004083D9016D937C930AC00E5F1F4FC30176
:10453000800F911FF90191838083EB2DFA2FE114F5
:10454000F10431F0D7011396FC93EE93129744C017
:10455000F0936E07E0936D073FC08D919C9111978A
:104560004817590708F4AC017D0112960D90BC91D3
:10457000A02DB3CF80916B0790916C07881599059A
:10458000E1F446175707C8F480911801909119017A
:10459000009741F48DB79EB740911C0150911D01C9
:1045A000841B950BE817F907C8F4F0936C07E093A8
:1045B0006B07F901718360830FC0CB010E94511E0C
:1045C0007C01009759F0A801BE010E94FA22CE0199
:1045D0000E94E61EC70104C0CE0102C080E090E048
:1045E000CDB7DEB7EEE00C94212181E090E0F894A5
:1045F0000C940A23FB01DC0102C001900D92415092
:104600005040D8F70895FB01DC0101900D92002085
:10461000E1F7089516E0CEE9D6E004C0FE010E945D
:0E46200025222196CF39D107C9F7F894FFCF94
:10462E0000001DD2FF051E2EFFFFFFFF00E1000060
:10463E00000000000100000000006F078000040071
:10464E00000008183600C180810000000400080038
:10465E00080818000000000000000000E8FFE8FF56
:10466E000000000000001400000000000000000028
:10467E00ECFFECFF00000000000000000000480FFF
:10468E005F13B70F5E0F690FBB0FD90F0600000047
:10469E000000D308D508FAFFFAFF0000D408D708A7
:1046AE00180000000000A808BF08E8FFE8FF00009F
:1046BE00B508C908860138014201900100000000CA
:1046CE00830D9308E107DE07DB07D807D5074C07F4
:1046DE00480745072F074F07D306D10602000000F3
:1046EE00000021092309FEFFFEFF00002209250913
:1046FE0000000000850D2F0900000000840DE10868
:10470E00E107DE07DB07D807D507C90783076A0766
:10471E0051074F0740081F08140000000000F6085C
:10472E000D09ECFFECFF000003091709FE014C0117
:10473E005601080200000000980C1D0FCE06CD0693
:0A474E00BB1BFCFF0000FC1B300049
:00000001FF
