:100000000C94DD050C9405060C9405060C9405066D
:100010000C9405060C9405060C9405060C94050634
:100020000C9405060C9405060C945E0A0C94D00AF8
:100030000C9405060C9405060C9405060C94050614
:100040000C9405060C9405060C9405060C94050604
:100050000C9405060C9405060C9405060C94080EE9
:100060000C9405060C9405060C9405060C940506E4
:100070000C9405060C9405060C9405060C940506D4
:100080000C94000F0C9405060C9405060C940506C0
:100090000C9405060C9405060C9405060C940506B4
:1000A0000C9405060C9405060C940506D5F08D14E9
:1000B000A1C881CFD9F1AF2000430D00F800FCF8B2
:1000C000FEFCFF0CFF0CFF1CFF18FE00FCF8FEFC02
:1000D000FF0CFF0CFFFCFFF8FE00FEFCFFFCFF78AE
:1000E000FEF0FC78FEFCFFFCFF00FEFCFFFCFFCCFA
:1000F000FFCCFFFCFF78FE00FE3CFF7CFFE0FEE053
:10010000FE7CFF3CFF00FEF8FEFCFF0CFF0CFF1C1A
:10011000FF18FE00FCF8FEFCFF0CFF0CFFFCFFF8D4
:10012000FE00FEFCFFFCFFCCFFCCFFFCFF78FE00D6
:10013000FEFCFFFCFF6CFF6CFF0CFF0CFF001E00C1
:100140000C00030007030F071F061F061F071F03EE
:100150000F0007030F071F061F061F071F030F00CF
:100160000F071F071F000F0007000F071F071F00C3
:100170000F071F071F000F0007000300010000000A
:1001800007000F071F071F000F00070007030F07D7
:100190001F061F061F071F030F0007030F071F0679
:1001A0001F061F071F030F000F071F071F000F0069
:1001B0000F071F071F000F071F071F061F061F0639
:1001C0001F061F000F0006412E0000000000000067
:1001D000000000000000C0E0F0F8FCFCFEFE04009F
:1001E000000000000000000080808080808080800F
:1001F000808080800002071FFFFEFEFCFCF8F0E01C
:10020000800000000000000000000000000000006E
:100210000000000000001E7FFFFFFFFFFFFFFFFF49
:10022000FEFCFC06060303030301010101010101B9
:10023000010101010103030307070F1F3F7FFFFFB8
:100240003F070000000000000000000000808080E8
:10025000808080C0C0C0C0E0F0FD8F0307070707A3
:10026000070301000080C0E0E0F0F0F0F0F0F06083
:1002700000C0E0E0F0F0F0F0F0E0D83C9CDCDC986E
:10028000333F7FFFDFDF6F6F371B0E0402070D1B4D
:100290003337676F6FCFCFCFCFDFDF1F1E00000078
:1002A0000000000000010D070301010130180C0CD3
:1002B0000C1800030F1F7FFF9F9F0F0F0FCD3303FD
:1002C00001000000FFFF000000000000000000002F
:1002D0000000000000000000000000030F1C306060
:1002E000C0800000000000000000000000000000CE
:1002F00000000000003830200020202111D1D0E87B
:10030000C7E2B01C0F030000000000000000000066
:1003100000000000000000000000000000000000DD
:10032000000001030306060C0C18181818303030B2
:100330003030303018181818180C0C0C0606030151
:10034000030703000000000000000000000000415F
:100350002E00000000000000000000000000C0E0CF
:10036000F0F8FCFCFEFE04000000000000000000AD
:100370008080808080808080808080800002071F55
:10038000FFFEFEFCFCF8F0E0800000000000000032
:1003900000000000000000000000000000001E7FC0
:1003A000FFFFFFFFFFFFFFFFFEFCFC06060303034A
:1003B0000301010101010101010101010103030325
:1003C00007070F1F3F7FFFFF3F07000000000000EF
:1003D0000000000000808080808080C0C0C0C0E03D
:1003E000F0FD8F0307070707070301000080C0E047
:1003F000E0F0F0F0F0F0F06000C0E0E0F0F0F0F0DD
:10040000F0E0D83C9CDCDC98333F7FFFDFDF6F6F90
:10041000371B0E0402070D1B3337676F6FCFCFCF2B
:10042000CFDFDF1F1E0000000000000000010D07ED
:1004300003010101183C7E7E7E3C18030F1F7FFFE5
:100440009F9F0F0F0FCD330301000000FFFF00003F
:10045000000000000000000000000000000000009C
:10046000000000030F1C3060C0800000000000008E
:1004700000000000000000000000000000383020F4
:100480000020202111D1D0E8C7E2B01C0F030000EA
:10049000000000000000000000000000000000005C
:1004A0000000000000000000000001030306060C2D
:1004B0000C18181818303030303030301818181820
:1004C000180C0C0C060603010307030000000000D3
:1004D000000000000000001010000000C0C0C0C0FC
:1004E000C0C0C0C0C0C0000000000000FFFFFFFF90
:1004F000FFFFFFFFFFFF00000000000000E0E0E062
:10050000C0C0C0C080808000000000383F3F7F7FB7
:100510007F7FFFFFFF1F0300000000000000C0E01E
:10052000F0E0C08080000000000000040E1F1F3FAC
:100530007FFF7F3F0F070200000000000080C0E047
:10054000F0F0E0C080000000000000060F1F3F7FB9
:10055000FFFF7F3F1F0F060000000000008080C0EB
:10056000E0F0E0C00000000000000002070F3F7F45
:10057000FF7F3F1F1F0E0400000000808080C0C06E
:10058000C0C0E0E0E0000000000000031FFFFFFF2C
:100590007F7F7F7F3F3F380000080800FF7EFF42DB
:1005A000FF42E742FF7EFF7EFF00FF00E742E74297
:1005B000FF7EFF7EFF40FF40E000E000FF7AFF5A31
:1005C000FF5AFF5AFF5EFF5EFF00FF00FF5AFF5A0F
:1005D000FF5AFF5AFF7EFF7EFF00FF003F1E3F18BD
:1005E0003F183C18FF7EFF7EFF00FF00FF5EFF5AB2
:1005F000FF5AFF5AFF7AFF7AFF00FF00FF7EFF5A83
:10060000FF5AFF5AFF7AFF7AFF00FF000702070236
:1006100007020702FF7EFF7EFF00FF00FF7EFF5AFA
:10062000FF5AFF5AFF7EFF7EFF00FF003F1E3F1A6A
:100630003F1A3F1AFF7EFF7EFF00FF080B000202F9
:10064000020100090400000102020000052400105C
:100650000105240101010424020605240600010706
:1006600005810310004009040100020A0000000790
:100670000502024000000705830240000004030950
:100680000412010002EF0201404123368000010103
:1006900002030141726475696E6F204C4C43004146
:1006A000726475696E6F204C656F6E6172646F0065
:1006B00000000000003E5B4F5B3E3E6B4F6B3E1CFC
:1006C0003E7C3E1C183C7E3C181C577D571C1C5E13
:1006D0007F5E1C00183C1800FFE7C3E7FF001824EA
:1006E0001800FFE7DBE7FF30483A060E2629792994
:1006F00026407F050507407F05253F5A3CE73C5AC9
:100700007F3E1C1C08081C1C3E7F14227F22145FA5
:100710005F005F5F06097F017F006689956A606000
:1007200060606094A2FFA29408047E040810207EFA
:10073000201008082A1C08081C2A08081E1010107F
:10074000100C1E0C1E0C30383E3830060E3E0E06C5
:10075000000000000000005F000000070007001418
:100760007F147F14242A7F2A1223130864623649D7
:100770005620500008070300001C224100004122BF
:100780001C002A1C7F1C2A08083E080800807030C4
:100790000008080808080000606000201008040233
:1007A0003E5149453E00427F400072494949462139
:1007B00041494D331814127F1027454545393C4AAD
:1007C00049493141211109073649494936464949C4
:1007D000291E00001400000040340000000814220C
:1007E000411414141414004122140802015909067A
:1007F0003E415D594E7C1211127C7F494949363E7B
:10080000414141227F4141413E7F494949417F0960
:100810000909013E414151737F0808087F00417F6B
:1008200041002040413F017F081422417F40404069
:10083000407F021C027F7F0408107F3E4141413E01
:100840007F090909063E4151215E7F091929462683
:100850004949493203017F01033F4040403F1F2087
:1008600040201F3F4038403F63140814630304785E
:1008700004036159494D43007F414141020408107E
:1008800020004141417F04020102044040404040B9
:10089000000307080020545478407F284444383827
:1008A00044444428384444287F3854545418000899
:1008B0007E090218A4A49C787F0804047800447D73
:1008C00040002040403D007F1028440000417F4010
:1008D000007C047804787C08040478384444443864
:1008E000FC1824241818242418FC7C080404084844
:1008F0005454542404043F44243C4040207C1C2095
:1009000040201C3C4030403C44281028444C9090EF
:10091000907C4464544C4400083641000000770049
:1009200000004136080002010204023C2623263C56
:100930001EA1A161123A4040207A385454555921E1
:1009400055557941215454784121555478402054CB
:100950005579400C1E527212395555555939545417
:10096000545939555454580000457C410002457D86
:10097000420001457C40F0292429F0F0282528F088
:100980007C545545002054547C547C0A097F4932DC
:10099000494949323248484832324A4848303A4157
:1009A00041217A3A42402078009DA0A07D394444FC
:1009B00044393D4040403D3C24FF2424487E494387
:1009C000662B2FFC2F2BFF0929F620C0887E0903F8
:1009D00020545479410000447D413048484A32381F
:1009E0004040227A007A0A0A727D0D19317D26294B
:1009F000292F28262929292630484D402038080843
:100A0000080808080808382F10C8ACBA2F10283476
:100A1000FA00007B000008142A142222142A140869
:100A20009500220095AA005500AAAA55AA55AA0029
:100A30000000FF00101010FF00141414FF0010102D
:100A4000FF00FF1010F010F0141414FC001414F741
:100A500000FF0000FF00FF1414F404FC141417102E
:100A60001F10101F101F1414141F00101010F0007E
:100A70000000001F101010101F10101010F01000B8
:100A80000000FF101010101010101010FF100000C8
:100A900000FF140000FF00FF00001F10170000FC03
:100AA00004F414141710171414F404F40000FF00D5
:100AB000F714141414141414F700F714141417145E
:100AC00010101F101F141414F4141010F010F00064
:100AD000001F101F0000001F14000000FC14000085
:100AE000F010F01010FF10FF141414FF1410101069
:100AF0001F00000000F010FFFFFFFFFFF0F0F0F01C
:100B0000F0FFFFFF0000000000FFFF0F0F0F0F0FAF
:100B100038444438447C2A2A3E147E0202060602E7
:100B20007E027E0263554941633844443C04407E62
:100B3000201E2006027E020299A5E7A5991C2A49DB
:100B40002A1C4C7201724C304A4D4D303048784866
:100B500030BC625A463D3E494949007E0101017E52
:100B60002A2A2A2A2A44445F444440514A444040A5
:100B7000444A51400000FF0103E080FF00000808E4
:100B80006B6B083612362436060F090F0600001864
:100B9000180000001010003040FF0101001F01018B
:100BA0001E00191D1712003C3C3C3C0000000000D8
:100BB0000102040810204080251511241FBECFEF2C
:100BC000DAE0DEBFCDBF11E0A0E0B1E0EEE0F4E39B
:100BD00002C005900D92AC36B107D9F726E0ACE61D
:100BE000B1E001C01D92AC31B207E1F715E0CDEDE7
:100BF000D5E004C02197FE010E94F317CC3DD10738
:100C0000C9F70E9496100C94051A0C940000FC0180
:100C100080917901811103C08FEF9FEF08959FB7F5
:100C2000F89482E08093E9002091F20030E01216FF
:100C3000130614F421E030E02115310559F028980D
:100C400084E6809378018091F10080838091F200A6
:100C5000882319F09FBFC90108958BE68093E800AF
:100C6000F9CF2FB7F89483E08093E9009091E800E2
:100C7000892F807295FF04C09091F20080E4891B57
:100C80002FBF0895CF93DF931F92CDB7DEB769834F
:100C9000DC01ED91FC910280F381E02D41E050E018
:100CA000BE016F5F7F4F09950F90DF91CF9108953F
:100CB00083E08093E9008091F200882319F08AE3B1
:100CC0008093E80008950E94310690E00895CF9344
:100CD000DF931F92CDB7DEB7FC018485958597FD24
:100CE00005C02FEF3FEF358724870BC0CE0101965B
:100CF0000E940706019719F4898190E002C08FEFE6
:100D00009FEF0F90DF91CF9108950F931F93CF9393
:100D1000DF931F92CDB7DEB78C01FC0184859585EA
:100D200097FF0EC0CE0101960E940706019719F4A5
:100D3000298130E002C02FEF3FEFF801358724878B
:100D4000F801848595850F90DF91CF911F910F91C8
:100D500008958F929F92AF92BF92CF92DF92EF92BF
:100D6000FF920F931F93CF93DF935C016B017A0186
:100D700080913201882309F45BC080917901882336
:100D800009F456C08091770180FF05C08091E00092
:100D900082608093E000E70110E00AEF83E0882E94
:100DA0009AE3992E2097D9F10E94310681110AC049
:100DB000015009F43DC061E070E080E090E00E94E5
:100DC000CE0DF0CF282F30E0C217D3070CF48C2FB4
:100DD0004FB7F8948092E9009091E80095FF1DC00C
:100DE000282F30E0C21BD30BF601982F915020F032
:100DF00081918093F100FACFC20ED31E112319F016
:100E00009092E80009C08091E80085FD06C09092AC
:100E1000E80011E0209709F010E04FBFC3CF111197
:100E2000C3CF5D9884E6809376011E141F0444F0BE
:100E300081E090E0F5019383828380E090E001C03F
:100E4000C701DF91CF911F910F91FF90EF90DF903D
:100E5000CF90BF90AF909F908F9008954F925F92E8
:100E60006F927F928F929F92AF92BF92CF92DF92BA
:100E7000EF92FF920F931F93CF93DF9300D000D098
:100E8000CDB7DEB7DC014115510509F4F1C1FA0116
:100E900014913196F4914E5F5F4FE12EF12C222395
:100EA00009F18F2F869586958695C82ED12C81E0E5
:100EB00090E03F2F377011F480E090E08C0D9D1D85
:100EC000E89E6001E99ED00CF89ED00C11240330FE
:100ED00011F4CC0CDD1C2C9DC0012D9D900D112416
:100EE000480F591F0F3F09F402E0CD018E0D9F1DE1
:100EF000181619060CF0BCC1A038B1050CF0B8C129
:100F00009B012F0F311D121613060CF0B1C1603476
:100F100071050CF0ADC14115510509F4A9C19B0142
:100F200077FF04C022273327261B370B322F377059
:100F30006B0177FF03C027E0C20ED11C23E0D594DC
:100F4000C7942A95E1F72C2D77FF07C0332329F0AA
:100F50002FEF2C0D68E0631B362FB7FF05C0CC24A4
:100F6000DD24CA1ADB0A02C0C12CD12C80389105BD
:100F700024F080E8982E9A1A01C0912E9C18622FB6
:100F8000022E000C770B2F3F1CF4B62EB09401C03C
:100F9000B12C91E08F2F877009F490E0F695F695CB
:100FA000F6959F0F690F711D6930710514F098E077
:100FB000921B792F7B192B0DCD0160E82603800D44
:100FC000911D11248C0D9D1DD601B19EA00DB11D4A
:100FD00011244A0F5B1FE1E0F0E06F01032E02C015
:100FE000CC0CDD1C0A94E2F7033009F4FDC0A0F438
:100FF000013009F4AFC0023009F03AC16FEF6C9DC7
:1010000080016D9D100D1124009510951C830B839C
:101010007C80672E620E28C00A3F31F00B3F09F03A
:1010200027C1B72EB20E82C0B72EB20E4DC0FA0144
:10103000E60FF71FE491EC9D5001ED9DB00C1124DB
:10104000BA82A98227FD04C0EC91E023AE2AAC92BB
:10105000311113C06F5F7F4F1196691540F32F5FF9
:101060004E0D5F1D80589F4F261509F401C1DC010C
:10107000A658BE4F60E070E0F0CF27305CF7FD016E
:10108000E058FF4FB080B720AA80BA28B082E2CFE4
:10109000FA01E60FF71FE491EC9D8001ED9D100D24
:1010A00011241A83098327FD03C0EC910E2B0C93A6
:1010B000311113C06F5F7F4F1196691548F32F5F91
:1010C0004E0D5F1D80589F4F2B1509F4D1C0DC01D8
:1010D000A658BE4F60E070E0F0CF27305CF78D017E
:1010E00000581F4FF801A080FA81AF2AF801A082B2
:1010F000E1CFFA01E00FF11FE491EC9DB001ED9D0D
:10110000700D11247A83698327FD04C060957C915A
:1011100067236C93311113C00F5F1F4F1196091590
:1011200040F32F5F4E0D5F1D80589F4F2B1509F424
:101130009FC0DC01A658BE4F00E010E0F0CF273082
:101140005CF7FD01E058FF4F6A816095708167236D
:101150006083E2CF772E720EBD01641B750B2715DD
:1011600009F486C0FC01E658FE4F5F0100E010E084
:101170000915A0F5F801E60FF71FE40FF51FE4913C
:10118000EC9DD001ED9DB00D1124A095B095BC83D0
:10119000AB83FA01E00FF11FE491EC9D2001ED9D7E
:1011A000500C11245A82498227FD05C0F501B081F7
:1011B000AB234A2A4082332359F027304CF4F501FF
:1011C000E058FF4FB081AC81AB23BA81AB2BA08339
:1011D0000F5F1F4FFFEFAF1ABF0ACACF2F5F4E0D31
:1011E0005F1D80589F4FBBCF692C712CFA01EA0F0D
:1011F000FB1FDC01A658BE4F8C0106501E4F80E835
:1012000090E05C01A618B708E618F708EE0CFF1C82
:10121000972F792C872ECF93DF93E8016591459125
:10122000332359F06C9DB0014C9DA00127302CF464
:10123000D8805095D522D72AD99222233AF0DC9033
:101240004095D422D62ADD920C94270911969A94BF
:1012500029F79A9551F0972C23951124EE0DF11D45
:10126000AA0DB11DCA0DD11DD9CFDF91CF91112487
:101270000F900F900F900F90DF91CF911F910F91D2
:10128000FF90EF90DF90CF90BF90AF909F908F90A6
:101290007F906F905F904F90089580917A018EBDFE
:1012A000EBE7F1E081910DB407FEFDCF8EBD85E047
:1012B000EA37F807B9F70DB407FEFDCF089580911E
:1012C000AC0581110DC082E08093A80584E0809375
:1012D000A9051092AB051092AA0581E08093AC0598
:1012E00088EA95E00895FC018485958597FD0BC0FB
:1012F0009FB7F89482E08093E9008091F2009FBF4D
:1013000090E0019608959FB7F89482E08093E900F9
:101310008091F2009FBF90E008954091080650919F
:101320000906209106063091070642175307B4F4C8
:101330009091E8009570E1F39091E80092FD19C05A
:101340008093F100809108069091090601968F73B1
:101350009927892B19F48EEF8093E8008091080675
:10136000909109060196909309068093080681E002
:10137000089580E00895CF92DF92EF92FF920F934D
:101380001F93CF93DF931F92CDB7DEB7182F062F91
:10139000E42E862F880F8E5F99830E948D0983E04B
:1013A0000E948D09F12EC12E9981D92E8C2D8F1975
:1013B000801798F4F601E7FE02C0849101C0808195
:1013C0000E948D09182F80E00E948D098123FFEF74
:1013D000CF1ADF0A8111EACF01C081E00F90DF91BF
:1013E000CF911F910F91FF90EF90DF90CF900895D4
:1013F000DF92EF92FF920F931F93CF93DF93D82E3C
:101400008A017B01E40EF51EEB01CE15DF0571F0BC
:10141000D7FE03C0FE01849101C088810E948D091E
:1014200021968111F2CF8FEF9FEF01C0C801DF91AC
:10143000CF911F910F91FF90EF90DF900895615031
:1014400030F02091F100FC0120830196F8CF28981C
:1014500084E68093780108950F931F93CF93DF93D1
:101460001F92CDB7DEB782E0898342E450E06BE3A0
:1014700076E080E80E94F8090E945F09DC0112967C
:101480000D911C9113970115110569F0D801ED918B
:10149000FC910280F381E02DBE016F5F7F4FC80198
:1014A000099597FF07C089810F90DF91CF911F9118
:1014B0000F910895F80100851185E5CF1F920F92D5
:1014C0000FB60F9211248F939F938091E10090911A
:1014D000E100937F9093E10083FF0FC01092E90039
:1014E00091E09093EB001092EC0092E39093ED006A
:1014F0001092790198E09093F00082FF20C093E071
:101500009093E9009091F200992319F09AE3909357
:10151000E80090917601992339F0909176019150ED
:1015200090937601992389F190917801992339F06C
:1015300090917801915090937801992341F184FF23
:1015400010C08091E2008E7E81608093E2008091E5
:10155000E1008F7E8093E100809177018E7E806133
:1015600011C080FF16C08091E2008E7E8061809362
:10157000E2008091E1008E7E8093E100809177010E
:101580008E7E81608093770104C05D9ACDCF289ACA
:10159000D6CF9F918F910F900FBE0F901F901895EF
:1015A0001F920F920FB60F921124CF92DF92EF92FB
:1015B000FF920F931F932F933F934F935F936F93DC
:1015C0007F938F939F93AF93BF93EF93FF93CF93AB
:1015D000DF93CDB7DEB76C97DEBFCDBF1092E900C9
:1015E0008091E80083FFEDC168E0CE0145960E943E
:1015F0001F0A82EF8093E8008D8987FF05C09091D4
:10160000E80090FFFCCF03C09EEF9093E800982F76
:10161000907609F0C6C09E892F89188D91110CC053
:10162000803829F4809105068093F10002C0109261
:10163000F1001092F10048C1422F50E0512B91303F
:1016400051F4811141C14130510509F03DC18091F2
:1016500005068D7F0BC0933061F4811135C1413097
:10166000510509F031C1809105068260809305061D
:101670002BC1953041F48091E80080FFFCCF2068B9
:101680002093E30021C1963009F05FC0EB8CFC8C05
:101690001092E9001092090610920806123091F596
:1016A00010920706109206060E942C0A99E0BE01CD
:1016B0006F5F7F4FDB01E92F1D92EA95E9F7998370
:1016C0001A8391E09E8390EA98879AEF99872091F8
:1016D000080630910906275F3F4F3C832B838D839B
:1016E0001092E9001092090610920806F09207067F
:1016F000E092060649E050E080E00E94F8090E946E
:101700002C0AE2C0F0920706E09206060E945F09EA
:10171000DC011296ED90FC901397E114F10409F4AA
:10172000C0C0D701ED91FC910480F581E02DBE0190
:101730006B5E7F4FC7010995009719F00CF0C4C08C
:10174000C7C0F701E084F184E8CF973009F4C0C046
:10175000983021F481E08093F100B6C0993009F00F
:10176000B3C0837009F0B4C0E4E6F1E081E021E0A9
:1017700036E39081992361F08093E9002093EB0098
:1017800091919093EC003093ED008F5F873089F753
:101790008EE78093EA001092EA008F8980937901A6
:1017A00093C08B8D9C8D1092E900109209061092C7
:1017B00008069093070680930606898D811156C00E
:1017C0008E899D89913A59F4813209F081C047E0B0
:1017D00050E06BE271E080E00E94F80975C0913240
:1017E00009F076C0833289F4888D90E0982F88279D
:1017F0002F89822BA0E0B0E08093330190933401D5
:10180000A0933501B09336015FC0803269F48091B6
:10181000E80082FFFCCF67E08BE291E00E941F0AA4
:101820008BEF8093E80006C0823209F04DC08F89AB
:101830008093320180910406882319F0EEEFFAE0DC
:1018400002C0E0E0F8E080912B0190912C01A09182
:101850002D01B0912E01803B9440A105B10509F006
:101860007BC08091320180FF93C076C00E945F09E7
:10187000DC0112960D911C9113970115110541F190
:10188000D801ED91FC910190F081E02DBE016B5EDD
:101890007F4FC8010995811117C0F8010085118596
:1018A000ECCF113009F44EC0133091F48F898823A6
:1018B00009F445C0823081F440E860E18FE996E0A8
:1018C0000E94BB09882321F08EEF8093E80079C045
:1018D00081E28093EB0075C0813029F440E86BE031
:1018E00083E996E0EDCF833099F70E945F09DC0130
:1018F0001296ED90FC9013978E010F5F1F4F6801B9
:10190000E114F10479F0D701ED91FC910680F781A3
:10191000E02DB801C7010995080F111DF701E084FA
:10192000F184EECFD8011C92F60101900020E9F776
:101930003197BF016C197D0940E0C601C1CF6DE749
:1019400076E002C061E876E06115710509F2FB01FD
:10195000449150E080E840CF0FB6F894A89580916C
:101960006000886180936000109260000FBEA895AF
:10197000EE3F2AE0F20739F08091FE0A9091FF0ACB
:1019800091838083A1CF1092FF0A1092FE0A9CCF10
:10199000EE3F8AE0F80731F0808191819093FF0A51
:1019A0008093FE0A87E797E7918380839BE088E135
:1019B0000FB6F894A895809360000FBE90936000D6
:1019C00083CF6C960FB6F894DEBF0FBECDBFDF910C
:1019D000CF91FF91EF91BF91AF919F918F917F91A7
:1019E0006F915F914F913F912F911F910F91FF90B8
:1019F000EF90DF90CF900F900FBE0F901F90189533
:101A0000CF92DF92EF92FF920F931F93CF93DF93CA
:101A10006C017A018B01C0E0D0E0CE15DF0589F0C2
:101A2000D8016D918D01D601ED91FC910190F0816D
:101A3000E02DC6010995892B11F47E0102C0219683
:101A4000ECCFC701DF91CF911F910F91FF90EF90E5
:101A5000DF90CF9008953FB7F8948091140690914D
:101A60001506A0911606B091170626B5A89B05C0CD
:101A70002F3F19F00196A11DB11D3FBFBA2FA92F0D
:101A8000982F8827820F911DA11DB11DBC01CD018A
:101A900042E0660F771F881F991F4A95D1F7089576
:101AA00080917501E0917301F0917401882349F0F0
:101AB000CF01029690937401809373018591949164
:101AC0000895CF01029690937401809373018081F1
:101AD0009181089580916C0108950895089580E0A2
:101AE00090E008950E94F0190F931F93CF93DF9316
:101AF000EC0188819981009729F02A813B81261782
:101B0000370788F48B016F5F7F4F0E94261900977B
:101B100061F0998388831B830A832C813D81232B69
:101B200011F4FC01108281E001C080E0DF91CF91CF
:101B30001F910F910895CF93DF93EC0188819981D4
:101B4000009711F00E948E18198218821D821C8243
:101B50001B821A82DF91CF910895EF92FF920F932B
:101B60001F93CF93DF93EC017B018A01BA010E949E
:101B7000740D811104C0CE010E949B0D07C01D830E
:101B80000C83B701888199810E94FE19CE01DF91F3
:101B9000CF911F910F91FF90EF9008958F929F9298
:101BA000AF92BF92CF92DF92EF92FF926B017C01D6
:101BB0000E942B0D4B015C01C114D104E104F1041E
:101BC000F1F00E942B0DDC01CB0188199909AA09BB
:101BD000BB09883E9340A105B10570F321E0C21A0C
:101BE000D108E108F10888EE880E83E0981EA11C58
:101BF000B11CC114D104E104F10419F7DDCFFF9049
:101C0000EF90DF90CF90BF90AF909F908F9008950E
:101C10001F920F920FB60F9211242F933F938F9321
:101C20009F93AF93BF9380916D0190916E01A091AE
:101C30006F01B09170013091130623E0230F2D370F
:101C400020F40196A11DB11D05C026E8230F0296C0
:101C5000A11DB11D2093130680936D0190936E0119
:101C6000A0936F01B09370018091140690911506B6
:101C7000A0911606B09117060196A11DB11D809383
:101C8000140690931506A0931606B0931706BF91FD
:101C9000AF919F918F913F912F910F900FBE0F9019
:101CA0001F901895CF92DF92EF92FF920F931F93A0
:101CB000CF93DF930E94500D811520E8920761F4C5
:101CC000809171008D7F80937100109291004698F1
:101CD000479810920C068BC021E020930C068130AF
:101CE00020E8920751F480917101909172019093D4
:101CF0007401809373010E94500D97FD05C02091DF
:101D00000B06222309F43FC020910A0621113BC093
:101D100021E020930D06EC01DF77209769F481E044
:101D200080930E0646983FE9C32E3FE0D32EE12C68
:101D3000F12CCAEFD0E014C08E0120E030E060E466
:101D400072E48FE090E0A90198010E94B016690149
:101D50007A0181E0C81AD108E108F10810920E0654
:101D6000E0918805F09189050995811103C081E012
:101D700080930E0680910D068823B9F180910E069E
:101D8000811133C003C010920D06C5CF46992DC0F6
:101D9000479A0E94500D009771F09C01DE010E944D
:101DA0002817DC01CB0129E0B595A7959795879574
:101DB0002A95D1F703C08FEF9FEFDC0110929000BE
:101DC0002AE020939100D0929900C09298008093CD
:101DD0000F0690931006A0931106B09312068091FF
:101DE000710082608093710002C04798D2CFDF916A
:101DF000CF911F910F91FF90EF90DF90CF900895BA
:101E00001F920F920FB60F9211242F933F934F936F
:101E10005F936F937F938F939F93AF93BF93EF9352
:101E2000FF9380910F0690911006A0911106B0913A
:101E30001206892B8A2B8B2B81F180910E06811142
:101E40000BC098B180E4892788B980910D0688235A
:101E500019F088B1805888B980910F0690911006CA
:101E6000A0911106B0911206181619061A061B0643
:101E7000B4F480910F0690911006A0911106B091D4
:101E800012060197A109B10980930F0690931006DD
:101E9000A0931106B093120602C00E94520EFF9149
:101EA000EF91BF91AF919F918F917F916F915F91D2
:101EB0004F913F912F910F900FBE0F901F9018954B
:101EC000BC0180E090E00C94CE0D8FB12CB193B1A9
:101ED00030E02095309520743327A90123E05595F3
:101EE00047952A95E1F7292F30E02095309520710C
:101EF00033273595279535952795242B8095807F19
:101F0000822B089583B7817F83BF83B7816083BFAE
:101F1000889583B78E7F83BF08958EBD00000DB472
:101F200007FEFDCF0895E0EBFBE090E1969FD00126
:101F3000A0781124A80F6770E60FF11D9491A658A0
:101F4000BE4F442319F08C91982B03C090958C912F
:101F500098239C9308952F923F924F925F926F9295
:101F60007F928F929F92AF92BF92CF92DF92EF9229
:101F7000FF920F931F93CF93DF93CDB7DEB72797D1
:101F80000FB6F894DEBF0FBECDBFFC016A3069F416
:101F9000248D808D918D38E0239F800D911D11241B
:101FA000918F808F178A168AA6C06D3009F4A3C05E
:101FB0009F838E83348C238D2983328D3A83608C6A
:101FC000718CE688F78880E8E816F104C4F0AE81E9
:101FD000BF815C962C915C97422F50E056968D9174
:101FE0009C915797B6E02B9F800D911D1124EE8197
:101FF000FF81978B868B258D211167C07CC0F0E413
:102000006F16710424F7C70125E0329E800D911DE3
:10201000112418161906DCF6432C512CC30138E0A4
:10202000339E800D911D11241816190684F685E043
:10203000689F800111240055194F20E0F801249079
:10204000253009F4212C430158E020FC02C03981DD
:1020500001C03A8131110BC0F9818A81F81307C0A0
:1020600026945150840C951C5111EFCF25C0670167
:102070008C2D8E198315A0F754018A2D881983158C
:10208000B8F490E8C916D10478F4A0E4AA16B10413
:1020900058F4432FB501C6012C833B835D830E9416
:1020A000930F5D813B812C81BFEFAB1ABB0AE5CF5B
:1020B000EFEFCE1ADE0ADCCF2F5FE40CF51C0F5FCA
:1020C0001F4F263009F0BACF82CF6AEF6403900128
:1020D000659F300D112420583F4F281739075CF4B5
:1020E000AE81BF81ED91FC9111970190F081E02DBF
:1020F0006AE0CD01099581E090E027960FB6F8944B
:10210000DEBF0FBECDBFDF91CF911F910F91FF902A
:10211000EF90DF90CF90BF90AF909F908F907F9087
:102120006F905F904F903F902F900895CF93DF93E3
:10213000CDB7DEB768970FB6F894DEBF0FBECDBF40
:10214000789484B5826084BD84B5816084BD85B592
:10215000826085BD85B5816085BD80916E0081609E
:1021600080936E0010928100809181008260809344
:102170008100809181008160809381008091800046
:1021800081608093800080919100826080939100B3
:102190008091910081608093910080919000816096
:1021A000809390008091C10084608093C1008091F1
:1021B000C10082608093C1008091C10081608093E2
:1021C000C1008091C30081608093C3008091C000F2
:1021D00082608093C0008091C20081608093C200C1
:1021E00080917A00846080937A0080917A00826086
:1021F00080937A0080917A00816080937A00809148
:102200007A00806880937A00109279011092050616
:10221000109277018091D70081608093D70080EA87
:102220008093D80089B5806189BD89B5826089BDF8
:1022300009B400FEFDCF61E070E080E090E00E9414
:10224000CE0D8091D8008F7C80618093D8008091E2
:10225000E000807F8093E0008091E1008E7E80939B
:10226000E1008DE08093E200559A209AEEEFFFE7BF
:10227000859194918B3F9C4D19F481E080930406E5
:1022800081EC80937C0085B1806F85B9249884B1FE
:10229000866E84B95E9A5F988AB1806D8AB9769AA3
:1022A0006E9881B3806F81BB899880B38D7080BB3D
:1022B00080E58CBD81E08DBD85E090E00E94600FDF
:1022C0005F9A85E090E00E94600F5E985C980CEA4F
:1022D00010E09DE0F92EF00EF80184910E948D0F20
:1022E0000F5F1F4FF012F8CF5C9A81E88093640073
:1022F00081E08093650000E014E080E00E948D0F93
:1023000001501109D1F70E94650F87FF1FC05C982B
:1023100085EA0E948D0F5C9A2E982F982D988091B7
:1023200064008062809364000E94820FFDCF2D982C
:102330000E94650F8478843871F00E94650F847163
:10234000843129F188EC90E00E94600F0E94650FB3
:1023500082FDEDCF38C02D9A88EC90E00E94600F8E
:102360002F9882E090E00E949A168F3F29F06FEF3D
:1023700082E090E00E94A21684EF91E00E94600F3C
:102380002F9A0E94650F84788438D9F3D6CF2D9A7E
:1023900088EC90E00E94600F2E9882E090E00E940E
:1023A0009A16882329F060E082E090E00E94A2164D
:1023B00084EF91E00E94600F2E9A0E94650F847155
:1023C0008431D9F3BFCF2D9A82E090E00E949A1613
:1023D000882331F03E9A3F9A81E080936C0104C0DB
:1023E00010926C013E983F9882E390E00E94600F4B
:1023F0000E94650F8111F8CFCE0101967C018AE71A
:10240000282E85E0382E2FB7F89480916D01909199
:102410006E01A0916F01B09170012FBF40919A059C
:1024200050919B0560919C0570919D0500919E05C2
:10243000002341F020919605821B80939F05109206
:102440009E05F7C284179507A607B70738F4481BFF
:10245000423008F4EEC20E94820FEBC211E01093EA
:102460009E058093960590939705A0939805B09349
:10247000990520919505820F911DA11DB11D809395
:102480009A0590939B05A0939C05B0939D05809120
:1024900091059091920501969093920580939105F4
:1024A00080919305809394050E94650F282F809357
:1024B0009305EAE7F1E001110FEF00240193019386
:1024C000019301930394D1F71092A3051092A205F2
:1024D0001092A1051092A00560912601709127012C
:1024E000E0912801F0E06E177F076CF46F5F7F4F7B
:1024F0007093270160932601809125010AEF20E067
:102500004FE453E066C0809191059091920566E991
:1025100070E00E94DF17892B21F08091230188232E
:1025200049F081E080932301809194058C7809F42F
:1025300052C099C0F0932701E093260180912401B5
:10254000811131C0809171008D7F80937100109254
:1025500075013092740120927301309272012092C1
:102560007101E6E1F4E0F0937B05E0937A0582E304
:1025700090E090937D0580937C058DE298E09093A8
:102580007F0580937E0584E690E09093810580939B
:10259000800580E090E890938305809382050E94F7
:1025A000520E1093240160912601709127018091B1
:1025B00025010AEF20E047EC51E090E00E942E0751
:1025C00060912A0170E08091290103E020E049EB4D
:1025D00050E090E02AC22C7809F445C08091210196
:1025E00090912201019690932201809321016091A4
:1025F0000A0170E080E090E00E94EA152091050158
:102600003091060140910701509108010E9438174E
:102610004B015C016091000170E080E090E00E945D
:10262000EA159B01AC01C501B4010E94E3158111BB
:102630001AC020911301309114014091150150915D
:10264000160160910B0170910C0180910D01909128
:102650000E010E94371760930B0170930C01809359
:102660000D0190930E010E94650F85FF23C02091FC
:102670001D0130911E0140911F0150912001609178
:1026800001017091020180910301909104010E9467
:1026900037174B015C0120E030E0A9010E94DA17F6
:1026A00018160CF049C0E4E0F0E0F0931C01E09350
:1026B0001B0133C00E94650F86FF38C020911D01A9
:1026C00030911E0140911F01509120016091010144
:1026D0007091020180910301909104010E943817CA
:1026E0004B015C016091090170E080E090E00E9484
:1026F000EA159B01AC01C501B4010E94381720E026
:1027000030E040E053E40E94E31587FF15C082E00B
:1027100090E090931C0180931B01809201019092A4
:102720000201A0920301B092040106C083E090E090
:1027300090931C0180931B0160911B0170911C01FF
:10274000772780919105909192050E94DF17892B40
:1027500089F420911A01422F50E08091190190E0F4
:1027600001974817590724F42F5F20931A0102C0DC
:1027700010921A0180900B0190900C01A0900D0115
:10278000B0900E01209105013091060140910701A2
:1027900050910801C501B4010E9438172B013C017A
:1027A00060930501709306018093070190930801DF
:1027B000C0900A01D12C0091000110E0B6010D2C4F
:1027C000000C880B990B0E94EA159B01AC01C30118
:1027D000B2010E9438172B013C01B801012E000CF8
:1027E000880B990B0E94EA159B01AC01C301B20151
:1027F0000E94E31587FF15C020910F013091100151
:102800004091110150911201C501B4010E94381785
:1028100060930B0170930C0180930D0190930E0156
:1028200019C010920B0110920C0110920D01109220
:102830000E01B8016C197D09072E000C880B990B4D
:102840000E94EA15609305017093060180930701C9
:102850009093080180912101909122011C8A1B8A8A
:102860001E8A1D8A188E1F8A4AE0B7010E94AE1583
:10287000F70101900020E9F73197AF014E195F0988
:10288000B701CE0143960E94AD0D4F89588D20911E
:102890001701309118014217530708F042C01A82FD
:1028A00019821C821B821E821D8241E050E06AE672
:1028B00071E0C7010E94AD0D8F89988DCB88DC88AF
:1028C0000D811E81C114D10409F4BBC00097A1F091
:1028D000080F191FB801C7010E94740D882309F45D
:1028E000B0C029813A818D819E81B601820F931FEC
:1028F0000E94FE191E830D8369817A81611571051D
:1029000039F04D815E81CE0143960E94AD0D04C029
:10291000CE0143960E949B0D89819A810E948E1858
:10292000B4CF69EF62036001639FD00C11249DE76F
:10293000C90ED11C1A8219821C821B821E821D8222
:102940006B897C89C7016115710519F00E94AD0D75
:1029500002C00E949B0DA12CB12C2D813E8189814A
:102960009A81A216B306C0F4009729F0FC01EA0D83
:10297000FB1D208101C020E0205303E049E955E020
:1029800063E070E0C6010E942E07E7E0CE0ED11C86
:10299000FFEFAF1ABF0AE1CF0E948E188B899C8986
:1029A0000E948E180091000180E4801B10E0C12C71
:1029B000D12C4801880E911C5801C401E1E48E1607
:1029C000910414F080E490E0A816B9064CF441E0BC
:1029D000B501C6010E94930F2FEFA21AB20AEDCFE4
:1029E000FFEFCF1ADF0A20E8C216D10429F7609161
:1029F00005017091060180910701909108010E94E4
:102A0000A4174B015C01609101017091020180915A
:102A10000301909104010E94A417DC01CB010AEF8D
:102A200020911A0147ED54E0B4010E942E070E9444
:102A30004D0980E090E0892B09F4E5CC0E9400006C
:102A4000DECCC7010E949B0D57CFE4EBF5E013826B
:102A5000128288EE93E0A0E0B0E084839583A683A1
:102A6000B78381E491E0918380838FEF9FEF958717
:102A70008487EAE8F5E0138212821186128620E14B
:102A8000238790878783108A118A128A138A148A6F
:102A900083E591E09183808381E691E0958384834F
:102AA000178A168A118E108E81E0828F138E848F82
:102AB000158E8AE69DE0909389058093880580E0D5
:102AC00090E8909387058093860546983E9A4798AC
:102AD0003F9A08950F931F93CF93DF938C0181E06A
:102AE00090E00E949A1680FF31C08AE090E00E9438
:102AF0009A169FEF980F9E3F48F522E330E0D801E9
:102B000057963C932E93569728E330E059963C9382
:102B10002E935897CBE0D0E0D801ED91FC91019035
:102B2000F081E02D682FC8010995CE010E949A1608
:102B30002196C131D10581F70E944D0988EE93E0BD
:102B4000DF91CF911F910F910C94600FDF91CF9186
:102B50001F910F91089504970C946A15BB274A3072
:102B600031F4992322F4BDE2909581959F4F0C9406
:102B7000BA15BB27FB015527AA27880F991FAA1F43
:102B8000A41710F0A41B83955051B9F7A05DAA3388
:102B900008F0A95DA193009779F7B111B193119253
:102BA000CB010C94D315DC01FC01672F71917723C5
:102BB000E1F7329704C07C916D9370836291AE17F8
:102BC000BF07C8F308950E94251608F481E0089510
:102BD000E89409C097FB3EF49095809570956195B7
:102BE0007F4F8F4F9F4F9923A9F0F92F96E9BB276D
:102BF0009395F695879577956795B795F111F8CFE9
:102C0000FAF4BB0F11F460FF1BC06F5F7F4F8F4F53
:102C10009F4F16C0882311F096E911C0772321F049
:102C20009EE8872F762F05C0662371F096E8862FE1
:102C300070E060E02AF09A95660F771F881FDAF738
:102C4000880F9695879597F90895990F0008550F65
:102C5000AA0BE0E8FEEF16161706E807F907C0F022
:102C600012161306E407F50798F0621B730B840B2A
:102C7000950B39F40A2661F0232B242B252B21F404
:102C800008950A2609F4A140A6958FEF811D811DA4
:102C9000089597F99F6780E870E060E008959FEFDE
:102CA00080EC089500240A941616170618060906E3
:102CB000089500240A9412161306140605060895B2
:102CC000092E0394000C11F4882352F0BB0F40F43A
:102CD000BF2B11F460FF04C06F5F7F4F8F4F9F4F7A
:102CE000089557FD9058440F551F59F05F3F71F0FC
:102CF0004795880F97FB991F61F09F3F79F0879563
:102D00000895121613061406551FF2CF4695F1DFEB
:102D100008C0161617061806991FF1CF869571057B
:102D2000610508940895E894BB2766277727CB01AF
:102D300097F90895F999FECF92BD81BDF89A992728
:102D400080B50895262FF999FECF1FBA92BD81BD97
:102D500020BD0FB6F894FA9AF99A0FBE019608951D
:102D6000052E97FB1EF400940E94C71657FD07D04E
:102D70000E94061707FC03D04EF40C94C71650951A
:102D80004095309521953F4F4F4F5F4F0895909557
:102D90008095709561957F4F8F4F9F4F08952F922B
:102DA0003F924F925F926F927F928F929F92AF92DB
:102DB000BF92CF92DF92EF92FF920F931F93CF9328
:102DC000DF93CDB7DEB7CA1BDB0B0FB6F894DEBFBF
:102DD0000FBECDBF09942A88398848885F846E84E5
:102DE0007D848C849B84AA84B984C884DF80EE802F
:102DF000FD800C811B81AA81B981CE0FD11D0FB638
:102E0000F894DEBF0FBECDBFED010895A1E21A2EEA
:102E1000AA1BBB1BFD010DC0AA1FBB1FEE1FFF1F7E
:102E2000A217B307E407F50720F0A21BB30BE40BCE
:102E3000F50B661F771F881F991F1A9469F7609515
:102E40007095809590959B01AC01BD01CF010895CF
:102E5000A29FB001B39FC001A39F700D811D1124DB
:102E6000911DB29F700D811D1124911D0895505820
:102E7000BB27AA270E944F170C9460160E94521677
:102E800038F00E94591620F039F49F3F19F426F4C7
:102E90000C944F160EF4E095E7FB0C944916E92FBD
:102EA0000E94711658F3BA176207730784079507D3
:102EB00020F079F4A6F50C9493160EF4E0950B2E01
:102EC000BA2FA02D0B01B90190010C01CA01A0017C
:102ED0001124FF27591B99F0593F50F4503E68F1D7
:102EE0001A16F040A22F232F342F4427585FF3CF18
:102EF000469537952795A795F0405395C9F77EF4E9
:102F00001F16BA0B620B730B840BBAF09150A1F031
:102F1000FF0FBB1F661F771F881FC2F70EC0BA0FB7
:102F2000621F731F841F48F4879577956795B7953F
:102F3000F7959E3F08F0B0CF9395880F08F099273A
:102F4000EE0F9795879508950E94AB176894B1117D
:102F50000C94941608950E94791688F09F5798F063
:102F6000B92F9927B751B0F0E1F0660F771F881F8E
:102F7000991F1AF0BA95C9F714C0B13091F00E94A8
:102F80009316B1E008950C949316672F782F882735
:102F9000B85F39F0B93FCCF3869577956795B395CF
:102FA000D9F73EF490958095709561957F4F8F4F3E
:102FB0009F4F08950E94251608F48FEF0895AA1BCD
:102FC000BB1B51E107C0AA1FBB1FA617B70710F014
:102FD000A61BB70B881F991F5A95A9F78095909546
:102FE000BC01CD010895EE0FFF1F0590F491E02D77
:102FF0000994CF93DF938230910510F482E090E042
:10300000E0911A06F0911B0620E030E0C0E0D0E02D
:10301000309711F14081518148175907C0F0481786
:10302000590761F482819381209719F09B838A83E9
:103030002BC090931B0680931A0626C021153105DC
:1030400019F04217530718F49A01BE01DF01EF018E
:103050000280F381E02DDCCF2115310509F1281B19
:10306000390B2430310590F412968D919C91139771
:103070006115710521F0FB019383828304C0909355
:103080001B0680931A06FD01329644C0FD01E20F33
:10309000F31F81939193225031092D933C933AC0B1
:1030A0002091180630911906232B41F42091390103
:1030B00030913A0130931906209318062091370178
:1030C000309138012115310541F42DB73EB74091BB
:1030D0003B0150913C01241B350BE0911806F09107
:1030E0001906E217F307A0F42E1B3F0B2817390728
:1030F00078F0AC014E5F5F4F2417350748F04E0F54
:103100005F1F50931906409318068193919302C054
:10311000E0E0F0E0CF01DF91CF9108950F931F938E
:10312000CF93DF93009709F48CC0FC013297138290
:10313000128200911A0610911B060115110581F4E7
:1031400020813181820F931F20911806309119063A
:103150002817390779F5F0931906E093180671C01E
:10316000D80140E050E0AE17BF0750F412962D9101
:103170003C911397AD012115310509F1D901F3CF28
:103180009D01DA013383228360817181860F971F4D
:103190008217930769F4EC0128813981260F371FC4
:1031A0002E5F3F4F318320838A819B81938382836B
:1031B000452B29F4F0931B06E0931A0642C01396A0
:1031C000FC93EE931297ED01499159919E01240FC2
:1031D000351FE217F30771F480819181840F951FE9
:1031E000029611969C938E938281938113969C9361
:1031F0008E931297E0E0F0E0D80112968D919C91A9
:103200001397009719F0F8018C01F6CF8D919C91DE
:1032100098012E5F3F4F820F931F20911806309127
:1032200019062817390769F4309729F410921B06FC
:1032300010921A0602C0138212821093190600938C
:103240001806DF91CF911F910F910895A0E0B0E093
:10325000ECE2F9E10C94D316EC01009721F4CB01D8
:103260000E94F917B8C0FC01E60FF71F9C0122501D
:103270003109E217F30708F4ACC0D9010D911C9194
:10328000119706171707B0F00530110508F49FC015
:10329000C80104978617970708F499C002501109CE
:1032A000061B170B019311936D937C93CF010E9422
:1032B0008E188DC05B01A01AB10A4C01800E911EC0
:1032C000A0911A06B0911B0640E050E0E12CF12CD1
:1032D000109709F44AC0A815B905D1F56D907C90F6
:1032E0001197630182E0C80ED11CCA14DB0480F17F
:1032F000A3014A195B096A0182E0C80ED11C12962B
:10330000BC9012971396AC91B5E0CB16D10440F067
:10331000B282A38351834083D9016D937C930AC009
:103320000E5F1F4FC301800F911FF90191838083AE
:10333000EB2DFA2FE114F10431F0D7011396FC9331
:10334000EE93129744C0F0931B06E0931A063FC019
:103350008D919C9111974817590708F4AC017D0194
:1033600012960D90BC91A02DB3CF8091180690912C
:10337000190688159905E1F446175707C8F4809196
:10338000370190913801009741F48DB79EB7409175
:103390003B0150913C01841B950BE817F907C8F4D9
:1033A000F0931906E0931806F901718360830FC04A
:1033B000CB010E94F9177C01009759F0A801BE01CA
:1033C0000E94F519CE010E948E18C70104C0CE01DB
:1033D00002C080E090E0CDB7DEB7EEE00C94EF16CF
:1033E00081E090E0F8940C94051AFB01DC0102C026
:1033F00001900D9241505040D8F70895FB01DC0137
:0E34000001900D920020E1F70895F894FFCF9F
:10340E0036000020410000000010100000000033C4
:10341E0033B33E0000A0400700060003000000C0CA
:10342E003F000000001DD2FF051E2E00E10000002F
:10343E00000000FFFFFFFF00001C068000000000E0
:10344E00004206A90663065806730967068506003C
:10345E00000000AB0F000D6F0D6E0D6A15FCFF0026
:0C346E0000AB1500C180810000003000A0
:2070000055C000006EC000006CC000006AC0000068C0000066C0000064C0000062C0000043
:2070200060C000005EC00000F2C400005AC0000058C0000056C0000054C0000052C00000EE
:2070400050C0000078C000004CC000004AC0000048C0000046C0000044C0000042C00000BE
:2070600040C000003EC000003CC000003AC0000038C0000036C0000034C0000032C0000048
:2070800030C000002EC000002CC000002AC0000028C0000026C0000024C0000022C00000A8
:2070A00020C000001EC000001CC0000011241FBECFEFDAE0DEBFCDBF11E0A0E0B1E0E2E3BC
:2070C000FFE702C005900D92A83AB107D9F711E0A8EAB1E001C01D92AE3BB107E1F78FD30B
:2070E00026C78ECFF89410926F0010928100109285001092840081E085BF15BE47985D9AEB
:20710000289A0C94000008952091B2013091B3012F5F3F4F3093B3012093B201932F37FFA6
:2071200003C08EEF831B982F990F921710F447980895479A08951F920F920FB60F9211246E
:207140002F938F939F93EF93FF9310928500109284008091A8019091A901009741F00197D3
:207160009093A9018093A801892B09F45D9A8091AA019091AB01009741F001979093AB0126
:207180008093AA01892B09F4289AE0E0F0E0859194918F5F9F4F49F08091AC019091AD0151
:2071A00001969093AD018093AC01FF91EF919F918F912F910F900FBE0F901F90189584E0BC
:2071C0008093E9000DC08091E8008B778093E80003C08EB3882351F08091E80082FFF9CFBE
:2071E0008091E80085FFEFCF8091F1000895982F83E08093E9008091E80085FD0DC0809136
:20720000E8008E778093E80003C08EB3882369F08091E80080FFF9CF9093F1005D9884E6CB
:2072200090E09093A9018093A80108954F925F926F927F928F929F92AF92BF92CF92DF921E
:20724000EF92FF920F931F93CF93DF9384E08093E9008091E80082FF57C2289884E690E067
:207260009093AB018093AA01AADF182F853481F48CE49DE19093AD018093AC0107B600FC4B
:20728000FDCFF999FECF81E180935700E89503C0843519F494DF8DE00DC28C34E1F38035F9
:2072A000D1F3843721F484E4A2DF80E003C2813611F489E5FFC18134B1F481DF182F7FDFE3
:2072C00090E0880F991FAA2797FDA095BA2F312F330F20E0442737FD4095542F822B932B68
:2072E000A42BB52BB8C1803711F483E5E3C1833549F4C0E0D1E089917ADF21E0C730D20714
:20730000D1F7D9C1863521F481E371DF80E3D2C1833731F487E86BDF85E969DF8EE1CAC149
:207320008536B9F4E0E0F0E093E085E090935700E89507B600FCFDCF80935700E89507B65D
:2073400000FCFDCFE058FF4FA0E7E030FA0771F7A2CF823739F4E1E0F0E089E08093570024
:207360008491A8C1863439F4E0E0F0E089E08093570084919FC18E3439F4E3E0F0E089E0E5
:2073800080935700849196C1813539F4E2E0F0E089E08093570084918DC1823631F489E521
:2073A00026DF80E024DF80E885C1823419F0873609F0E5C01092AD011092AC0100DF082FE8
:2073C000FEDEF82EFCDE682E8554823008F071C1902F80E0CF2DD0E0C82BD92B10926F00B3
:2073E000173609F04BC081E180935700E895DD24CC24C3943FC0E090AE01F090AF010091CC
:20740000B0011091B101B6E46B16D9F4ED2DF0E0EE29FF29E4918E2FEADEDD2081F082E08D
:2074200090E0A0E0B0E0E80EF91E0A1F1B1FE092AE01F092AF010093B0011093B101DC2470
:2074400018C0D801C701B695A7959795879559D5CEDE82E090E0A0E0B0E0E80EF91E0A1FF2
:207460001B1FE092AE01F092AF010093B0011093B1012197209709F0BECF7DC08090AE01F5
:207480009090AF01A090B001B090B10196E4691609F05DC083E0F40180935700E89507B63E
:2074A00000FCFDCF54C0F6E46F1661F5772031F1E090AE01F090AF010091B0011091B1019E
:2074C0007EDED82ECC24852D90E08C299D29F7010C0140925700E895112482E090E0A0E08B
:2074E000B0E0E80EF91E0A1F1B1FE092AE01F092AF010093B0011093B10102C060DE582E1A
:20750000742423C0E090AE01F090AF010091B0011091B10116950795F794E79450DE682FFA
:20752000C701F7D48091AE019091AF01A091B001B091B1010296A11DB11D8093AE01909349
:20754000AF01A093B001B093B101219704C05524772444244394209709F0A5CF96E46916B6
:2075600041F485E0F40180935700E89507B600FCFDCF8DE03CDE82E080936F009CC0833492
:2075800071F40091AE011091AF0119DE90E021E0F8010C0120935700E89511247CCE8336C8
:2075A00019F5E090AE01F090AF010091B0011091B10105DEF701E16090E021E00C0120938C
:2075C0005700E895112482E090E0A0E0B0E0E80EF91E0A1F1B1FE092AE01F092AF0100936A
:2075E000B0011093B10157CE8D3661F4E091AE01F091AF0185E080935700E89507B600FCF2
:20760000FDCF49CE823551F4E091AE01F091AF0105911491812FEBDD802F4CC0843421F5FE
:20762000E090AE01F090AF010091B0011091B10116950795F794E794C2DD682FC70169D4DE
:207640008091AE019091AF01A091B001B091B1010296A11DB11D8093AE019093AF01A093D8
:20766000B001B093B10117CE843609F5E090AE01F090AF010091B0011091B101D801C70142
:20768000B695A795979587953CD4B1DD82E090E0A0E0B0E0E80EF91E0A1F1B1FE092AE010A
:2076A000F092AF010093B0011093B10104C08B3111F08FE39CDD83E08093E9009091E8002B
:2076C0008091E8008E778093E80095FF04C010C08EB38823C9F08091E80080FFF9CF809193
:2076E000E8008E778093E80003C08EB3882361F08091E80080FFF9CF84E08093E9008091F1
:20770000E8008B778093E800DF91CF911F910F91FF90EF90DF90CF90BF90AF909F908F90AC
:207720007F906F905F904F9008959091B601892F8F77813249F58091B7018032A1F081328A
:2077400019F5913A09F58091E800877F8093E8008DE091E067E070E00BD28091E8008B770B
:207760008093E8000895913279F48091E800877F8093E8008DE091E067E070E05DD2809192
:20778000E8008E778093E800089582E061EC42E0B5D083E061E842E1B1D084E060E842E1EF
:2077A000ADC084B7877F84BF88E10FB6F89480936000109260000FBE20E880E090E00FB63F
:2077C000F89420936100809361000FBE81E085BF92E095BF3F9A209A559AE1E6F0E02083A1
:2077E000108247985D9A289A109289008AEF8093880090936F0083E080938100F0C0409116
:20780000000850910108109201081092000894B714BE88E10FB6F8948093600010926000D5
:207820000FBE292F30E0F901E270F07091FD18C090FF05C0859194918F5F9F4F81F423FFFF
:207840000FC08091090190910A014817590741F0E0E0F0E0859194918F5F9F4F09F042DC64
:20786000A0DF78941092AD011092AC010CC0DEDC36D38091AC019091AD0181549F4110F00D
:207880001092140141DC80911401882381F78091E00081608093E00025DC80E090E0089598
:2078A000FA01923049F0933061F09130F9F485E191E022E130E01EC087E291E02EE330E04D
:2078C00019C0882329F485E691E024E030E012C0813029F489E691E022E230E00BC0823006
:2078E00029F48DE891E028E130E004C080E090E020E030E091838083C90108958093E9004E
:207900008091EB0081608093EB001092ED006093EC004093ED008091EE00881F8827881F62
:2079200008958091B60188238CF403C08EB38823B1F08091E80082FFF9CF8091E8008B772A
:207940008093E80008958EB3882349F08091E80080FFF9CF8091E8008E778093E800089594
:20796000EF92FF920F931F9345D04CD008ED10E0F80180818F77808380818068808380819B
:207980008F7D808319BC1EBA1092B40180EEE82EF12CF70180818B7F8083F8018081816052
:2079A000808380E060E042E0A9DFE1EEF0E080818E7F8083E2EEF0E0808181608083808144
:2079C00088608083F70180818E7F8083F8018081806180831F910F91FF90EF900895E7ED06
:2079E000F0E08081816080838AE482BF81E08093B501B6CFE8EDF0E080818E7F808310921C
:207A0000E20008951092DA001092E10008951F920F920FB60F9211242F933F934F935F93F6
:207A20006F937F938F939F93AF93BF93EF93FF938091DA0080FF1BC08091D80080FF17C0B2
:207A40008091DA008E7F8093DA008091D90080FF0BC080E189BD82E189BD09B400FEFDCF36
:207A600081E08EBB3BD203C019BC1EBA37D28091E10080FF17C08091E20080FF13C0809138
:207A8000E2008E7F8093E2008091E20080618093E2008091D80080628093D80019BC85E049
:207AA0008EBB1CD28091E10084FF2CC08091E20084FF28C080E189BD82E189BD09B400FEC5
:207AC000FDCF8091D8008F7D8093D8008091E1008F7E8093E1008091E2008F7E8093E20012
:207AE0008091E20081608093E2008091B401882331F48091E30087FD02C081E001C084E067
:207B00008EBBECD18091E10083FF21C08091E20083FF1DC08091E100877F8093E10082E06A
:207B20008EBB1092B4018091E1008E7F8093E1008091E2008E7F8093E2008091E2008061E9
:207B40008093E20080E060E042E0D8DEC7D1FF91EF91BF91AF919F918F917F916F915F9130
:207B60004F913F912F910F900FBE0F901F9018959C014091BC015091BD014617570718F49D
:207B8000F90190E044C06115710511F0AB01F8CF8091E8008E778093E80040E050E0F0CF0F
:207BA0008EB3882309F444C0853009F443C08091E80083FF02C081E008958091E80082FD70
:207BC00031C08091E80080FF22C08091F3009091F200782F60E0292F30E0262B372B07C07A
:207BE00081918093F100415050402F5F3F4F4115510519F02830310598F390E02830310566
:207C000009F491E08091E8008E778093E8004115510531F6992321F605C08EB3882341F075
:207C2000853041F08091E80082FFF7CF80E0089582E0089583E008959C016115710529F47C
:207C40008091E8008B778093E800F90126C08EB3882391F1853091F18091E80083FF02C06C
:207C600081E008958091E80082FFF1CF06C08091F10081936150704059F02091F300809191
:207C8000F200322F20E090E0822B932B892B79F78091E8008B778093E80061157105B9F601
:207CA00005C08EB3882341F0853041F08091E80080FFF7CF80E0089582E0089583E00895C2
:207CC0000F931F93DF93CF9300D0CDB7DEB7E6EBF1E08091F100819381E0EE3BF807C9F792
:207CE00024DD8091E80083FFE4C08091B6019091B701953009F46DC0963040F4913081F1A7
:207D0000913070F0933009F0D4C02AC0983009F4A3C0993009F4B2C0963009F0CAC07CC023
:207D2000803809F4C6C0823809F0C3C08091BA0187708093E9008091EB001092E9002091DB
:207D4000E800277F2093E80090E025E0969587952A95E1F781708093F1001092F10087C0D8
:207D6000882319F0823009F0A4C08F71823009F0A0C08091B801882331F52091BA01277097
:207D800009F497C02093E9008091EB0080FF1BC0933021F48091EB00806213C08091EB0018
:207DA00080618093EB0081E090E002C0880F991F2A95E2F78093EA001092EA008091EB00E5
:207DC00088608093EB001092E9008091E800877F51C0882309F06DC01091B8011F770FB79B
:207DE000F8948091E800877F8093E8009ADD8091E80080FFFCCF8091E3008078812B809398
:207E0000E30080688093E300112311F482E001C083E08EBB0FBF4DC08058823008F049C033
:207E20008091B8019091B9016091BA01AE014F5F5F4F36DDBC01009709F43BC08091E8008E
:207E4000877F8093E80089819A8192DE8091E8008B778093E8002DC0803859F58091E800AA
:207E6000877F8093E8008091B4018093F1008091E8008E778093E80054DD1BC08823C9F4CA
:207E80009091B8019230A8F48091E800877F8093E8009093B40145DD8091B401882331F420
:207EA0008091E30087FD02C081E001C084E08EBB6CDC8091E80083FF0AC08091EB0080624E
:207EC0008093EB008091E800877F8093E8000F900F90CF91DF911F910F91089508951F9360
:207EE0008EB3882361F01091E9001092E9008091E80083FF01C0E4DE17701093E9001F916F
:207F00000895F999FECF92BD81BDF89A992780B50895262FF999FECF1FBA92BD81BD20BDBD
:207F20000FB6F894FA9AF99A0FBE01960895F894FFCF4341544552494E4100777700080031
:207F40000000000000080112011001020000084123360001000201000109023E00020100FF
:207F600080320904000001020201000524001001042402040524060001070582030800FF0C
:207F800009040100020A000000070504021000010705830210000104030904220341007216
:207FA000006400750069006E006F0020004C0065006F006E006100720064006F0000001836
:1A7FC00003410072006400750069006E006F0020004C004C004300000000D7
:00000001FF
