:100000000C948C050C94B4050C94B4050C94B405B4
:100010000C94B4050C94B4050C94B4050C94B4057C
:100020000C94B4050C94B4050C9404080C94760854
:100030000C94B4050C94B4050C94B4050C94B4055C
:100040000C94B4050C94B4050C94B4050C94B4054C
:100050000C94B4050C94B4050C94B4050C94540B96
:100060000C94B4050C94B4050C94B4050C94B4052C
:100070000C94B4050C94B4050C94B4050C94B4051C
:100080000C944C0C0C94B4050C94B4050C94B4056D
:100090000C94B4050C94B4050C94B4050C94B405FC
:1000A0000C94B4050C94B4050C94B405D5F08D14DF
:1000B000A1C881CFD9F1AF2000430D00F800FCF8B2
:1000C000FEFCFF0CFF0CFF1CFF18FE00FCF8FEFC02
:1000D000FF0CFF0CFFFCFFF8FE00FEFCFFFCFF78AE
:1000E000FEF0FC78FEFCFFFCFF00FEFCFFFCFFCCFA
:1000F000FFCCFFFCFF78FE00FE3CFF7CFFE0FEE053
:10010000FE7CFF3CFF00FEF8FEFCFF0CFF0CFF1C1A
:10011000FF18FE00FCF8FEFCFF0CFF0CFFFCFFF8D4
:10012000FE00FEFCFFFCFFCCFFCCFFFCFF78FE00D6
:10013000FEFCFFFCFF6CFF6CFF0CFF0CFF001E00C1
:100140000C00030007030F071F061F061F071F03EE
:100150000F0007030F071F061F061F071F030F00CF
:100160000F071F071F000F0007000F071F071F00C3
:100170000F071F071F000F0007000300010000000A
:1001800007000F071F071F000F00070007030F07D7
:100190001F061F061F071F030F0007030F071F0679
:1001A0001F061F071F030F000F071F071F000F0069
:1001B0000F071F071F000F071F071F061F061F0639
:1001C0001F061F000F0006412E0000000000000067
:1001D000000000000000C0E0F0F8FCFCFEFE04009F
:1001E000000000000000000080808080808080800F
:1001F000808080800002071FFFFEFEFCFCF8F0E01C
:10020000800000000000000000000000000000006E
:100210000000000000001E7FFFFFFFFFFFFFFFFF49
:10022000FEFCFC06060303030301010101010101B9
:10023000010101010103030307070F1F3F7FFFFFB8
:100240003F070000000000000000000000808080E8
:10025000808080C0C0C0C0E0F0FD8F0307070707A3
:10026000070301000080C0E0E0F0F0F0F0F0F06083
:1002700000C0E0E0F0F0F0F0F0E0D83C9CDCDC986E
:10028000333F7FFFDFDF6F6F371B0E0402070D1B4D
:100290003337676F6FCFCFCFCFDFDF1F1E00000078
:1002A0000000000000010D070301010130180C0CD3
:1002B0000C1800030F1F7FFF9F9F0F0F0FCD3303FD
:1002C00001000000FFFF000000000000000000002F
:1002D0000000000000000000000000030F1C306060
:1002E000C0800000000000000000000000000000CE
:1002F00000000000003830200020202111D1D0E87B
:10030000C7E2B01C0F030000000000000000000066
:1003100000000000000000000000000000000000DD
:10032000000001030306060C0C18181818303030B2
:100330003030303018181818180C0C0C0606030151
:10034000030703000000000000000000000000415F
:100350002E00000000000000000000000000C0E0CF
:10036000F0F8FCFCFEFE04000000000000000000AD
:100370008080808080808080808080800002071F55
:10038000FFFEFEFCFCF8F0E0800000000000000032
:1003900000000000000000000000000000001E7FC0
:1003A000FFFFFFFFFFFFFFFFFEFCFC06060303034A
:1003B0000301010101010101010101010103030325
:1003C00007070F1F3F7FFFFF3F07000000000000EF
:1003D0000000000000808080808080C0C0C0C0E03D
:1003E000F0FD8F0307070707070301000080C0E047
:1003F000E0F0F0F0F0F0F06000C0E0E0F0F0F0F0DD
:10040000F0E0D83C9CDCDC98333F7FFFDFDF6F6F90
:10041000371B0E0402070D1B3337676F6FCFCFCF2B
:10042000CFDFDF1F1E0000000000000000010D07ED
:1004300003010101183C7E7E7E3C18030F1F7FFFE5
:100440009F9F0F0F0FCD330301000000FFFF00003F
:10045000000000000000000000000000000000009C
:10046000000000030F1C3060C0800000000000008E
:1004700000000000000000000000000000383020F4
:100480000020202111D1D0E8C7E2B01C0F030000EA
:10049000000000000000000000000000000000005C
:1004A0000000000000000000000001030306060C2D
:1004B0000C18181818303030303030301818181820
:1004C000180C0C0C060603010307030000000000D3
:1004D000000000000000001010000000C0C0C0C0FC
:1004E000C0C0C0C0C0C0000000000000FFFFFFFF90
:1004F000FFFFFFFFFFFF00000000000000E0E0E062
:10050000C0C0C0C080808000000000383F3F7F7FB7
:100510007F7FFFFFFF1F0300000000000000C0E01E
:10052000F0E0C08080000000000000040E1F1F3FAC
:100530007FFF7F3F0F070200000000000080C0E047
:10054000F0F0E0C080000000000000060F1F3F7FB9
:10055000FFFF7F3F1F0F060000000000008080C0EB
:10056000E0F0E0C00000000000000002070F3F7F45
:10057000FF7F3F1F1F0E0400000000808080C0C06E
:10058000C0C0E0E0E0000000000000031FFFFFFF2C
:100590007F7F7F7F3F3F380000080B00020202018F
:1005A00000090400000102020000052400100105FA
:1005B0002401010104240206052406000107058127
:1005C0000310004009040100020A000000070502B0
:1005D00002400000070583024000000403090412E2
:1005E000010002EF020140412336800001010203B5
:1005F0000141726475696E6F204C4C430041726416
:1006000075696E6F204C656F6E6172646F000000DB
:100610000000003E5B4F5B3E3E6B4F6B3E1C3E7CE2
:100620003E1C183C7E3C181C577D571C1C5E7F5E90
:100630001C00183C1800FFE7C3E7FF00182418004F
:10064000FFE7DBE7FF30483A060E262979292640E6
:100650007F050507407F05253F5A3CE73C5A7F3E12
:100660001C1C08081C1C3E7F14227F22145F5F00A4
:100670005F5F06097F017F006689956A6060606040
:100680006094A2FFA29408047E040810207E20102B
:1006900008082A1C08081C2A08081E101010100C34
:1006A0001E0C1E0C30383E3830060E3E0E06000082
:1006B00000000000005F00000007000700147F1426
:1006C0007F14242A7F2A1223130864623649562095
:1006D000500008070300001C2241000041221C00BA
:1006E0002A1C7F1C2A08083E080800807030000879
:1006F00008080808000060600020100804023E514D
:1007000049453E00427F40007249494946214149DE
:100710004D331814127F1027454545393C4A494945
:100720003141211109073649494936464949291EAF
:10073000000014000000403400000008142241149E
:1007400014141414004122140802015909063E41F0
:100750005D594E7C1211127C7F494949363E414118
:1007600041227F4141413E7F494949417F09090971
:10077000013E414151737F0808087F00417F4100DD
:100780002040413F017F081422417F404040407F8C
:10079000021C027F7F0408107F3E4141413E7F09D9
:1007A0000909063E4151215E7F091929462649491A
:1007B000493203017F01033F4040403F1F2040205A
:1007C0001F3F4038403F6314081463030478040358
:1007D0006159494D43007F41414102040810200006
:1007E0004141417F04020102044040404040000377
:1007F00007080020545478407F2844443838444443
:100800004428384444287F385454541800087E093A
:100810000218A4A49C787F0804047800447D40005A
:100820002040403D007F1028440000417F40007C74
:10083000047804787C080404783844444438FC186C
:1008400024241818242418FC7C0804040848545450
:10085000542404043F44243C4040207C1C2040207D
:100860001C3C4030403C44281028444C9090907CE4
:100870004464544C440008364100000077000000F6
:100880004136080002010204023C2623263C1EA138
:10089000A161123A4040207A385454555921555597
:1008A0007941215454784121555478402054557948
:1008B000400C1E52721239555555593954545459D9
:1008C00039555454580000457C410002457D420092
:1008D00001457C40F0292429F0F0282528F07C549B
:1008E0005545002054547C547C0A097F49324949BB
:1008F00049323248484832324A4848303A41412128
:100900007A3A42402078009DA0A07D394444443981
:100910003D4040403D3C24FF2424487E4943662B13
:100920002FFC2F2BFF0929F620C0887E09032054B5
:100930005479410000447D413048484A32384040B3
:10094000227A007A0A0A727D0D19317D2629292F13
:1009500028262929292630484D402038080808082B
:1009600008080808382F10C8ACBA2F102834FA002D
:10097000007B000008142A142222142A140895006F
:10098000220095AA005500AAAA55AA55AA0000005F
:10099000FF00101010FF00141414FF001010FF00CF
:1009A000FF1010F010F0141414FC001414F700FFE2
:1009B0000000FF00FF1414F404FC141417101F109F
:1009C000101F101F1414141F00101010F00000004E
:1009D000001F101010101F10101010F01000000059
:1009E000FF101010101010101010FF10000000FF6A
:1009F000140000FF00FF00001F10170000FC04F4AB
:100A000014141710171414F404F40000FF00F71462
:100A1000141414141414F700F714141417141010E9
:100A20001F101F141414F4141010F010F000001F05
:100A3000101F0000001F14000000FC140000F01044
:100A4000F01010FF10FF141414FF141010101F00EA
:100A5000000000F010FFFFFFFFFFF0F0F0F0F0FFEC
:100A6000FFFF0000000000FFFF0F0F0F0F0F3844C3
:100A70004438447C2A2A3E147E02020606027E0284
:100A80007E0263554941633844443C04407E201E45
:100A90002006027E020299A5E7A5991C2A492A1C74
:100AA0004C7201724C304A4D4D303048784830BC61
:100AB000625A463D3E494949007E0101017E2A2A8B
:100AC0002A2A2A44445F444440514A444040444A0C
:100AD00051400000FF0103E080FF000008086B6B3D
:100AE000083612362436060F090F060000181800C3
:100AF00000001010003040FF0101001F01011E0026
:100B0000191D1712003C3C3C3C0000000000010293
:100B1000040810204080CC1311241FBECFEFDAE070
:100B2000DEBFCDBF11E0A0E0B1E0ECE6FCE202C028
:100B300005900D92AC35B107D9F726E0ACE5B1E0F0
:100B400001C01D92A830B207E1F715E0CCE8D5E06E
:100B500004C02197FE010E942916CB38D107C9F79E
:100B60000E9404100C9434160C940000FC01809137
:100B70006E01811103C08FEF9FEF08959FB7F89426
:100B800082E08093E9002091F20030E01216130613
:100B900014F421E030E02115310559F0289884E65D
:100BA00080936D018091F10080838091F200882311
:100BB00019F09FBFC90108958BE68093E800F9CF33
:100BC0002FB7F89483E08093E9009091E800892F93
:100BD000807295FF04C09091F20080E4891B2FBFC2
:100BE00008958091A20581110DC082E080939E0539
:100BF00084E080939F051092A1051092A00581E0EA
:100C00008093A2058EE995E00895CF93DF931F921C
:100C1000CDB7DEB76983DC01ED91FC910280F381F1
:100C2000E02D41E050E0BE016F5F7F4F09950F90CE
:100C3000DF91CF91089583E08093E9008091F200E5
:100C4000882319F08AE38093E80008950E94E00564
:100C500090E00895CF93DF931F92CDB7DEB7FC01EC
:100C60008485958597FD05C02FEF3FEF3587248755
:100C70000BC0CE0101960E94B605019719F4898137
:100C800090E002C08FEF9FEF0F90DF91CF9108951A
:100C90000F931F93CF93DF931F92CDB7DEB78C01D5
:100CA000FC018485958597FF0EC0CE0101960E94B8
:100CB000B605019719F4298130E002C02FEF3FEF0C
:100CC000F80135872487F801848595850F90DF9199
:100CD000CF911F910F910895FC018485958597FD13
:100CE0000BC09FB7F89482E08093E9008091F200F6
:100CF0009FBF90E0019608959FB7F89482E080939B
:100D0000E9008091F2009FBF90E008958F929F923A
:100D1000AF92BF92CF92DF92EF92FF920F931F9309
:100D2000CF93DF935C016B017A0180912E018823C0
:100D300009F45BC080916E01882309F456C080914C
:100D40006C0180FF05C08091E00082608093E0002C
:100D5000E70110E00AEF83E0882E9AE3992E2097AE
:100D6000D9F10E94E00581110AC0015009F43DC08B
:100D700061E070E080E090E00E941A0BF0CF282F35
:100D800030E0C217D3070CF48C2F4FB7F894809241
:100D9000E9009091E80095FF1DC0282F30E0C21BAC
:100DA000D30BF601982F915020F081918093F100A0
:100DB000FACFC20ED31E112319F09092E80009C099
:100DC0008091E80085FD06C09092E80011E0209730
:100DD00009F010E04FBFC3CF1111C3CF5D9884E677
:100DE00080939D051E141F0444F081E090E0F501FE
:100DF0009383828380E090E001C0C701DF91CF91AF
:100E00001F910F91FF90EF90DF90CF90BF90AF9028
:100E10009F908F900895CF92DF92EF92FF920F9361
:100E20001F93CF93DF931F92CDB7DEB7182F062FF6
:100E3000E42E862F880F8E5F99830E94C90F83E06E
:100E40000E94C90FF12EC12E9981D92E8C2D8F1998
:100E5000801798F4F601E7FE02C0849101C08081FA
:100E60000E94C90F182F80E00E94C90F8123FFEF55
:100E7000CF1ADF0A8111EACF01C081E00F90DF9124
:100E8000CF911F910F91FF90EF90DF90CF90089539
:100E9000DF92EF92FF920F931F93CF93DF93D82EA1
:100EA0008A017B01E40EF51EEB01CE15DF0571F022
:100EB000D7FE03C0FE01849101C088810E94C90F42
:100EC00021968111F2CF8FEF9FEF01C0C801DF9112
:100ED000CF911F910F91FF90EF90DF9008950F93A6
:100EE0001F93CF93DF931F92CDB7DEB782E0898344
:100EF00042E450E069E975E080E80E9448070E94FA
:100F0000F105DC0112960D911C9113970115110545
:100F100069F0D801ED91FC910280F381E02DBE01D2
:100F20006F5F7F4FC801099597FF07C089810F90B8
:100F3000DF91CF911F910F910895F80100851185E0
:100F4000E5CF8F929F92AF92BF920F931F93CF9353
:100F5000DF93CDB7DEB7A1970FB6F894DEBF0FBE13
:100F6000CDBF19A2423008F44AE08E010F5D1F4F39
:100F7000842E912CA12CB12CA50194010E948A14DD
:100F8000E62FB901CA0101501109EA3014F4E05DFD
:100F900001C0E95CD801EC93232B242B252B61F7AE
:100FA0000115110571F0F80101900020E9F7319762
:100FB000AF01401B510BB8018FE795E00E94A60AD4
:100FC00002C080E090E0A1960FB6F894DEBF0FBE9D
:100FD000CDBFDF91CF911F910F91BF90AF909F90A8
:100FE0008F90089580916F018EBDE0E7F1E08191CF
:100FF0000DB407FEFDCF8EBD85E0EF36F807B9F7DB
:101000000DB407FEFDCF08951F920F920FB60F92F9
:1010100011248F939F938091E1009091E100937F41
:101020009093E10083FF0FC01092E90091E090934C
:10103000EB001092EC0092E39093ED0010926E01A1
:1010400098E09093F00082FF20C093E09093E90035
:101050009091F200992319F09AE39093E80090910F
:101060009D05992339F090919D05915090939D0590
:10107000992389F190916D01992339F090916D0137
:10108000915090936D01992341F184FF10C080919C
:10109000E2008E7E81608093E2008091E1008F7E8D
:1010A0008093E10080916C018E7E806111C080FF91
:1010B00016C08091E2008E7E80618093E200809174
:1010C000E1008E7E8093E10080916C018E7E8160D4
:1010D00080936C0104C05D9ACDCF289AD6CF9F91A2
:1010E0008F910F900FBE0F901F9018951F920F9227
:1010F0000FB60F921124CF92DF92EF92FF920F93CF
:101100001F932F933F934F935F936F937F938F938F
:101110009F93AF93BF93EF93FF93CF93DF93CDB79D
:10112000DEB76C97DEBFCDBF1092E9008091E8007A
:1011300083FFEDC168E0CE0145960E94F70F82EF74
:101140008093E8008D8987FF05C09091E80090FFAB
:10115000FCCF03C09EEF9093E800982F907609F0A3
:10116000C6C09E892F89188D91110CC0803829F432
:1011700080916B018093F10002C01092F1001092F7
:10118000F10048C1422F50E0512B913051F48111B0
:1011900041C14130510509F03DC180916B018D7F06
:1011A0000BC0933061F4811135C14130510509F014
:1011B00031C180916B01826080936B012BC19530AE
:1011C00041F48091E80080FFFCCF20682093E30089
:1011D00021C1963009F05FC0EB8CFC8C1092E900C5
:1011E0001092690110926801123091F51092670116
:1011F000109266010E946F0799E0BE016F5F7F4FFA
:10120000DB01E92F1D92EA95E9F799831A8391E0B2
:101210009E8390EA98879AEF998720916801309190
:101220006901275F3F4F3C832B838D831092E90038
:101230001092690110926801F0926701E0926601D4
:1012400049E050E080E00E9448070E946F07E2C03A
:10125000F0926701E09266010E94F105DC011296AE
:10126000ED90FC901397E114F10409F4C0C0D7018C
:10127000ED91FC910480F581E02DBE016B5E7F4F06
:10128000C7010995009719F00CF0C4C0C7C0F70159
:10129000E084F184E8CF973009F4C0C0983021F49D
:1012A00081E08093F100B6C0993009F0B3C083703B
:1012B00009F0B4C0E0E3F1E081E021E036E39081A1
:1012C000992361F08093E9002093EB009191909332
:1012D000EC003093ED008F5F873089F78EE78093C5
:1012E000EA001092EA008F8980936E0193C08B8D83
:1012F0009C8D1092E9001092690110926801909300
:10130000670180936601898D811156C08E899D8900
:10131000913A59F4813209F081C047E050E067E228
:1013200071E080E00E94480775C0913209F076C0F4
:10133000833289F4888D90E0982F88272F89822B1B
:10134000A0E0B0E08093230190932401A0932501B5
:10135000B09326015FC0803269F48091E80082FF7B
:10136000FCCF67E087E291E00E94F70F8BEF80935C
:10137000E80006C0823209F04DC08F8980932E01AB
:1013800080916A01882319F0EEEFFAE002C0E0E0F4
:10139000F8E08091270190912801A0912901B09156
:1013A0002A01803B9440A105B10509F07BC08091E2
:1013B0002E0180FF93C076C00E94F105DC011296D9
:1013C0000D911C9113970115110541F1D801ED9173
:1013D000FC910190F081E02DBE016B5E7F4FC80152
:1013E0000995811117C0F80100851185ECCF1130E6
:1013F00009F44EC0133091F48F89882309F445C055
:10140000823081F440E860E18DEF95E00E940B07A7
:10141000882321F08EEF8093E80079C081E28093E9
:10142000EB0075C0813029F440E86BE081EF95E076
:10143000EDCF833099F70E94F105DC011296ED9013
:10144000FC9013978E010F5F1F4F6801E114F104A8
:1014500079F0D701ED91FC910680F781E02DB8017C
:10146000C7010995080F111DF701E084F184EECF43
:10147000D8011C92F60101900020E9F73197BF01D5
:101480006C197D0940E0C601C1CF6BED75E002C06B
:101490006FED75E06115710509F2FB01449150E0B3
:1014A00080E840CF0FB6F894A895809160008861DD
:1014B00080936000109260000FBEA895EE3F2AE076
:1014C000F20739F08091FE0A9091FF0A91838083A0
:1014D000A1CF1092FF0A1092FE0A9CCFEE3F8AE045
:1014E000F80731F0808191819093FF0A8093FE0A82
:1014F00087E797E7918380839BE088E10FB6F894B4
:10150000A895809360000FBE9093600083CF6C9687
:101510000FB6F894DEBF0FBECDBFDF91CF91FF9124
:10152000EF91BF91AF919F918F917F916F915F915B
:101530004F913F912F911F910F91FF90EF90DF906E
:10154000CF900F900FBE0F901F901895CF92DF9203
:10155000EF92FF920F931F93CF93DF936C017A0169
:101560008B01C0E0D0E0CE15DF0589F0D8016D9188
:101570008D01D601ED91FC910190F081E02DC60125
:101580000995892B11F47E0102C02196ECCFC70189
:10159000DF91CF911F910F91FF90EF90DF90CF904F
:1015A00008953FB7F8948091040690910506A091A4
:1015B0000606B091070626B5A89B05C02F3F19F077
:1015C0000196A11DB11D3FBFBA2FA92F982F8827C3
:1015D000820F911DA11DB11DBC01CD0142E0660F1E
:1015E000771F881F991F4A95D1F70895809165014B
:1015F000E0916301F0916401882349F0CF010296E4
:101600009093640180936301859194910895CF0133
:101610000296909364018093630180819181089583
:1016200080915C0108950895089580E090E0089508
:101630000E942F168F929F92AF92BF92CF92DF920D
:10164000EF92FF926B017C010E94D10A4B015C0179
:10165000C114D104E104F104F1F00E94D10ADC01CB
:10166000CB0188199909AA09BB09883E9340A105B5
:10167000B10570F321E0C21AD108E108F10888EE43
:10168000880E83E0981EA11CB11CC114D104E10492
:10169000F10419F7DDCFFF90EF90DF90CF90BF906E
:1016A000AF909F908F9008951F920F920FB60F9258
:1016B00011242F933F938F939F93AF93BF93809168
:1016C0005D0190915E01A0915F01B0916001309148
:1016D000030623E0230F2D3720F40196A11DB11D31
:1016E00005C026E8230F0296A11DB11D2093030615
:1016F00080935D0190935E01A0935F01B0936001C0
:101700008091040690910506A0910606B091070607
:101710000196A11DB11D8093040690930506A09328
:101720000606B0930706BF91AF919F918F913F91AD
:101730002F910F900FBE0F901F901895CF92DF92B0
:10174000EF92FF920F931F93CF93DF930E94F60ABD
:10175000811520E8920761F4809171008D7F80935C
:10176000710010929100469847981092FC058BC02A
:1017700021E02093FC05813020E8920751F480910C
:1017800061019091620190936401809363010E94D2
:10179000F60A97FD05C02091FB05222309F43FC0FE
:1017A0002091FA0521113BC021E02093FD05EC01B9
:1017B000DF77209769F481E08093FE0546983FE942
:1017C000C32E3FE0D32EE12CF12CCAEFD0E014C0A1
:1017D0008E0120E030E060E472E48FE090E0A90147
:1017E00098010E946B1469017A0181E0C81AD1083E
:1017F000E108F1081092FE05E0917D05F0917E056B
:101800000995811103C081E08093FE058091FD055B
:101810008823B9F18091FE05811133C003C0109275
:10182000FD05C5CF46992DC0479A0E94F60A00973C
:1018300071F09C01DE010E94AC14DC01CB0129E0B7
:10184000B595A795979587952A95D1F703C08FEF02
:101850009FEFDC01109290002AE020939100D0923B
:101860009900C09298008093FF0590930006A09382
:101870000106B0930206809171008260809371002E
:1018800002C04798D2CFDF91CF911F910F91FF9067
:10189000EF90DF90CF9008951F920F920FB60F92A6
:1018A00011242F933F934F935F936F937F938F9365
:1018B0009F93AF93BF93EF93FF938091FF05909118
:1018C0000006A0910106B0910206892B8A2B8B2B72
:1018D00081F18091FE0581110BC098B180E48927C8
:1018E00088B98091FD05882319F088B1805888B99E
:1018F0008091FF0590910006A0910106B09102062B
:10190000181619061A061B06B4F48091FF0590916B
:101910000006A0910106B09102060197A109B10944
:101920008093FF0590930006A0930106B0930206F2
:1019300002C00E949E0BFF91EF91BF91AF919F91CA
:101940008F917F916F915F914F913F912F910F9068
:101950000FBE0F901F9018954F925F926F927F92DB
:101960008F929F92AF92BF92CF92DF92EF92FF92AF
:101970000F931F93CF93DF9300D000D0CDB7DEB786
:1019800049012C2DA02EB12CDC01AA0DBB1D1A166D
:101990001B060CF0B3C1803891050CF0AFC1FB0100
:1019A000EE0DF11D1E161F060CF0A8C16034710566
:1019B0000CF0A4C14115510509F4A0C1FB0177FF4A
:1019C00004C0EE27FF27E61BF70B3E2F3770732E60
:1019D000FB0177FD379633E0F595E7953A95E1F70A
:1019E0003E2F77FF07C0772029F03FEF3E0F68E0DA
:1019F0006719762E97FF05C0EE27FF27E81BF90B26
:101A000002C0E0E0F0E0A038B10524F060E8F62E76
:101A1000F81A01C0F02EFE1A632F032E000C770B6C
:101A20003F3F1CF4A62FA09501C0A0E011E0BE2D01
:101A3000B77009F410E0E694E694E694E10E6E0DBA
:101A4000711D693071051CF068E0E62EE31AEA1A90
:101A50003A0F60E83603800D911D11248E0F9F1FF1
:101A6000A09FE00DF11D11244E0F5F1F61E070E09B
:101A7000072C02C0660F771F0A94E2F7233009F49F
:101A8000FCC098F4213009F4AEC0223009F036C110
:101A90002FEF269F8001279F100D11240095109590
:101AA0001C830B835C80E30E27C02A3F29F02B3F69
:101AB00009F024C1E30E83C0E30E4EC0FA01EC0D21
:101AC000FD1DE491E69F4001E79F900C11249A824E
:101AD000898237FD04C02C912023822A8C927110B8
:101AE00014C0EFEFCE1ADE0A1196CF1438F33F5F21
:101AF0004A0D5B1D80589F4F3E1509F4FFC0DC0165
:101B0000A159BE4FC12CD12CF0CF373054F7FD0175
:101B1000E058FF4F208125219A8029292083E1CF99
:101B2000FA01E00FF11FE491E69F6001E79FD00CFE
:101B30001124DA82C98237FD03C02C91C22ACC92CB
:101B4000711013C00F5F1F4F11960F1548F33F5FC1
:101B50004A0D5B1D80589F4F3E1509F4CFC0DC0134
:101B6000A159BE4F00E010E0F0CF37305CF7FD0127
:101B7000E058FF4FD0802A812D292083E3CFFA013E
:101B8000EC0DFD1DE491E69FD001E79FB00D1124FF
:101B9000BA83A98337FD05C0A095F8012081A2234F
:101BA000A083711015C0FFEFCF1ADF0A0F5F1F4F20
:101BB000CF1428F33F5F4A0D5B1D80589F4F3E15A1
:101BC00009F49CC08C0101591E4FC12CD12CF0CFBF
:101BD00037304CF7F801E058FF4F2A812095A0815B
:101BE0002A232083E0CFD401AE0FBF1FE30E3E15A2
:101BF00009F484C0FC01E159FE4F4F01C12CD12CE6
:101C0000CF1498F5FD01EC0DFD1DE491E69F8001D8
:101C1000E79F100D1124009510951C830B83FA018A
:101C2000EC0DFD1DE491E69F2001E79F500C11246F
:101C30005A82498237FD05C0F40120810223402ADF
:101C40004082772059F037304CF4F401E058FF4FD0
:101C500010812C8121231A81212B2083FFEFCF1AA1
:101C6000DF0A2FEF821A920ACBCF3F5F4A0D5B1D2E
:101C7000AA0DBB1D80589F4FBACFCF2CD12CE40F9B
:101C8000F51FDC01A159BE4FAC0141515E4F00E888
:101C900010E00C191D09AC18BD08AA0CBB1C6F2C58
:101CA0002E2DCF93DF93EA018590C590772059F0D0
:101CB000869E4001C69E600137302CF49881D094F6
:101CC0009D219929999333233AF09C91C0949C21AA
:101CD00098299D930C946D0E1196FA9429F7EA9425
:101CE00051F0F62C33951124EA0DF11DA00FB11D12
:101CF000C00FD11DD9CFDF91CF9111240F900F903C
:101D00000F900F90DF91CF911F910F91FF90EF9067
:101D1000DF90CF90BF90AF909F908F907F906F900B
:101D20005F904F900895BC0180E090E00C941A0BF6
:101D30008FB12CB193B130E02095309520743327CA
:101D4000A90123E0559547952A95E1F7292F30E021
:101D50002095309520713327359527953595279512
:101D6000242B8095807F822B089583B7817F83BF4A
:101D700083B7816083BF889583B78E7F83BF0895C3
:101D80008EBD00000DB407FEFDCF0895EEE0FBE030
:101D900090E1969FD001A0781124A80F6770E60FFC
:101DA000F11D9491A159BE4F442319F08C91982BA9
:101DB00003C090958C9198239C9308952F923F9205
:101DC0004F925F926F927F928F929F92AF92BF924B
:101DD000CF92DF92EF92FF920F931F93CF93DF93F7
:101DE000CDB7DEB727970FB6F894DEBF0FBECDBFD5
:101DF000FC016A3069F4248D808D918D38E0239F39
:101E0000800D911D1124918F808F178A168AA6C08C
:101E10006D3009F4A3C09F838E83348C238D298376
:101E2000328D3A83608C718CE688F78880E8E816FA
:101E3000F104C4F0AE81BF815C962C915C97422F77
:101E400050E056968D919C915797B6E02B9F800D50
:101E5000911D1124EE81FF81978B868B258D211199
:101E600067C07CC0F0E46F16710424F7C70125E059
:101E7000329E800D911D112418161906DCF6432C94
:101E8000512CC30138E0339E800D911D112418168A
:101E9000190684F685E0689F80011124025F194FBE
:101EA00020E0F8012490253009F4212C430158E06A
:101EB00020FC02C0398101C03A8131110BC0F98187
:101EC0008A81F81307C026945150840C951C511137
:101ED000EFCF25C067018C2D8E198315A0F7540113
:101EE0008A2D88198315B8F490E8C916D10478F4BE
:101EF000A0E4AA16B10458F4432FB501C6012C83FF
:101F00003B835D830E94C60E5D813B812C81BFEFC8
:101F1000AB1ABB0AE5CFEFEFCE1ADE0ADCCF2F5F9C
:101F2000E40CF51C0F5F1F4F263009F0BACF82CFAB
:101F30006AEF64039001659F300D112420583F4FD4
:101F4000281739075CF4AE81BF81ED91FC911197A0
:101F50000190F081E02D6AE0CD01099581E090E0EB
:101F600027960FB6F894DEBF0FBECDBFDF91CF919D
:101F70001F910F91FF90EF90DF90CF90BF90AF90A7
:101F80009F908F907F906F905F904F903F902F9099
:101F90000895409168015091690120916601309146
:101FA000670142175307B4F49091E8009570E1F38C
:101FB0009091E80092FD19C08093F1008091680132
:101FC0009091690101968F739927892B19F48EEFEF
:101FD0008093E80080916801909169010196909347
:101FE00069018093680181E0089580E0089561505F
:101FF00030F02091F100FC0120830196F8CF289861
:1020000084E680936D010895789484B5826084BDE0
:1020100084B5816084BD85B5826085BD85B58160EC
:1020200085BD80916E00816080936E00109281006A
:102030008091810082608093810080918100816025
:1020400080938100809180008160809380008091E6
:1020500091008260809391008091910081608093D3
:102060009100809190008160809390008091C100E8
:1020700084608093C1008091C10082608093C10020
:102080008091C10081608093C1008091C300816014
:102090008093C3008091C00082608093C0008091D3
:1020A000C20081608093C20080917A008460809336
:1020B0007A0080917A00826080937A0080917A0021
:1020C000816080937A0080917A00806880937A00A2
:1020D00010926E0110926B0110926C018091D700EA
:1020E00081608093D70080EA8093D80089B58061B1
:1020F00089BD89B5826089BD09B400FEFDCF61E06C
:1021000070E080E090E00E941A0B8091D8008F7CF4
:1021100080618093D8008091E000807F8093E00010
:102120008091E1008E7E8093E1008DE08093E2005B
:10213000559A209AEEEFFFE7859194918B3F9C4D45
:1021400019F481E080936A0181EC80937C0085B171
:10215000806F85B9249884B1866E84B95E9A5F9841
:102160008AB1806D8AB9769A6E9881B3806F81BB8F
:10217000899880B38D7080BB80E58CBD81E08DBD7A
:1021800085E090E00E94930E5F9A85E090E00E94C7
:10219000930E5E985C98CCEAD0E01C2F135FFE0192
:1021A00084910E94C00E21961C13F9CF5C9A81E89D
:1021B0008093640081E080936500C0E0D4E080E01B
:1021C0000E94C00E2197D9F70E94980E87FF1FC06A
:1021D0005C9885EA0E94C00E5C9A2E982F982D98E4
:1021E000809164008062809364000E94B50EFDCFF0
:1021F0002D980E94980E8478843871F00E94980E71
:102200008471843129F188EC90E00E94930E0E9441
:10221000980E82FDEDCF38C02D9A88EC90E00E9498
:10222000930E2F9882E090E00E9455148F3F29F082
:102230006FEF82E090E00E945D1484EF91E00E94D5
:10224000930E2F9A0E94980E84788438D9F3D6CFB3
:102250002D9A88EC90E00E94930E2E9882E090E0F8
:102260000E945514882329F060E082E090E00E94EB
:102270005D1484EF91E00E94930E2E9A0E94980EB6
:1022800084718431D9F3BFCF2D9A82E090E00E940F
:102290005514882331F03E9A3F9A81E080935C0187
:1022A00004C010925C013E983F9882E390E00E9447
:1022B000930E0E94980E8111F8CF6FE6262E61E0F2
:1022C000362E76E9872E912CE2E0AE2EB12C2FB778
:1022D000F89480915D0190915E01A0915F01B091B1
:1022E00060012FBF40918F0550919005609191053D
:1022F00070919205D0919305DD2341F020918B05DB
:10230000821B80939405109293053EC28417950713
:10231000A607B70738F4481B423008F435C20E94BC
:10232000B50E32C2C1E0C093930580938B059093A4
:102330008C05A0938D05B0938E0520918A05820FA0
:10234000911DA11DB11D80938F0590939005A093C1
:102350009105B0939205809186059091870501962D
:1023600090938705809386058091880580938905E1
:102370000E94980E482F80938805F101D111DFEF5C
:102380000024D193D193D193D1930394D1F7109298
:1023900098051092970510929605109295056091F8
:1023A0001E0170911F012091200130E06217730718
:1023B000B4F46F5F7F4F70931F0160931E01809193
:1023C0001D0190E0EFE4F3E00491E0E5F3E0E49038
:1023D0005AEFC52E20E030E041E553E07EC0D091B9
:1023E0008605909187058D2FB4010E941516892BC3
:1023F00021F080911B01882371F081E080931B0103
:10240000809189058C7800910A01C0910001882390
:1024100009F468C0A3C030931F0120931E0180916E
:102420001C01811133C0809171008D7F80937100F8
:10243000109265018FE695E09093640180936301AB
:10244000909362018093610186E194E0909370051E
:1024500080936F0582E390E09093720580937105FD
:102460008DE298E0909374058093730584E690E084
:10247000909376058093750580E090E890937805B9
:10248000809377050E949E0BC0931C0160911E01F2
:1024900070911F0180911D0190E0E7ECF1E0049143
:1024A000E8ECF1E0E4903AEFC32E20E030E049ECB4
:1024B00051E00E94AC0C6091220170E080912101FA
:1024C00090E0E9EBF0E00491EAEBF0E0E49043E027
:1024D000C42E20E030E04BEB50E00E94AC0C0E9498
:1024E000F20752C14C78D1F1602F70E080E090E0AB
:1024F0000E94651520910501309106014091070168
:10250000509108010E94BC146B017C016C2F70E09B
:1025100080E090E00E9465159B01AC01C701B60107
:102520000E94281581111AC02091130130911401C5
:10253000409115015091160160910B0170910C01B1
:1025400080910D0190910E010E94BB1460930B01CC
:1025500070930C0180930D0190930E01D0FD11C07A
:1025600040911801242F30E08091170190E00197ED
:102570002817390724F44F5F4093180102C01092C6
:10258000180140900B0150900C0160900D0170906B
:102590000E012091050130910601409107015091F3
:1025A0000801C301B2010E94BC146B017C0160935D
:1025B000050170930601809307019093080110E0D4
:1025C000D0E0B801012E000C880B990B0E94651514
:1025D0009B01AC01C701B6010E94BC146B017C01D8
:1025E000BE010D2E000C880B990B0E9465159B01F6
:1025F000AC01C701B6010E94281587FF15C02091C4
:102600000F01309110014091110150911201C3014D
:10261000B2010E94BC1460930B0170930C01809373
:102620000D0190930E0118C010920B0110920C0135
:1026300010920D0110920E01C01BD10BBE01DD0FD7
:10264000880B990B0E946515609305017093060134
:102650008093070190930801B0929605A09295058A
:10266000B0929805A0929705C0901901D0901A01D8
:102670000D2C000CEE08FF08F7FE14C0E0917F055A
:10268000F09180050190F081E02D6DE28FE795E0FB
:10269000099566277727CB016C197D098E099F095B
:1026A0004AE003C04AE0C701B6010E94A107C091F9
:1026B000000180E48C1BD0E000E010E06E01C80E49
:1026C000D11C7E01C60121E4C216D10414F080E4BD
:1026D00090E0E816F9064CF441E0B701C8010E9409
:1026E000C60EFFEFEF1AFF0AEDCF0F5F1F4F003846
:1026F000110539F7C091180160910501709106012B
:1027000080910701909108010E942D152B013C0139
:102710006091010170910201809103019091040187
:102720000E942D15DC01CB01E7EDF4E00491E8ED0A
:10273000F4E0E490CC2301F1402F50E02E2D2695BB
:1027400026952695622F70E021E030E0EE2DE770AF
:1027500011F420E030E0260F371F429FB001439F65
:10276000700D529F700D1124C69FA001C79F500D80
:10277000112447525B4F02C049ED54E02AEFC22EAC
:1027800020E030E0B201A9CE80E090E0892B09F48E
:102790009ECD0E9400009BCDEAEAF5E013821282F2
:1027A00088EE93E0A0E0B0E084839583A683B783AE
:1027B0008AE391E0918380838FEF9FEF95878487F1
:1027C000EFE7F5E0138212821186128620E123875B
:1027D00090878783108A118A128A138A148A8CE45C
:1027E00091E0918380838AE591E095838483178AC1
:1027F000168A118E108E81E0828F138E848F158E33
:1028000080E19BE090937E0580937D0580E090E8D9
:1028100090937C0580937B0546983E9A47983F9A13
:1028200008950F931F93CF93DF938C0181E090E085
:102830000E94551480FF31C08AE090E00E94551438
:102840009FEF980F9E3F48F522E330E0D80157965E
:102850003C932E93569728E330E059963C932E9361
:102860005897CBE0D0E0D801ED91FC910190F08138
:10287000E02D682FC8010995CE010E9455142196BC
:10288000C131D10581F70E94F20788EE93E0DF9114
:10289000CF911F910F910C94930EDF91CF911F91C7
:1028A0000F91089504970C941114F999FECF92BDDD
:1028B00081BDF89A992780B50895262FF999FECF02
:1028C0001FBA92BD81BD20BD0FB6F894FA9AF99A4D
:1028D0000FBE01960895052E97FB1EF400940E94EA
:1028E000821457FD07D00E948A1407FC03D04EF4CF
:1028F0000C94821450954095309521953F4F4F4F41
:102900005F4F089590958095709561957F4F8F4F9B
:102910009F4F0895A1E21A2EAA1BBB1BFD010DC0FB
:10292000AA1FBB1FEE1FFF1FA217B307E407F5077F
:1029300020F0A21BB30BE40BF50B661F771F881F5B
:10294000991F1A9469F760957095809590959B01F1
:10295000AC01BD01CF010895A29FB001B39FC0019A
:10296000A39F700D811D1124911DB29F700D811DBB
:102970001124911D08955058BB27AA270E94D314F3
:102980000C94DB150E94CD1538F00E94D41520F070
:1029900039F49F3F19F426F40C94CA150EF4E0950F
:1029A000E7FB0C94C415E92F0E94EC1558F3BA17F5
:1029B000620773078407950720F079F4A6F50C9455
:1029C0000E160EF4E0950B2EBA2FA02D0B01B901B7
:1029D00090010C01CA01A0011124FF27591B99F095
:1029E000593F50F4503E68F11A16F040A22F232FA1
:1029F000342F4427585FF3CF469537952795A795F1
:102A0000F0405395C9F77EF41F16BA0B620B730B97
:102A1000840BBAF09150A1F0FF0FBB1F661F771F08
:102A2000881FC2F70EC0BA0F621F731F841F48F4BD
:102A3000879577956795B795F7959E3F08F0B0CF46
:102A40009395880F08F09927EE0F9795879508952D
:102A50000E94A01508F481E008950E94341568943E
:102A6000B1110C940F1608950E94F41588F09F5729
:102A700098F0B92F9927B751B0F0E1F0660F771FA2
:102A8000881F991F1AF0BA95C9F714C0B13091F098
:102A90000E940E16B1E008950C940E16672F782F41
:102AA0008827B85F39F0B93FCCF38695779567955D
:102AB000B395D9F73EF490958095709561957F4FC9
:102AC0008F4F9F4F0895E89409C097FB3EF490956F
:102AD0008095709561957F4F8F4F9F4F9923A9F0F7
:102AE000F92F96E9BB279395F69587957795679586
:102AF000B795F111F8CFFAF4BB0F11F460FF1BC0CA
:102B00006F5F7F4F8F4F9F4F16C0882311F096E95C
:102B100011C0772321F09EE8872F762F05C066230A
:102B200071F096E8862F70E060E02AF09A95660FC3
:102B3000771F881FDAF7880F9695879597F908957C
:102B4000990F0008550FAA0BE0E8FEEF16161706BE
:102B5000E807F907C0F012161306E407F50798F026
:102B6000621B730B840B950B39F40A2661F0232B3F
:102B7000242B252B21F408950A2609F4A140A695BB
:102B80008FEF811D811D089597F99F6780E870E0A0
:102B900060E008959FEF80EC089500240A941616D3
:102BA000170618060906089500240A94121613063B
:102BB000140605060895092E0394000C11F48823C9
:102BC00052F0BB0F40F4BF2B11F460FF04C06F5FE5
:102BD0007F4F8F4F9F4F089557FD9058440F551FBB
:102BE00059F05F3F71F04795880F97FB991F61F08F
:102BF0009F3F79F087950895121613061406551F06
:102C0000F2CF4695F1DF08C0161617061806991F71
:102C1000F1CF86957105610508940895E894BB2766
:102C200066277727CB0197F90895AA1BBB1B51E1B3
:102C300007C0AA1FBB1FA617B70710F0A61BB70B2C
:102C4000881F991F5A95A9F780959095BC01CD01D1
:102C50000895EE0FFF1F0590F491E02D099481E097
:0C2C600090E0F8940C943416F894FFCF28
:102C6C0036000020410000000010100000000000A1
:102C7C0000403F0000D0400600000000001DD2FFC5
:102C8C00051E2EFFFFFFFF00E1000000000000000A
:102C9C00C1808100000000000000050686062606A3
:102CAC001B066C062A06480600000000DE0EA60A6B
:0C2CBC00150B140B1114FCFF0000521447
:00000001FF
