:100000000C949E060C94C6060C94C6060C94C60668
:100010000C94C6060C94C6060C94C6060C94C60630
:100020000C94C6060C94C6060C94C5080C943709AB
:100030000C94C6060C94C6060C94C6060C94C60610
:100040000C94C6060C94C6060C94C6060C94C60600
:100050000C94C6060C94C6060C94C6060C946F0C41
:100060000C94C6060C94C6060C94C6060C94C606E0
:100070000C94C6060C94C6060C94C6060C94C606D0
:100080000C94670D0C94C6060C94C6060C94C60618
:100090000C94C6060C94C6060C94C6060C94C606B0
:1000A0000C94C6060C94C6060C94C606D5F08D14A6
:1000B000A1C881CFD9F1AF2000430D00F800FCF8B2
:1000C000FEFCFF0CFF0CFF1CFF18FE00FCF8FEFC02
:1000D000FF0CFF0CFFFCFFF8FE00FEFCFFFCFF78AE
:1000E000FEF0FC78FEFCFFFCFF00FEFCFFFCFFCCFA
:1000F000FFCCFFFCFF78FE00FE3CFF7CFFE0FEE053
:10010000FE7CFF3CFF00FEF8FEFCFF0CFF0CFF1C1A
:10011000FF18FE00FCF8FEFCFF0CFF0CFFFCFFF8D4
:10012000FE00FEFCFFFCFFCCFFCCFFFCFF78FE00D6
:10013000FEFCFFFCFF6CFF6CFF0CFF0CFF001E00C1
:100140000C00030007030F071F061F061F071F03EE
:100150000F0007030F071F061F061F071F030F00CF
:100160000F071F071F000F0007000F071F071F00C3
:100170000F071F071F000F0007000300010000000A
:1001800007000F071F071F000F00070007030F07D7
:100190001F061F061F071F030F0007030F071F0679
:1001A0001F061F071F030F000F071F071F000F0069
:1001B0000F071F071F000F071F071F061F061F0639
:1001C0001F061F000F0006412E0000000000000067
:1001D000000000000000C0E0F0F8FCFCFEFE04009F
:1001E000000000000000000080808080808080800F
:1001F000808080800002071FFFFEFEFCFCF8F0E01C
:10020000800000000000000000000000000000006E
:100210000000000000001E7FFFFFFFFFFFFFFFFF49
:10022000FEFCFC06060303030301010101010101B9
:10023000010101010103030307070F1F3F7FFFFFB8
:100240003F070000000000000000000000808080E8
:10025000808080C0C0C0C0E0F0FD8F0307070707A3
:10026000070301000080C0E0E0F0F0F0F0F0F06083
:1002700000C0E0E0F0F0F0F0F0E0D83C9CDCDC986E
:10028000333F7FFFDFDF6F6F371B0E0402070D1B4D
:100290003337676F6FCFCFCFCFDFDF1F1E00000078
:1002A0000000000000010D070301010130180C0CD3
:1002B0000C1800030F1F7FFF9F9F0F0F0FCD3303FD
:1002C00001000000FFFF000000000000000000002F
:1002D0000000000000000000000000030F1C306060
:1002E000C0800000000000000000000000000000CE
:1002F00000000000003830200020202111D1D0E87B
:10030000C7E2B01C0F030000000000000000000066
:1003100000000000000000000000000000000000DD
:10032000000001030306060C0C18181818303030B2
:100330003030303018181818180C0C0C0606030151
:10034000030703000000000000000000000000415F
:100350002E00000000000000000000000000C0E0CF
:10036000F0F8FCFCFEFE04000000000000000000AD
:100370008080808080808080808080800002071F55
:10038000FFFEFEFCFCF8F0E0800000000000000032
:1003900000000000000000000000000000001E7FC0
:1003A000FFFFFFFFFFFFFFFFFEFCFC06060303034A
:1003B0000301010101010101010101010103030325
:1003C00007070F1F3F7FFFFF3F07000000000000EF
:1003D0000000000000808080808080C0C0C0C0E03D
:1003E000F0FD8F0307070707070301000080C0E047
:1003F000E0F0F0F0F0F0F06000C0E0E0F0F0F0F0DD
:10040000F0E0D83C9CDCDC98333F7FFFDFDF6F6F90
:10041000371B0E0402070D1B3337676F6FCFCFCF2B
:10042000CFDFDF1F1E0000000000000000010D07ED
:1004300003010101183C7E7E7E3C18030F1F7FFFE5
:100440009F9F0F0F0FCD330301000000FFFF00003F
:10045000000000000000000000000000000000009C
:10046000000000030F1C3060C0800000000000008E
:1004700000000000000000000000000000383020F4
:100480000020202111D1D0E8C7E2B01C0F030000EA
:10049000000000000000000000000000000000005C
:1004A0000000000000000000000001030306060C2D
:1004B0000C18181818303030303030301818181820
:1004C000180C0C0C060603010307030000000000D3
:1004D0000000000000000010100000000000F0E02C
:1004E000F0E0F0E0F0E0F0E0F0E0F0E0F0E0F0E08C
:1004F000F0E0F000F0000000000000000000FF7FCE
:10050000FF7FFF7FFF7FFF7FFF79FF7FFF7FFF7907
:10051000FF7FFF00FF000000000000000000C0801F
:10052000F8F0F8F0F8F0F8E0F8E0F0E0F0E0F0C013
:10053000F0C0E0C0E000E000000000003E1C3F1FF3
:100540003F1F7F3F7F3F7F3F7F3CFF7FFF7FFF7CE1
:10055000FF0FFF011F0003000000000000008000EB
:10056000C080F0E0F8F0FCF8FCF0FCE0F8C0F0C06F
:10057000E080E000C00080000000000007020F07DC
:100580001F0F1F0F3F1F7F3FFF7CFF3FFF1F7F0499
:100590003F030F0107000300000000008000C0803F
:1005A000E0C0F0E0F8F0FCF8FCF8FCF0FCE0F8C08B
:1005B000F080E000C00080000000000007030F078B
:1005C0001F0F3F1F7F3FFF7FFF7CFF3FFF1F7F0C01
:1005D0003F071F030F000700000000008000C080DD
:1005E000E0C0E0C0F0E0F8F0FCF8FCF0FCE0F880DF
:1005F000F000C000800000000000000003010703BD
:100600000F073F1F7F3FFF7FFF3CFF1F7F0F3F0C08
:100610001F071F020F00070000000000E0C0E0C03D
:10062000E0C0F0E0F0E0F0E0F0E0F8F0F8F0F8F032
:10063000F880F800C00000000000000003011F0F58
:10064000FF7FFF7FFF7FFF3FFF3C7F3F7F3F7F1CA0
:100650007F1F3F1C3F003E0000080800FF7EFF4256
:10066000FF42E742FF7EFF7EFF00FF00E742E742D6
:10067000FF7EFF7EFF40FF40E000E000FF7AFF5A70
:10068000FF5AFF5AFF5EFF5EFF00FF00FF5AFF5A4E
:10069000FF5AFF5AFF7EFF7EFF00FF003F1E3F18FC
:1006A0003F183C18FF7EFF7EFF00FF00FF5EFF5AF1
:1006B000FF5AFF5AFF7AFF7AFF00FF00FF7EFF5AC2
:1006C000FF5AFF5AFF7AFF7AFF00FF000702070276
:1006D00007020702FF7EFF7EFF00FF00FF7EFF5A3A
:1006E000FF5AFF5AFF7EFF7EFF00FF003F1E3F1AAA
:1006F0003F1A3F1AFF7EFF7EFF00FF101800000028
:100700000000000000000000F0E0FFFEFFFEFFE040
:10071000FF00F000000000000000000000000000EA
:1007200000008000F0E0FFCCFF7BFF7BFFCDFFFFF0
:10073000FFFEFFE0FF00F00080000000000000006E
:1007400078307F3F7F3F7F387F3C7F3C7F387F3FE3
:100750007F3F7F3F7F3F7F307F00780000000000B9
:100760000000000000000000E0C0FEFCFEFCFEC037
:10077000FE00E0000000000000000000000000009B
:1007800000000000E0C0FEFCFF37FFEFFFEFFF3787
:10079000FFFCFFC0FE00E0000000000000000000C1
:1007A000F060FF7EFF7FFF7FFF73FF79FF79FF73AC
:1007B000FF7FFF7FFF7EFF60FF00F00000080B005F
:1007C00002020201000904000001020200000524E7
:1007D000001001052401010104240206052406007D
:1007E000010705810310004009040100020A00000E
:1007F00000070502024000000705830240000004D4
:1008000003090412010002EF020140412336800077
:10081000010102030141726475696E6F204C4C4303
:100820000041726475696E6F204C656F6E61726411
:100830006F0000000000003E5B4F5B3E3E6B4F6B65
:100840003E1C3E7C3E1C183C7E3C181C577D571CB1
:100850001C5E7F5E1C00183C1800FFE7C3E7FF002A
:1008600018241800FFE7DBE7FF30483A060E262978
:10087000792926407F050507407F05253F5A3CE73B
:100880003C5A7F3E1C1C08081C1C3E7F14227F2201
:10089000145F5F005F5F06097F017F006689956ACC
:1008A000606060606094A2FFA29408047E04081057
:1008B000207E201008082A1C08081C2A08081E1080
:1008C0001010100C1E0C1E0C30383E3830060E3E38
:1008D0000E06000000000000005F00000007000797
:1008E00000147F147F14242A7F2A122313086462C1
:1008F00036495620500008070300001C2241000022
:1009000041221C002A1C7F1C2A08083E080800807F
:100910007030000808080808000060600020100817
:1009200004023E5149453E00427F40007249494918
:10093000462141494D331814127F1027454545394A
:100940003C4A49493141211109073649494936464E
:100950004949291E0000140000004034000000082E
:1009600014224114141414140041221408020159D1
:1009700009063E415D594E7C1211127C7F4949495E
:10098000363E414141227F4141413E7F49494941F3
:100990007F090909013E414151737F0808087F0022
:1009A000417F41002040413F017F081422417F40A8
:1009B0004040407F021C027F7F0408107F3E41417F
:1009C000413E7F090909063E4151215E7F091929EF
:1009D00046264949493203017F01033F4040403FD9
:1009E0001F2040201F3F4038403F6314081463031A
:1009F000047804036159494D43007F414141020499
:100A0000081020004141417F04020102044040409F
:100A10004040000307080020545478407F28444495
:100A2000383844444428384444287F3854545418AF
:100A300000087E090218A4A49C787F0804047800AA
:100A4000447D40002040403D007F1028440000418C
:100A50007F40007C047804787C080404783844449F
:100A60004438FC1824241818242418FC7C08040496
:100A700008485454542404043F44243C4040207CFF
:100A80001C2040201C3C4030403C44281028444C52
:100A90009090907C4464544C44000836410000001F
:100AA000770000004136080002010204023C2623C0
:100AB000263C1EA1A161123A4040207A3854545578
:100AC0005921555579412154547841215554784044
:100AD00020545579400C1E527212395555555939CA
:100AE0005454545939555454580000457C4100021F
:100AF000457D420001457C40F0292429F0F028255D
:100B000028F07C545545002054547C547C0A097FBD
:100B10004932494949323248484832324A484830D5
:100B20003A4141217A3A42402078009DA0A07D3987
:100B3000444444393D4040403D3C24FF2424487E09
:100B40004943662B2FFC2F2BFF0929F620C0887EF6
:100B5000090320545479410000447D413048484AFB
:100B600032384040227A007A0A0A727D0D19317DAE
:100B70002629292F28262929292630484D40203882
:100B80000808080808080808382F10C8ACBA2F1041
:100B90002834FA00007B000008142A142222142AA8
:100BA00014089500220095AA005500AAAA55AA5536
:100BB000AA000000FF00101010FF00141414FF0022
:100BC0001010FF00FF1010F010F0141414FC0014AB
:100BD00014F700FF0000FF00FF1414F404FC1414C9
:100BE00017101F10101F101F1414141F00101010C6
:100BF000F0000000001F101010101F10101010F057
:100C000010000000FF101010101010101010FF1036
:100C1000000000FF140000FF00FF00001F1017007D
:100C200000FC04F414141710171414F404F4000056
:100C3000FF00F714141414141414F700F714141408
:100C4000171410101F101F141414F4141010F010A7
:100C5000F000001F101F0000001F14000000FC1413
:100C60000000F010F01010FF10FF141414FF141007
:100C700010101F00000000F010FFFFFFFFFFF0F05A
:100C8000F0F0F0FFFFFF0000000000FFFF0F0F0F6C
:100C90000F0F38444438447C2A2A3E147E02020650
:100CA00006027E027E0263554941633844443C0497
:100CB000407E201E2006027E020299A5E7A5991C0F
:100CC0002A492A1C4C7201724C304A4D4D30304832
:100CD000784830BC625A463D3E494949007E010190
:100CE000017E2A2A2A2A2A44445F444440514A4425
:100CF0004040444A51400000FF0103E080FF0000F3
:100D000008086B6B083612362436060F090F0600EA
:100D10000018180000001010003040FF0101001FF3
:100D200001011E00191D1712003C3C3C3C00000054
:100D300000000102040810204080441611241FBE48
:100D4000CFEFDAE0DEBFCDBF11E0A0E0B1E0E2E23C
:100D5000F7E302C005900D92AA34B107D9F726E057
:100D6000AAE4B1E001C01D92AB33B207E1F716E08F
:100D7000CEE9D6E004C02197FE010E947D19CD394D
:100D8000D107C9F70E9463110C948F1B0C940000CB
:100D9000FC0180915C01811103C08FEF9FEF0895EA
:100DA0009FB7F89482E08093E9002091F20030E050
:100DB0001216130614F421E030E02115310559F024
:100DC000289884E680935B018091F1008083809174
:100DD000F200882319F09FBFC90108958BE6809324
:100DE000E800F9CF2FB7F89483E08093E900909161
:100DF000E800892F807295FF04C09091F20080E492
:100E0000891B2FBF08958091D10581110DC082E00B
:100E10008093CD0584E08093CE051092D00510928A
:100E2000CF0581E08093D1058DEC95E00895CF93B7
:100E3000DF931F92CDB7DEB76983DC01ED91FC91A2
:100E40000280F381E02D41E050E0BE016F5F7F4FF3
:100E500009950F90DF91CF91089583E08093E90089
:100E60008091F200882319F08AE38093E8000895C6
:100E70000E94F20690E00895CF93DF931F92CDB7C2
:100E8000DEB7FC018485958597FD05C02FEF3FEF08
:100E9000358724870BC0CE0101960E94C8060197B2
:100EA00019F4898190E002C08FEF9FEF0F90DF91DE
:100EB000CF9108950F931F93CF93DF931F92CDB7D8
:100EC000DEB78C01FC018485958597FF0EC0CE01AD
:100ED00001960E94C806019719F4298130E002C0EA
:100EE0002FEF3FEFF80135872487F801848595853A
:100EF0000F90DF91CF911F910F910895FC01848590
:100F0000958597FD0BC09FB7F89482E08093E90028
:100F10008091F2009FBF90E0019608959FB7F894EA
:100F200082E08093E9008091F2009FBF90E00895F5
:100F30008F929F92AF92BF92CF92DF92EF92FF92E9
:100F40000F931F93CF93DF935C016B017A01809124
:100F50001301882309F45BC080915C01882309F4A4
:100F600056C080915A0180FF05C08091E0008260E8
:100F70008093E000E70110E00AEF83E0882E9AE317
:100F8000992E2097D9F10E94F20681110AC00150D2
:100F900009F43DC061E070E080E090E00E94350C13
:100FA000F0CF282F30E0C217D3070CF48C2F4FB7A7
:100FB000F8948092E9009091E80095FF1DC0282FD9
:100FC00030E0C21BD30BF601982F915020F0819195
:100FD0008093F100FACFC20ED31E112319F0909224
:100FE000E80009C08091E80085FD06C09092E80005
:100FF00011E0209709F010E04FBFC3CF1111C3CF0C
:101000005D9884E68093CC051E141F0444F081E0B3
:1010100090E0F5019383828380E090E001C0C701F6
:10102000DF91CF911F910F91FF90EF90DF90CF90C4
:10103000BF90AF909F908F900895CF92DF92EF92E4
:10104000FF920F931F93CF93DF931F92CDB7DEB71D
:10105000182F062FE42E862F880F8E5F99830E940B
:10106000281183E00E942811F12EC12E9981D92EDA
:101070008C2D8F19801798F4F601E7FE02C0849139
:1010800001C080810E942811182F80E00E94281141
:101090008123FFEFCF1ADF0A8111EACF01C081E07F
:1010A0000F90DF91CF911F910F91FF90EF90DF9004
:1010B000CF900895DF92EF92FF920F931F93CF93FB
:1010C000DF93D82E8A017B01E40EF51EEB01CE15CD
:1010D000DF0571F0D7FE03C0FE01849101C0888155
:1010E0000E94281121968111F2CF8FEF9FEF01C04E
:1010F000C801DF91CF911F910F91FF90EF90DF908A
:1011000008950F931F93CF93DF931F92CDB7DEB750
:1011100082E0898342E450E06DEB77E080E80E9452
:101120005A080E940307DC0112960D911C91139737
:101130000115110569F0D801ED91FC910280F38150
:10114000E02DBE016F5F7F4FC801099597FF07C073
:1011500089810F90DF91CF911F910F910895F80130
:1011600000851185E5CF80915D018EBDEEE5F1E052
:1011700081910DB407FEFDCF8EBD85E0ED35F807FA
:10118000B9F70DB407FEFDCF08951F920F920FB669
:101190000F9211248F939F938091E1009091E10031
:1011A000937F9093E10083FF0FC01092E90091E0DC
:1011B0009093EB001092EC0092E39093ED0010926C
:1011C0005C0198E09093F00082FF20C093E0909340
:1011D000E9009091F200992319F09AE39093E800C6
:1011E0009091CC05992339F09091CC059150909332
:1011F000CC05992389F190915B01992339F0909165
:101200005B01915090935B01992341F184FF10C0E1
:101210008091E2008E7E81608093E2008091E10007
:101220008F7E8093E10080915A018E7E806111C093
:1012300080FF16C08091E2008E7E80618093E20084
:101240008091E1008E7E8093E10080915A018E7E34
:10125000816080935A0104C05D9ACDCF289AD6CF81
:101260009F918F910F900FBE0F901F9018951F9216
:101270000F920FB60F921124CF92DF92EF92FF924E
:101280000F931F932F933F934F935F936F937F938E
:101290008F939F93AF93BF93EF93FF93CF93DF937E
:1012A000CDB7DEB76C97DEBFCDBF1092E90080915D
:1012B000E80083FFEDC168E0CE0145960E9456111B
:1012C00082EF8093E8008D8987FF05C09091E80048
:1012D00090FFFCCF03C09EEF9093E800982F90768C
:1012E00009F0C6C09E892F89188D91110CC08038D5
:1012F00029F4809159018093F10002C01092F1000D
:101300001092F10048C1422F50E0512B913051F41E
:10131000811141C14130510509F03DC18091590110
:101320008D7F0BC0933061F4811135C1413051057F
:1013300009F031C1809159018260809359012BC11C
:10134000953041F48091E80080FFFCCF2068209325
:10135000E30021C1963009F05FC0EB8CFC8C109249
:10136000E9001092570110925601123091F5109237
:101370005501109254010E94810899E0BE016F5FEF
:101380007F4FDB01E92F1D92EA95E9F799831A83D4
:1013900091E09E8390EA98879AEF99872091560171
:1013A00030915701275F3F4F3C832B838D831092F1
:1013B000E9001092570110925601F0925501E09207
:1013C000540149E050E080E00E945A080E948108E0
:1013D000E2C0F0925501E09254010E940307DC0143
:1013E0001296ED90FC901397E114F10409F4C0C03B
:1013F000D701ED91FC910480F581E02DBE016B5E7B
:101400007F4FC7010995009719F00CF0C4C0C7C001
:10141000F701E084F184E8CF973009F4C0C0983038
:1014200021F481E08093F100B6C0993009F0B3C097
:10143000837009F0B4C0EBE1F1E081E021E036E334
:101440009081992361F08093E9002093EB009191C2
:101450009093EC003093ED008F5F873089F78EE733
:101460008093EA001092EA008F8980935C0193C018
:101470008B8D9C8D1092E9001092570110925601AD
:101480009093550180935401898D811156C08E89A6
:101490009D89913A59F4813209F081C047E050E0CA
:1014A0006CE071E080E00E945A0875C0913209F04A
:1014B00076C0833289F4888D90E0982F88272F8911
:1014C000822BA0E0B0E08093080190930901A093E3
:1014D0000A01B0930B015FC0803269F48091E8008B
:1014E00082FFFCCF67E08CE091E00E9456118BEF09
:1014F0008093E80006C0823209F04DC08F89809346
:10150000130180915801882319F0EEEFFAE002C030
:10151000E0E0F8E080910C0190910D01A0910E01A6
:10152000B0910F01803B9440A105B10509F07BC04B
:101530008091130180FF93C076C00E940307DC01F5
:1015400012960D911C9113970115110541F1D801C7
:10155000ED91FC910190F081E02DBE016B5E7F4F1B
:10156000C8010995811117C0F80100851185ECCFDC
:10157000113009F44EC0133091F48F89882309F497
:1015800045C0823081F440E860E181E298E00E9449
:101590001D08882321F08EEF8093E80079C081E256
:1015A0008093EB0075C0813029F440E86BE085E161
:1015B00098E0EDCF833099F70E940307DC01129683
:1015C000ED90FC9013978E010F5F1F4F6801E1149F
:1015D000F10479F0D701ED91FC910680F781E02DBF
:1015E000B801C7010995080F111DF701E084F184C6
:1015F000EECFD8011C92F60101900020E9F7319757
:10160000BF016C197D0940E0C601C1CF6FEF77E0E3
:1016100002C063E078E06115710509F2FB014491B5
:1016200050E080E840CF0FB6F894A8958091600014
:10163000886180936000109260000FBEA895EE3F15
:101640002AE0F20739F08091FE0A9091FF0A918317
:101650008083A1CF1092FF0A1092FE0A9CCFEE3F2A
:101660008AE0F80731F0808191819093FF0A80939E
:10167000FE0A87E797E7918380839BE088E10FB6B6
:10168000F894A895809360000FBE9093600083CF7C
:101690006C960FB6F894DEBF0FBECDBFDF91CF9131
:1016A000FF91EF91BF91AF919F918F917F916F913A
:1016B0005F914F913F912F911F910F91FF90EF906C
:1016C000DF90CF900F900FBE0F901F901895CF9284
:1016D000DF92EF92FF920F931F93CF93DF936C01F2
:1016E0007A018B01C0E0D0E0CE15DF0589F0D8018A
:1016F0006D918D01D601ED91FC910190F081E02D6D
:10170000C6010995892B11F47E0102C02196ECCF08
:10171000C701DF91CF911F910F91FF90EF90DF9064
:10172000CF9008953FB7F894809133069091340696
:10173000A0913506B091360626B5A89B05C02F3F6F
:1017400019F00196A11DB11D3FBFBA2FA92F982FE7
:101750008827820F911DA11DB11DBC01CD0142E062
:10176000660F771F881F991F4A95D1F708958091BA
:101770005301E0915101F0915201882349F0CF01CA
:10178000029690935201809351018591949108950E
:10179000CF010296909352018093510180819181F3
:1017A000089580914A0108950895089580E090E099
:1017B00008950E947A1B0F931F93CF93DF93EC0140
:1017C00088819981009729F02A813B812617370764
:1017D00088F48B016F5F7F4F0E94B01A009761F011
:1017E000998388831B830A832C813D81232B11F4E9
:1017F000FC01108281E001C080E0DF91CF911F9158
:101800000F910895CF93DF93EC0188819981009720
:1018100011F00E94181A198218821D821C821B82E4
:101820001A82DF91CF910895EF92FF920F931F9349
:10183000CF93DF93EC017B018A01BA010E94DB0B9D
:10184000811104C0CE010E94020C07C01D830C83CD
:10185000B701888199810E94881BCE01DF91CF91C9
:101860001F910F91FF90EF9008958F929F92AF92EA
:10187000BF92CF92DF92EF92FF926B017C010E94A8
:10188000920B4B015C01C114D104E104F104F1F0AD
:101890000E94920BDC01CB0188199909AA09BB09A6
:1018A000883E9340A105B10570F321E0C21AD1082A
:1018B000E108F10888EE880E83E0981EA11CB11C97
:1018C000C114D104E104F10419F7DDCFFF90EF90CA
:1018D000DF90CF90BF90AF909F908F9008951F9210
:1018E0000F920FB60F9211242F933F938F939F93D4
:1018F000AF93BF9380914B0190914C01A0914D010A
:10190000B0914E013091320623E0230F2D3720F4A1
:101910000196A11DB11D05C026E8230F0296A11D49
:10192000B11D2093320680934B0190934C01A093FC
:101930004D01B0934E018091330690913406A091F1
:101940003506B09136060196A11DB11D8093330670
:1019500090933406A0933506B0933606BF91AF91AD
:101960009F918F913F912F910F900FBE0F901F90DD
:101970001895CF92DF92EF92FF920F931F93CF9320
:10198000DF930E94B70B811520E8920761F48091E4
:1019900071008D7F80937100109291004698479856
:1019A00010922B068BC021E020932B06813020E87B
:1019B000920751F480914F01909150019093520100
:1019C000809351010E94B70B97FD05C020912A0614
:1019D000222309F43FC02091290621113BC021E0B8
:1019E00020932C06EC01DF77209769F481E0809347
:1019F0002D0646983FE9C32E3FE0D32EE12CF12C73
:101A0000CAEFD0E014C08E0120E030E060E472E460
:101A10008FE090E0A90198010E943A1869017A01CB
:101A200081E0C81AD108E108F10810922D06E09172
:101A30006B05F0916C050995811103C081E08093DD
:101A40002D0680912C068823B9F180912D068111F5
:101A500033C003C010922C06C5CF46992DC0479ABB
:101A60000E94B70B009771F09C01DE010E94B21832
:101A7000DC01CB0129E0B595A795979587952A9527
:101A8000D1F703C08FEF9FEFDC01109290002AE0A6
:101A900020939100D0929900C092980080932E06D6
:101AA00090932F06A0933006B09331068091710079
:101AB00082608093710002C04798D2CFDF91CF91AE
:101AC0001F910F91FF90EF90DF90CF9008951F929C
:101AD0000F920FB60F9211242F933F934F935F9362
:101AE0006F937F938F939F93AF93BF93EF93FF93E6
:101AF00080912E0690912F06A0913006B09131066C
:101B0000892B8A2B8B2B81F180912D0681110BC0A3
:101B100098B180E4892788B980912C06882319F030
:101B200088B1805888B980912E0690912F06A09197
:101B30003006B0913106181619061A061B06B4F4C1
:101B400080912E0690912F06A0913006B09131061B
:101B50000197A109B10980932E0690932F06A093B7
:101B60003006B093310602C00E94B90CFF91EF918C
:101B7000BF91AF919F918F917F916F915F914F91A5
:101B80003F912F910F900FBE0F901F9018954F927D
:101B90005F926F927F928F929F92AF92BF92CF92FD
:101BA000DF92EF92FF920F931F93CF93DF9300D0BA
:101BB00000D0CDB7DEB749012C2DA02EB12CDC0111
:101BC000AA0DBB1D1A161B060CF0B3C18038910577
:101BD0000CF0AFC1FB01EE0DF11D1E161F060CF03F
:101BE000A8C1603471050CF0A4C14115510509F478
:101BF000A0C1FB0177FF04C0EE27FF27E61BF70B10
:101C00003E2F3770732EFB0177FD379633E0F59545
:101C1000E7953A95E1F73E2F77FF07C0772029F047
:101C20003FEF3E0F68E06719762E97FF05C0EE275D
:101C3000FF27E81BF90B02C0E0E0F0E0A038B10597
:101C400024F060E8F62EF81A01C0F02EFE1A632F79
:101C5000032E000C770B3F3F1CF4A62FA09501C06C
:101C6000A0E011E0BE2DB77009F410E0E694E69410
:101C7000E694E10E6E0D711D693071051CF068E08F
:101C8000E62EE31AEA1A3A0F60E83603800D911D3A
:101C900011248E0F9F1FA09FE00DF11D11244E0FE8
:101CA0005F1F61E070E0072C02C0660F771F0A9487
:101CB000E2F7233009F4FCC098F4213009F4AEC0F7
:101CC000223009F036C12FEF269F8001279F100D8B
:101CD0001124009510951C830B835C80E30E27C0B4
:101CE0002A3F29F02B3F09F024C1E30E83C0E30E05
:101CF0004EC0FA01EC0DFD1DE491E69F4001E79F07
:101D0000900C11249A82898237FD04C02C912023E3
:101D1000822A8C92711014C0EFEFCE1ADE0A11964F
:101D2000CF1438F33F5F4A0D5B1D80589F4F3E151F
:101D300009F4FFC0DC01A35ABE4FC12CD12CF0CF57
:101D4000373054F7FD01E058FF4F208125219A805C
:101D500029292083E1CFFA01E00FF11FE491E69FEA
:101D60006001E79FD00C1124DA82C98237FD03C0DD
:101D70002C91C22ACC92711013C00F5F1F4F119685
:101D80000F1548F33F5F4A0D5B1D80589F4F3E156E
:101D900009F4CFC0DC01A35ABE4F00E010E0F0CF41
:101DA00037305CF7FD01E058FF4FD0802A812D29A4
:101DB0002083E3CFFA01EC0DFD1DE491E69FD001F5
:101DC000E79FB00D1124BA83A98337FD05C0A09504
:101DD000F8012081A223A083711015C0FFEFCF1A54
:101DE000DF0A0F5F1F4FCF1428F33F5F4A0D5B1DC3
:101DF00080589F4F3E1509F49CC08C01035A1E4F1A
:101E0000C12CD12CF0CF37304CF7F801E058FF4F00
:101E10002A812095A0812A232083E0CFD401AE0F10
:101E2000BF1FE30E3E1509F484C0FC01E35AFE4FC8
:101E30004F01C12CD12CCF1498F5FD01EC0DFD1DE7
:101E4000E491E69F8001E79F100D11240095109505
:101E50001C830B83FA01EC0DFD1DE491E69F20012C
:101E6000E79F500C11245A82498237FD05C0F401C6
:101E700020810223402A4082772059F037304CF4E9
:101E8000F401E058FF4F10812C8121231A81212B6E
:101E90002083FFEFCF1ADF0A2FEF821A920ACBCFEF
:101EA0003F5F4A0D5B1DAA0DBB1D80589F4FBACFE7
:101EB000CF2CD12CE40FF51FDC01A35ABE4FAC018F
:101EC00043525E4F00E810E00C191D09AC18BD0824
:101ED000AA0CBB1C6F2C2E2DCF93DF93EA018590AB
:101EE000C590772059F0869E4001C69E600137302C
:101EF0002CF49881D0949D219929999333233AF019
:101F00009C91C0949C2198299D930C94880F1196C4
:101F1000FA9429F7EA9451F0F62C33951124EA0D3E
:101F2000F11DA00FB11DC00FD11DD9CFDF91CF91F1
:101F300011240F900F900F900F90DF91CF911F9170
:101F40000F91FF90EF90DF90CF90BF90AF909F9058
:101F50008F907F906F905F904F900895CF92DF9217
:101F6000EF920F931F93CF93DF934115510591F19A
:101F7000FA0104913196E4904E5F5F4F222321F1E4
:101F800030E0220F331FC02FD0E0AE2DA695A695CE
:101F9000A695EA2FF0E0A1E0B0E01E2D177011F435
:101FA000A0E0B0E0AE0FBF1FCA9F6001CB9FD00C76
:101FB000DA9FD00C11242C9DF0012D9DF00D3C9D3D
:101FC000F00D11244E0F5F1F23E0C22E20E030E001
:101FD0000E94C70DDF91CF911F910F91EF90DF907D
:101FE000CF900895BC0180E090E00C94350C8FB147
:101FF0002CB193B130E02095309520743327A9019E
:1020000023E0559547952A95E1F7292F30E0209553
:102010003095207133273595279535952795242BB5
:102020008095807F822B089583B7817F83BF83B79C
:10203000816083BF889583B78E7F83BF08958EBDEF
:1020400000000DB407FEFDCF0895E2E3FDE090E14E
:10205000969FD001A0781124A80F6770E60FF11D9C
:102060009491A35ABE4F442319F08C91982B03C02E
:1020700090958C9198239C9308952F923F924F9224
:102080005F926F927F928F929F92AF92BF92CF9208
:10209000DF92EF92FF920F931F93CF93DF93CDB711
:1020A000DEB727970FB6F894DEBF0FBECDBFFC0199
:1020B0006A3069F4248D808D918D38E0239F800DE6
:1020C000911D1124918F808F178A168AA6C06D30BA
:1020D00009F4A3C09F838E83348C238D2983328D92
:1020E0003A83608C718CE688F78880E8E816F10402
:1020F000C4F0AE81BF815C962C915C97422F50E07A
:1021000056968D919C915797B6E02B9F800D911D0F
:102110001124EE81FF81978B868B258D211167C05D
:102120007CC0F0E46F16710424F7C70125E0329EED
:10213000800D911D112418161906DCF6432C512C24
:10214000C30138E0339E800D911D11241816190625
:1021500084F685E0689F800111240E5C174F20E013
:10216000F8012490253009F4212C430158E020FC8B
:1021700002C0398101C03A8131110BC0F9818A81D5
:10218000F81307C026945150840C951C5111EFCFC1
:1021900025C067018C2D8E198315A0F754018A2D57
:1021A00088198315B8F490E8C916D10478F4A0E42E
:1021B000AA16B10458F4432FB501C6012C833B8302
:1021C0005D830E9425105D813B812C81BFEFAB1A9E
:1021D000BB0AE5CFEFEFCE1ADE0ADCCF2F5FE40CAF
:1021E000F51C0F5F1F4F263009F0BACF82CF6AEF80
:1021F00064039001659F300D112420583F4F28172C
:1022000039075CF4AE81BF81ED91FC91119701908B
:10221000F081E02D6AE0CD01099581E090E02796FC
:102220000FB6F894DEBF0FBECDBFDF91CF911F91E7
:102230000F91FF90EF90DF90CF90BF90AF909F9065
:102240008F907F906F905F904F903F902F90089568
:102250004091560150915701209154013091550100
:1022600042175307B4F49091E8009570E1F3909110
:10227000E80092FD19C08093F10080915601909181
:10228000570101968F739927892B19F48EEF80934C
:10229000E800809156019091570101969093570163
:1022A0008093560181E0089580E00895615030F0F8
:1022B0002091F100FC0120830196F8CF289884E654
:1022C00080935B010895CF93DF93CDB7DEB76A9714
:1022D0000FB6F894DEBF0FBECDBF789484B5826090
:1022E00084BD84B5816084BD85B5826085BD85B5BA
:1022F000816085BD80916E00816080936E00109238
:1023000081008091810082608093810080918100B2
:102310008160809381008091800081608093800043
:102320008091910082608093910080919100816002
:1023300080939100809190008160809390008091C3
:10234000C10084608093C1008091C100826080934D
:10235000C1008091C10081608093C1008091C30061
:1023600081608093C3008091C00082608093C00030
:102370008091C20081608093C20080917A00846065
:1023800080937A0080917A00826080937A008091B5
:102390007A00816080937A0080917A0080688093CF
:1023A0007A0010925C011092590110925A018091AA
:1023B000D70081608093D70080EA8093D80089B5E8
:1023C000806189BD89B5826089BD09B400FEFDCFF9
:1023D00061E070E080E090E00E94350C8091D800D0
:1023E0008F7C80618093D8008091E000807F809313
:1023F000E0008091E1008E7E8093E1008DE080938B
:10240000E200559A209AEEEFFFE7859194918B3F79
:102410009C4D19F481E08093580181EC80937C00FD
:1024200085B1806F85B9249884B1866E84B95E9A2F
:102430005F988AB1806D8AB9769A6E9881B3806F01
:1024400081BB899880B38D7080BB80E58CBD81E0B5
:102450008DBD85E090E00E94F20F5F9A85E090E0EC
:102460000E94F20F5E985C980CEA10E06DE0F62E88
:10247000F00EF80184910E941F100F5F1F4FF012A1
:10248000F8CF5C9A81E88093640081E080936500D6
:1024900000E014E080E00E941F1001501109D1F704
:1024A0000E94F70F87FF1FC05C9885EA0E941F10EB
:1024B0005C9A2E982F982D9880916400806280936A
:1024C00064000E941410FDCF2D980E94F70F8478AD
:1024D000843871F00E94F70F8471843129F188ECFF
:1024E00090E00E94F20F0E94F70F82FDEDCF38C0FE
:1024F0002D9A88EC90E00E94F20F2F9882E090E0F5
:102500000E9424188F3F29F06FEF82E090E00E9434
:102510002C1884EF91E00E94F20F2F9A0E94F70F7F
:1025200084788438D9F3D6CF2D9A88EC90E00E9435
:10253000F20F2E9882E090E00E942418882329F060
:1025400060E082E090E00E942C1884EF91E00E940D
:10255000F20F2E9A0E94F70F84718431D9F3BFCF06
:102560002D9A82E090E00E942418882331F03E9A50
:102570003F9A81E080934A0104C010924A013E983C
:102580003F9882E390E00E94F20F0E94F70F8111C2
:10259000F8CF9E012F5F3F4F590152E0252E312C7D
:1025A0004DE5842E45E0942E2FB7F89480914B0191
:1025B00090914C01A0914D01B0914E012FBF4091DF
:1025C000BE055091BF056091C0057091C105009195
:1025D000C205002341F02091BA05821B8093C305F8
:1025E0001092C20545C384179507A607B70738F4AC
:1025F000481B423008F43CC30E94141039C311E058
:102600001093C2058093BA059093BB05A093BC05B7
:10261000B093BD052091B905820F911DA11DB11D7B
:102620008093BE059093BF05A093C005B093C105EC
:102630008091B5059091B60501969093B60580936B
:10264000B5058091B7058093B8050E94F70F809378
:10265000B705802FEDE5F1E081118FEF0024819324
:102660008193819381930394D1F71092C7051092BF
:10267000C6051092C5051092C405609103017091C2
:1026800004012091050130E062177307C4F46F5F05
:102690007F4F70930401609303018091020190E0E9
:1026A000EFE4F3E00491E0E5F3E0E4903AEFC32EC9
:1026B00020E030E041E553E00E94C70DD7C2E09131
:1026C000B505F091B605CF0166E970E00E94691981
:1026D000892B21F080910001882379F081E080939B
:1026E000000160917F05709180057727CF010E94DE
:1026F0006919892B09F459C069C0309304012093EA
:10270000030180910101811131C0809171008D7FA1
:102710008093710010925301909252018092510166
:102720009092500180924F0186E194E090935E0573
:1027300080935D0582E390E09093600580935F0550
:102740008DE298E0909362058093610584E690E0C5
:10275000909364058093630580E090E8909366050C
:10276000809365050E94B90C1093010160910301EB
:10277000709104018091020190E0E7ECF1E0049196
:10278000E8ECF1E0E4902AEFC22E20E030E049ECE2
:1027900051E00E94C70D6091070170E08091060131
:1027A00020E049EB50E090E05FC220917E05422F8F
:1027B00050E080917D0590E001974817590724F477
:1027C0002F5F20937E0502C010927E0560917105F7
:1027D0007091720580917305909174050E942E1975
:1027E0002B013C0160916D0570916E0580916F0524
:1027F000909170050E942E19DC01CB0120917E057D
:102800004BEF56E0B2010E94AE0F8091B8058C7874
:1028100009F04AC08091B7058C7809F445C08091D1
:10282000AC059091AD0501969093AD058093AC05F4
:1028300060918F0570E080E090E00E947417209115
:102840008A0530918B0540918C0550918D050E9431
:10285000C2182B013C016091850570E080E090E09A
:102860000E9474179B01AC01C301B2010E946D1755
:1028700081111AC020919E0530919F054091A005BD
:102880005091A105609196057091970580919805EA
:10289000909199050E94C1186093960570939705D1
:1028A00080939805909399050E94F70F85FF23C0A8
:1028B0002091A8053091A9054091AA055091AB053A
:1028C00060918605709187058091880590918905B2
:1028D0000E94C1182B013C0120E030E0A9010E94B8
:1028E000641918160CF047C024E030E03093A705B7
:1028F0002093A60531C00E94F70F86FF36C02091B5
:10290000A8053091A9054091AA055091AB056091A9
:1029100086057091870580918805909189050E94B0
:10292000C2182B013C0160918E0570E080E090E0C0
:102930000E9474179B01AC01C301B2010E94C2182E
:1029400020E030E040E053E40E946D1787FF13C0A1
:102950003092A7052092A6054092860550928705E1
:10296000609288057092890506C083E090E090939C
:10297000A7058093A6056091A6057091A705772706
:102980008091B5059091B6050E946919892B89F44B
:102990002091A505422F50E08091A40590E0019779
:1029A0004817590724F42F5F2093A50502C0109201
:1029B000A5054090960550909705609098057090F9
:1029C000990520918A0530918B0540918C05509195
:1029D0008D05C301B2010E94C2186B017C01609396
:1029E0008A0570938B0580938C0590938D0580915B
:1029F0008F05E82FF0E0FA8FE98F0091850510E050
:102A0000BF01FF0F880B990B0E9474179B01AC014B
:102A1000C701B6010E94C2186B017C01B801012EEA
:102A2000000C880B990B0E9474179B01AC01C70125
:102A3000B6010E946D1787FF15C020919A0530914D
:102A40009B0540919C0550919D05C301B2010E94D8
:102A5000C21860939605709397058093980590939C
:102A600099051BC010929605109297051092980533
:102A700010929905B801298D3A8D621B730B072EB0
:102A8000000C880B990B0E94741760938A05709351
:102A90008B0580938C0590938D058091AC0590916A
:102AA000AD051C8A1B8A1E8A1D8A188E1F8A4AE061
:102AB000B5010E943817F50101900020E9F7319720
:102AC000AF014A195B09B501CE0143960E94140C6F
:102AD0004F89588D2091A2053091A30542175307C5
:102AE00008F042C01A8219821C821B821E821D823B
:102AF00041E050E067E471E0C5010E94140C8F8949
:102B0000988DEB88FC880D811E81E114F10409F495
:102B1000B7C00097A1F0080F191FB801C5010E94A6
:102B2000DB0B882309F4ACC029813A818D819E8119
:102B3000B701820F931F0E94881B1E830D8369813A
:102B40007A816115710539F04D815E81CE01439620
:102B50000E94140C04C0CE0143960E94020C89818D
:102B60009A810E94181AB4CF69EF62038001639FB3
:102B7000100D112403581F4F1A8219821C821B82C8
:102B80001E821D826B897C89C5016115710519F052
:102B90000E94140C02C00E94020CE12CF12C2D8129
:102BA0003E8189819A81E216F306B0F4009729F0FC
:102BB000FC01EE0DFF1D208101C020E0205349E5FE
:102BC00056E063E070E0C8010E94AE0F095F1F4F3E
:102BD0003FEFE31AF30AE3CF0E94181A8B899C890E
:102BE0000E94181A0091850580E4801B10E0E12CFA
:102BF000F12C2801480E511C3801C201E1E44E16A7
:102C0000510414F080E490E0681679064CF441E039
:102C1000B301C7010E9425108FEF681A780AEDCF23
:102C2000FFEFEF1AFF0A20E8E216F10429F760919E
:102C30008A0570918B0580918C0590918D050E947D
:102C40002E192B013C0160918605709187058091BA
:102C50008805909189050E942E19DC01CB012091F5
:102C6000A50547ED54E0B2010E94AE0F0E94B308E3
:102C700080E090E0892B09F497CC0E94000090CC72
:102C8000C5010E94020C5BCF0F931F93E9EDF5E0A5
:102C90001382128288EE93E0A0E0B0E084839583F3
:102CA000A683B78385E291E0918380832FEF3FEF86
:102CB00035872487EEEAF5E01382128211861286A8
:102CC00080E1838730872783108A118A128A138ACA
:102CD000148A27E331E03183208325E431E0358312
:102CE0002483178A168A118E108E91E0928F138E8C
:102CF000948F158E21ED3BE030936C0520936B058E
:102D000020E030E830936A052093690546983E9AA2
:102D100047983F9AE5E8F5E096E3908340E050E07D
:102D200060E271E441835283638374831582168267
:102D300017821086818782872AE030E034872387D4
:102D4000168615868787808B118A128A138A148AC1
:102D500043E353E363EB7EE3458B568B678B708FC6
:102D600040E050E060EA70E4418F528F638F748FCF
:102D700027E030E0368F258F96E0978F10A223E072
:102D800030E032A321A340E050E060EC7FE343A3B6
:102D900054A365A376A310A617A2EDE6F5E000E024
:102DA00010E02CEE32E400831183228333831482FB
:102DB000158216821782808798E1918726E730E096
:102DC00033872287158614868687978782E0808BD3
:102DD000118A80E190E0938B828B448B558B668BBC
:102DE000778B1F910F9108950F931F93CF93DF93CC
:102DF0008C0181E090E00E94241880FF31C08AE0BD
:102E000090E00E9424189FEF980F9E3F48F522E320
:102E100030E0D80157963C932E93569728E330E044
:102E200059963C932E935897CBE0D0E0D801ED9182
:102E3000FC910190F081E02D682FC8010995CE0129
:102E40000E9424182196C131D10581F70E94B30850
:102E500088EE93E0DF91CF911F910F910C94F20FC8
:102E6000DF91CF911F910F91089504970C94F41660
:102E7000BB274A3031F4992322F4BDE29095819525
:102E80009F4F0C944417BB27FB015527AA27880F97
:102E9000991FAA1FA41710F0A41B83955051B9F7CE
:102EA000A05DAA3308F0A95DA193009779F7B1114D
:102EB000B1931192CB010C945D17DC01FC01672FDB
:102EC00071917723E1F7329704C07C916D93708301
:102ED0006291AE17BF07C8F308950E94AF1708F4B8
:102EE00081E00895E89409C097FB3EF490958095A1
:102EF000709561957F4F8F4F9F4F9923A9F0F92FC0
:102F000096E9BB279395F695879577956795B7953D
:102F1000F111F8CFFAF4BB0F11F460FF1BC06F5F23
:102F20007F4F8F4F9F4F16C0882311F096E911C035
:102F3000772321F09EE8872F762F05C0662371F056
:102F400096E8862F70E060E02AF09A95660F771F6A
:102F5000881FDAF7880F9695879597F90895990F46
:102F60000008550FAA0BE0E8FEEF16161706E80753
:102F7000F907C0F012161306E407F50798F0621B74
:102F8000730B840B950B39F40A2661F0232B242B49
:102F9000252B21F408950A2609F4A140A6958FEF68
:102FA000811D811D089597F99F6780E870E060E0BA
:102FB00008959FEF80EC089500240A9416161706D2
:102FC00018060906089500240A941216130614061A
:102FD00005060895092E0394000C11F4882352F07D
:102FE000BB0F40F4BF2B11F460FF04C06F5F7F4F35
:102FF0008F4F9F4F089557FD9058440F551F59F01C
:103000005F3F71F04795880F97FB991F61F09F3FD5
:1030100079F087950895121613061406551FF2CFFE
:103020004695F1DF08C0161617061806991FF1CF4E
:1030300086957105610508940895E894BB27662775
:103040007727CB0197F90895F999FECF92BD81BDFD
:10305000F89A992780B50895262FF999FECF1FBABF
:1030600092BD81BD20BD0FB6F894FA9AF99A0FBEB1
:1030700001960895052E97FB1EF400940E945118A6
:1030800057FD07D00E94901807FC03D04EF40C9413
:10309000511850954095309521953F4F4F4F5F4FB8
:1030A000089590958095709561957F4F8F4F9F4FB4
:1030B00008952F923F924F925F926F927F928F92DC
:1030C0009F92AF92BF92CF92DF92EF92FF920F93B7
:1030D0001F93CF93DF93CDB7DEB7CA1BDB0B0FB6C1
:1030E000F894DEBF0FBECDBF09942A88398848887E
:1030F0005F846E847D848C849B84AA84B984C88414
:10310000DF80EE80FD800C811B81AA81B981CE0F0A
:10311000D11D0FB6F894DEBF0FBECDBFED010895EF
:10312000A1E21A2EAA1BBB1BFD010DC0AA1FBB1FCB
:10313000EE1FFF1FA217B307E407F50720F0A21B3D
:10314000B30BE40BF50B661F771F881F991F1A94AA
:1031500069F760957095809590959B01AC01BD01D4
:10316000CF010895A29FB001B39FC001A39F700D2E
:10317000811D1124911DB29F700D811D1124911D7F
:1031800008955058BB27AA270E94D9180C94EA1713
:103190000E94DC1738F00E94E31720F039F49F3FBB
:1031A00019F426F40C94D9170EF4E095E7FB0C946F
:1031B000D317E92F0E94FB1758F3BA17620773075A
:1031C0008407950720F079F4A6F50C941D180EF4E9
:1031D000E0950B2EBA2FA02D0B01B90190010C0127
:1031E000CA01A0011124FF27591B99F0593F50F43F
:1031F000503E68F11A16F040A22F232F342F442797
:10320000585FF3CF469537952795A795F04053958E
:10321000C9F77EF41F16BA0B620B730B840BBAF05E
:103220009150A1F0FF0FBB1F661F771F881FC2F7C9
:103230000EC0BA0F621F731F841F48F487957795DD
:103240006795B795F7959E3F08F0B0CF9395880F97
:1032500008F09927EE0F9795879508950E943519E4
:103260006894B1110C941E1808950E94031888F0F8
:103270009F5798F0B92F9927B751B0F0E1F0660F3A
:10328000771F881F991F1AF0BA95C9F714C0B1307B
:1032900091F00E941D18B1E008950C941D18672F3D
:1032A000782F8827B85F39F0B93FCCF386957795AA
:1032B0006795B395D9F73EF4909580957095619593
:1032C0007F4F8F4F9F4F08950E94AF1708F48FEFE5
:1032D0000895AA1BBB1B51E107C0AA1FBB1FA6175D
:1032E000B70710F0A61BB70B881F991F5A95A9F7AF
:1032F00080959095BC01CD010895EE0FFF1F0590BC
:10330000F491E02D0994CF93DF938230910510F46E
:1033100082E090E0E0913906F0913A0620E030E05A
:10332000C0E0D0E0309711F1408151814817590732
:10333000C0F04817590761F482819381209719F0F2
:103340009B838A832BC090933A068093390626C0CC
:103350002115310519F04217530718F49A01BE01DF
:10336000DF01EF010280F381E02DDCCF2115310573
:1033700009F1281B390B2430310590F412968D91F8
:103380009C9113976115710521F0FB019383828352
:1033900004C090933A0680933906FD01329644C0EA
:1033A000FD01E20FF31F81939193225031092D9378
:1033B0003C933AC02091370630913806232B41F4D4
:1033C000209116013091170130933806209337066B
:1033D00020911401309115012115310541F42DB7CB
:1033E0003EB74091180150911901241B350BE09113
:1033F0003706F0913806E217F307A0F42E1B3F0BB7
:103400002817390778F0AC014E5F5F4F2417350756
:1034100048F04E0F5F1F5093380640933706819354
:10342000919302C0E0E0F0E0CF01DF91CF910895E9
:103430000F931F93CF93DF93009709F48CC0FC0187
:103440003297138212820091390610913A060115C3
:10345000110581F420813181820F931F209137065D
:10346000309138062817390779F5F0933806E0933C
:10347000370671C0D80140E050E0AE17BF0750F4E6
:1034800012962D913C911397AD012115310509F14B
:10349000D901F3CF9D01DA013383228360817181E9
:1034A000860F971F8217930769F4EC0128813981F1
:1034B000260F371F2E5F3F4F318320838A819B81E8
:1034C00093838283452B29F4F0933A06E0933906DF
:1034D00042C01396FC93EE931297ED0149915991D6
:1034E0009E01240F351FE217F30771F4808191814B
:1034F000840F951F029611969C938E9382819381DF
:1035000013969C938E931297E0E0F0E0D801129608
:103510008D919C911397009719F0F8018C01F6CFCB
:103520008D919C9198012E5F3F4F820F931F2091A8
:103530003706309138062817390769F4309729F48F
:1035400010923A061092390602C01382128210932A
:10355000380600933706DF91CF911F910F910895A0
:10356000A0E0B0E0E6EBFAE10C945D18EC01009706
:1035700021F4CB010E948319B8C0FC01E60FF71FAC
:103580009C0122503109E217F30708F4ACC0D901BD
:103590000D911C91119706171707B0F00530110512
:1035A00008F49FC0C80104978617970708F499C0CC
:1035B00002501109061B170B019311936D937C9315
:1035C000CF010E94181A8DC05B01A01AB10A4C01EC
:1035D000800E911EA0913906B0913A0640E050E06D
:1035E000E12CF12C109709F44AC0A815B905D1F5C2
:1035F0006D907C901197630182E0C80ED11CCA14B3
:10360000DB0480F1A3014A195B096A0182E0C80E5C
:10361000D11C1296BC9012971396AC91B5E0CB16C4
:10362000D10440F0B282A38351834083D9016D93CA
:103630007C930AC00E5F1F4FC301800F911FF901D9
:1036400091838083EB2DFA2FE114F10431F0D7013F
:103650001396FC93EE93129744C0F0933A06E093CE
:1036600039063FC08D919C9111974817590708F46E
:10367000AC017D0112960D90BC91A02DB3CF80912D
:1036800037069091380688159905E1F446175707D3
:10369000C8F48091140190911501009741F48DB701
:1036A0009EB74091180150911901841B950BE817A2
:1036B000F907C8F4F0933806E0933706F9017183EF
:1036C00060830FC0CB010E9483197C01009759F0E1
:1036D000A801BE010E947F1BCE010E94181AC701DB
:1036E00004C0CE0102C080E090E0CDB7DEB7EEE0CE
:1036F0000C94791881E090E0F8940C948F1BFB01F6
:10370000DC0102C001900D9241505040D8F708955D
:10371000FB01DC0101900D920020E1F70895F8947F
:02372000FFCFD9
:1037220000001DD2FF051E2EFFFFFFFF00E100007B
:103732000000000000003B06800000C18081000004
:1037420000000000001707980738072D077E073C86
:10375200075A07000000003D10670BD60BD50BF48B
:0A37620016FCFF00003517300000D0
:2070000055C000006EC000006CC000006AC0000068C0000066C0000064C0000062C0000043
:2070200060C000005EC00000F2C400005AC0000058C0000056C0000054C0000052C00000EE
:2070400050C0000078C000004CC000004AC0000048C0000046C0000044C0000042C00000BE
:2070600040C000003EC000003CC000003AC0000038C0000036C0000034C0000032C0000048
:2070800030C000002EC000002CC000002AC0000028C0000026C0000024C0000022C00000A8
:2070A00020C000001EC000001CC0000011241FBECFEFDAE0DEBFCDBF11E0A0E0B1E0E2E3BC
:2070C000FFE702C005900D92A83AB107D9F711E0A8EAB1E001C01D92AE3BB107E1F78FD30B
:2070E00026C78ECFF89410926F0010928100109285001092840081E085BF15BE47985D9AEB
:20710000289A0C94000008952091B2013091B3012F5F3F4F3093B3012093B201932F37FFA6
:2071200003C08EEF831B982F990F921710F447980895479A08951F920F920FB60F9211246E
:207140002F938F939F93EF93FF9310928500109284008091A8019091A901009741F00197D3
:207160009093A9018093A801892B09F45D9A8091AA019091AB01009741F001979093AB0126
:207180008093AA01892B09F4289AE0E0F0E0859194918F5F9F4F49F08091AC019091AD0151
:2071A00001969093AD018093AC01FF91EF919F918F912F910F900FBE0F901F90189584E0BC
:2071C0008093E9000DC08091E8008B778093E80003C08EB3882351F08091E80082FFF9CFBE
:2071E0008091E80085FFEFCF8091F1000895982F83E08093E9008091E80085FD0DC0809136
:20720000E8008E778093E80003C08EB3882369F08091E80080FFF9CF9093F1005D9884E6CB
:2072200090E09093A9018093A80108954F925F926F927F928F929F92AF92BF92CF92DF921E
:20724000EF92FF920F931F93CF93DF9384E08093E9008091E80082FF57C2289884E690E067
:207260009093AB018093AA01AADF182F853481F48CE49DE19093AD018093AC0107B600FC4B
:20728000FDCFF999FECF81E180935700E89503C0843519F494DF8DE00DC28C34E1F38035F9
:2072A000D1F3843721F484E4A2DF80E003C2813611F489E5FFC18134B1F481DF182F7FDFE3
:2072C00090E0880F991FAA2797FDA095BA2F312F330F20E0442737FD4095542F822B932B68
:2072E000A42BB52BB8C1803711F483E5E3C1833549F4C0E0D1E089917ADF21E0C730D20714
:20730000D1F7D9C1863521F481E371DF80E3D2C1833731F487E86BDF85E969DF8EE1CAC149
:207320008536B9F4E0E0F0E093E085E090935700E89507B600FCFDCF80935700E89507B65D
:2073400000FCFDCFE058FF4FA0E7E030FA0771F7A2CF823739F4E1E0F0E089E08093570024
:207360008491A8C1863439F4E0E0F0E089E08093570084919FC18E3439F4E3E0F0E089E0E5
:2073800080935700849196C1813539F4E2E0F0E089E08093570084918DC1823631F489E521
:2073A00026DF80E024DF80E885C1823419F0873609F0E5C01092AD011092AC0100DF082FE8
:2073C000FEDEF82EFCDE682E8554823008F071C1902F80E0CF2DD0E0C82BD92B10926F00B3
:2073E000173609F04BC081E180935700E895DD24CC24C3943FC0E090AE01F090AF010091CC
:20740000B0011091B101B6E46B16D9F4ED2DF0E0EE29FF29E4918E2FEADEDD2081F082E08D
:2074200090E0A0E0B0E0E80EF91E0A1F1B1FE092AE01F092AF010093B0011093B101DC2470
:2074400018C0D801C701B695A7959795879559D5CEDE82E090E0A0E0B0E0E80EF91E0A1FF2
:207460001B1FE092AE01F092AF010093B0011093B1012197209709F0BECF7DC08090AE01F5
:207480009090AF01A090B001B090B10196E4691609F05DC083E0F40180935700E89507B63E
:2074A00000FCFDCF54C0F6E46F1661F5772031F1E090AE01F090AF010091B0011091B1019E
:2074C0007EDED82ECC24852D90E08C299D29F7010C0140925700E895112482E090E0A0E08B
:2074E000B0E0E80EF91E0A1F1B1FE092AE01F092AF010093B0011093B10102C060DE582E1A
:20750000742423C0E090AE01F090AF010091B0011091B10116950795F794E79450DE682FFA
:20752000C701F7D48091AE019091AF01A091B001B091B1010296A11DB11D8093AE01909349
:20754000AF01A093B001B093B101219704C05524772444244394209709F0A5CF96E46916B6
:2075600041F485E0F40180935700E89507B600FCFDCF8DE03CDE82E080936F009CC0833492
:2075800071F40091AE011091AF0119DE90E021E0F8010C0120935700E89511247CCE8336C8
:2075A00019F5E090AE01F090AF010091B0011091B10105DEF701E16090E021E00C0120938C
:2075C0005700E895112482E090E0A0E0B0E0E80EF91E0A1F1B1FE092AE01F092AF0100936A
:2075E000B0011093B10157CE8D3661F4E091AE01F091AF0185E080935700E89507B600FCF2
:20760000FDCF49CE823551F4E091AE01F091AF0105911491812FEBDD802F4CC0843421F5FE
:20762000E090AE01F090AF010091B0011091B10116950795F794E794C2DD682FC70169D4DE
:207640008091AE019091AF01A091B001B091B1010296A11DB11D8093AE019093AF01A093D8
:20766000B001B093B10117CE843609F5E090AE01F090AF010091B0011091B101D801C70142
:20768000B695A795979587953CD4B1DD82E090E0A0E0B0E0E80EF91E0A1F1B1FE092AE010A
:2076A000F092AF010093B0011093B10104C08B3111F08FE39CDD83E08093E9009091E8002B
:2076C0008091E8008E778093E80095FF04C010C08EB38823C9F08091E80080FFF9CF809193
:2076E000E8008E778093E80003C08EB3882361F08091E80080FFF9CF84E08093E9008091F1
:20770000E8008B778093E800DF91CF911F910F91FF90EF90DF90CF90BF90AF909F908F90AC
:207720007F906F905F904F9008959091B601892F8F77813249F58091B7018032A1F081328A
:2077400019F5913A09F58091E800877F8093E8008DE091E067E070E00BD28091E8008B770B
:207760008093E8000895913279F48091E800877F8093E8008DE091E067E070E05DD2809192
:20778000E8008E778093E800089582E061EC42E0B5D083E061E842E1B1D084E060E842E1EF
:2077A000ADC084B7877F84BF88E10FB6F89480936000109260000FBE20E880E090E00FB63F
:2077C000F89420936100809361000FBE81E085BF92E095BF3F9A209A559AE1E6F0E02083A1
:2077E000108247985D9A289A109289008AEF8093880090936F0083E080938100F0C0409116
:20780000000850910108109201081092000894B714BE88E10FB6F8948093600010926000D5
:207820000FBE292F30E0F901E270F07091FD18C090FF05C0859194918F5F9F4F81F423FFFF
:207840000FC08091090190910A014817590741F0E0E0F0E0859194918F5F9F4F09F042DC64
:20786000A0DF78941092AD011092AC010CC0DEDC36D38091AC019091AD0181549F4110F00D
:207880001092140141DC80911401882381F78091E00081608093E00025DC80E090E0089598
:2078A000FA01923049F0933061F09130F9F485E191E022E130E01EC087E291E02EE330E04D
:2078C00019C0882329F485E691E024E030E012C0813029F489E691E022E230E00BC0823006
:2078E00029F48DE891E028E130E004C080E090E020E030E091838083C90108958093E9004E
:207900008091EB0081608093EB001092ED006093EC004093ED008091EE00881F8827881F62
:2079200008958091B60188238CF403C08EB38823B1F08091E80082FFF9CF8091E8008B772A
:207940008093E80008958EB3882349F08091E80080FFF9CF8091E8008E778093E800089594
:20796000EF92FF920F931F9345D04CD008ED10E0F80180818F77808380818068808380819B
:207980008F7D808319BC1EBA1092B40180EEE82EF12CF70180818B7F8083F8018081816052
:2079A000808380E060E042E0A9DFE1EEF0E080818E7F8083E2EEF0E0808181608083808144
:2079C00088608083F70180818E7F8083F8018081806180831F910F91FF90EF900895E7ED06
:2079E000F0E08081816080838AE482BF81E08093B501B6CFE8EDF0E080818E7F808310921C
:207A0000E20008951092DA001092E10008951F920F920FB60F9211242F933F934F935F93F6
:207A20006F937F938F939F93AF93BF93EF93FF938091DA0080FF1BC08091D80080FF17C0B2
:207A40008091DA008E7F8093DA008091D90080FF0BC080E189BD82E189BD09B400FEFDCF36
:207A600081E08EBB3BD203C019BC1EBA37D28091E10080FF17C08091E20080FF13C0809138
:207A8000E2008E7F8093E2008091E20080618093E2008091D80080628093D80019BC85E049
:207AA0008EBB1CD28091E10084FF2CC08091E20084FF28C080E189BD82E189BD09B400FEC5
:207AC000FDCF8091D8008F7D8093D8008091E1008F7E8093E1008091E2008F7E8093E20012
:207AE0008091E20081608093E2008091B401882331F48091E30087FD02C081E001C084E067
:207B00008EBBECD18091E10083FF21C08091E20083FF1DC08091E100877F8093E10082E06A
:207B20008EBB1092B4018091E1008E7F8093E1008091E2008E7F8093E2008091E2008061E9
:207B40008093E20080E060E042E0D8DEC7D1FF91EF91BF91AF919F918F917F916F915F9130
:207B60004F913F912F910F900FBE0F901F9018959C014091BC015091BD014617570718F49D
:207B8000F90190E044C06115710511F0AB01F8CF8091E8008E778093E80040E050E0F0CF0F
:207BA0008EB3882309F444C0853009F443C08091E80083FF02C081E008958091E80082FD70
:207BC00031C08091E80080FF22C08091F3009091F200782F60E0292F30E0262B372B07C07A
:207BE00081918093F100415050402F5F3F4F4115510519F02830310598F390E02830310566
:207C000009F491E08091E8008E778093E8004115510531F6992321F605C08EB3882341F075
:207C2000853041F08091E80082FFF7CF80E0089582E0089583E008959C016115710529F47C
:207C40008091E8008B778093E800F90126C08EB3882391F1853091F18091E80083FF02C06C
:207C600081E008958091E80082FFF1CF06C08091F10081936150704059F02091F300809191
:207C8000F200322F20E090E0822B932B892B79F78091E8008B778093E80061157105B9F601
:207CA00005C08EB3882341F0853041F08091E80080FFF7CF80E0089582E0089583E00895C2
:207CC0000F931F93DF93CF9300D0CDB7DEB7E6EBF1E08091F100819381E0EE3BF807C9F792
:207CE00024DD8091E80083FFE4C08091B6019091B701953009F46DC0963040F4913081F1A7
:207D0000913070F0933009F0D4C02AC0983009F4A3C0993009F4B2C0963009F0CAC07CC023
:207D2000803809F4C6C0823809F0C3C08091BA0187708093E9008091EB001092E9002091DB
:207D4000E800277F2093E80090E025E0969587952A95E1F781708093F1001092F10087C0D8
:207D6000882319F0823009F0A4C08F71823009F0A0C08091B801882331F52091BA01277097
:207D800009F497C02093E9008091EB0080FF1BC0933021F48091EB00806213C08091EB0018
:207DA00080618093EB0081E090E002C0880F991F2A95E2F78093EA001092EA008091EB00E5
:207DC00088608093EB001092E9008091E800877F51C0882309F06DC01091B8011F770FB79B
:207DE000F8948091E800877F8093E8009ADD8091E80080FFFCCF8091E3008078812B809398
:207E0000E30080688093E300112311F482E001C083E08EBB0FBF4DC08058823008F049C033
:207E20008091B8019091B9016091BA01AE014F5F5F4F36DDBC01009709F43BC08091E8008E
:207E4000877F8093E80089819A8192DE8091E8008B778093E8002DC0803859F58091E800AA
:207E6000877F8093E8008091B4018093F1008091E8008E778093E80054DD1BC08823C9F4CA
:207E80009091B8019230A8F48091E800877F8093E8009093B40145DD8091B401882331F420
:207EA0008091E30087FD02C081E001C084E08EBB6CDC8091E80083FF0AC08091EB0080624E
:207EC0008093EB008091E800877F8093E8000F900F90CF91DF911F910F91089508951F9360
:207EE0008EB3882361F01091E9001092E9008091E80083FF01C0E4DE17701093E9001F916F
:207F00000895F999FECF92BD81BDF89A992780B50895262FF999FECF1FBA92BD81BD20BDBD
:207F20000FB6F894FA9AF99A0FBE01960895F894FFCF4341544552494E4100777700080031
:207F40000000000000080112011001020000084123360001000201000109023E00020100FF
:207F600080320904000001020201000524001001042402040524060001070582030800FF0C
:207F800009040100020A000000070504021000010705830210000104030904220341007216
:207FA000006400750069006E006F0020004C0065006F006E006100720064006F0000001836
:1A7FC00003410072006400750069006E006F0020004C004C004300000000D7
:00000001FF
