:100000000C943D060C9465060C9465060C946506EC
:100010000C9465060C9465060C9465060C946506B4
:100020000C9465060C9465060C9464080C94D60830
:100030000C9465060C9465060C9465060C94650694
:100040000C9465060C9465060C9465060C94650684
:100050000C9465060C9465060C9465060C940E0CC5
:100060000C9465060C9465060C9465060C94650664
:100070000C9465060C9465060C9465060C94650654
:100080000C94060D0C9465060C9465060C9465069C
:100090000C9465060C9465060C9465060C94650634
:1000A0000C9465060C9465060C946506D5F08D14C9
:1000B000A1C881CFD9F1AF2000430D00F800FCF8B2
:1000C000FEFCFF0CFF0CFF1CFF18FE00FCF8FEFC02
:1000D000FF0CFF0CFFFCFFF8FE00FEFCFFFCFF78AE
:1000E000FEF0FC78FEFCFFFCFF00FEFCFFFCFFCCFA
:1000F000FFCCFFFCFF78FE00FE3CFF7CFFE0FEE053
:10010000FE7CFF3CFF00FEF8FEFCFF0CFF0CFF1C1A
:10011000FF18FE00FCF8FEFCFF0CFF0CFFFCFFF8D4
:10012000FE00FEFCFFFCFFCCFFCCFFFCFF78FE00D6
:10013000FEFCFFFCFF6CFF6CFF0CFF0CFF001E00C1
:100140000C00030007030F071F061F061F071F03EE
:100150000F0007030F071F061F061F071F030F00CF
:100160000F071F071F000F0007000F071F071F00C3
:100170000F071F071F000F0007000300010000000A
:1001800007000F071F071F000F00070007030F07D7
:100190001F061F061F071F030F0007030F071F0679
:1001A0001F061F071F030F000F071F071F000F0069
:1001B0000F071F071F000F071F071F061F061F0639
:1001C0001F061F000F0006412E0000000000000067
:1001D000000000000000C0E0F0F8FCFCFEFE04009F
:1001E000000000000000000080808080808080800F
:1001F000808080800002071FFFFEFEFCFCF8F0E01C
:10020000800000000000000000000000000000006E
:100210000000000000001E7FFFFFFFFFFFFFFFFF49
:10022000FEFCFC06060303030301010101010101B9
:10023000010101010103030307070F1F3F7FFFFFB8
:100240003F070000000000000000000000808080E8
:10025000808080C0C0C0C0E0F0FD8F0307070707A3
:10026000070301000080C0E0E0F0F0F0F0F0F06083
:1002700000C0E0E0F0F0F0F0F0E0D83C9CDCDC986E
:10028000333F7FFFDFDF6F6F371B0E0402070D1B4D
:100290003337676F6FCFCFCFCFDFDF1F1E00000078
:1002A0000000000000010D070301010130180C0CD3
:1002B0000C1800030F1F7FFF9F9F0F0F0FCD3303FD
:1002C00001000000FFFF000000000000000000002F
:1002D0000000000000000000000000030F1C306060
:1002E000C0800000000000000000000000000000CE
:1002F00000000000003830200020202111D1D0E87B
:10030000C7E2B01C0F030000000000000000000066
:1003100000000000000000000000000000000000DD
:10032000000001030306060C0C18181818303030B2
:100330003030303018181818180C0C0C0606030151
:10034000030703000000000000000000000000415F
:100350002E00000000000000000000000000C0E0CF
:10036000F0F8FCFCFEFE04000000000000000000AD
:100370008080808080808080808080800002071F55
:10038000FFFEFEFCFCF8F0E0800000000000000032
:1003900000000000000000000000000000001E7FC0
:1003A000FFFFFFFFFFFFFFFFFEFCFC06060303034A
:1003B0000301010101010101010101010103030325
:1003C00007070F1F3F7FFFFF3F07000000000000EF
:1003D0000000000000808080808080C0C0C0C0E03D
:1003E000F0FD8F0307070707070301000080C0E047
:1003F000E0F0F0F0F0F0F06000C0E0E0F0F0F0F0DD
:10040000F0E0D83C9CDCDC98333F7FFFDFDF6F6F90
:10041000371B0E0402070D1B3337676F6FCFCFCF2B
:10042000CFDFDF1F1E0000000000000000010D07ED
:1004300003010101183C7E7E7E3C18030F1F7FFFE5
:100440009F9F0F0F0FCD330301000000FFFF00003F
:10045000000000000000000000000000000000009C
:10046000000000030F1C3060C0800000000000008E
:1004700000000000000000000000000000383020F4
:100480000020202111D1D0E8C7E2B01C0F030000EA
:10049000000000000000000000000000000000005C
:1004A0000000000000000000000001030306060C2D
:1004B0000C18181818303030303030301818181820
:1004C000180C0C0C060603010307030000000000D3
:1004D0000000000000000010100000000000F0E02C
:1004E000F0E0F0E0F0E0F0E0F0E0F0E0F0E0F0E08C
:1004F000F0E0F000F0000000000000000000FF7FCE
:10050000FF7FFF7FFF7FFF67FF4DFF4FFF4FFF6BB9
:10051000FF7FFF00FF000000000000000000C0801F
:10052000F8F0F8F0F8F0F8E0F8E0F0E0F0E0F0C013
:10053000F0C0E0C0E000E000000000003E1C3F1FF3
:100540003F1F7F3F7F3F7F337F26FF67FF67FF7D32
:10055000FF0FFF011F0003000000000000008000EB
:10056000C080F0E0F8F0FCF8FCF0FCE0F8C0F0C06F
:10057000E080E000C00080000000000007020F07DC
:100580001F0F1F0F3F1F7F3BFF76FF37FF177F05B2
:100590003F030F0107000300000000008000C0803F
:1005A000E0C0F0E0F8F0FCF8FCF8FCF0FCE0F8C08B
:1005B000F080E000C00080000000000007030F078B
:1005C0001F0F3F1F7F3FFF7BFF76FF37FF1F7F0D12
:1005D0003F071F030F000700000000008000C080DD
:1005E000E0C0E0C0F0E0F8F0FCF8FCF0FCE0F880DF
:1005F000F000C000800000000000000003010703BD
:100600000F073F1F7F3FFF7BFF36FF177F073F0D21
:100610001F071F020F00070000000000E0C0E0C03D
:10062000E0C0F0E0F0E0F0E0F0E0F8F0F8F0F8F032
:10063000F880F800C00000000000000003011F0F58
:10064000FF7FFF7FFF7FFF33FF267F277F277F1DF1
:100650007F1F3F1C3F003E0000080800FF7EFF4256
:10066000FF42E742FF7EFF7EFF00FF00E742E742D6
:10067000FF7EFF7EFF40FF40E000E000FF7AFF5A70
:10068000FF5AFF5AFF5EFF5EFF00FF00FF5AFF5A4E
:10069000FF5AFF5AFF7EFF7EFF00FF003F1E3F18FC
:1006A0003F183C18FF7EFF7EFF00FF00FF5EFF5AF1
:1006B000FF5AFF5AFF7AFF7AFF00FF00FF7EFF5AC2
:1006C000FF5AFF5AFF7AFF7AFF00FF000702070276
:1006D00007020702FF7EFF7EFF00FF00FF7EFF5A3A
:1006E000FF5AFF5AFF7EFF7EFF00FF003F1E3F1AAA
:1006F0003F1A3F1AFF7EFF7EFF00FF080B00020239
:10070000020100090400000102020000052400109B
:100710000105240101010424020605240600010745
:1007200005810310004009040100020A00000007CF
:10073000050202400000070583024000000403098F
:100740000412010002EF0201404123368000010142
:1007500002030141726475696E6F204C4C43004185
:10076000726475696E6F204C656F6E6172646F00A4
:1007700000000000003E5B4F5B3E3E6B4F6B3E1C3B
:100780003E7C3E1C183C7E3C181C577D571C1C5E52
:100790007F5E1C00183C1800FFE7C3E7FF00182429
:1007A0001800FFE7DBE7FF30483A060E26297929D3
:1007B00026407F050507407F05253F5A3CE73C5A08
:1007C0007F3E1C1C08081C1C3E7F14227F22145FE5
:1007D0005F005F5F06097F017F006689956A606040
:1007E00060606094A2FFA29408047E040810207E3A
:1007F000201008082A1C08081C2A08081E101010BF
:10080000100C1E0C1E0C30383E3830060E3E0E0604
:10081000000000000000005F000000070007001457
:100820007F147F14242A7F2A122313086462364916
:100830005620500008070300001C224100004122FE
:100840001C002A1C7F1C2A08083E08080080703003
:100850000008080808080000606000201008040272
:100860003E5149453E00427F400072494949462178
:1008700041494D331814127F1027454545393C4AEC
:100880004949314121110907364949493646494903
:10089000291E00001400000040340000000814224B
:1008A00041141414141400412214080201590906B9
:1008B0003E415D594E7C1211127C7F494949363EBA
:1008C000414141227F4141413E7F494949417F09A0
:1008D0000909013E414151737F0808087F00417FAB
:1008E00041002040413F017F081422417F404040A9
:1008F000407F021C027F7F0408107F3E4141413E41
:100900007F090909063E4151215E7F0919294626C2
:100910004949493203017F01033F4040403F1F20C6
:1009200040201F3F4038403F63140814630304789D
:1009300004036159494D43007F41414102040810BD
:1009400020004141417F04020102044040404040F8
:10095000000307080020545478407F284444383866
:1009600044444428384444287F38545454180008D8
:100970007E090218A4A49C787F0804047800447DB2
:1009800040002040403D007F1028440000417F404F
:10099000007C047804787C080404783844444438A3
:1009A000FC1824241818242418FC7C080404084883
:1009B0005454542404043F44243C4040207C1C20D4
:1009C00040201C3C4030403C44281028444C90902F
:1009D000907C4464544C4400083641000000770089
:1009E00000004136080002010204023C2623263C96
:1009F0001EA1A161123A4040207A38545455592121
:100A0000555579412154547841215554784020540A
:100A10005579400C1E527212395555555939545456
:100A2000545939555454580000457C410002457DC5
:100A3000420001457C40F0292429F0F0282528F0C7
:100A40007C545545002054547C547C0A097F49321B
:100A5000494949323248484832324A4848303A4196
:100A600041217A3A42402078009DA0A07D3944443B
:100A700044393D4040403D3C24FF2424487E4943C6
:100A8000662B2FFC2F2BFF0929F620C0887E090337
:100A900020545479410000447D413048484A32385E
:100AA0004040227A007A0A0A727D0D19317D26298A
:100AB000292F28262929292630484D402038080882
:100AC000080808080808382F10C8ACBA2F102834B6
:100AD000FA00007B000008142A142222142A1408A9
:100AE0009500220095AA005500AAAA55AA55AA0069
:100AF0000000FF00101010FF00141414FF0010106D
:100B0000FF00FF1010F010F0141414FC001414F780
:100B100000FF0000FF00FF1414F404FC141417106D
:100B20001F10101F101F1414141F00101010F000BD
:100B30000000001F101010101F10101010F01000F7
:100B40000000FF101010101010101010FF10000007
:100B500000FF140000FF00FF00001F10170000FC42
:100B600004F414141710171414F404F40000FF0014
:100B7000F714141414141414F700F714141417149D
:100B800010101F101F141414F4141010F010F000A3
:100B9000001F101F0000001F14000000FC140000C4
:100BA000F010F01010FF10FF141414FF14101010A8
:100BB0001F00000000F010FFFFFFFFFFF0F0F0F05B
:100BC000F0FFFFFF0000000000FFFF0F0F0F0F0FEF
:100BD00038444438447C2A2A3E147E020206060227
:100BE0007E027E0263554941633844443C04407EA2
:100BF000201E2006027E020299A5E7A5991C2A491B
:100C00002A1C4C7201724C304A4D4D3030487848A5
:100C100030BC625A463D3E494949007E0101017E91
:100C20002A2A2A2A2A44445F444440514A444040E4
:100C3000444A51400000FF0103E080FF0000080823
:100C40006B6B083612362436060F090F06000018A3
:100C5000180000001010003040FF0101001F0101CA
:100C60001E00191D1712003C3C3C3C000000000017
:100C70000102040810204080D11511241FBECFEFBF
:100C8000DAE0DEBFCDBF11E0A0E0B1E0ECEEF5E3CD
:100C900002C005900D92AA34B107D9F726E0AAE464
:100CA000B1E001C01D92A332B207E1F716E0CDE337
:100CB000D6E004C02197FE010E94E218CC33D10790
:100CC000C9F70E94BE100C94F41A0C940000FC01A9
:100CD00080915C01811103C08FEF9FEF08959FB752
:100CE000F89482E08093E9002091F20030E012163F
:100CF000130614F421E030E02115310559F028984D
:100D000084E680935B018091F10080838091F20002
:100D1000882319F09FBFC90108958BE68093E800EE
:100D2000F9CF2FB7F89483E08093E9009091E80021
:100D3000892F807295FF04C09091F20080E4891B96
:100D40002FBF08958091B90581110DC082E0809375
:100D5000B50584E08093B6051092B8051092B705EA
:100D600081E08093B90585EB95E00895CF93DF93FB
:100D70001F92CDB7DEB76983DC01ED91FC91028053
:100D8000F381E02D41E050E0BE016F5F7F4F099598
:100D90000F90DF91CF91089583E08093E9008091D7
:100DA000F200882319F08AE38093E80008950E94F6
:100DB000910690E00895CF93DF931F92CDB7DEB7F1
:100DC000FC018485958597FD05C02FEF3FEF3587A2
:100DD00024870BC0CE0101960E946706019719F483
:100DE000898190E002C08FEF9FEF0F90DF91CF914C
:100DF00008950F931F93CF93DF931F92CDB7DEB764
:100E00008C01FC018485958597FF0EC0CE0101966B
:100E10000E946706019719F4298130E002C02FEF84
:100E20003FEFF80135872487F801848595850F9079
:100E3000DF91CF911F910F910895FC0184859585D5
:100E400097FD0BC09FB7F89482E08093E9008091F2
:100E5000F2009FBF90E0019608959FB7F89482E05A
:100E60008093E9008091F2009FBF90E008958F92F7
:100E70009F92AF92BF92CF92DF92EF92FF920F9329
:100E80001F93CF93DF935C016B017A018091130173
:100E9000882309F45BC080915C01882309F456C063
:100EA00080915A0180FF05C08091E00082608093AC
:100EB000E000E70110E00AEF83E0882E9AE3992E24
:100EC0002097D9F10E94910681110AC0015009F4BE
:100ED0003DC061E070E080E090E00E94D40BF0CF74
:100EE000282F30E0C217D3070CF48C2F4FB7F8949B
:100EF0008092E9009091E80095FF1DC0282F30E016
:100F0000C21BD30BF601982F915020F08191809352
:100F1000F100FACFC20ED31E112319F09092E8000F
:100F200009C08091E80085FD06C09092E80011E0BC
:100F3000209709F010E04FBFC3CF1111C3CF5D98C8
:100F400084E68093B4051E141F0444F081E090E011
:100F5000F5019383828380E090E001C0C701DF91B7
:100F6000CF911F910F91FF90EF90DF90CF90BF90A6
:100F7000AF909F908F900895CF92DF92EF92FF9263
:100F80000F931F93CF93DF931F92CDB7DEB7182F28
:100F9000062FE42E862F880F8E5F99830E94831080
:100FA00083E00E948310F12EC12E9981D92E8C2DC1
:100FB0008F19801798F4F601E7FE02C0849101C0F2
:100FC00080810E948310182F80E00E94831081236B
:100FD000FFEFCF1ADF0A8111EACF01C081E00F9045
:100FE000DF91CF911F910F91FF90EF90DF90CF9005
:100FF0000895DF92EF92FF920F931F93CF93DF93A9
:10100000D82E8A017B01E40EF51EEB01CE15DF051B
:1010100071F0D7FE03C0FE01849101C088810E9457
:10102000831021968111F2CF8FEF9FEF01C0C8018D
:10103000DF91CF911F910F91FF90EF90DF90089576
:101040000F931F93CF93DF931F92CDB7DEB782E04C
:10105000898342E450E06BEF76E080E80E94F90774
:101060000E94A206DC0112960D911C9113970115A6
:10107000110569F0D801ED91FC910280F381E02D1A
:10108000BE016F5F7F4FC801099597FF07C0898137
:101090000F90DF91CF911F910F910895F801008576
:1010A0001185E5CF80915D018EBDEEE5F1E0819186
:1010B0000DB407FEFDCF8EBD85E0ED35F807B9F71D
:1010C0000DB407FEFDCF08951F920F920FB60F9239
:1010D00011248F939F938091E1009091E100937F81
:1010E0009093E10083FF0FC01092E90091E090938C
:1010F000EB001092EC0092E39093ED0010925C01F3
:1011000098E09093F00082FF20C093E09093E90074
:101110009091F200992319F09AE39093E80090914E
:10112000B405992339F09091B40591509093B4058A
:10113000992389F190915B01992339F090915B019A
:10114000915090935B01992341F184FF10C08091ED
:10115000E2008E7E81608093E2008091E1008F7ECC
:101160008093E10080915A018E7E806111C080FFE2
:1011700016C08091E2008E7E80618093E2008091B3
:10118000E1008E7E8093E10080915A018E7E816025
:1011900080935A0104C05D9ACDCF289AD6CF9F91F3
:1011A0008F910F900FBE0F901F9018951F920F9266
:1011B0000FB60F921124CF92DF92EF92FF920F930E
:1011C0001F932F933F934F935F936F937F938F93CF
:1011D0009F93AF93BF93EF93FF93CF93DF93CDB7DD
:1011E000DEB76C97DEBFCDBF1092E9008091E800BA
:1011F00083FFEDC168E0CE0145960E94B11082EFF9
:101200008093E8008D8987FF05C09091E80090FFEA
:10121000FCCF03C09EEF9093E800982F907609F0E2
:10122000C6C09E892F89188D91110CC0803829F471
:10123000809159018093F10002C01092F100109248
:10124000F10048C1422F50E0512B913051F48111EF
:1012500041C14130510509F03DC1809159018D7F57
:101260000BC0933061F4811135C14130510509F053
:1012700031C1809159018260809359012BC1953011
:1012800041F48091E80080FFFCCF20682093E300C8
:1012900021C1963009F05FC0EB8CFC8C1092E90004
:1012A0001092570110925601123091F5109255018B
:1012B000109254010E94200899E0BE016F5F7F4F99
:1012C000DB01E92F1D92EA95E9F799831A8391E0F2
:1012D0009E8390EA98879AEF9987209156013091E2
:1012E0005701275F3F4F3C832B838D831092E9008A
:1012F0001092570110925601F0925501E09254015C
:1013000049E050E080E00E94F9070E942008E2C016
:10131000F0925501E09254010E94A206DC0112965F
:10132000ED90FC901397E114F10409F4C0C0D701CB
:10133000ED91FC910480F581E02DBE016B5E7F4F45
:10134000C7010995009719F00CF0C4C0C7C0F70198
:10135000E084F184E8CF973009F4C0C0983021F4DC
:1013600081E08093F100B6C0993009F0B3C083707A
:1013700009F0B4C0EBE1F1E081E021E036E39081D7
:10138000992361F08093E9002093EB009191909371
:10139000EC003093ED008F5F873089F78EE7809304
:1013A000EA001092EA008F8980935C0193C08B8DD4
:1013B0009C8D1092E9001092570110925601909363
:1013C000550180935401898D811156C08E899D8964
:1013D000913A59F4813209F081C047E050E06CE065
:1013E00071E080E00E94F90775C0913209F076C083
:1013F000833289F4888D90E0982F88272F89822B5B
:10140000A0E0B0E08093080190930901A0930A0145
:10141000B0930B015FC0803269F48091E80082FFD5
:10142000FCCF67E08CE091E00E94B1108BEF8093DD
:10143000E80006C0823209F04DC08F898093130105
:1014400080915801882319F0EEEFFAE002C0E0E045
:10145000F8E080910C0190910D01A0910E01B091E6
:101460000F01803B9440A105B10509F07BC080913C
:10147000130180FF93C076C00E94A206DC01129681
:101480000D911C9113970115110541F1D801ED91B2
:10149000FC910190F081E02DBE016B5E7F4FC80191
:1014A0000995811117C0F80100851185ECCF113025
:1014B00009F44EC0133091F48F89882309F445C094
:1014C000823081F440E860E18FE597E00E94BC073C
:1014D000882321F08EEF8093E80079C081E2809329
:1014E000EB0075C0813029F440E86BE083E597E0BC
:1014F000EDCF833099F70E94A206DC011296ED90A1
:10150000FC9013978E010F5F1F4F6801E114F104E7
:1015100079F0D701ED91FC910680F781E02DB801BB
:10152000C7010995080F111DF701E084F184EECF82
:10153000D8011C92F60101900020E9F73197BF0114
:101540006C197D0940E0C601C1CF6DE377E002C0B0
:1015500061E477E06115710509F2FB01449150E007
:1015600080E840CF0FB6F894A8958091600088611C
:1015700080936000109260000FBEA895EE3F2AE0B5
:10158000F20739F08091FE0A9091FF0A91838083DF
:10159000A1CF1092FF0A1092FE0A9CCFEE3F8AE084
:1015A000F80731F0808191819093FF0A8093FE0AC1
:1015B00087E797E7918380839BE088E10FB6F894F3
:1015C000A895809360000FBE9093600083CF6C96C7
:1015D0000FB6F894DEBF0FBECDBFDF91CF91FF9164
:1015E000EF91BF91AF919F918F917F916F915F919B
:1015F0004F913F912F911F910F91FF90EF90DF90AE
:10160000CF900F900FBE0F901F901895CF92DF9242
:10161000EF92FF920F931F93CF93DF936C017A01A8
:101620008B01C0E0D0E0CE15DF0589F0D8016D91C7
:101630008D01D601ED91FC910190F081E02DC60164
:101640000995892B11F47E0102C02196ECCFC701C8
:10165000DF91CF911F910F91FF90EF90DF90CF908E
:1016600008953FB7F89480911B0690911C06A091B5
:101670001D06B0911E0626B5A89B05C02F3F19F088
:101680000196A11DB11D3FBFBA2FA92F982F882702
:10169000820F911DA11DB11DBC01CD0142E0660F5D
:1016A000771F881F991F4A95D1F70895809153019C
:1016B000E0915101F0915201882349F0CF01029647
:1016C0009093520180935101859194910895CF0197
:1016D00002969093520180935101808191810895E7
:1016E00080914A0108950895089580E090E008955A
:1016F0000E94DF1A0F931F93CF93DF93EC01888131
:101700009981009729F02A813B812617370788F4B1
:101710008B016F5F7F4F0E94151A009761F09983CC
:1017200088831B830A832C813D81232B11F4FC01C8
:10173000108281E001C080E0DF91CF911F910F9175
:101740000895CF93DF93EC0188819981009711F080
:101750000E947D19198218821D821C821B821A82A6
:10176000DF91CF910895EF92FF920F931F93CF9344
:10177000DF93EC017B018A01BA010E947A0B81118F
:1017800004C0CE010E94A10B07C01D830C83B701CA
:10179000888199810E94ED1ACE01DF91CF911F912E
:1017A0000F91FF90EF9008958F929F92AF92BF920A
:1017B000CF92DF92EF92FF926B017C010E94310B7E
:1017C0004B015C01C114D104E104F104F1F00E9469
:1017D000310BDC01CB0188199909AA09BB09883EA4
:1017E0009340A105B10570F321E0C21AD108E108C8
:1017F000F10888EE880E83E0981EA11CB11CC1146C
:10180000D104E104F10419F7DDCFFF90EF90DF90F0
:10181000CF90BF90AF909F908F9008951F920F929E
:101820000FB60F9211242F933F938F939F93AF93F3
:10183000BF9380914B0190914C01A0914D01B091CB
:101840004E0130911A0623E0230F2D3720F4019624
:10185000A11DB11D05C026E8230F0296A11DB11DD3
:1018600020931A0680934B0190934C01A0934D0155
:10187000B0934E0180911B0690911C06A0911D060D
:10188000B0911E060196A11DB11D80931B06909379
:101890001C06A0931D06B0931E06BF91AF919F91A9
:1018A0008F913F912F910F900FBE0F901F90189521
:1018B000CF92DF92EF92FF920F931F93CF93DF931C
:1018C0000E94560B811520E8920761F48091710007
:1018D0008D7F8093710010929100469847981092E6
:1018E00013068BC021E020931306813020E8920775
:1018F00051F480914F019091500190935201809347
:1019000051010E94560B97FD05C02091120622231B
:1019100009F43FC02091110621113BC021E0209322
:101920001406EC01DF77209769F481E080931506B7
:1019300046983FE9C32E3FE0D32EE12CF12CCAEFAD
:10194000D0E014C08E0120E030E060E472E48FE06B
:1019500090E0A90198010E949F1769017A0181E036
:10196000C81AD108E108F10810921506E0916B053C
:10197000F0916C050995811103C081E080931506F3
:10198000809114068823B9F180911506811133C026
:1019900003C010921406C5CF46992DC0479A0E94E5
:1019A000560B009771F09C01DE010E941718DC01B4
:1019B000CB0129E0B595A795979587952A95D1F7FD
:1019C00003C08FEF9FEFDC01109290002AE020937C
:1019D0009100D0929900C09298008093160690933F
:1019E0001706A0931806B0931906809171008260C3
:1019F0008093710002C04798D2CFDF91CF911F91A1
:101A00000F91FF90EF90DF90CF9008951F920F926B
:101A10000FB60F9211242F933F934F935F936F93C1
:101A20007F938F939F93AF93BF93EF93FF93809197
:101A3000160690911706A0911806B0911906892BE9
:101A40008A2B8B2B81F18091150681110BC098B1E7
:101A500080E4892788B980911406882319F088B119
:101A6000805888B98091160690911706A0911806A3
:101A7000B0911906181619061A061B06B4F48091BF
:101A8000160690911706A0911806B09119060197B5
:101A9000A109B1098093160690931706A093180622
:101AA000B093190602C00E94580CFF91EF91BF91AC
:101AB000AF919F918F917F916F915F914F913F91E6
:101AC0002F910F900FBE0F901F9018954F925F921D
:101AD0006F927F928F929F92AF92BF92CF92DF923E
:101AE000EF92FF920F931F93CF93DF9300D000D01C
:101AF000CDB7DEB749012C2DA02EB12CDC01AA0DEB
:101B0000BB1D1A161B060CF0B3C1803891050CF0F2
:101B1000AFC1FB01EE0DF11D1E161F060CF0A8C192
:101B2000603471050CF0A4C14115510509F4A0C140
:101B3000FB0177FF04C0EE27FF27E61BF70B3E2FC4
:101B40003770732EFB0177FD379633E0F595E795F7
:101B50003A95E1F73E2F77FF07C0772029F03FEF56
:101B60003E0F68E06719762E97FF05C0EE27FF2726
:101B7000E81BF90B02C0E0E0F0E0A038B10524F06A
:101B800060E8F62EF81A01C0F02EFE1A632F032E1D
:101B9000000C770B3F3F1CF4A62FA09501C0A0E0DE
:101BA00011E0BE2DB77009F410E0E694E694E694D7
:101BB000E10E6E0D711D693071051CF068E0E62EB6
:101BC000E31AEA1A3A0F60E83603800D911D1124DA
:101BD0008E0F9F1FA09FE00DF11D11244E0F5F1F60
:101BE00061E070E0072C02C0660F771F0A94E2F7ED
:101BF000233009F4FCC098F4213009F4AEC022303F
:101C000009F036C12FEF269F8001279F100D112468
:101C1000009510951C830B835C80E30E27C02A3F40
:101C200029F02B3F09F024C1E30E83C0E30E4EC020
:101C3000FA01EC0DFD1DE491E69F4001E79F900C39
:101C400011249A82898237FD04C02C912023822A94
:101C50008C92711014C0EFEFCE1ADE0A1196CF14D9
:101C600038F33F5F4A0D5B1D80589F4F3E1509F4C6
:101C7000FFC0DC01A35ABE4FC12CD12CF0CF3730AE
:101C800054F7FD01E058FF4F208125219A80292932
:101C90002083E1CFFA01E00FF11FE491E69F60019C
:101CA000E79FD00C1124DA82C98237FD03C02C9142
:101CB000C22ACC92711013C00F5F1F4F11960F15DF
:101CC00048F33F5F4A0D5B1D80589F4F3E1509F456
:101CD000CFC0DC01A35ABE4F00E010E0F0CF373098
:101CE0005CF7FD01E058FF4FD0802A812D29208329
:101CF000E3CFFA01EC0DFD1DE491E69FD001E79FD3
:101D0000B00D1124BA83A98337FD05C0A095F80151
:101D10002081A223A083711015C0FFEFCF1ADF0A24
:101D20000F5F1F4FCF1428F33F5F4A0D5B1D805894
:101D30009F4F3E1509F49CC08C01035A1E4FC12CC5
:101D4000D12CF0CF37304CF7F801E058FF4F2A8103
:101D50002095A0812A232083E0CFD401AE0FBF1F9E
:101D6000E30E3E1509F484C0FC01E35AFE4F4F0117
:101D7000C12CD12CCF1498F5FD01EC0DFD1DE49183
:101D8000E69F8001E79F100D1124009510951C839C
:101D90000B83FA01EC0DFD1DE491E69F2001E79F06
:101DA000500C11245A82498237FD05C0F40120816C
:101DB0000223402A4082772059F037304CF4F40156
:101DC000E058FF4F10812C8121231A81212B208381
:101DD000FFEFCF1ADF0A2FEF821A920ACBCF3F5FB5
:101DE0004A0D5B1DAA0DBB1D80589F4FBACFCF2C4B
:101DF000D12CE40FF51FDC01A35ABE4FAC014352B6
:101E00005E4F00E810E00C191D09AC18BD08AA0CC3
:101E1000BB1C6F2C2E2DCF93DF93EA018590C590CC
:101E2000772059F0869E4001C69E600137302CF421
:101E30009881D0949D219929999333233AF09C91CC
:101E4000C0949C2198299D930C94270F1196FA9485
:101E500029F7EA9451F0F62C33951124EA0DF11D7F
:101E6000A00FB11DC00FD11DD9CFDF91CF9111248B
:101E70000F900F900F900F90DF91CF911F910F91C6
:101E8000FF90EF90DF90CF90BF90AF909F908F909A
:101E90007F906F905F904F900895BC0180E090E03C
:101EA0000C94D40B8FB12CB193B130E020953095C8
:101EB00020743327A90123E0559547952A95E1F72A
:101EC000292F30E0209530952071332735952795BF
:101ED00035952795242B8095807F822B089583B795
:101EE000817F83BF83B7816083BF889583B78E7FEF
:101EF00083BF08958EBD00000DB407FEFDCF089589
:101F0000E0E7FCE090E1969FD001A0781124A80FB3
:101F10006770E60FF11D9491A35ABE4F442319F048
:101F20008C91982B03C090958C9198239C93089545
:101F30002F923F924F925F926F927F928F929F92D9
:101F4000AF92BF92CF92DF92EF92FF920F931F93C7
:101F5000CF93DF93CDB7DEB727970FB6F894DEBFE8
:101F60000FBECDBFFC016A3069F4248D808D918D48
:101F700038E0239F800D911D1124918F808F178A47
:101F8000168AA6C06D3009F4A3C09F838E83348C5B
:101F9000238D2983328D3A83608C718CE688F78893
:101FA00080E8E816F104C4F0AE81BF815C962C9104
:101FB0005C97422F50E056968D919C915797B6E0D2
:101FC0002B9F800D911D1124EE81FF81978B868BB5
:101FD000258D211167C07CC0F0E46F16710424F7D1
:101FE000C70125E0329E800D911D11241816190697
:101FF000DCF6432C512CC30138E0339E800D911D3B
:1020000011241816190684F685E0689F80011124B2
:102010000059184F20E0F8012490253009F4212CB4
:10202000430158E020FC02C0398101C03A813111DE
:102030000BC0F9818A81F81307C026945150840C93
:10204000951C5111EFCF25C067018C2D8E1983157A
:10205000A0F754018A2D88198315B8F490E8C916A1
:10206000D10478F4A0E4AA16B10458F4432FB501C2
:10207000C6012C833B835D830E94800F5D813B8181
:102080002C81BFEFAB1ABB0AE5CFEFEFCE1ADE0A09
:10209000DCCF2F5FE40CF51C0F5F1F4F263009F0DB
:1020A000BACF82CF6AEF64039001659F300D11248F
:1020B00020583F4F281739075CF4AE81BF81ED915E
:1020C000FC9111970190F081E02D6AE0CD01099516
:1020D00081E090E027960FB6F894DEBF0FBECDBF2B
:1020E000DF91CF911F910F91FF90EF90DF90CF90F4
:1020F000BF90AF909F908F907F906F905F904F9028
:102100003F902F9008954091560150915701209192
:1021100054013091550142175307B4F49091E800EF
:102120009570E1F39091E80092FD19C08093F10061
:10213000809156019091570101968F739927892BB1
:1021400019F48EEF8093E800809156019091570129
:102150000196909357018093560181E0089580E0A5
:102160000895615030F02091F100FC012083019628
:10217000F8CF289884E680935B010895CF93DF938E
:10218000CDB7DEB76C970FB6F894DEBF0FBECDBFEC
:10219000789484B5826084BD84B5816084BD85B542
:1021A000826085BD85B5816085BD80916E0081604E
:1021B00080936E00109281008091810082608093F4
:1021C00081008091810081608093810080918000F6
:1021D0008160809380008091910082608093910063
:1021E0008091910081608093910080919000816046
:1021F000809390008091C10084608093C1008091A1
:10220000C10082608093C1008091C1008160809391
:10221000C1008091C30081608093C3008091C000A1
:1022200082608093C0008091C20081608093C20070
:1022300080917A00846080937A0080917A00826035
:1022400080937A0080917A00816080937A008091F7
:102250007A00806880937A0010925C011092590194
:1022600010925A018091D70081608093D70080EA54
:102270008093D80089B5806189BD89B5826089BDA8
:1022800009B400FEFDCF61E070E080E090E00E94C4
:10229000D40B8091D8008F7C80618093D80080918E
:1022A000E000807F8093E0008091E1008E7E80934B
:1022B000E1008DE08093E200559A209AEEEFFFE76F
:1022C000859194918B3F9C4D19F481E08093580146
:1022D00081EC80937C0085B1806F85B9249884B1AE
:1022E000866E84B95E9A5F988AB1806D8AB9769A53
:1022F0006E9881B3806F81BB899880B38D7080BBED
:1023000080E58CBD81E08DBD85E090E00E944D0FA1
:102310005F9A85E090E00E944D0F5E985C980CEA11
:1023200010E08DE0F82EF00EF80184910E947A0FF3
:102330000F5F1F4FF012F8CF5C9A81E88093640022
:1023400081E08093650000E014E080E00E947A0F55
:1023500001501109D1F70E94520F87FF1FC05C98EE
:1023600085EA0E947A0F5C9A2E982F982D9880917A
:1023700064008062809364000E946F0FFDCF2D98EF
:102380000E94520F8478843871F00E94520F847139
:10239000843129F188EC90E00E944D0F0E94520F89
:1023A00082FDEDCF38C02D9A88EC90E00E944D0F51
:1023B0002F9882E090E00E9489178F3F29F06FEFFD
:1023C00082E090E00E94911784EF91E00E944D0F0F
:1023D0002F9A0E94520F84788438D9F3D6CF2D9A41
:1023E00088EC90E00E944D0F2E9882E090E00E94D1
:1023F0008917882329F060E082E090E00E9491171D
:1024000084EF91E00E944D0F2E9A0E94520F84712A
:102410008431D9F3BFCF2D9A82E090E00E948917D2
:10242000882331F03E9A3F9A81E080934A0104C0AC
:1024300010924A013E983F9882E390E00E944D0F2F
:102440000E94520F8111F8CF1DE5812E11E0912ECF
:10245000CE0101965C01B6E92B2E312C2FB7F894F2
:1024600080914B0190914C01A0914D01B0914E0192
:102470002FBF4091A6055091A7056091A8057091C6
:10248000A905F090AA05FF2041F02091A205821B2A
:102490008093AB051092AA0578C384179507A60709
:1024A000B70738F4481B423008F46FC30E946F0F1F
:1024B0006CC301E00093AA058093A2059093A30545
:1024C000A093A405B093A5052091A105820F911DAD
:1024D000A11DB11D8093A6059093A705A093A80503
:1024E000B093A90580919D0590919E0501969093CA
:1024F0009E0580939D0580919F058093A0050E9475
:10250000520F282F80939F059F2DF40191119FEF6B
:10251000002491939193919391930394D1F7109206
:10252000AF051092AE051092AD051092AC0560910A
:10253000030170910401E0910501F0E06E177F073F
:10254000B4F46F5F7F4F7093040160930301809137
:10255000020190E0EFE4F3E00491E0E5F3E0E490C1
:10256000AAEFCA2E20E030E041E553E078C0809128
:102570009D0590919E05B1010E94CE18892B21F0F6
:1025800080910001882349F081E0809300018091CF
:10259000A0058C7809F468C0AFC0F0930401E09303
:1025A000030180910101811133C0809171008D7F01
:1025B00080937100109253018DE595E09093520144
:1025C000809351019093500180934F0186E194E0F4
:1025D00090935E0580935D0582E390E090936005A3
:1025E00080935F058DE298E090936205809361058A
:1025F00084E690E0909364058093630580E090E822
:1026000090936605809365050E94580C0093010124
:1026100060910301709104018091020190E0E7EC68
:10262000F1E00491E8ECF1E0E490EAEFCE2E20E056
:1026300030E049EC51E00E94660D6091070170E0C6
:102640008091060190E0E9EBF0E00491EAEBF0E024
:10265000E490F3E0CF2E20E030E04BEB50E00E941E
:10266000660D0E94520891C22C7809F445C08091F1
:102670009405909195050196909395058093940506
:102680006091770570E080E090E00E94D91620917B
:1026900072053091730540917405509175050E9443
:1026A00027186B017C0160916D0570E080E090E07F
:1026B0000E94D9169B01AC01C701B6010E94D21637
:1026C00081111AC0209186053091870540918805B7
:1026D0005091890560917E0570917F0580918005FC
:1026E000909181050E94261860937E0570937F0566
:1026F00080938005909381050E94520F85FF1FC033
:10270000209190053091910540919205509193054B
:1027100060916E0570916F058091700590917105C3
:102720000E9426186B017C0120E030E0A9010E9484
:10273000C91818160CF045C084E090E02FC00E9424
:10274000520F86FF38C0209190053091910540913D
:1027500092055091930560916E0570916F0580917F
:102760007005909171050E9427186B017C016091A2
:10277000760570E080E090E00E94D9169B01AC01E4
:10278000C701B6010E94271820E030E040E053E482
:102790000E94D21687FF15C082E090E090938F05CB
:1027A00080938E05C0926E05D0926F05E092700501
:1027B000F092710506C083E090E090938F058093BE
:1027C0008E0560918E0570918F05772780919D050C
:1027D00090919E050E94CE18892B89F420918D0539
:1027E000422F50E080918C0590E0019748175907DF
:1027F00024F42F5F20938D0502C010928D05C090A8
:102800007E05D0907F05E0908005F09081052091B5
:102810007205309173054091740550917505C7019B
:10282000B6010E942718698F7A8F8B8F9C8F6093D7
:1028300072057093730580937405909375054090AD
:102840007705512C60906D05712CB201052C000CA0
:10285000880B990B0E94D9169B01AC01698D7A8D6A
:102860008B8D9C8D0E942718698F7A8F8B8F9C8F00
:10287000B301072C000C880B990B0E94D9169B0101
:10288000AC01698D7A8D8B8D9C8D0E94D21687FF4D
:1028900015C02091820530918305409184055091A7
:1028A0008505C701B6010E94271860937E057093C5
:1028B0007F05809380059093810519C010927E0555
:1028C00010927F051092800510928105B301641962
:1028D0007509072E000C880B990B0E94D91660937E
:1028E00072057093730580937405909375058091BC
:1028F0009405909195051C8A1B8A1E8A1D8A188E44
:102900001F8A4AE0B5010E949D16F5010190002042
:10291000E9F73197AF014A195B09B501CE0143963A
:102920000E94B30B4F89588D20918A0530918B05F9
:102930004217530708F042C01A8219821C821B8278
:102940001E821D8241E050E067E471E0C5010E94F3
:10295000B30B8F89988D0B891C89ED80FE80011542
:10296000110509F41AC10097A1F0E80EF91EB7018C
:10297000C5010E947A0B882309F40FC129813A818D
:102980008D819E81B801820F931F0E94ED1AFE82F5
:10299000ED8269817A816115710539F04D815E8121
:1029A000CE0143960E94B30B04C0CE0143960E9411
:1029B000A10B89819A810E947D19B4CF69EF6203CE
:1029C0003001639F700C11249DE7690E711C1A82FF
:1029D00019821C821B821E821D826B897C89C50123
:1029E0006115710519F00E94B30B02C00E94A10B82
:1029F000412C512C2D813E8189819A8142165306AA
:102A000008F048C0009729F0FC01E40DF51D808115
:102A100001C080E08053E9E5F6E00491EAE5F6E0E4
:102A2000E490882329F190E0880F991F402F50E00F
:102A30002E2D269526952695622F70E021E030E018
:102A4000EE2DE77011F420E030E0260F371F429F93
:102A5000B001439F700D529F700D1124869FA001FD
:102A6000879F500D969F500D1124455A594F02C013
:102A70004BE556E063E0C62E20E030E063E070E016
:102A8000C3010E94660DF7E06F0E711C2FEF421A12
:102A9000520AB0CF0E947D198B899C890E947D19B2
:102AA000E0906D0580E48E19F12CC12CD12C27010A
:102AB000480E511C3701C201A1E44A16510414F01A
:102AC00080E490E0681679064CF441E0B301C60159
:102AD0000E94800F8FEF681A780AEDCFBFEFCB1AF4
:102AE000DB0AE0E8CE16D10429F710918D0560913C
:102AF00072057091730580917405909175050E941F
:102B000093182B013C0160916E0570916F058091C7
:102B10007005909171050E949318DC01CB01E7EDDF
:102B2000F4E00491E8EDF4E0E490112331F1E12FB9
:102B3000F0E0EE0FFF1F402F50E02E2D269526953A
:102B40002695622F70E021E030E01E2D177011F401
:102B500020E030E0260F371F429FB001439F700DE9
:102B6000529F700D1124E69FA001E79F500DF69F24
:102B7000500D112447525B4F02C049ED54E023E051
:102B8000C22E20E030E0B2016ACD80E090E0892BD7
:102B900009F464CC0E9400005ECCC5010E94A10B28
:102BA000F8CEE1ECF5E01382128288EE93E0A0E02B
:102BB000B0E084839583A683B78385E291E0918317
:102BC00080832FEF3FEF35872487E6E9F5E0138216
:102BD00012821186128680E1838730872783108ACC
:102BE000118A128A138A148A27E331E03183208301
:102BF00025E431E035832483178A168A118E108EDE
:102C000091E0928F138E948F158E20E73BE03093E6
:102C10006C0520936B0520E030E830936A05209323
:102C2000690546983E9A47983F9AEDE6F5E096E3A7
:102C3000908340E050E060E271E44183528363831B
:102C400074831582168217821086818782872AE014
:102C500030E034872387168615868787808B118A14
:102C6000128A138A148A83E393E3A3EBBEE3858B72
:102C7000968BA78BB08F80E090E0A0EAB0E4818FC4
:102C8000928FA38FB48F87E090E0968F858F86E038
:102C9000878F10A283E090E092A381A380E090E070
:102CA000A0ECBFE383A394A3A5A3B6A310A617A289
:102CB00008950F931F93CF93DF938C0181E090E0F1
:102CC0000E94891780FF31C08AE090E00E94891736
:102CD0009FEF980F9E3F48F522E330E0D8015796CA
:102CE0003C932E93569728E330E059963C932E93CD
:102CF0005897CBE0D0E0D801ED91FC910190F081A4
:102D0000E02D682FC8010995CE010E9489172196F0
:102D1000C131D10581F70E94520888EE93E0DF911E
:102D2000CF911F910F910C944D0FDF91CF911F9177
:102D30000F91089504970C945916BB274A3031F42B
:102D4000992322F4BDE2909581959F4F0C94A9168A
:102D5000BB27FB015527AA27880F991FAA1FA41775
:102D600010F0A41B83955051B9F7A05DAA3308F069
:102D7000A95DA193009779F7B111B1931192CB019D
:102D80000C94C216DC01FC01672F71917723E1F7E7
:102D9000329704C07C916D9370836291AE17BF0728
:102DA000C8F308950E94141708F481E00895E89488
:102DB00009C097FB3EF490958095709561957F4F83
:102DC0008F4F9F4F9923A9F0F92F96E9BB27939531
:102DD000F695879577956795B795F111F8CFFAF441
:102DE000BB0F11F460FF1BC06F5F7F4F8F4F9F4F72
:102DF00016C0882311F096E911C0772321F09EE8D0
:102E0000872F762F05C0662371F096E8862F70E035
:102E100060E02AF09A95660F771F881FDAF7880F0F
:102E20009695879597F90895990F0008550FAA0B65
:102E3000E0E8FEEF16161706E807F907C0F01216CD
:102E40001306E407F50798F0621B730B840B950BD0
:102E500039F40A2661F0232B242B252B21F4089525
:102E60000A2609F4A140A6958FEF811D811D0895C2
:102E700097F99F6780E870E060E008959FEF80EC2D
:102E8000089500240A9416161706180609060895D0
:102E900000240A9412161306140605060895092E36
:102EA0000394000C11F4882352F0BB0F40F4BF2BA5
:102EB00011F460FF04C06F5F7F4F8F4F9F4F0895E5
:102EC00057FD9058440F551F59F05F3F71F04795DB
:102ED000880F97FB991F61F09F3F79F087950895C0
:102EE000121613061406551FF2CF4695F1DF08C0DF
:102EF000161617061806991FF1CF869571056105FC
:102F000008940895E894BB2766277727CB0197F9A3
:102F10000895F999FECF92BD81BDF89A992780B5A1
:102F20000895262FF999FECF1FBA92BD81BD20BD0D
:102F30000FB6F894FA9AF99A0FBE01960895052EE5
:102F400097FB1EF400940E94B61757FD07D00E940D
:102F5000F51707FC03D04EF40C94B6175095409526
:102F6000309521953F4F4F4F5F4F08959095809535
:102F7000709561957F4F8F4F9F4F08952F923F928D
:102F80004F925F926F927F928F929F92AF92BF9279
:102F9000CF92DF92EF92FF920F931F93CF93DF9325
:102FA000CDB7DEB7CA1BDB0B0FB6F894DEBF0FBE82
:102FB000CDBF09942A88398848885F846E847D84CF
:102FC0008C849B84AA84B984C884DF80EE80FD80D1
:102FD0000C811B81AA81B981CE0FD11D0FB6F89447
:102FE000DEBF0FBECDBFED010895A1E21A2EAA1BD0
:102FF000BB1BFD010DC0AA1FBB1FEE1FFF1FA217A9
:10300000B307E407F50720F0A21BB30BE40BF50BA5
:10301000661F771F881F991F1A9469F7609570952E
:10302000809590959B01AC01BD01CF010895A29FB1
:10303000B001B39FC001A39F700D811D1124911D8C
:10304000B29F700D811D1124911D08955058BB270A
:10305000AA270E943E180C944F170E94411738F07F
:103060000E94481720F039F49F3F19F426F40C947D
:103070003E170EF4E095E7FB0C943817E92F0E94F9
:10308000601758F3BA17620773078407950720F093
:1030900079F4A6F50C9482170EF4E0950B2EBA2F56
:1030A000A02D0B01B90190010C01CA01A00111244E
:1030B000FF27591B99F0593F50F4503E68F11A16FA
:1030C000F040A22F232F342F4427585FF3CF46958B
:1030D00037952795A795F0405395C9F77EF41F16AD
:1030E000BA0B620B730B840BBAF09150A1F0FF0F77
:1030F000BB1F661F771F881FC2F70EC0BA0F621F63
:10310000731F841F48F4879577956795B795F79552
:103110009E3F08F0B0CF9395880F08F09927EE0FE7
:103120009795879508950E949A186894B1110C9408
:10313000831708950E94681788F09F5798F0B92F59
:103140009927B751B0F0E1F0660F771F881F991FDC
:103150001AF0BA95C9F714C0B13091F00E948217E5
:10316000B1E008950C948217672F782F8827B85FF5
:1031700039F0B93FCCF3869577956795B395D9F734
:103180003EF490958095709561957F4F8F4F9F4F3E
:1031900008950E94141708F48FEF0895AA1BBB1B13
:1031A00051E107C0AA1FBB1FA617B70710F0A61B47
:1031B000B70B881F991F5A95A9F780959095BC0168
:1031C000CD010895EE0FFF1F0590F491E02D0994B5
:1031D000CF93DF938230910510F482E090E0E0918C
:1031E0002106F091220620E030E0C0E0D0E03097E8
:1031F00011F14081518148175907C0F0481759070C
:1032000061F482819381209719F09B838A832BC07C
:10321000909322068093210626C02115310519F0CE
:103220004217530718F49A01BE01DF01EF01028033
:10323000F381E02DDCCF2115310509F1281B390B75
:103240002430310590F412968D919C91139761155D
:10325000710521F0FB019383828304C090932206C1
:1032600080932106FD01329644C0FD01E20FF31F59
:1032700081939193225031092D933C933AC0209130
:103280001F0630912006232B41F420911601309126
:1032900017013093200620931F06209114013091CE
:1032A00015012115310541F42DB73EB740911801A4
:1032B00050911901241B350BE0911F06F091200657
:1032C000E217F307A0F42E1B3F0B2817390778F0FD
:1032D000AC014E5F5F4F2417350748F04E0F5F1F5C
:1032E0005093200640931F068193919302C0E0E023
:1032F000F0E0CF01DF91CF9108950F931F93CF930B
:10330000DF93009709F48CC0FC013297138212827C
:1033100000912106109122060115110581F42081EA
:103320003181820F931F20911F06309120062817AC
:10333000390779F5F0932006E0931F0671C0D80194
:1033400040E050E0AE17BF0750F412962D913C912B
:103350001397AD012115310509F1D901F3CF9D0175
:10336000DA013383228360817181860F971F821770
:10337000930769F4EC0128813981260F371F2E5FEE
:103380003F4F318320838A819B8193838283452BA6
:1033900029F4F0932206E093210642C01396FC9391
:1033A000EE931297ED01499159919E01240F351F1B
:1033B000E217F30771F480819181840F951F0296C3
:1033C00011969C938E938281938113969C938E93F6
:1033D0001297E0E0F0E0D80112968D919C9113973E
:1033E000009719F0F8018C01F6CF8D919C9198010E
:1033F0002E5F3F4F820F931F20911F0630912006B2
:103400002817390769F4309729F410922206109290
:10341000210602C0138212821093200600931F0619
:10342000DF91CF911F910F910895A0E0B0E0EBE103
:10343000FAE10C94C217EC01009721F4CB010E9431
:10344000E818B8C0FC01E60FF71F9C0122503109B3
:10345000E217F30708F4ACC0D9010D911C91119744
:1034600006171707B0F00530110508F49FC0C80112
:1034700004978617970708F499C002501109061B94
:10348000170B019311936D937C93CF010E947D19CB
:103490008DC05B01A01AB10A4C01800E911EA09153
:1034A0002106B091220640E050E0E12CF12C10976B
:1034B00009F44AC0A815B905D1F56D907C90119713
:1034C000630182E0C80ED11CCA14DB0480F1A301A1
:1034D0004A195B096A0182E0C80ED11C1296BC90A1
:1034E00012971396AC91B5E0CB16D10440F0B2829E
:1034F000A38351834083D9016D937C930AC00E5FEF
:103500001F4FC301800F911FF90191838083EB2D21
:10351000FA2FE114F10431F0D7011396FC93EE93E6
:10352000129744C0F0932206E09321063FC08D918C
:103530009C9111974817590708F4AC017D01129628
:103540000D90BC91A02DB3CF80911F0690912006C5
:1035500088159905E1F446175707C8F480911401BE
:1035600090911501009741F48DB79EB740911801D5
:1035700050911901841B950BE817F907C8F4F093D3
:103580002006E0931F06F901718360830FC0CB0111
:103590000E94E8187C01009759F0A801BE010E9422
:1035A000E41ACE010E947D19C70104C0CE0102C0F9
:1035B00080E090E0CDB7DEB7EEE00C94DE1781E05E
:1035C00090E0F8940C94F41AFB01DC0102C0019025
:1035D0000D9241505040D8F70895FB01DC01019055
:0C35E0000D920020E1F70895F894FFCF51
:1035EC0000001DD2FF051E2EFFFFFFFF00E10000B3
:1035FC000000000000002306800000C18081000054
:10360C000000000000B6063707D706CC061D07DB06
:10361C0006F90600000000980F060B750B740B5989
:0A362C0016FCFF00009A16300000A3
:00000001FF
