:100000000C949F060C94C7060C94C7060C94C70664
:100010000C94C7060C94C7060C94C7060C94C7062C
:100020000C94C7060C94C7060C9444100C94B6109C
:100030000C94C7060C94C7060C94C7060C94C7060C
:100040000C94C7060C94C7060C94C7060C94C706FC
:100050000C94C7060C94C7060C94C7060C94700940
:100060000C94C7060C94C7060C94C7060C94C706DC
:100070000C94C7060C94C7060C94C7060C94C706CC
:100080000C94680A0C94C7060C94C7060C94C70617
:100090000C94C7060C94C7060C94C7060C94C706AC
:1000A0000C94C7060C94C7060C94C706D5F08D14A3
:1000B000A1C881CFD9F1AF2000430D00F800FCF8B2
:1000C000FEFCFF0CFF0CFF1CFF18FE00FCF8FEFC02
:1000D000FF0CFF0CFFFCFFF8FE00FEFCFFFCFF78AE
:1000E000FEF0FC78FEFCFFFCFF00FEFCFFFCFFCCFA
:1000F000FFCCFFFCFF78FE00FE3CFF7CFFE0FEE053
:10010000FE7CFF3CFF00FEF8FEFCFF0CFF0CFF1C1A
:10011000FF18FE00FCF8FEFCFF0CFF0CFFFCFFF8D4
:10012000FE00FEFCFFFCFFCCFFCCFFFCFF78FE00D6
:10013000FEFCFFFCFF6CFF6CFF0CFF0CFF001E00C1
:100140000C00030007030F071F061F061F071F03EE
:100150000F0007030F071F061F061F071F030F00CF
:100160000F071F071F000F0007000F071F071F00C3
:100170000F071F071F000F0007000300010000000A
:1001800007000F071F071F000F00070007030F07D7
:100190001F061F061F071F030F0007030F071F0679
:1001A0001F061F071F030F000F071F071F000F0069
:1001B0000F071F071F000F071F071F061F061F0639
:1001C0001F061F000F0006412E0000000000000067
:1001D000000000000000C0E0F0F8FCFCFEFE04009F
:1001E000000000000000000080808080808080800F
:1001F000808080800002071FFFFEFEFCFCF8F0E01C
:10020000800000000000000000000000000000006E
:100210000000000000001E7FFFFFFFFFFFFFFFFF49
:10022000FEFCFC06060303030301010101010101B9
:10023000010101010103030307070F1F3F7FFFFFB8
:100240003F070000000000000000000000808080E8
:10025000808080C0C0C0C0E0F0FD8F0307070707A3
:10026000070301000080C0E0E0F0F0F0F0F0F06083
:1002700000C0E0E0F0F0F0F0F0E0D83C9CDCDC986E
:10028000333F7FFFDFDF6F6F371B0E0402070D1B4D
:100290003337676F6FCFCFCFCFDFDF1F1E00000078
:1002A0000000000000010D070301010130180C0CD3
:1002B0000C1800030F1F7FFF9F9F0F0F0FCD3303FD
:1002C00001000000FFFF000000000000000000002F
:1002D0000000000000000000000000030F1C306060
:1002E000C0800000000000000000000000000000CE
:1002F00000000000003830200020202111D1D0E87B
:10030000C7E2B01C0F030000000000000000000066
:1003100000000000000000000000000000000000DD
:10032000000001030306060C0C18181818303030B2
:100330003030303018181818180C0C0C0606030151
:10034000030703000000000000000000000000415F
:100350002E00000000000000000000000000C0E0CF
:10036000F0F8FCFCFEFE04000000000000000000AD
:100370008080808080808080808080800002071F55
:10038000FFFEFEFCFCF8F0E0800000000000000032
:1003900000000000000000000000000000001E7FC0
:1003A000FFFFFFFFFFFFFFFFFEFCFC06060303034A
:1003B0000301010101010101010101010103030325
:1003C00007070F1F3F7FFFFF3F07000000000000EF
:1003D0000000000000808080808080C0C0C0C0E03D
:1003E000F0FD8F0307070707070301000080C0E047
:1003F000E0F0F0F0F0F0F06000C0E0E0F0F0F0F0DD
:10040000F0E0D83C9CDCDC98333F7FFFDFDF6F6F90
:10041000371B0E0402070D1B3337676F6FCFCFCF2B
:10042000CFDFDF1F1E0000000000000000010D07ED
:1004300003010101183C7E7E7E3C18030F1F7FFFE5
:100440009F9F0F0F0FCD330301000000FFFF00003F
:10045000000000000000000000000000000000009C
:10046000000000030F1C3060C0800000000000008E
:1004700000000000000000000000000000383020F4
:100480000020202111D1D0E8C7E2B01C0F030000EA
:10049000000000000000000000000000000000005C
:1004A0000000000000000000000001030306060C2D
:1004B0000C18181818303030303030301818181820
:1004C000180C0C0C060603010307030000000000D3
:1004D0000000000000000010100000000000F0E02C
:1004E000F0E0F0E0F0E0F0E0F0E0F0E0F0E0F0E08C
:1004F000F0E0F000F0000000000000000000FF7FCE
:10050000FF7FFF7FFF7FFF7FFF79FF7FFF7FFF7907
:10051000FF7FFF00FF000000000000000000C0801F
:10052000F8F0F8F0F8F0F8E0F8E0F0E0F0E0F0C013
:10053000F0C0E0C0E000E000000000003E1C3F1FF3
:100540003F1F7F3F7F3F7F3F7F3CFF7FFF7FFF7CE1
:10055000FF0FFF011F0003000000000000008000EB
:10056000C080F0E0F8F0FCF8FCF0FCE0F8C0F0C06F
:10057000E080E000C00080000000000007020F07DC
:100580001F0F1F0F3F1F7F3FFF7CFF3FFF1F7F0499
:100590003F030F0107000300000000008000C0803F
:1005A000E0C0F0E0F8F0FCF8FCF8FCF0FCE0F8C08B
:1005B000F080E000C00080000000000007030F078B
:1005C0001F0F3F1F7F3FFF7FFF7CFF3FFF1F7F0C01
:1005D0003F071F030F000700000000008000C080DD
:1005E000E0C0E0C0F0E0F8F0FCF8FCF0FCE0F880DF
:1005F000F000C000800000000000000003010703BD
:100600000F073F1F7F3FFF7FFF3CFF1F7F0F3F0C08
:100610001F071F020F00070000000000E0C0E0C03D
:10062000E0C0F0E0F0E0F0E0F0E0F8F0F8F0F8F032
:10063000F880F800C00000000000000003011F0F58
:10064000FF7FFF7FFF7FFF3FFF3C7F3F7F3F7F1CA0
:100650007F1F3F1C3F003E000010180000000000FC
:10066000000000000000F0E0FFFEFFFEFFE0FF00E2
:10067000F00000000000000000000000000000008A
:100680008000F0E0FFCCFF7BFF7BFFCDFFFFFFFE94
:10069000FFE0FF00F0008000000000000000783064
:1006A0007F3F7F3F7F387F3C7F3C7F387F3F7F3F6E
:1006B0007F3F7F3F7F307F00780000000000000018
:1006C000000000000000E0C0FEFCFEFCFEC0FE00DA
:1006D000E00000000000000000000000000000003A
:1006E0000000E0C0FEFCFF37FFEFFFEFFF37FFFC2D
:1006F000FFC0FE00E0000000000000000000F0600D
:10070000FF7EFF7FFF7FFF73FF79FF79FF73FF7F1E
:10071000FF7FFF7EFF60FF00F00000080800FF7E03
:10072000FF42FF42E742FF7EFF7EFF00FF00E742FD
:10073000E742FF7EFF7EFF40FF40E000E000FF7ADF
:10074000FF5AFF5AFF5AFF5EFF5EFF00FF00FF5A8D
:10075000FF5AFF5AFF5AFF7EFF7EFF00FF003F1E39
:100760003F183F183C18FF7EFF7EFF00FF00FF5E32
:10077000FF5AFF5AFF5AFF7AFF7AFF00FF00FF7E01
:10078000FF5AFF5AFF5AFF7AFF7AFF00FF00070265
:10079000070207020702FF7EFF7EFF00FF00FF7EC9
:1007A000FF5AFF5AFF5AFF7EFF7EFF00FF003F1EE9
:1007B0003F1A3F1A3F1AFF7EFF7EFF00FF00000036
:1007C00000003E5B4F5B3E3E6B4F6B3E1C3E7C3EF3
:1007D0001C183C7E3C181C577D571C1C5E7F5E1C01
:1007E00000183C1800FFE7C3E7FF0018241800FFBB
:1007F000E7DBE7FF30483A060E2629792926407FB5
:10080000050507407F05253F5A3CE73C5A7F3E1CC3
:100810001C08081C1C3E7F14227F22145F5F005FAF
:100820005F06097F017F006689956A60606060608D
:1008300094A2FFA29408047E040810207E201008D1
:10084000082A1C08081C2A08081E101010100C1E6C
:100850000C1E0C30383E3830060E3E0E06000000EE
:10086000000000005F00000007000700147F147FF5
:1008700014242A7F2A122313086462364956205012
:100880000008070300001C2241000041221C002A2E
:100890001C7F1C2A08083E080800807030000808E9
:1008A000080808000060600020100804023E51495A
:1008B000453E00427F400072494949462141494D29
:1008C000331814127F1027454545393C4A494931B0
:1008D00041211109073649494936464949291E002F
:1008E00000140000004034000000081422411414D9
:1008F000141414004122140802015909063E415DF6
:10090000594E7C1211127C7F494949363E41414182
:10091000227F4141413E7F494949417F09090901FF
:100920003E414151737F0808087F00417F4100200C
:1009300040413F017F081422417F404040407F02F8
:100940001C027F7F0408107F3E4141413E7F090920
:1009500009063E4151215E7F091929462649494928
:100960003203017F01033F4040403F1F2040201FD2
:100970003F4038403F631408146303047804036164
:1009800059494D43007F4141410204081020004174
:1009900041417F04020102044040404040000307FF
:1009A000080020545478407F284444383844444454
:1009B00028384444287F385454541800087E0902CB
:1009C00018A4A49C787F0804047800447D4000208B
:1009D00040403D007F1028440000417F40007C04DF
:1009E0007804787C080404783844444438FC18249B
:1009F000241818242418FC7C08040408485454546F
:100A00002404043F44243C4040207C1C2040201C03
:100A10003C4030403C44281028444C9090907C440A
:100A200064544C4400083641000000770000004147
:100A300036080002010204023C2623263C1EA1A126
:100A400061123A4040207A3854545559215555790D
:100A500041215454784121555478402054557940CF
:100A60000C1E52721239555555593954545459392E
:100A7000555454580000457C410002457D42000118
:100A8000457C40F0292429F0F0282528F07C545595
:100A900045002054547C547C0A097F493249494915
:100AA000323248484832324A4848303A4141217A45
:100AB0003A42402078009DA0A07D39444444393D0D
:100AC0004040403D3C24FF2424487E4943662B2F70
:100AD000FC2F2BFF0929F620C0887E0903205454DF
:100AE00079410000447D413048484A323840402234
:100AF0007A007A0A0A727D0D19317D2629292F285C
:100B0000262929292630484D402038080808080899
:100B1000080808382F10C8ACBA2F102834FA000083
:100B20007B000008142A142222142A14089500229B
:100B30000095AA005500AAAA55AA55AA000000FFD0
:100B400000101010FF00141414FF001010FF00FF1D
:100B50001010F010F0141414FC001414F700FF002F
:100B600000FF00FF1414F404FC141417101F1010DD
:100B70001F101F1414141F00101010F000000000AC
:100B80001F101010101F10101010F010000000FFA8
:100B9000101010101010101010FF10000000FF14A3
:100BA0000000FF00FF00001F10170000FC04F414F9
:100BB000141710171414F404F40000FF00F71414B1
:100BC0001414141414F700F7141414171410101F2D
:100BD000101F141414F4141010F010F000001F1063
:100BE0001F0000001F14000000FC140000F010F0B3
:100BF0001010FF10FF141414FF141010101F000029
:100C00000000F010FFFFFFFFFFF0F0F0F0F0FFFF3B
:100C1000FF0000000000FFFF0F0F0F0F0F384444CC
:100C200038447C2A2A3E147E02020606027E027E98
:100C30000263554941633844443C04407E201E20F1
:100C400006027E020299A5E7A5991C2A492A1C4C96
:100C50007201724C304A4D4D303048784830BC6299
:100C60005A463D3E494949007E0101017E2A2A2A11
:100C70002A2A44445F444440514A444040444A5133
:100C8000400000FF0103E080FF000008086B6B08D4
:100C90003612362436060F090F0600001818000019
:100CA000001010003040FF0101001F01011E00195B
:100CB0001D1712003C3C3C3C0000000000010204F7
:100CC0000810204080080B00020202010009040005
:100CD00000010202000005240010010524010101A9
:100CE00004240206052406000107058103100040C4
:100CF00009040100020A000000070502024000008A
:100D0000070583024000000403090412010002EFFA
:100D10000201404123368000010102030141726457
:100D200075696E6F204C4C430041726475696E6F3B
:100D3000204C656F6E6172646F00C21AB41A112480
:100D40001FBECFEFDAE0DEBFCDBF12E0A0E0B1E022
:100D5000E0E1F3E402C005900D92AE31B107D9F79E
:100D600027E0AEE1B2E001C01D92A336B207E1F781
:100D700016E0CEE9D6E004C02197FE010E9496203D
:100D8000CD39D107C9F70E940D140C947B210C9426
:100D9000000080912A02E0912802F0912902882324
:100DA00049F0CF0102969093290280932802859101
:100DB00094910895CF01029690932902809328027E
:100DC0008081918108958091210208950895089568
:100DD00080E090E00895CB0108957F928F929F92DA
:100DE000AF92BF92CF92DF92EF92FF920F931F9339
:100DF000CF93DF93EC0149015A018B01C12CD12C17
:100E00007601C814D904EA04FB0484F5F801719052
:100E10008F018F8580FF0BC0E881F9810084F18507
:100E2000E02D20E144E060E070E0CE010995EB8523
:100E3000FC858D859E85E817F90738F470828B85CF
:100E40009C8501969C878B870BC0E881F981672D73
:100E500070E0028CF38DE02DCE010995019649F0EA
:100E60002FEFC21AD20AE20AF20ACBCFB401C501AF
:100E700002C0B601C701DF91CF911F910F91FF9082
:100E8000EF90DF90CF90BF90AF909F908F907F902A
:100E90000895CF93DF93EC01E881F9810288F3890B
:100EA000E02D09958F3F2FEF920731F02D813E8184
:100EB0002F5F3F4F3E832D83DF91CF9108958FEFBA
:100EC0009FEF089560E070E0CB01089580E090E02E
:100ED0000895CB010895CF93DF93EC018889998918
:100EE000DC01ED91FC910084F185E02D0995892BC1
:100EF000A9F388899989DC01ED91FC910284F3853D
:100F0000E02DDF91CF910994CF93DF93EC01888995
:100F10009989DC01ED91FC910084F185E02D099522
:100F2000892BA9F388899989DC01ED91FC910484CE
:100F3000F585E02DDF91CF910994AF92BF92CF92CA
:100F4000DF92EF92FF920F931F93CF93DF9300D026
:100F500000D0CDB7DEB78C015B01C12CD12C76015E
:100F6000F80180899189DC01ED91FC910284F3857F
:100F7000E02D29833A834B835C83099529813A814B
:100F80004B815C818F3F71F0C216D306E406F506F3
:100F90004CF4D5018D935D01BFEFCB1ADB0AEB0A50
:100FA000FB0ADECFC701B6010F900F900F900F9094
:100FB000DF91CF911F910F91FF90EF90DF90CF9035
:100FC000BF90AF900895DC0150968D919C91519700
:100FD000DC01ED91FC910084F185E02D099480E025
:100FE00090E0089580E090E0089580E090E008951A
:100FF00080E090E008950895CF93DF93C091A30619
:10100000D091A406E881F9810084F185E02DCE011C
:101010000995892BB9F3E881F9810284F385E02DE4
:10102000CE01DF91CF9109941F93CF93DF93182FB7
:10103000C091A306D091A4068A3041F4E881F981D9
:101040000190F081E02D6DE0CE010995E881F981F4
:101050000190F081E02D612FCE01099521E030E073
:10106000019711F420E030E0C901DF91CF911F9189
:1010700008950F931F93CF93DF938C01EB016F3F84
:101080008FEF780719F480E090E00FC06A3031F4F8
:101090006DE0F801808991890E94E6126C2FF801B9
:1010A000808991890E94E612CE01DF91CF911F9134
:1010B0000F9108958F929F92BF92CF92DF92EF92FD
:1010C000FF920F931F93CF93DF9300D000D0CDB743
:1010D000DEB78C014B01C12CD12C7601C216D30690
:1010E000E406F50644F5F401B1904F01FAE0BF12B1
:1010F0000EC06DE0F8018089918929833A834B8382
:101100005C830E94E6125C814B813A8129816B2DC0
:10111000F8018089918929833A834B835C830E94FB
:10112000E612FFEFCF1ADF0AEF0AFF0A5C814B815C
:101130003A812981D3CFCA01B9010F900F900F9046
:101140000F90DF91CF911F910F91FF90EF90DF9063
:10115000CF90BF909F908F9008950C94571DFB01E6
:1011600020813181FC0131832083FB014281538145
:10117000F901369720813181FC01E20FF31F518381
:101180004083089529E731E0FC013183208323E87F
:1011900031E0318F208F69E871E00C94AF08DC01F9
:1011A000ED91FC91369720813181820F931F0C9431
:1011B000C208CF93DF93EC010E94C208CE01DF91F9
:1011C000CF910C94571DDC01ED91FC913697208155
:1011D0003181820F931F0C94D908089508950C94BF
:1011E000571DDC01ED91FC91369720813181820FF2
:1011F000931F0C94EF080C94571DFB012081318143
:10120000FC0131832083FB0142815381F901369730
:1012100020813181FC01E20FF31F51834083089547
:1012200021EF31E0FC01318320832BEF31E0358B5E
:10123000248B61E072E00C94FD08DC01ED91FC91DF
:10124000369720813181820F931F0C941009CF9320
:10125000DF93EC010E941009CE01DF91CF910C9435
:10126000571DDC01ED91FC91369720813181820F71
:10127000931F0C942709089508950C94571DDC01C1
:10128000ED91FC91369720813181820F931F0C9450
:101290003D090C94571D3FB7F89480913502909109
:1012A0003602A0913702B091380226B5A89B05C03E
:1012B0002F3F19F00196A11DB11D3FBFBA2FA92FD5
:1012C000982F8827820F911DA11DB11DBC01CD0152
:1012D00042E0660F771F881F991F4A95D1F708953E
:1012E0001F920F920FB60F9211242F933F938F935B
:1012F0009F93AF93BF938091220290912302A0917C
:101300002402B09125023091340223E0230F2D37BF
:1013100020F40196A11DB11D05C026E8230F0296F9
:10132000A11DB11D209334028093220290932302C9
:10133000A0932402B0932502809135029091360249
:10134000A0913702B09138020196A11DB11D809382
:10135000350290933602A0933702B0933802BF91C2
:10136000AF919F918F913F912F910F900FBE0F9052
:101370001F901895CF92DF92EF92FF920F931F93D9
:10138000CF93DF930E94C906811520E8920761F48C
:10139000809171008D7F809371001092910046982A
:1013A000479810922D028BC021E020932D028130AE
:1013B00020E8920751F480912602909127029093A1
:1013C0002902809328020E94C90697FD05C020913A
:1013D0002C02222309F43FC020912B0221113BC093
:1013E00021E020932E02EC01DF77209769F481E061
:1013F00080932F0246983FE9C32E3FE0D32EE12C85
:10140000F12CCAEFD0E014C08E0120E030E060E49F
:1014100072E48FE090E0A90198010E94401F6901E9
:101420007A0181E0C81AD108E108F10810922F0270
:10143000E0914E06F0914F060995811103C081E0BD
:1014400080932F0280912E028823B9F180912F0280
:10145000811133C003C010922E02C5CF46992DC012
:10146000479A0E94C906009771F09C01DE010E9414
:10147000CB1FDC01CB0129E0B595A7959795879502
:101480002A95D1F703C08FEF9FEFDC0110929000F7
:101490002AE020939100D0929900C0929800809306
:1014A000300290933102A0933202B09333028091C4
:1014B000710082608093710002C04798D2CFDF91A3
:1014C000CF911F910F91FF90EF90DF90CF900895F3
:1014D0001F920F920FB60F9211242F933F934F93A9
:1014E0005F936F937F938F939F93AF93BF93EF938C
:1014F000FF938091300290913102A0913202B0911D
:101500003302892B8A2B8B2B81F180912F02811141
:101510000BC098B180E4892788B980912E02882376
:1015200019F088B1805888B98091300290913102C9
:10153000A0913202B0913302181619061A061B0642
:10154000B4F48091300290913102A0913202B091B6
:1015500033020197A109B1098093300290933102BF
:10156000A0933202B093330202C00E94BA09FF91E5
:10157000EF91BF91AF919F918F917F916F915F910B
:101580004F913F912F910F900FBE0F901F90189584
:101590004F925F926F927F928F929F92AF92BF9283
:1015A000CF92DF92EF92FF920F931F93CF93DF932F
:1015B00000D000D0CDB7DEB749012C2DA02EB12C24
:1015C000DC01AA0DBB1D1A161B060CF0B3C1803836
:1015D00091050CF0AFC1FB01EE0DF11D1E161F06AB
:1015E0000CF0A8C1603471050CF0A4C1411551057F
:1015F00009F4A0C1FB0177FF04C0EE27FF27E61B1B
:10160000F70B3E2F3770732EFB0177FD379633E0D3
:10161000F595E7953A95E1F73E2F77FF07C07720DC
:1016200029F03FEF3E0F68E06719762E97FF05C05F
:10163000EE27FF27E81BF90B02C0E0E0F0E0A0383E
:10164000B10524F060E8F62EF81A01C0F02EFE1A5B
:10165000632F032E000C770B3F3F1CF4A62FA095A1
:1016600001C0A0E011E0BE2DB77009F410E0E694CF
:10167000E694E694E10E6E0D711D693071051CF063
:1016800068E0E62EE31AEA1A3A0F60E83603800DA6
:10169000911D11248E0F9F1FA09FE00DF11D11249D
:1016A0004E0F5F1F61E070E0072C02C0660F771FCE
:1016B0000A94E2F7233009F4FCC098F4213009F4CD
:1016C000AEC0223009F036C12FEF269F8001279F40
:1016D000100D1124009510951C830B835C80E30E84
:1016E00027C02A3F29F02B3F09F024C1E30E83C015
:1016F000E30E4EC0FA01EC0DFD1DE491E69F4001A2
:10170000E79F900C11249A82898237FD04C02C91A6
:101710002023822A8C92711014C0EFEFCE1ADE0AB9
:101720001196CF1438F33F5F4A0D5B1D80589F4FD1
:101730003E1509F4FFC0DC01A05CBD4FC12CD12CCB
:10174000F0CF373054F7FD01E058FF4F20812521BD
:101750009A8029292083E1CFFA01E00FF11FE4915B
:10176000E69F6001E79FD00C1124DA82C98237FD21
:1017700003C02C91C22ACC92711013C00F5F1F4F6F
:1017800011960F1548F33F5F4A0D5B1D80589F4F20
:101790003E1509F4CFC0DC01A05CBD4F00E010E0B5
:1017A000F0CF37305CF7FD01E058FF4FD0802A8141
:1017B0002D292083E3CFFA01EC0DFD1DE491E69F76
:1017C000D001E79FB00D1124BA83A98337FD05C06E
:1017D000A095F8012081A223A083711015C0FFEF0E
:1017E000CF1ADF0A0F5F1F4FCF1428F33F5F4A0D58
:1017F0005B1D80589F4F3E1509F49CC08C01005C16
:101800001D4FC12CD12CF0CF37304CF7F801E058E8
:10181000FF4F2A812095A0812A232083E0CFD40185
:10182000AE0FBF1FE30E3E1509F484C0FC01E05C5F
:10183000FD4F4F01C12CD12CCF1498F5FD01EC0DBB
:10184000FD1DE491E69F8001E79F100D1124009596
:1018500010951C830B83FA01EC0DFD1DE491E69FAE
:101860002001E79F500C11245A82498237FD05C0A0
:10187000F40120810223402A4082772059F037303A
:101880004CF4F401E058FF4F10812C8121231A8180
:10189000212B2083FFEFCF1ADF0A2FEF821A920A43
:1018A000CBCF3F5F4A0D5B1DAA0DBB1D80589F4FDC
:1018B000BACFCF2CD12CE40FF51FDC01A05CBD4FBB
:1018C000AC0140545D4F00E810E00C191D09AC1844
:1018D000BD08AA0CBB1C6F2C2E2DCF93DF93EA0101
:1018E0008590C590772059F0869E4001C69E600184
:1018F00037302CF49881D0949D21992999933323E2
:101900003AF09C91C0949C2198299D930C94890C49
:101910001196FA9429F7EA9451F0F62C3395112494
:10192000EA0DF11DA00FB11DC00FD11DD9CFDF9160
:10193000CF9111240F900F900F900F90DF91CF91C6
:101940001F910F91FF90EF90DF90CF90BF90AF90DD
:101950009F908F907F906F905F904F900895CF925F
:10196000DF92EF920F931F93CF93DF9341155105B1
:1019700091F1FA0104913196E4904E5F5F4F22237A
:1019800021F130E0220F331FC02FD0E0AE2DA695FD
:10199000A695A695EA2FF0E0A1E0B0E01E2D177005
:1019A00011F4A0E0B0E0AE0FBF1FCA9F6001CB9F53
:1019B000D00CDA9FD00C11242C9DF0012D9DF00D40
:1019C0003C9DF00D11244E0F5F1F23E0C22E20E03E
:1019D00030E00E94C80ADF91CF911F910F91EF90E4
:1019E000DF90CF900895BC0180E090E00C94ED1260
:1019F0008FB12CB193B130E020953095207433270E
:101A0000A90123E0559547952A95E1F7292F30E064
:101A10002095309520713327359527953595279555
:101A2000242B8095807F822B089583B7817F83BF8D
:101A300083B7816083BF889583B78E7F83BF089506
:101A40008EBD00000DB407FEFDCF0895EDEBFCE068
:101A500090E1969FD001A0781124A80F6770E60F3F
:101A6000F11D9491A05CBD4F442319F08C91982BEB
:101A700003C090958C9198239C9308952F923F9248
:101A80004F925F926F927F928F929F92AF92BF928E
:101A9000CF92DF92EF92FF920F931F93CF93DF933A
:101AA000CDB7DEB727970FB6F894DEBF0FBECDBF18
:101AB000FC016A3069F4248D808D918D38E0239F7C
:101AC000800D911D1124918F808F178A168AA6C0D0
:101AD0006D3009F4A3C09F838E83348C238D2983BA
:101AE000328D3A83608C718CE688F78880E8E8163E
:101AF000F104C4F0AE81BF815C962C915C97422FBB
:101B000050E056968D919C915797B6E02B9F800D93
:101B1000911D1124EE81FF81978B868B258D2111DC
:101B200067C07CC0F0E46F16710424F7C70125E09C
:101B3000329E800D911D112418161906DCF6432CD7
:101B4000512CC30138E0339E800D911D11241816CD
:101B5000190684F685E0689F800111240354184F0C
:101B600020E0F8012490253009F4212C430158E0AD
:101B700020FC02C0398101C03A8131110BC0F981CA
:101B80008A81F81307C026945150840C951C51117A
:101B9000EFCF25C067018C2D8E198315A0F7540156
:101BA0008A2D88198315B8F490E8C916D10478F401
:101BB000A0E4AA16B10458F4432FB501C6012C8342
:101BC0003B835D830E94260D5D813B812C81BFEFAD
:101BD000AB1ABB0AE5CFEFEFCE1ADE0ADCCF2F5FE0
:101BE000E40CF51C0F5F1F4F263009F0BACF82CFEF
:101BF0006AEF64039001659F300D112420583F4F18
:101C0000281739075CF4AE81BF81ED91FC911197E3
:101C10000190F081E02D6AE0CD01099581E090E02E
:101C200027960FB6F894DEBF0FBECDBFDF91CF91E0
:101C30001F910F91FF90EF90DF90CF90BF90AF90EA
:101C40009F908F907F906F905F904F903F902F90DC
:101C50000895089508950895FC0160A571A577275A
:101C600080918C0690918D060E948220892B69F4C8
:101C700027A1422F50E086A190E00197481759070D
:101C80001CF42F5F27A3089517A208958F929F92A7
:101C9000AF92BF92CF92DF92EF92FF920F931F937A
:101CA000CF93DF93EC01CE88DF88E88CF98C2C8110
:101CB0003D814E815F81C701B6010E94DB1F4B0150
:101CC0005C016C837D838E839F83098510E0B8015E
:101CD000012E000C880B990B0E940D1E9B01AC017C
:101CE000C501B4010E94DB1F20E030E048E552E46A
:101CF0000E94061E87FF0DC02A8D3B8D4C8D5D8D89
:101D0000C701B6010E94DB1F6E8B7F8B888F998F76
:101D100012C01E8A1F8A188E198E66E370E0601B3F
:101D2000710B072E000C880B990B0E940D1E6C8303
:101D30007D838E839F83DF91CF911F910F91FF90C1
:101D4000EF90DF90CF90BF90AF909F908F900895CD
:101D500040913B0250913C022091390230913A026D
:101D600042175307B4F49091E8009570E1F3909115
:101D7000E80092FD19C08093F10080913B029091A0
:101D80003C0201968F739927892B19F48EEF80936B
:101D9000E80080913B0290913C02019690933C02B6
:101DA00080933B0281E0089580E00895DF92EF92F6
:101DB000FF920F931F93CF93DF93D82E8A017B015D
:101DC000E40EF51EEB01CE15DF0571F0D7FE03C062
:101DD000FE01849101C088810E94A80E2196811184
:101DE000F2CF8FEF9FEF01C0C801DF91CF911F911C
:101DF0000F91FF90EF90DF900895615030F02091A7
:101E0000F100FC0120830196F8CF289884E68093A6
:101E10003E020895CF92DF92EF92FF920F931F93AD
:101E2000CF93DF936C017A018B01C0E0D0E0CE1537
:101E3000DF0589F0D8016D918D01D601ED91FC91FE
:101E40000190F081E02DC6010995892B11F47E01E6
:101E500002C02196ECCFC701DF91CF911F910F9166
:101E6000FF90EF90DF90CF900895CF93DF931F9274
:101E7000CDB7DEB76983DC01ED91FC910280F3817F
:101E8000E02D41E050E0BE016F5F7F4F09950F905C
:101E9000DF91CF91089583E08093E9008091F20073
:101EA000882319F08AE38093E8000895FC01848573
:101EB000958597FD0BC09FB7F89482E08093E90069
:101EC0008091F2009FBF90E0019608959FB7F8942B
:101ED00082E08093E9008091F2009FBF90E0089536
:101EE0000E9466210F931F93CF93DF931F92CDB76C
:101EF000DEB782E0898342E450E065EC7CE080E874
:101F00000E94D60E0E94F913DC0112960D911C91CD
:101F100013970115110569F0D801ED91FC9102802C
:101F2000F381E02DBE016F5F7F4FC801099597FFD8
:101F300007C089810F90DF91CF911F910F91089574
:101F4000F80100851185E5CF0E94E81390E008951F
:101F50000F931F93CF93DF931F92CDB7DEB78C0102
:101F6000FC018485958597FF0EC0CE0101960E94E5
:101F7000BE13019719F4298130E002C02FEF3FEF23
:101F8000F80135872487F801848595850F90DF91C6
:101F9000CF911F910F910895CF93DF931F92CDB7EB
:101FA000DEB7FC018485958597FD05C02FEF3FEFD7
:101FB000358724870BC0CE0101960E94BE1301977E
:101FC00019F4898190E002C08FEF9FEF0F90DF91AD
:101FD000CF9108950F931F93CF93DF93EC018881E6
:101FE0009981009729F02A813B812617370788F4C9
:101FF0008B016F5F7F4F0E949C20009761F0998357
:1020000088831B830A832C813D81232B11F4FC01DF
:10201000108281E001C080E0DF91CF911F910F918C
:102020000895CF93DF93EC0188819981009711F097
:102030000E94571D198218821D821C821B821A82DF
:10204000DF91CF910895EF92FF920F931F93CF935B
:10205000DF93EC017B018A01BA010E94EA0F811132
:1020600004C0CE010E94111007C01D830C83B7016C
:10207000888199810E947421CE01DF91CF911F91B7
:102080000F91FF90EF9008951F920F920FB60F924D
:1020900011248F939F938091E1009091E100937FB1
:1020A0009093E10083FF0FC01092E90091E09093BC
:1020B000EB001092EC0092E39093ED0010923F023F
:1020C00098E09093F00082FF20C093E09093E900A5
:1020D0009091F200992319F09AE39093E80090917F
:1020E0003D02992339F090913D02915090933D0229
:1020F000992389F190913E02992339F090913E0203
:10210000915090933E02992341F184FF10C0809139
:10211000E2008E7E81608093E2008091E1008F7EFC
:102120008093E10080911F028E7E806111C080FF4C
:1021300016C08091E2008E7E80618093E2008091E3
:10214000E1008E7E8093E10080911F028E7E81608F
:1021500080931F0204C05D9ACDCF289AD6CF9F915D
:102160008F910F900FBE0F901F9018951F920F9296
:102170000FB60F921124CF92DF92EF92FF920F933E
:102180001F932F933F934F935F936F937F938F93FF
:102190009F93AF93BF93EF93FF93CF93DF93CDB70D
:1021A000DEB76C97DEBFCDBF1092E9008091E800EA
:1021B00083FFEDC168E0CE0145960E94FD0E82EFDF
:1021C0008093E8008D8987FF05C09091E80090FF1B
:1021D000FCCF03C09EEF9093E800982F907609F013
:1021E000C6C09E892F89188D91110CC0803829F4A2
:1021F000809120028093F10002C01092F1001092B1
:10220000F10048C1422F50E0512B913051F481111F
:1022100041C14130510509F03DC1809120028D7FBF
:102220000BC0933061F4811135C14130510509F083
:1022300031C1809120028260809320022BC19530B1
:1022400041F48091E80080FFFCCF20682093E300F8
:1022500021C1963009F05FC0EB8CFC8C1092E90034
:1022600010923C0210923B02123091F510923A0209
:10227000109239020E94720F99E0BE016F5F7F4F8A
:10228000DB01E92F1D92EA95E9F799831A8391E022
:102290009E8390EA98879AEF998720913B0230912C
:1022A0003C02275F3F4F3C832B838D831092E900D4
:1022B00010923C0210923B02F0923A02E0923902F4
:1022C00049E050E080E00E94D60E0E94720FE2C00A
:1022D000F0923A02E09239020E94F913DC01129660
:1022E000ED90FC901397E114F10409F4C0C0D701FC
:1022F000ED91FC910480F581E02DBE016B5E7F4F76
:10230000C7010995009719F00CF0C4C0C7C0F701C8
:10231000E084F184E8CF973009F4C0C0983021F40C
:1023200081E08093F100B6C0993009F0B3C08370AA
:1023300009F0B4C0EFE1F1E081E021E036E3908103
:10234000992361F08093E9002093EB0091919093A1
:10235000EC003093ED008F5F873089F78EE7809334
:10236000EA001092EA008F8980933F0293C08B8D20
:102370009C8D1092E90010923C0210923B029093C7
:102380003A0280933902898D811156C08E899D89C8
:10239000913A59F4813209F081C047E050E06CE095
:1023A00071E080E00E94D60E75C0913209F076C0CF
:1023B000833289F4888D90E0982F88272F89822B8B
:1023C000A0E0B0E08093080190930901A0930A0176
:1023D000B0930B015FC0803269F48091E80082FF06
:1023E000FCCF67E08CE091E00E94FD0E8BEF8093C4
:1023F000E80006C0823209F04DC08F898093130136
:1024000080911E02882319F0EEEFFAE002C0E0E0AE
:10241000F8E080910C0190910D01A0910E01B09116
:102420000F01803B9440A105B10509F07BC080916C
:10243000130180FF93C076C00E94F913DC0112964D
:102440000D911C9113970115110541F1D801ED91E2
:10245000FC910190F081E02DBE016B5E7F4FC801C1
:102460000995811117C0F80100851185ECCF113055
:1024700009F44EC0133091F48F89882309F445C0C4
:10248000823081F440E860E189E29DE00E94771AA1
:10249000882321F08EEF8093E80079C081E2809359
:1024A000EB0075C0813029F440E86BE08DE19DE0E0
:1024B000EDCF833099F70E94F913DC011296ED906D
:1024C000FC9013978E010F5F1F4F6801E114F10418
:1024D00079F0D701ED91FC910680F781E02DB801EC
:1024E000C7010995080F111DF701E084F184EECFB3
:1024F000D8011C92F60101900020E9F73197BF0145
:102500006C197D0940E0C601C1CF67E07DE002C0E3
:102510006BE07DE06115710509F2FB01449150E02B
:1025200080E840CF0FB6F894A8958091600088614C
:1025300080936000109260000FBEA895EE3F2AE0E5
:10254000F20739F08091FE0A9091FF0A918380830F
:10255000A1CF1092FF0A1092FE0A9CCFEE3F8AE0B4
:10256000F80731F0808191819093FF0A8093FE0AF1
:1025700087E797E7918380839BE088E10FB6F89423
:10258000A895809360000FBE9093600083CF6C96F7
:102590000FB6F894DEBF0FBECDBFDF91CF91FF9194
:1025A000EF91BF91AF919F918F917F916F915F91CB
:1025B0004F913F912F911F910F91FF90EF90DF90DE
:1025C000CF900F900FBE0F901F901895DC01ED91EA
:1025D000FC910190F081E02D09948F929F92AF922F
:1025E000BF92CF92DF92EF92FF926B017C010E942B
:1025F0004B094B015C01C114D104E104F104F1F079
:102600000E944B09DC01CB0188199909AA09BB0971
:10261000883E9340A105B10570F321E0C21AD108AC
:10262000E108F10888EE880E83E0981EA11CB11C19
:10263000C114D104E104F10419F7DDCFFF90EF904C
:10264000DF90CF90BF90AF909F908F9008958F9222
:102650009F92AF92BF92CF92DF92EF92FF920F9331
:102660001F93CF93DF935C016B017A01809113017B
:10267000882309F45BC080913F02882309F456C087
:1026800080911F0280FF05C08091E00082608093EE
:10269000E000E70110E00AEF83E0882E9AE3992E2C
:1026A0002097D9F10E94E81381110AC0015009F462
:1026B0003DC061E070E080E090E00E94ED12F0CF5C
:1026C000282F30E0C217D3070CF48C2F4FB7F894A3
:1026D0008092E9009091E80095FF1DC0282F30E01E
:1026E000C21BD30BF601982F915020F0819180935B
:1026F000F100FACFC20ED31E112319F09092E80018
:1027000009C08091E80085FD06C09092E80011E0C4
:10271000209709F010E04FBFC3CF1111C3CF5D98D0
:1027200084E680933D021E141F0444F081E090E093
:10273000F5019383828380E090E001C0C701DF91BF
:10274000CF911F910F91FF90EF90DF90CF90BF90AE
:10275000AF909F908F900895809140028EBDE1E4EC
:10276000F2E081910DB407FEFDCF8EBD86E0E0342E
:10277000F807B9F70DB407FEFDCF0895FC0180916D
:102780003F02811103C08FEF9FEF08959FB7F89428
:1027900082E08093E9002091F20030E012161306E7
:1027A00014F421E030E02115310559F0289884E631
:1027B00080933E028091F10080838091F200882313
:1027C00019F09FBFC90108958BE68093E800F9CF07
:1027D0002FB7F89483E08093E9009091E800892F67
:1027E000807295FF04C09091F20080E4891B2FBF96
:1027F00008958091A90681110DC082E08093A506FD
:1028000084E08093A6061092A8061092A70681E0A5
:102810008093A90685EA96E00895CF93DF93CDB71C
:10282000DEB76C970FB6F894DEBF0FBECDBF7894BD
:1028300084B5826084BD84B5816084BD85B58260C5
:1028400085BD85B5816085BD80916E008160809376
:102850006E001092810080918100826080938100DF
:1028600080918100816080938100809180008160EF
:10287000809380008091910082608093910080918C
:10288000910081608093910080919000816080939D
:1028900090008091C10084608093C1008091C1004C
:1028A00082608093C1008091C10081608093C100EB
:1028B0008091C30081608093C3008091C0008260DA
:1028C0008093C0008091C20081608093C20080919B
:1028D0007A00846080937A0080917A00826080938D
:1028E0007A0080917A00816080937A0080917A00EA
:1028F000806880937A0010923F021092200210921A
:102900001F028091D70081608093D70080EA809376
:10291000D80089B5806189BD89B5826089BD09B457
:1029200000FEFDCF61E070E080E090E00E94ED12DB
:102930008091D8008F7C80618093D8008091E000E6
:10294000807F8093E0008091E1008E7E8093E100A3
:102950008DE08093E200559A209AEEEFFFE7859193
:1029600094918B3F9C4D19F481E080931E0281EC81
:1029700080937C0085B1806F85B9249884B1866E80
:1029800084B95E9A5F988AB1806D8AB9769A6E989A
:1029900081B3806F81BB899880B38D7080BB80E5E7
:1029A0008CBD81E08DBD85E090E00E94F30C5F9AC4
:1029B00085E090E00E94F30C5E985C980CEA10E0D1
:1029C0005DE0F52EF00EF80184910E94200D0F5F5E
:1029D0001F4FF012F8CF5C9A81E88093640081E089
:1029E0008093650000E014E080E00E94200D01501B
:1029F0001109D1F70E94F80C87FF1FC05C9885EA87
:102A00000E94200D5C9A2E982F982D98809164003A
:102A10008062809364000E94150DFDCF2D980E9466
:102A2000F80C8478843871F00E94F80C8471843139
:102A300029F188EC90E00E94F30C0E94F80C82FDD2
:102A4000EDCF38C02D9A88EC90E00E94F30C2F98BF
:102A500082E090E00E942A1F8F3F29F06FEF82E012
:102A600090E00E94321F84EF91E00E94F30C2F9AB5
:102A70000E94F80C84788438D9F3D6CF2D9A88EC4C
:102A800090E00E94F30C2E9882E090E00E942A1FB2
:102A9000882329F060E082E090E00E94321F84EFFA
:102AA00091E00E94F30C2E9A0E94F80C84718431FC
:102AB000D9F3BFCF2D9A82E090E00E942A1F88238D
:102AC00031F03E9A3F9A81E08093210204C0109237
:102AD00021023E983F9882E390E00E94F30C0E940E
:102AE000F80C8111F8CF809164008E7F8093640090
:102AF00080917A00806480937A0080917A0086FDCC
:102B0000FCCF00917800109179000E944B0920E0E1
:102B100030E0980111270027600F711F821F931F5B
:102B2000611571058105910511F00E942D1C8091A0
:102B30006400816080936400AE014F5F5F4F1A01B3
:102B40002FB7F8948091220290912302A091240241
:102B5000B09125022FBF4091950650919606609145
:102B600097067091980600919906002341F02091F4
:102B70009106821B80939A06109299065DC4841771
:102B80009507A607B70738F4481B423008F454C429
:102B90000E94150D51C411E010939906809391067F
:102BA00090939206A0939306B0939406209190067A
:102BB000820F911DA11DB11D8093950690939606DD
:102BC000A0939706B093980680918C0690918D06FD
:102BD000019690938D0680938C0680918E0680934B
:102BE0008F060E94F80C80938E06802FE0E4F2E0BE
:102BF00081118FEF002481938193819381930394BA
:102C0000D1F710929E0610929D0610929C0610928B
:102C10009B0660910301709104012091050130E051
:102C200062177307C4F46F5F7F4F70930401609362
:102C300003018091020190E0EFE4F3E00491E0E50C
:102C4000F3E0E4901AEFC12E20E030E041E553E0DC
:102C50000E94C80AEFC380918C0690918D0666E9A8
:102C600070E00E948220892B21F08091000188234E
:102C700031F081E080930001E12CF12C6BC03093A6
:102C800004012093030180910101811133C08091DF
:102C900071008D7F8093710010922A0280E496E08B
:102CA0009093290280932802909327028093260212
:102CB00086E194E0909341068093400682E390E0A1
:102CC00090934306809342068DE298E090934506E8
:102CD0008093440684E690E09093470680934606EE
:102CE00080E090E890934906809348060E94BA09D4
:102CF0001093010160910301709104018091020120
:102D000090E0E7ECF1E00491E8ECF1E0E490BAEF58
:102D1000CB2E20E030E049EC51E00E94C80A6091DF
:102D2000070170E08091060120E049EB50E090E05F
:102D30007FC341E0B801C7010E94260D0F5F1F4FFE
:102D400000341105B1F75FEFE51AF50A60E8E61601
:102D5000F10419F003E310E0ECCF0E94281C24E6F4
:102D600030E040E050E00E94401F62307105810574
:102D700091050CF099C0E0905406F090550687013B
:102D80000F5F1F4FE016F10608F087C02091520632
:102D90003091530620173107B0F5C701099628175F
:102DA000390788F5C0905006D0905106909353068D
:102DB000809352062AE2FC012E9FC0012F9F900DA6
:102DC00011240E94C21C8093500690935106A601C4
:102DD0009C0160E070E08AE26E157F0589F02115A4
:102DE000310539F0FA01D901982F01900D929A9589
:102DF000E1F76F5F7F4F465D5F4F265D3F4FECCF42
:102E0000C6010E94571D20915406309155064AE292
:102E1000429FC001439F900D1124E0915006F09114
:102E20005106E80FF91F80E198E142E020173107D1
:102E3000B8F5309771F1C12CD12C50E1E52E53E457
:102E4000F52EC082D182E282F3821482158216822C
:102E5000178280879187168A178A108E118EC12C4F
:102E6000D12CE12C6FE3F62EC28ED38EE48EF58E3C
:102E7000C12CD12C70ECE72E7FE3F72EC68ED78EB7
:102E8000E0A2F1A246A317A2A0E1EA2EF12CF1A63E
:102E9000E0A62F5F3F4FBA96C9CF0E151F0520F44D
:102EA00010935506009354068091830690918406F2
:102EB0001C8A1B8A1E8A1D8A188E1F8A4AE0B1014D
:102EC0000E94361CF10101900020E9F73197AF0113
:102ED00042195309B101CE0143960E9423104F8934
:102EE000588D20918106309182064217530708F0D1
:102EF00042C01A8219821C821B821E821D8241E0FE
:102F000050E06BE172E0C1010E9423108F89988D1F
:102F1000EB88FC880D811E81E114F10409F494C250
:102F20000097A1F0080F191FB801C1010E94EA0F14
:102F3000882309F489C229813A818D819E81B70154
:102F4000820F931F0E9474211E830D8369817A81F1
:102F50006115710539F04D815E81CE0143960E9465
:102F6000231004C0CE0143960E94111089819A81DA
:102F70000E94571DB4CF69EF62038001639F100D5B
:102F8000112403581F4F1A8219821C821B821E8231
:102F90001D826B897C89C1016115710519F00E9440
:102FA000231002C00E941110E12CF12C2D813E81D2
:102FB00089819A81E216F306B0F4009729F0FC01AA
:102FC000EE0DFF1D208101C020E020534BE157E0B2
:102FD00063E070E0C8010E94AF0C095F1F4F2FEF44
:102FE000E21AF20AE3CF0E94571D8B899C890E9446
:102FF000571DE12CF12C3AE2532EA0905406B090CC
:103000005506EA14FB0408F0EEC08090500690903C
:1030100051065E9C60015F9CD00C112484010C0D54
:103020001D1DF801608570E0719561957109072E8D
:10303000000C880B990B0E940D1E9B01AC01F8013E
:1030400060817181828193810E947D2018160CF02D
:1030500098C0C8010E942C0EC8010E94460EF801BB
:1030600080809180A280B38064857585072E000CD6
:10307000880B990B0E940D1EF80124813581468131
:1030800057810E94DB1F0E944720698F7A8F8B8FA8
:103090009C8FF8016684778462857385072E000C07
:1030A000880B990B0E940D1E9B01AC01C501B40158
:1030B0000E94DB1F0E944720F801718B608B498DB5
:1030C0005A8D538B428B648A758A268D378D40A129
:1030D00051A1C501B4010E94DA1FF8016083718318
:1030E0008283938300915006109151060C0D1D1D93
:1030F000F80164817581868197810E9447204B0188
:103100005C01F80160817181828193810E94472076
:10311000DC01CB01F80127A149E556E0B4010E948A
:10312000AF0CE0915006F0915106EC0DFD1D609141
:103130006706709168064091690650916A06A091F1
:103140006C0620893189828993891489B589E09137
:103150006B066B01CE0ED11C2C153D050CF03FC04B
:10316000210F311D62177307D4F59A012A0F311D03
:1031700082179307A4F58B0F911D481759077CF50B
:1031800067C1C601959587954DE35FEC849F9001DB
:10319000859F300D949F300D112440E050E0C50113
:1031A00001972817390788F42F5F3F4FDA01AC0DDC
:1031B000BD1DA80DB91DFD01BA96652D01900D929A
:1031C0006A95E1F7465D5F4FECCF8A159B0520F4C9
:1031D000909355068093540651E0E51AF1086FEF7D
:1031E000E61AF60A0ACF80918F068C78B9F580919D
:1031F0008E068C7899F16091600670E080E090E036
:103200000E940D1E20915B0630915C0640915D0688
:1032100050915E060E94DB1F20E030E048E552E45A
:103220000E94061E81111AC02091790630917A06FB
:1032300040917B0650917C0660916D0670916E0600
:1032400080916F06909170060E94DA1F60936D0660
:1032500070936E0680936F06909370060E94F80C30
:1032600085FF1FC020917506309176064091770644
:1032700050917806609157067091580680915906D2
:1032800090915A060E94DA1F6B017C0120E030E029
:10329000A9010E947D2018160CF045C084E090E042
:1032A0002FC00E94F80C86FF38C02091750630911F
:1032B0007606409177065091780660915706709196
:1032C00058068091590690915A060E94DB1F6B01A7
:1032D0007C0160915F0670E080E090E00E940D1E2E
:1032E0009B01AC01C701B6010E94DB1F20E030E06A
:1032F00040E053E40E94061E87FF15C082E090E084
:103300009093800680937F06C0925706D09258060D
:10331000E0925906F0925A0606C083E090E090933E
:10332000800680937F0687E596E00E942C0E87E555
:1033300096E00E94460EC0905706D0905806E09046
:103340005906F0905A0680905B0690905C06A0901B
:103350005D06B0905E066091630670916406072E6C
:10336000000C880B990B0E940D1E9B01AC01C5013E
:10337000B4010E94DB1F0E9447202B013C010091F9
:103380006506109166066091610670916206072ECF
:10339000000C880B990B0E940D1E9B01AC01C7010C
:1033A000B6010E94DB1F0E9447207093680660935D
:1033B000670650926A064092690600936B06109366
:1033C0006C0680918C0690918D066CE370E00E94F3
:1033D0008220892BE1F420E030E040E05CE3C7018B
:1033E000B6010E946C1E20E030E040E850E40E94EC
:1033F0006C1E0E9447206F5F7F4F809183069091E3
:103400008406680F791F7093840660938306C50154
:10341000B4010E9447204B015C01C701B6010E9424
:103420004720DC01CB0120917E0647ED54E0B4013A
:103430000E94AF0C0E94AC1380E090E0892B09F44D
:103440007FCB0E9400007CCBC1010E9411107ECD79
:10345000809183069091840688519C4F90938406B6
:1034600080938306BCCE0F931F93CF93DF938C0181
:1034700081E090E00E942A1F80FF31C08AE090E046
:103480000E942A1F9FEF980F9E3F48F522E330E0ED
:10349000D80157963C932E93569728E330E05996DF
:1034A0003C932E935897CBE0D0E0D801ED91FC915E
:1034B0000190F081E02D682FC8010995CE010E948E
:1034C0002A1F2196C131D10581F70E94AC1388EEE5
:1034D00093E0DF91CF911F910F910C94F30CDF914A
:1034E000CF911F910F91089504970C94331ACF92A6
:1034F000DF92EF92FF920F931F93CF93DF931F9270
:10350000CDB7DEB7182F062FE42E862F880F8E5FDB
:1035100099830E94A80E83E00E94A80EF12EC12E6E
:103520009981D92E8C2D8F19801798F4F601E7FE1A
:1035300002C0849101C080810E94A80E182F80E0F3
:103540000E94A80E8123FFEFCF1ADF0A8111EACF74
:1035500001C081E00F90DF91CF911F910F91FF90FB
:10356000EF90DF90CF900895809150069091510692
:103570000E94571D81EB96E00E94C2088FE297E0FF
:103580000C941009EF92FF920F931F93CF93DF9348
:10359000AFEDB6E013961C921E92129748EE53E0E0
:1035A00060E070E014964D935D936D937C93179754
:1035B00081E591E011969C938E930FEF1FEF1D967E
:1035C0001C930E931C97EFE2F7E081E2E82EF12CBA
:1035D000F08EE78A118E128E138E46E050E060E086
:1035E00070E0448F558F668F778F10A211A212A2C0
:1035F00013A220E224A316A215A211A681E397E04C
:1036000090A787A381EF91E0918380838BEF91E076
:10361000958B848B168215821086178212861186EE
:103620001486138616861586108A17868FEC91E00D
:1036300093838283B38BA28BC0E1C18BE1EBF6E075
:10364000F48EE38E158E168E178E40A351A362A3BF
:1036500073A314A215A216A217A220A712A611A640
:1036600015A6128213821482158227EB36E034A746
:1036700023A729E731E03183208323E831E0318F2C
:10368000208F128611861486138616861586108A58
:103690001786128A118A148A138A97838683B78BB6
:1036A000A68B88E0858BB093A406A093A3066CEF4D
:1036B00077E084E198E00E945B1CE5E8F6E0138285
:1036C000128211861286C38710870783108A118A97
:1036D000128A138A148A8BE092E09183808389E1B5
:1036E00092E095838483178A168A118E108E81E06A
:1036F000828F138E848F158E83EE96E090934F0603
:1037000080934E0680E090E890934D0680934C069F
:1037100046983E9A47983F9AE7E5F6E087E090E0C2
:1037200093A782A715A614A680E090E0A0E2B1E4DA
:1037300080839183A283B3831482158216821782B9
:10374000C087C187168A178A108E118E83E393E390
:10375000A3EBBEE3828F938FA48FB58F80E090E0C0
:10376000A0ECBFE3868F978FA0A3B1A380E090E089
:10377000A0EAB0E482A393A3A4A3B5A386E086A3A2
:1037800017A283E090E091A780A7C0E5D6E088E08B
:1037900090E09B838A831D821C8280E591E00E94D9
:1037A000C21C99838883DF91CF911F910F91FF9065
:1037B000EF9008958F929F92AF92BF92CF92DF9237
:1037C000EF92FF92CF93DF93EC01688179818A8138
:1037D0009B81611571058105910521F464E279ED04
:1037E0008BE597E02DE133EF41E050E00E94401F70
:1037F00049015A019B01AC01A7EAB1E40E945F1F95
:103800006B017C01ACEEB4EFA50194010E946D1F29
:10381000DC01CB018C0D9D1DAE1DBF1DB7FF03C08C
:103820000197A109B04888839983AA83BB83BC010F
:10383000CD019F77DF91CF91FF90EF90DF90CF90F8
:10384000BF90AF909F908F9008950E94DA1B0895CB
:1038500084E191E00E94DA1B089560931401709353
:10386000150180931601909317010895BB274A30E4
:1038700031F4992322F4BDE2909581959F4F0C94E9
:10388000421CBB27FB015527AA27880F991FAA1F97
:10389000A41710F0A41B83955051B9F7A05DAA336B
:1038A00008F0A95DA193009779F7B111B193119236
:1038B000CB010C94F61D0F931F93CF93DF930097CA
:1038C00031F46115710519F480E090E03AC08B0184
:1038D000EC016EE070E081E090E00E94A61CFC012B
:1038E000892B91F380E883830115110571F013870B
:1038F000028781E883838091590790915A07892B29
:1039000021F4F0935A07E09359072097C9F0D18723
:10391000C08783818260838380915B0790915C077D
:10392000892B71F4F0935C07E0935B0780915D074E
:1039300090915E07892B21F4F0935E07E0935D0779
:10394000CF01DF91CF911F910F9108950F931F9396
:10395000CF93DF93869F8001879F100D969F100D58
:103960001124C8010E94C21CEC01009729F0A80193
:1039700060E070E00E94EF1DCE01DF91CF911F91BA
:103980000F910895CF93DF938230910510F482E078
:1039900090E0E0916107F091620720E030E0C0E044
:1039A000D0E0309711F14081518148175907C0F09C
:1039B0004817590761F482819381209719F09B83FE
:1039C0008A832BC0909362078093610726C02115DC
:1039D000310519F04217530718F49A01BE01DF01AF
:1039E000EF010280F381E02DDCCF2115310509F1D3
:1039F000281B390B2430310590F412968D919C913F
:103A000013976115710521F0FB019383828304C034
:103A10009093620780936107FD01329644C0FD01D7
:103A2000E20FF31F81939193225031092D933C9320
:103A30003AC020915F0730916007232B41F4209119
:103A40001A0130911B013093600720935F0720918A
:103A50001801309119012115310541F42DB73EB7F8
:103A600040911C0150911D01241B350BE0915F0713
:103A7000F0916007E217F307A0F42E1B3F0B281705
:103A8000390778F0AC014E5F5F4F2417350748F0D7
:103A90004E0F5F1F5093600740935F078193919390
:103AA00002C0E0E0F0E0CF01DF91CF9108950F93E5
:103AB0001F93CF93DF93009709F48CC0FC013297DA
:103AC000138212820091610710916207011511059E
:103AD00081F420813181820F931F20915F07309103
:103AE00060072817390779F5F0936007E0935F07BF
:103AF00071C0D80140E050E0AE17BF0750F41296F5
:103B00002D913C911397AD012115310509F1D90192
:103B1000F3CF9D01DA013383228360817181860FA7
:103B2000971F8217930769F4EC0128813981260FCA
:103B3000371F2E5F3F4F318320838A819B81938380
:103B40008283452B29F4F0936207E093610742C01A
:103B50001396FC93EE931297ED01499159919E01B2
:103B6000240F351FE217F30771F480819181840FD0
:103B7000951F029611969C938E9382819381139642
:103B80009C938E931297E0E0F0E0D80112968D910D
:103B90009C911397009719F0F8018C01F6CF8D9145
:103BA0009C9198012E5F3F4F820F931F20915F07DA
:103BB000309160072817390769F4309729F410927B
:103BC00062071092610702C013821282109360078D
:103BD00000935F07DF91CF911F910F910895DC0152
:103BE00001C06D9341505040E0F70895DC01FC01A5
:103BF000672F71917723E1F7329704C07C916D9321
:103C000070836291AE17BF07C8F308950E94481EE3
:103C100008F481E00895E89409C097FB3EF490957C
:103C20008095709561957F4F8F4F9F4F9923A9F095
:103C3000F92F96E9BB279395F69587957795679524
:103C4000B795F111F8CFFAF4BB0F11F460FF1BC068
:103C50006F5F7F4F8F4F9F4F16C0882311F096E9FB
:103C600011C0772321F09EE8872F762F05C06623A9
:103C700071F096E8862F70E060E02AF09A95660F62
:103C8000771F881FDAF7880F9695879597F908951B
:103C9000990F0008550FAA0BE0E8FEEF161617065D
:103CA000E807F907C0F012161306E407F50798F0C5
:103CB000621B730B840B950B39F40A2661F0232BDE
:103CC000242B252B21F408950A2609F4A140A6955A
:103CD0008FEF811D811D08950E947F1E0C94F01EA0
:103CE0000E94E21E38F00E94E91E20F0952311F098
:103CF0000C94D91E0C94DF1E11240C94241F0E94D6
:103D0000011F70F3959FC1F3950F50E0551F629FFF
:103D1000F001729FBB27F00DB11D639FAA27F00D24
:103D2000B11DAA1F649F6627B00DA11D661F829F4B
:103D30002227B00DA11D621F739FB00DA11D621F30
:103D4000839FA00D611D221F749F3327A00D611D4D
:103D5000231F849F600D211D822F762F6A2F11242F
:103D60009F5750409AF0F1F088234AF0EE0FFF1F62
:103D7000BB1F661F771F881F91505040A9F79E3FB9
:103D8000510580F00C94D91E0C94241F5F3FE4F37E
:103D9000983ED4F3869577956795B795F795E7950F
:103DA0009F5FC1F7FE2B880F911D9695879597F918
:103DB000089597F99F6780E870E060E008959FEFAD
:103DC00080EC089500240A941616170618060906B2
:103DD000089500240A941216130614060506089581
:103DE000092E0394000C11F4882352F0BB0F40F409
:103DF000BF2B11F460FF04C06F5F7F4F8F4F9F4F49
:103E0000089557FD9058440F551F59F05F3F71F0CA
:103E10004795880F97FB991F61F09F3F79F0879531
:103E20000895121613061406551FF2CF4695F1DFBA
:103E300008C0161617061806991FF1CF869571054A
:103E4000610508940895E894BB2766277727CB017E
:103E500097F90895F999FECF92BD81BDF89A9927F7
:103E600080B50895262FF999FECF1FBA92BD81BD66
:103E700020BD0FB6F894FA9AF99A0FBE01960895EC
:103E8000052E97FB1EF400940E94571F57FD07D084
:103E90000E94A91F07FC03D04EF40C94571F5095A5
:103EA0004095309521953F4F4F4F5F4F0895909526
:103EB0008095709561957F4F8F4F9F4F08950E9419
:103EC000CB1FA59F900DB49F900DA49F800D911DB9
:103ED00011240895B7FF0C945F1F0E945F1F821B7F
:103EE000930B08952F923F924F925F926F927F9221
:103EF0008F929F92AF92BF92CF92DF92EF92FF92FA
:103F00000F931F93CF93DF93CDB7DEB7CA1BDB0BA5
:103F10000FB6F894DEBF0FBECDBF09942A8839884A
:103F200048885F846E847D848C849B84AA84B98451
:103F3000C884DF80EE80FD800C811B81AA81B9815D
:103F4000CE0FD11D0FB6F894DEBF0FBECDBFED0171
:103F50000895A1E21A2EAA1BBB1BFD010DC0AA1FCA
:103F6000BB1FEE1FFF1FA217B307E407F50720F0E2
:103F7000A21BB30BE40BF50B661F771F881F991F5D
:103F80001A9469F760957095809590959B01AC01A6
:103F9000BD01CF010895A29FB001B39FC001A39FAF
:103FA000700D811D1124911DB29F700D811D112472
:103FB000911D08955058BB27AA270E94F21F0C9408
:103FC000F01E0E94E21E38F00E94E91E20F039F433
:103FD0009F3F19F426F40C94DF1E0EF4E095E7FBE6
:103FE0000C94D91EE92F0E94011F58F3BA176207DB
:103FF00073078407950720F079F4A6F50C94231F26
:104000000EF4E0950B2EBA2FA02D0B01B9019001F3
:104010000C01CA01A0011124FF27591B99F0593F37
:1040200050F4503E68F11A16F040A22F232F342F7F
:104030004427585FF3CF469537952795A795F040CD
:104040005395C9F77EF41F16BA0B620B730B840BE2
:10405000BAF09150A1F0FF0FBB1F661F771F881F9A
:10406000C2F70EC0BA0F621F731F841F48F48795F2
:1040700077956795B795F7959E3F08F0B0CF9395E4
:10408000880F08F09927EE0F9795879508950E945D
:104090004E206894B1110C94241F08950E94091FAA
:1040A00088F09F5798F0B92F9927B751B0F0E1F0F9
:1040B000660F771F881F991F1AF0BA95C9F714C0A9
:1040C000B13091F00E94231FB1E008950C94231F9A
:1040D000672F782F8827B85F39F0B93FCCF38695E2
:1040E00077956795B395D9F73EF49095809570953F
:1040F00061957F4F8F4F9F4F08950E94481E08F48F
:104100008FEF0895AA1BBB1B51E107C0AA1FBB1F5D
:10411000A617B70710F0A61BB70B881F991F5A9553
:10412000A9F780959095BC01CD010895EE0FFF1F72
:104130000590F491E02D0994A0E0B0E0E2EAF0E20D
:104140000C94761FEC01009721F4CB010E94C21C55
:10415000B8C0FC01E60FF71F9C0122503109E2179D
:10416000F30708F4ACC0D9010D911C911197061703
:104170001707B0F00530110508F49FC0C801049777
:104180008617970708F499C002501109061B170BF0
:10419000019311936D937C93CF010E94571D8DC0A5
:1041A0005B01A01AB10A4C01800E911EA09161071B
:1041B000B091620740E050E0E12CF12C109709F437
:1041C0004AC0A815B905D1F56D907C90119763018F
:1041D00082E0C80ED11CCA14DB0480F1A3014A1985
:1041E0005B096A0182E0C80ED11C1296BC9012973E
:1041F0001396AC91B5E0CB16D10440F0B282A38304
:1042000051834083D9016D937C930AC00E5F1F4F89
:10421000C301800F911FF90191838083EB2DFA2F49
:10422000E114F10431F0D7011396FC93EE93129749
:1042300044C0F0936207E09361073FC08D919C9169
:1042400011974817590708F4AC017D0112960D909B
:10425000BC91A02DB3CF80915F0790916007881526
:104260009905E1F446175707C8F480911801909119
:104270001901009741F48DB79EB740911C015091F0
:104280001D01841B950BE817F907C8F4F09360072C
:10429000E0935F07F901718360830FC0CB010E9437
:1042A000C21C7C01009759F0A801BE010E946B213D
:1042B000CE010E94571DC70104C0CE0102C080E09C
:1042C00090E0CDB7DEB7EEE00C94921F81E090E075
:1042D000F8940C947B21FB01DC0102C001900D924B
:1042E00041505040D8F70895FB01DC0101900D9238
:1042F0000020E1F7089516E0CEE9D6E004C0FE0103
:104300000E9496202196CF39D107C9F7F894FFCFA4
:1043100000001DD2FF051E2EFFFFFFFF00E1000081
:10432000000000000100000000006307800000C1E1
:10433000808100000018000000000000000000E87C
:10434000FFE8FF0000000000001400000000000073
:10435000000000ECFFECFF00000000000000000087
:1043600000350F2713A40F4B0F560FCC0FA80F06C5
:104370000000000000ED08EF08FAFFFAFF0000EE71
:1043800008F108180000000000C208D908E8FFE89A
:10439000FF0000CF08E30879012B013501830100FC
:1043A000000000290EAD08FB07F807F507F207EF3C
:1043B00007660762075F0749076907ED06EB060214
:1043C00000000000003B093D09FEFFFEFF00003C2D
:1043D000093F09000000002B0E4909000000002AD7
:1043E0000EFB08FB07F807F507F207EF07E3079D49
:1043F0000784076B0769075A083908140000000092
:104400000010092709ECFFECFF00001D093109F13C
:10441000013F014901FB01000000003E0D0A0FE8C9
:0E44200006E706331AFCFF0000741A30000095
:2070000055C000006EC000006CC000006AC0000068C0000066C0000064C0000062C0000043
:2070200060C000005EC00000F2C400005AC0000058C0000056C0000054C0000052C00000EE
:2070400050C0000078C000004CC000004AC0000048C0000046C0000044C0000042C00000BE
:2070600040C000003EC000003CC000003AC0000038C0000036C0000034C0000032C0000048
:2070800030C000002EC000002CC000002AC0000028C0000026C0000024C0000022C00000A8
:2070A00020C000001EC000001CC0000011241FBECFEFDAE0DEBFCDBF11E0A0E0B1E0E2E3BC
:2070C000FFE702C005900D92A83AB107D9F711E0A8EAB1E001C01D92AE3BB107E1F78FD30B
:2070E00026C78ECFF89410926F0010928100109285001092840081E085BF15BE47985D9AEB
:20710000289A0C94000008952091B2013091B3012F5F3F4F3093B3012093B201932F37FFA6
:2071200003C08EEF831B982F990F921710F447980895479A08951F920F920FB60F9211246E
:207140002F938F939F93EF93FF9310928500109284008091A8019091A901009741F00197D3
:207160009093A9018093A801892B09F45D9A8091AA019091AB01009741F001979093AB0126
:207180008093AA01892B09F4289AE0E0F0E0859194918F5F9F4F49F08091AC019091AD0151
:2071A00001969093AD018093AC01FF91EF919F918F912F910F900FBE0F901F90189584E0BC
:2071C0008093E9000DC08091E8008B778093E80003C08EB3882351F08091E80082FFF9CFBE
:2071E0008091E80085FFEFCF8091F1000895982F83E08093E9008091E80085FD0DC0809136
:20720000E8008E778093E80003C08EB3882369F08091E80080FFF9CF9093F1005D9884E6CB
:2072200090E09093A9018093A80108954F925F926F927F928F929F92AF92BF92CF92DF921E
:20724000EF92FF920F931F93CF93DF9384E08093E9008091E80082FF57C2289884E690E067
:207260009093AB018093AA01AADF182F853481F48CE49DE19093AD018093AC0107B600FC4B
:20728000FDCFF999FECF81E180935700E89503C0843519F494DF8DE00DC28C34E1F38035F9
:2072A000D1F3843721F484E4A2DF80E003C2813611F489E5FFC18134B1F481DF182F7FDFE3
:2072C00090E0880F991FAA2797FDA095BA2F312F330F20E0442737FD4095542F822B932B68
:2072E000A42BB52BB8C1803711F483E5E3C1833549F4C0E0D1E089917ADF21E0C730D20714
:20730000D1F7D9C1863521F481E371DF80E3D2C1833731F487E86BDF85E969DF8EE1CAC149
:207320008536B9F4E0E0F0E093E085E090935700E89507B600FCFDCF80935700E89507B65D
:2073400000FCFDCFE058FF4FA0E7E030FA0771F7A2CF823739F4E1E0F0E089E08093570024
:207360008491A8C1863439F4E0E0F0E089E08093570084919FC18E3439F4E3E0F0E089E0E5
:2073800080935700849196C1813539F4E2E0F0E089E08093570084918DC1823631F489E521
:2073A00026DF80E024DF80E885C1823419F0873609F0E5C01092AD011092AC0100DF082FE8
:2073C000FEDEF82EFCDE682E8554823008F071C1902F80E0CF2DD0E0C82BD92B10926F00B3
:2073E000173609F04BC081E180935700E895DD24CC24C3943FC0E090AE01F090AF010091CC
:20740000B0011091B101B6E46B16D9F4ED2DF0E0EE29FF29E4918E2FEADEDD2081F082E08D
:2074200090E0A0E0B0E0E80EF91E0A1F1B1FE092AE01F092AF010093B0011093B101DC2470
:2074400018C0D801C701B695A7959795879559D5CEDE82E090E0A0E0B0E0E80EF91E0A1FF2
:207460001B1FE092AE01F092AF010093B0011093B1012197209709F0BECF7DC08090AE01F5
:207480009090AF01A090B001B090B10196E4691609F05DC083E0F40180935700E89507B63E
:2074A00000FCFDCF54C0F6E46F1661F5772031F1E090AE01F090AF010091B0011091B1019E
:2074C0007EDED82ECC24852D90E08C299D29F7010C0140925700E895112482E090E0A0E08B
:2074E000B0E0E80EF91E0A1F1B1FE092AE01F092AF010093B0011093B10102C060DE582E1A
:20750000742423C0E090AE01F090AF010091B0011091B10116950795F794E79450DE682FFA
:20752000C701F7D48091AE019091AF01A091B001B091B1010296A11DB11D8093AE01909349
:20754000AF01A093B001B093B101219704C05524772444244394209709F0A5CF96E46916B6
:2075600041F485E0F40180935700E89507B600FCFDCF8DE03CDE82E080936F009CC0833492
:2075800071F40091AE011091AF0119DE90E021E0F8010C0120935700E89511247CCE8336C8
:2075A00019F5E090AE01F090AF010091B0011091B10105DEF701E16090E021E00C0120938C
:2075C0005700E895112482E090E0A0E0B0E0E80EF91E0A1F1B1FE092AE01F092AF0100936A
:2075E000B0011093B10157CE8D3661F4E091AE01F091AF0185E080935700E89507B600FCF2
:20760000FDCF49CE823551F4E091AE01F091AF0105911491812FEBDD802F4CC0843421F5FE
:20762000E090AE01F090AF010091B0011091B10116950795F794E794C2DD682FC70169D4DE
:207640008091AE019091AF01A091B001B091B1010296A11DB11D8093AE019093AF01A093D8
:20766000B001B093B10117CE843609F5E090AE01F090AF010091B0011091B101D801C70142
:20768000B695A795979587953CD4B1DD82E090E0A0E0B0E0E80EF91E0A1F1B1FE092AE010A
:2076A000F092AF010093B0011093B10104C08B3111F08FE39CDD83E08093E9009091E8002B
:2076C0008091E8008E778093E80095FF04C010C08EB38823C9F08091E80080FFF9CF809193
:2076E000E8008E778093E80003C08EB3882361F08091E80080FFF9CF84E08093E9008091F1
:20770000E8008B778093E800DF91CF911F910F91FF90EF90DF90CF90BF90AF909F908F90AC
:207720007F906F905F904F9008959091B601892F8F77813249F58091B7018032A1F081328A
:2077400019F5913A09F58091E800877F8093E8008DE091E067E070E00BD28091E8008B770B
:207760008093E8000895913279F48091E800877F8093E8008DE091E067E070E05DD2809192
:20778000E8008E778093E800089582E061EC42E0B5D083E061E842E1B1D084E060E842E1EF
:2077A000ADC084B7877F84BF88E10FB6F89480936000109260000FBE20E880E090E00FB63F
:2077C000F89420936100809361000FBE81E085BF92E095BF3F9A209A559AE1E6F0E02083A1
:2077E000108247985D9A289A109289008AEF8093880090936F0083E080938100F0C0409116
:20780000000850910108109201081092000894B714BE88E10FB6F8948093600010926000D5
:207820000FBE292F30E0F901E270F07091FD18C090FF05C0859194918F5F9F4F81F423FFFF
:207840000FC08091090190910A014817590741F0E0E0F0E0859194918F5F9F4F09F042DC64
:20786000A0DF78941092AD011092AC010CC0DEDC36D38091AC019091AD0181549F4110F00D
:207880001092140141DC80911401882381F78091E00081608093E00025DC80E090E0089598
:2078A000FA01923049F0933061F09130F9F485E191E022E130E01EC087E291E02EE330E04D
:2078C00019C0882329F485E691E024E030E012C0813029F489E691E022E230E00BC0823006
:2078E00029F48DE891E028E130E004C080E090E020E030E091838083C90108958093E9004E
:207900008091EB0081608093EB001092ED006093EC004093ED008091EE00881F8827881F62
:2079200008958091B60188238CF403C08EB38823B1F08091E80082FFF9CF8091E8008B772A
:207940008093E80008958EB3882349F08091E80080FFF9CF8091E8008E778093E800089594
:20796000EF92FF920F931F9345D04CD008ED10E0F80180818F77808380818068808380819B
:207980008F7D808319BC1EBA1092B40180EEE82EF12CF70180818B7F8083F8018081816052
:2079A000808380E060E042E0A9DFE1EEF0E080818E7F8083E2EEF0E0808181608083808144
:2079C00088608083F70180818E7F8083F8018081806180831F910F91FF90EF900895E7ED06
:2079E000F0E08081816080838AE482BF81E08093B501B6CFE8EDF0E080818E7F808310921C
:207A0000E20008951092DA001092E10008951F920F920FB60F9211242F933F934F935F93F6
:207A20006F937F938F939F93AF93BF93EF93FF938091DA0080FF1BC08091D80080FF17C0B2
:207A40008091DA008E7F8093DA008091D90080FF0BC080E189BD82E189BD09B400FEFDCF36
:207A600081E08EBB3BD203C019BC1EBA37D28091E10080FF17C08091E20080FF13C0809138
:207A8000E2008E7F8093E2008091E20080618093E2008091D80080628093D80019BC85E049
:207AA0008EBB1CD28091E10084FF2CC08091E20084FF28C080E189BD82E189BD09B400FEC5
:207AC000FDCF8091D8008F7D8093D8008091E1008F7E8093E1008091E2008F7E8093E20012
:207AE0008091E20081608093E2008091B401882331F48091E30087FD02C081E001C084E067
:207B00008EBBECD18091E10083FF21C08091E20083FF1DC08091E100877F8093E10082E06A
:207B20008EBB1092B4018091E1008E7F8093E1008091E2008E7F8093E2008091E2008061E9
:207B40008093E20080E060E042E0D8DEC7D1FF91EF91BF91AF919F918F917F916F915F9130
:207B60004F913F912F910F900FBE0F901F9018959C014091BC015091BD014617570718F49D
:207B8000F90190E044C06115710511F0AB01F8CF8091E8008E778093E80040E050E0F0CF0F
:207BA0008EB3882309F444C0853009F443C08091E80083FF02C081E008958091E80082FD70
:207BC00031C08091E80080FF22C08091F3009091F200782F60E0292F30E0262B372B07C07A
:207BE00081918093F100415050402F5F3F4F4115510519F02830310598F390E02830310566
:207C000009F491E08091E8008E778093E8004115510531F6992321F605C08EB3882341F075
:207C2000853041F08091E80082FFF7CF80E0089582E0089583E008959C016115710529F47C
:207C40008091E8008B778093E800F90126C08EB3882391F1853091F18091E80083FF02C06C
:207C600081E008958091E80082FFF1CF06C08091F10081936150704059F02091F300809191
:207C8000F200322F20E090E0822B932B892B79F78091E8008B778093E80061157105B9F601
:207CA00005C08EB3882341F0853041F08091E80080FFF7CF80E0089582E0089583E00895C2
:207CC0000F931F93DF93CF9300D0CDB7DEB7E6EBF1E08091F100819381E0EE3BF807C9F792
:207CE00024DD8091E80083FFE4C08091B6019091B701953009F46DC0963040F4913081F1A7
:207D0000913070F0933009F0D4C02AC0983009F4A3C0993009F4B2C0963009F0CAC07CC023
:207D2000803809F4C6C0823809F0C3C08091BA0187708093E9008091EB001092E9002091DB
:207D4000E800277F2093E80090E025E0969587952A95E1F781708093F1001092F10087C0D8
:207D6000882319F0823009F0A4C08F71823009F0A0C08091B801882331F52091BA01277097
:207D800009F497C02093E9008091EB0080FF1BC0933021F48091EB00806213C08091EB0018
:207DA00080618093EB0081E090E002C0880F991F2A95E2F78093EA001092EA008091EB00E5
:207DC00088608093EB001092E9008091E800877F51C0882309F06DC01091B8011F770FB79B
:207DE000F8948091E800877F8093E8009ADD8091E80080FFFCCF8091E3008078812B809398
:207E0000E30080688093E300112311F482E001C083E08EBB0FBF4DC08058823008F049C033
:207E20008091B8019091B9016091BA01AE014F5F5F4F36DDBC01009709F43BC08091E8008E
:207E4000877F8093E80089819A8192DE8091E8008B778093E8002DC0803859F58091E800AA
:207E6000877F8093E8008091B4018093F1008091E8008E778093E80054DD1BC08823C9F4CA
:207E80009091B8019230A8F48091E800877F8093E8009093B40145DD8091B401882331F420
:207EA0008091E30087FD02C081E001C084E08EBB6CDC8091E80083FF0AC08091EB0080624E
:207EC0008093EB008091E800877F8093E8000F900F90CF91DF911F910F91089508951F9360
:207EE0008EB3882361F01091E9001092E9008091E80083FF01C0E4DE17701093E9001F916F
:207F00000895F999FECF92BD81BDF89A992780B50895262FF999FECF1FBA92BD81BD20BDBD
:207F20000FB6F894FA9AF99A0FBE01960895F894FFCF4341544552494E4100777700080031
:207F40000000000000080112011001020000084123360001000201000109023E00020100FF
:207F600080320904000001020201000524001001042402040524060001070582030800FF0C
:207F800009040100020A000000070504021000010705830210000104030904220341007216
:207FA000006400750069006E006F0020004C0065006F006E006100720064006F0000001836
:1A7FC00003410072006400750069006E006F0020004C004C004300000000D7
:00000001FF
