:100000000C941F040C9447040C9447040C9447046C
:100010000C9447040C9447040C9447040C94470434
:100020000C9447040C9447040C94260E0C94980EE0
:100030000C9447040C9447040C9447040C94470414
:100040000C9447040C9447040C9447040C94470404
:100050000C9447040C9447040C9447040C94F00649
:100060000C9447040C9447040C9447040C944704E4
:100070000C9447040C9447040C9447040C944704D4
:100080000C94E8070C9447040C9447040C94470420
:100090000C9447040C9447040C9447040C944704B4
:1000A0000C9447040C9447040C944704D5F08D1429
:1000B000A1C881CFD9F1AF2000430D00F800FCF8B2
:1000C000FEFCFF0CFF0CFF1CFF18FE00FCF8FEFC02
:1000D000FF0CFF0CFFFCFFF8FE00FEFCFFFCFF78AE
:1000E000FEF0FC78FEFCFFFCFF00FEFCFFFCFFCCFA
:1000F000FFCCFFFCFF78FE00FE3CFF7CFFE0FEE053
:10010000FE7CFF3CFF00FEF8FEFCFF0CFF0CFF1C1A
:10011000FF18FE00FCF8FEFCFF0CFF0CFFFCFFF8D4
:10012000FE00FEFCFFFCFFCCFFCCFFFCFF78FE00D6
:10013000FEFCFFFCFF6CFF6CFF0CFF0CFF001E00C1
:100140000C00030007030F071F061F061F071F03EE
:100150000F0007030F071F061F061F071F030F00CF
:100160000F071F071F000F0007000F071F071F00C3
:100170000F071F071F000F0007000300010000000A
:1001800007000F071F071F000F00070007030F07D7
:100190001F061F061F071F030F0007030F071F0679
:1001A0001F061F071F030F000F071F071F000F0069
:1001B0000F071F071F000F071F071F061F061F0639
:1001C0001F061F000F0006412E0000000000000067
:1001D000000000000000C0E0F0F8FCFCFEFE04009F
:1001E000000000000000000080808080808080800F
:1001F000808080800002071FFFFEFEFCFCF8F0E01C
:10020000800000000000000000000000000000006E
:100210000000000000001E7FFFFFFFFFFFFFFFFF49
:10022000FEFCFC06060303030301010101010101B9
:10023000010101010103030307070F1F3F7FFFFFB8
:100240003F070000000000000000000000808080E8
:10025000808080C0C0C0C0E0F0FD8F0307070707A3
:10026000070301000080C0E0E0F0F0F0F0F0F06083
:1002700000C0E0E0F0F0F0F0F0E0D83C9CDCDC986E
:10028000333F7FFFDFDF6F6F371B0E0402070D1B4D
:100290003337676F6FCFCFCFCFDFDF1F1E00000078
:1002A0000000000000010D070301010130180C0CD3
:1002B0000C1800030F1F7FFF9F9F0F0F0FCD3303FD
:1002C00001000000FFFF000000000000000000002F
:1002D0000000000000000000000000030F1C306060
:1002E000C0800000000000000000000000000000CE
:1002F00000000000003830200020202111D1D0E87B
:10030000C7E2B01C0F030000000000000000000066
:1003100000000000000000000000000000000000DD
:10032000000001030306060C0C18181818303030B2
:100330003030303018181818180C0C0C0606030151
:10034000030703000000000000000000000000415F
:100350002E00000000000000000000000000C0E0CF
:10036000F0F8FCFCFEFE04000000000000000000AD
:100370008080808080808080808080800002071F55
:10038000FFFEFEFCFCF8F0E0800000000000000032
:1003900000000000000000000000000000001E7FC0
:1003A000FFFFFFFFFFFFFFFFFEFCFC06060303034A
:1003B0000301010101010101010101010103030325
:1003C00007070F1F3F7FFFFF3F07000000000000EF
:1003D0000000000000808080808080C0C0C0C0E03D
:1003E000F0FD8F0307070707070301000080C0E047
:1003F000E0F0F0F0F0F0F06000C0E0E0F0F0F0F0DD
:10040000F0E0D83C9CDCDC98333F7FFFDFDF6F6F90
:10041000371B0E0402070D1B3337676F6FCFCFCF2B
:10042000CFDFDF1F1E0000000000000000010D07ED
:1004300003010101183C7E7E7E3C18030F1F7FFFE5
:100440009F9F0F0F0FCD330301000000FFFF00003F
:10045000000000000000000000000000000000009C
:10046000000000030F1C3060C0800000000000008E
:1004700000000000000000000000000000383020F4
:100480000020202111D1D0E8C7E2B01C0F030000EA
:10049000000000000000000000000000000000005C
:1004A0000000000000000000000001030306060C2D
:1004B0000C18181818303030303030301818181820
:1004C000180C0C0C060603010307030000000000D3
:1004D0000000000000000010100000000000F0E02C
:1004E000F0E0F0E0F0E0F0E0F0E0F0E0F0E0F0E08C
:1004F000F0E0F000F0000000000000000000FF7FCE
:10050000FF7FFF7FFF7FFF7FFF79FF7FFF7FFF7907
:10051000FF7FFF00FF000000000000000000C0801F
:10052000F8F0F8F0F8F0F8E0F8E0F0E0F0E0F0C013
:10053000F0C0E0C0E000E000000000003E1C3F1FF3
:100540003F1F7F3F7F3F7F3F7F3CFF7FFF7FFF7CE1
:10055000FF0FFF011F0003000000000000008000EB
:10056000C080F0E0F8F0FCF8FCF0FCE0F8C0F0C06F
:10057000E080E000C00080000000000007020F07DC
:100580001F0F1F0F3F1F7F3FFF7CFF3FFF1F7F0499
:100590003F030F0107000300000000008000C0803F
:1005A000E0C0F0E0F8F0FCF8FCF8FCF0FCE0F8C08B
:1005B000F080E000C00080000000000007030F078B
:1005C0001F0F3F1F7F3FFF7FFF7CFF3FFF1F7F0C01
:1005D0003F071F030F000700000000008000C080DD
:1005E000E0C0E0C0F0E0F8F0FCF8FCF0FCE0F880DF
:1005F000F000C000800000000000000003010703BD
:100600000F073F1F7F3FFF7FFF3CFF1F7F0F3F0C08
:100610001F071F020F00070000000000E0C0E0C03D
:10062000E0C0F0E0F0E0F0E0F0E0F8F0F8F0F8F032
:10063000F880F800C00000000000000003011F0F58
:10064000FF7FFF7FFF7FFF3FFF3C7F3F7F3F7F1CA0
:100650007F1F3F1C3F003E000010180000000000FC
:10066000000000000000F0E0FFFEFFFEFFE0FF00E2
:10067000F00000000000000000000000000000008A
:100680008000F0E0FFCCFF7BFF7BFFCDFFFFFFFE94
:10069000FFE0FF00F0008000000000000000783064
:1006A0007F3F7F3F7F387F3C7F3C7F387F3F7F3F6E
:1006B0007F3F7F3F7F307F00780000000000000018
:1006C000000000000000E0C0FEFCFEFCFEC0FE00DA
:1006D000E00000000000000000000000000000003A
:1006E0000000E0C0FEFCFF37FFEFFFEFFF37FFFC2D
:1006F000FFC0FE00E0000000000000000000F0600D
:10070000FF7EFF7FFF7FFF73FF79FF79FF73FF7F1E
:10071000FF7FFF7EFF60FF00F00000080800FF7E03
:10072000FF42FF42E742FF7EFF7EFF00FF00E742FD
:10073000E742FF7EFF7EFF40FF40E000E000FF7ADF
:10074000FF5AFF5AFF5AFF5EFF5EFF00FF00FF5A8D
:10075000FF5AFF5AFF5AFF7EFF7EFF00FF003F1E39
:100760003F183F183C18FF7EFF7EFF00FF00FF5E32
:10077000FF5AFF5AFF5AFF7AFF7AFF00FF00FF7E01
:10078000FF5AFF5AFF5AFF7AFF7AFF00FF00070265
:10079000070207020702FF7EFF7EFF00FF00FF7EC9
:1007A000FF5AFF5AFF5AFF7EFF7EFF00FF003F1EE9
:1007B0003F1A3F1A3F1AFF7EFF7EFF00FF0102042F
:1007C0000810204080080B0002020201000904000A
:1007D00000010202000005240010010524010101AE
:1007E00004240206052406000107058103100040C9
:1007F00009040100020A000000070502024000008F
:10080000070583024000000403090412010002EFFF
:10081000020140412336800001010203014172645C
:1008200075696E6F204C4C430041726475696E6F40
:10083000204C656F6E6172646F00951887181124E3
:100840001FBECFEFDAE0DEBFCDBF12E0A0E0B1E027
:10085000E4EBFEE302C005900D92A232B107D9F796
:1008600027E0A2E2B2E001C01D92AF35B207E1F786
:1008700014E0CEE1D4E004C02197FE010E94681E7E
:10088000CD31D107C9F70E944C120C944D1F0C9426
:10089000000080912E02E0912C02F0912D0288231D
:1008A00049F0CF01029690932D0280932C028591FE
:1008B00094910895CF01029690932D0280932C027B
:1008C0008081918108958091250208950895089569
:1008D00080E090E00895CB0108957F928F929F92DF
:1008E000AF92BF92CF92DF92EF92FF920F931F933E
:1008F000CF93DF93EC0149015A018B01C12CD12C1C
:100900007601C814D904EA04FB0484F5F801719057
:100910008F018F8580FF0BC0E881F9810084F1850C
:10092000E02D20E144E060E070E0CE010995EB8528
:10093000FC858D859E85E817F90738F470828B85D4
:100940009C8501969C878B870BC0E881F981672D78
:1009500070E0028CF38DE02DCE010995019649F0EF
:100960002FEFC21AD20AE20AF20ACBCFB401C501B4
:1009700002C0B601C701DF91CF911F910F91FF9087
:10098000EF90DF90CF90BF90AF909F908F907F902F
:100990000895CF93DF93EC01E881F9810288F38910
:1009A000E02D09958F3F2FEF920731F02D813E8189
:1009B0002F5F3F4F3E832D83DF91CF9108958FEFBF
:1009C0009FEF089560E070E0CB01089580E090E033
:1009D0000895CB010895CF93DF93EC01888999891D
:1009E000DC01ED91FC910084F185E02D0995892BC6
:1009F000A9F388899989DC01ED91FC910284F38542
:100A0000E02DDF91CF910994CF93DF93EC0188899A
:100A10009989DC01ED91FC910084F185E02D099527
:100A2000892BA9F388899989DC01ED91FC910484D3
:100A3000F585E02DDF91CF910994AF92BF92CF92CF
:100A4000DF92EF92FF920F931F93CF93DF9300D02B
:100A500000D0CDB7DEB78C015B01C12CD12C760163
:100A6000F80180899189DC01ED91FC910284F38584
:100A7000E02D29833A834B835C83099529813A8150
:100A80004B815C818F3F71F0C216D306E406F506F8
:100A90004CF4D5018D935D01BFEFCB1ADB0AEB0A55
:100AA000FB0ADECFC701B6010F900F900F900F9099
:100AB000DF91CF911F910F91FF90EF90DF90CF903A
:100AC000BF90AF900895DC0150968D919C91519705
:100AD000DC01ED91FC910084F185E02D099480E02A
:100AE00090E0089580E090E0089580E090E008951F
:100AF00080E090E008950895CF93DF93C0919F0622
:100B0000D091A006E881F9810084F185E02DCE0125
:100B10000995892BB9F3E881F9810284F385E02DE9
:100B2000CE01DF91CF9109941F93CF93DF93182FBC
:100B3000C0919F06D091A0068A3041F4E881F981E6
:100B40000190F081E02D6DE0CE010995E881F981F9
:100B50000190F081E02D612FCE01099521E030E078
:100B6000019711F420E030E0C901DF91CF911F918E
:100B700008950F931F93CF93DF938C01EB016F3F89
:100B80008FEF780719F480E090E00FC06A3031F4FD
:100B90006DE0F801808991890E94C8106C2FF801DE
:100BA000808991890E94C810CE01DF91CF911F9159
:100BB0000F9108958F929F92BF92CF92DF92EF9202
:100BC000FF920F931F93CF93DF9300D000D0CDB748
:100BD000DEB78C014B01C12CD12C7601C216D30695
:100BE000E406F50644F5F401B1904F01FAE0BF12B6
:100BF0000EC06DE0F8018089918929833A834B8387
:100C00005C830E94C8105C814B813A8129816B2DE5
:100C1000F8018089918929833A834B835C830E9400
:100C2000C810FFEFCF1ADF0AEF0AFF0A5C814B8181
:100C30003A812981D3CFCA01B9010F900F900F904B
:100C40000F90DF91CF911F910F91FF90EF90DF9068
:100C5000CF90BF909F908F9008950C94291BFB011B
:100C600020813181FC0131832083FB01428153814A
:100C7000F901369720813181FC01E20FF31F518386
:100C8000408308952BE831E0FC013183208325E97E
:100C900031E0318F208F6BE971E00C942F06DC017D
:100CA000ED91FC91369720813181820F931F0C9436
:100CB0004206CF93DF93EC010E944206CE01DF9102
:100CC000CF910C94291BDC01ED91FC91369720818A
:100CD0003181820F931F0C945906089508950C9446
:100CE000291BDC01ED91FC91369720813181820F27
:100CF000931F0C946F060C94291BFB0120813181FA
:100D0000FC0131832083FB0142815381F901369735
:100D100020813181FC01E20FF31F5183408308954C
:100D200023E032E0FC01318320832DE032E0358B7B
:100D3000248B63E172E00C947D06DC01ED91FC9163
:100D4000369720813181820F931F0C949006CF93A8
:100D5000DF93EC010E949006CE01DF91CF910C94BD
:100D6000291BDC01ED91FC91369720813181820FA6
:100D7000931F0C94A706089508950C94291BDC0179
:100D8000ED91FC91369720813181820F931F0C9455
:100D9000BD060C94291B3FB7F894809139029091BD
:100DA0003A02A0913B02B0913C0226B5A89B05C037
:100DB0002F3F19F00196A11DB11D3FBFBA2FA92FDA
:100DC000982F8827820F911DA11DB11DBC01CD0157
:100DD00042E0660F771F881F991F4A95D1F7089543
:100DE0001F920F920FB60F9211242F933F938F9360
:100DF0009F93AF93BF938091260290912702A09179
:100E00002802B09129023091380223E0230F2D37B8
:100E100020F40196A11DB11D05C026E8230F0296FE
:100E2000A11DB11D209338028093260290932702C2
:100E3000A0932802B09329028091390290913A023E
:100E4000A0913B02B0913C020196A11DB11D80937F
:100E5000390290933A02A0933B02B0933C02BF91B7
:100E6000AF919F918F913F912F910F900FBE0F9057
:100E70001F901895CF92DF92EF92FF920F931F93DE
:100E8000CF93DF930E944904811520E8920761F413
:100E9000809171008D7F809371001092910046982F
:100EA0004798109231028BC021E0209331028130AB
:100EB00020E8920751F480912A0290912B0290939E
:100EC0002D0280932C020E94490497FD05C02091B9
:100ED0003002222309F43FC020912F0221113BC090
:100EE00021E020933202EC01DF77209769F481E062
:100EF0008093330246983FE9C32E3FE0D32EE12C86
:100F0000F12CCAEFD0E014C08E0120E030E060E4A4
:100F100072E48FE090E0A90198010E94121D69011E
:100F20007A0181E0C81AD108E108F1081092330271
:100F3000E0915206F09153060995811103C081E0BA
:100F400080933302809132028823B9F18091330279
:100F5000811133C003C010923202C5CF46992DC013
:100F6000479A0E944904009771F09C01DE010E949B
:100F70009D1DDC01CB0129E0B595A7959795879537
:100F80002A95D1F703C08FEF9FEFDC0110929000FC
:100F90002AE020939100D0929900C092980080930B
:100FA000340290933502A0933602B09337028091B9
:100FB000710082608093710002C04798D2CFDF91A8
:100FC000CF911F910F91FF90EF90DF90CF900895F8
:100FD0001F920F920FB60F9211242F933F934F93AE
:100FE0005F936F937F938F939F93AF93BF93EF9391
:100FF000FF938091340290913502A0913602B09116
:101000003702892B8A2B8B2B81F18091330281113E
:101010000BC098B180E4892788B980913202882377
:1010200019F088B1805888B98091340290913502C6
:10103000A0913602B0913702181619061A061B063F
:10104000B4F48091340290913502A0913602B091AF
:1010500037020197A109B1098093340290933502B8
:10106000A0933602B093370202C00E943A07FF9164
:10107000EF91BF91AF919F918F917F916F915F9110
:101080004F913F912F910F900FBE0F901F90189589
:101090004F925F926F927F928F929F92AF92BF9288
:1010A000CF92DF92EF92FF920F931F93CF93DF9334
:1010B00000D000D0CDB7DEB749012C2DA02EB12C29
:1010C000DC01AA0DBB1D1A161B060CF0B3C180383B
:1010D00091050CF0AFC1FB01EE0DF11D1E161F06B0
:1010E0000CF0A8C1603471050CF0A4C14115510584
:1010F00009F4A0C1FB0177FF04C0EE27FF27E61B20
:10110000F70B3E2F3770732EFB0177FD379633E0D8
:10111000F595E7953A95E1F73E2F77FF07C07720E1
:1011200029F03FEF3E0F68E06719762E97FF05C064
:10113000EE27FF27E81BF90B02C0E0E0F0E0A03843
:10114000B10524F060E8F62EF81A01C0F02EFE1A60
:10115000632F032E000C770B3F3F1CF4A62FA095A6
:1011600001C0A0E011E0BE2DB77009F410E0E694D4
:10117000E694E694E10E6E0D711D693071051CF068
:1011800068E0E62EE31AEA1A3A0F60E83603800DAB
:10119000911D11248E0F9F1FA09FE00DF11D1124A2
:1011A0004E0F5F1F61E070E0072C02C0660F771FD3
:1011B0000A94E2F7233009F4FCC098F4213009F4D2
:1011C000AEC0223009F036C12FEF269F8001279F45
:1011D000100D1124009510951C830B835C80E30E89
:1011E00027C02A3F29F02B3F09F024C1E30E83C01A
:1011F000E30E4EC0FA01EC0DFD1DE491E69F4001A7
:10120000E79F900C11249A82898237FD04C02C91AB
:101210002023822A8C92711014C0EFEFCE1ADE0ABE
:101220001196CF1438F33F5F4A0D5B1D80589F4FD6
:101230003E1509F4FFC0DC01AC5BBD4FC12CD12CC5
:10124000F0CF373054F7FD01E058FF4F20812521C2
:101250009A8029292083E1CFFA01E00FF11FE49160
:10126000E69F6001E79FD00C1124DA82C98237FD26
:1012700003C02C91C22ACC92711013C00F5F1F4F74
:1012800011960F1548F33F5F4A0D5B1D80589F4F25
:101290003E1509F4CFC0DC01AC5BBD4F00E010E0AF
:1012A000F0CF37305CF7FD01E058FF4FD0802A8146
:1012B0002D292083E3CFFA01EC0DFD1DE491E69F7B
:1012C000D001E79FB00D1124BA83A98337FD05C073
:1012D000A095F8012081A223A083711015C0FFEF13
:1012E000CF1ADF0A0F5F1F4FCF1428F33F5F4A0D5D
:1012F0005B1D80589F4F3E1509F49CC08C010C5B10
:101300001D4FC12CD12CF0CF37304CF7F801E058ED
:10131000FF4F2A812095A0812A232083E0CFD4018A
:10132000AE0FBF1FE30E3E1509F484C0FC01EC5B59
:10133000FD4F4F01C12CD12CCF1498F5FD01EC0DC0
:10134000FD1DE491E69F8001E79F100D112400959B
:1013500010951C830B83FA01EC0DFD1DE491E69FB3
:101360002001E79F500C11245A82498237FD05C0A5
:10137000F40120810223402A4082772059F037303F
:101380004CF4F401E058FF4F10812C8121231A8185
:10139000212B2083FFEFCF1ADF0A2FEF821A920A48
:1013A000CBCF3F5F4A0D5B1DAA0DBB1D80589F4FE1
:1013B000BACFCF2CD12CE40FF51FDC01AC5BBD4FB5
:1013C000AC014C535D4F00E810E00C191D09AC183E
:1013D000BD08AA0CBB1C6F2C2E2DCF93DF93EA0106
:1013E0008590C590772059F0869E4001C69E600189
:1013F00037302CF49881D0949D21992999933323E7
:101400003AF09C91C0949C2198299D930C94090AD0
:101410001196FA9429F7EA9451F0F62C3395112499
:10142000EA0DF11DA00FB11DC00FD11DD9CFDF9165
:10143000CF9111240F900F900F900F90DF91CF91CB
:101440001F910F91FF90EF90DF90CF90BF90AF90E2
:101450009F908F907F906F905F904F900895CF9264
:10146000DF92EF920F931F93CF93DF9341155105B6
:1014700091F1FA0104913196E4904E5F5F4F22237F
:1014800021F130E0220F331FC02FD0E0AE2DA69502
:10149000A695A695EA2FF0E0A1E0B0E01E2D17700A
:1014A00011F4A0E0B0E0AE0FBF1FCA9F6001CB9F58
:1014B000D00CDA9FD00C11242C9DF0012D9DF00D45
:1014C0003C9DF00D11244E0F5F1F23E0C22E20E043
:1014D00030E00E944808DF91CF911F910F91EF906B
:1014E000DF90CF900895BC0180E090E00C94CF1085
:1014F0008FB12CB193B130E0209530952074332713
:10150000A90123E0559547952A95E1F7292F30E069
:10151000209530952071332735952795359527955A
:10152000242B8095807F822B089583B7817F83BF92
:1015300083B7816083BF889583B78E7F83BF08950B
:101540008EBD00000DB407FEFDCF0895FC01840F91
:10155000911D18161906E4F5E038F105CCF5F7FFF2
:1015600002C0E0E0F0E08138910514F080E890E0FE
:10157000382F3E1BAB0177FF02C0495F5F4F83E00E
:10158000559547958A95E1F75695542F44275795D9
:101590004795E40FF51FEC5BFD4F6770772781E0FF
:1015A00090E001C0880F6A95EAF7482F222349F09E
:1015B000213071F4315020F08081842B8193FACF57
:1015C00008958095315020F0908198239193FACF1F
:1015D000089560387105D0F440345105B8F4EDEB4E
:1015E000F7E080E1849FD001A0781124A60F477016
:1015F000E40FF11D8491AC5BBD4F222319F06C9177
:10160000862B03C080956C9186238C930895089552
:10161000089508958F929F92AF92BF92CF92DF92DA
:10162000EF92FF920F931F93CF93DF93EC01F98812
:10163000F394F39418891E5F6E857F85072E000C46
:10164000880B990B0E94DF1B2C813D814E815F81AD
:101650000E94AD1D20E030E040E85FE30E94AC1D39
:101660000E94191E4B015C018C859D85BC01990F60
:10167000880B990B0E94DF1B288139814A815B818D
:101680000E94AD1D20E030E040E85FE30E94AC1D09
:101690000E94191EDC01CB0100E02F2D412FB40167
:1016A0000E94A011F988FA94FA94188912506E8554
:1016B0007F85072E000C880B990B0E94DF1B2C8165
:1016C0003D814E815F810E94AD1D20E030E040E809
:1016D0005FE30E94AD1D0E94191E4B015C018C85C9
:1016E0009D85BC01990F880B990B0E94DF1B2881F7
:1016F00039814A815B810E94AD1D20E030E040E8E5
:101700005FE30E94AD1D0E94191EDC01CB012F2D4D
:10171000412FB4010E94A0116E857F85072E000C19
:10172000880B990B0E94DF1B2C813D814E815F81CC
:101730000E94AD1D0E94191E6B017C018C859D8548
:10174000BC01990F880B990B0E94DF1B28813981FE
:101750004A815B810E94AD1D0E94191EDC01CB01F4
:1017600001E029894889B6010E94A011DF91CF913B
:101770001F910F91FF90EF90DF90CF90BF90AF90AF
:101780009F908F900895FC0164A575A5772780919F
:101790009006909191060E94541E892B79F482A59F
:1017A00093A520A531A5215031098217930724F470
:1017B000019693A782A7089513A612A608958F9263
:1017C0009F92AF92BF92CF92DF92EF92FF920F93D0
:1017D0001F93CF93DF93EC01C88CD98CEA8CFB8CE0
:1017E0002C813D814E815F81C701B6010E94AD1DF4
:1017F0004B015C016C837D838E839F830A851B85EF
:10180000B801012E000C880B990B0E94DF1B9B0175
:10181000AC01C501B4010E94AD1D20E030E048E5F7
:1018200052E40E94D81B87FF0DC02C8D3D8D4E8D3C
:101830005F8DC701B6010E94AD1D688F798F8A8FB9
:101840009B8F12C0188E198E1A8E1B8E66E370E065
:10185000601B710B072E000C880B990B0E94DF1B7D
:101860006C837D838E839F83DF91CF911F910F9136
:10187000FF90EF90DF90CF90BF90AF909F908F90B0
:1018800008958F929F92AF92BF92EF92FF920F9323
:101890001F93CF93DF93EC010C851D850115110576
:1018A00031F498858A851F861E86988B898B6E8574
:1018B0007F85072E000C880B990B0E94DF1B2C8163
:1018C0003D814E815F810E94AD1D0E94191E4B011A
:1018D0005C01E888F988B801110F880B990B0E9408
:1018E000DF1B288139814A815B810E94AD1D0E94E6
:1018F000191E7B8B6A8B9D8A8C8AEE8AFF8ADF9108
:10190000CF911F910F91FF90EF90BF90AF909F905C
:101910008F90089540913F025091400220913D02E6
:1019200030913E0242175307B4F49091E80095704D
:10193000E1F39091E80092FD19C08093F10080914D
:101940003F029091400201968F739927892B19F4D9
:101950008EEF8093E80080913F02909140020196C3
:101960009093400280933F0281E0089580E00895C3
:10197000DF92EF92FF920F931F93CF93DF93D82EB6
:101980008A017B01E40EF51EEB01CE15DF0571F037
:10199000D7FE03C0FE01849101C088810E948A0C99
:1019A00021968111F2CF8FEF9FEF01C0C801DF9127
:1019B000CF911F910F91FF90EF90DF9008956150AC
:1019C00030F02091F100FC0120830196F8CF289897
:1019D00084E6809342020895CF92DF92EF92FF92C5
:1019E0000F931F93CF93DF936C017A018B01C0E0BB
:1019F000D0E0CE15DF0589F0D8016D918D01D601BB
:101A0000ED91FC910190F081E02DC6010995892BA3
:101A100011F47E0102C02196ECCFC701DF91CF9176
:101A20001F910F91FF90EF90DF90CF900895CF938B
:101A3000DF931F92CDB7DEB76983DC01ED91FC9196
:101A40000280F381E02D41E050E0BE016F5F7F4FE7
:101A500009950F90DF91CF91089583E08093E9007D
:101A60008091F200882319F08AE38093E8000895BA
:101A7000FC018485958597FD0BC09FB7F89482E0A3
:101A80008093E9008091F2009FBF90E00196089555
:101A90009FB7F89482E08093E9008091F2009FBFA5
:101AA00090E008950E94381F0F931F93CF93DF9308
:101AB0001F92CDB7DEB782E0898342E450E065EC47
:101AC00077E080E80E94B80C0E943812DC01129680
:101AD0000D911C9113970115110569F0D801ED9135
:101AE000FC910280F381E02DBE016F5F7F4FC80142
:101AF000099597FF07C089810F90DF91CF911F91C2
:101B00000F910895F80100851185E5CF0E942712F5
:101B100090E00895CF93DF931F92CDB7DEB7FC011D
:101B20008485958597FD05C02FEF3FEF3587248786
:101B30000BC0CE0101960E94FD11019719F4898115
:101B400090E002C08FEF9FEF0F90DF91CF9108954B
:101B50000F931F93CF93DF931F92CDB7DEB78C0106
:101B6000FC018485958597FF0EC0CE0101960E94E9
:101B7000FD11019719F4298130E002C02FEF3FEFEA
:101B8000F80135872487F801848595850F90DF91CA
:101B9000CF911F910F9108950F931F93CF93DF93D0
:101BA000EC0188819981009729F02A813B812617D1
:101BB000370788F48B016F5F7F4F0E946E1E00977E
:101BC00061F0998388831B830A832C813D81232BB9
:101BD00011F4FC01108281E001C080E0DF91CF911F
:101BE0001F910F910895CF93DF93EC018881998124
:101BF000009711F00E94291B198218821D821C82F5
:101C00001B821A82DF91CF910895EF92FF920F937A
:101C10001F93CF93DF93EC017B018A01BA010E94ED
:101C2000CC0D811104C0CE010E94F30D07C01D83AD
:101C30000C83B701888199810E94461FCE01DF91F4
:101C4000CF911F910F91FF90EF9008951F920F92E7
:101C50000FB60F9211248F939F938091E100909182
:101C6000E100937F9093E10083FF0FC01092E900A1
:101C700091E09093EB001092EC0092E39093ED00D2
:101C80001092430298E09093F00082FF20C093E00E
:101C90009093E9009091F200992319F09AE39093C0
:101CA000E80090914102992339F0909141029150BE
:101CB00090934102992389F190914202992339F03E
:101CC00090914202915090934202992341F184FFF6
:101CD00010C08091E2008E7E81608093E20080914E
:101CE000E1008F7E8093E100809123028E7E8061EF
:101CF00011C080FF16C08091E2008E7E80618093CB
:101D0000E2008091E1008E7E8093E10080912302C9
:101D10008E7E81608093230204C05D9ACDCF289A85
:101D2000D6CF9F918F910F900FBE0F901F90189557
:101D30001F920F920FB60F921124CF92DF92EF9263
:101D4000FF920F931F932F933F934F935F936F9344
:101D50007F938F939F93AF93BF93EF93FF93CF9313
:101D6000DF93CDB7DEB76C97DEBFCDBF1092E90031
:101D70008091E80083FFEDC168E0CE0145960E94A6
:101D8000DF0C82EF8093E8008D8987FF05C090917A
:101D9000E80090FFFCCF03C09EEF9093E800982FDF
:101DA000907609F0C6C09E892F89188D91110CC0BC
:101DB000803829F4809124028093F10002C01092AF
:101DC000F1001092F10048C1422F50E0512B9130A8
:101DD00051F4811141C14130510509F03DC180915B
:101DE00024028D7F0BC0933061F4811135C14130E5
:101DF000510509F031C18091240282608093240250
:101E00002BC1953041F48091E80080FFFCCF206821
:101E10002093E30021C1963009F05FC0EB8CFC8C6D
:101E20001092E9001092400210923F02123091F598
:101E300010923E0210923D020E94540D99E0BE01A4
:101E40006F5F7F4FDB01E92F1D92EA95E9F79983D8
:101E50001A8391E09E8390EA98879AEF9987209160
:101E60003F0230914002275F3F4F3C832B838D839D
:101E70001092E9001092400210923F02F0923E024E
:101E8000E0923D0249E050E080E00E94B80C0E94E0
:101E9000540DE2C0F0923E02E0923D020E943812E0
:101EA000DC011296ED90FC901397E114F10409F413
:101EB000C0C0D701ED91FC910480F581E02DBE01F9
:101EC0006B5E7F4FC7010995009719F00CF0C4C0F5
:101ED000C7C0F701E084F184E8CF973009F4C0C0AF
:101EE000983021F481E08093F100B6C0993009F078
:101EF000B3C0837009F0B4C0EBE2F1E081E021E00F
:101F000036E39081992361F08093E9002093EB0000
:101F100091919093EC003093ED008F5F873089F7BB
:101F20008EE78093EA001092EA008F898093430243
:101F300093C08B8D9C8D1092E900109240021092FC
:101F40003F0290933E0280933D02898D811156C0DD
:101F50008E899D89913A59F4813209F081C047E018
:101F600050E060E171E080E00E94B80C75C09132F1
:101F700009F076C0833289F4888D90E0982F882705
:101F80002F89822BA0E0B0E080930C0190930D018B
:101F9000A0930E01B0930F015FC0803269F480916D
:101FA000E80082FFFCCF67E080E191E00E94DF0C57
:101FB0008BEF8093E80006C0823209F04DC08F8914
:101FC0008093170180912202882319F0EEEFFAE046
:101FD00002C0E0E0F8E08091100190911101A09121
:101FE0001201B0911301803B9440A105B10509F0A5
:101FF0007BC08091170180FF93C076C00E94381289
:10200000DC0112960D911C9113970115110541F1F8
:10201000D801ED91FC910190F081E02DBE016B5E45
:102020007F4FC8010995811117C0F80100851185FE
:10203000ECCF113009F44EC0133091F48F8988230E
:1020400009F445C0823081F440E860E189E298E01B
:102050000E944A18882321F08EEF8093E80079C00F
:1020600081E28093EB0075C0813029F440E86BE099
:102070008DE198E0EDCF833099F70E943812DC01B2
:102080001296ED90FC9013978E010F5F1F4F680121
:10209000E114F10479F0D701ED91FC910680F7810C
:1020A000E02DB801C7010995080F111DF701E08463
:1020B000F184EECFD8011C92F60101900020E9F7DF
:1020C0003197BF016C197D0940E0C601C1CF67E0BF
:1020D00078E002C06BE078E06115710509F2FB0160
:1020E000449150E080E840CF0FB6F894A8958091D5
:1020F0006000886180936000109260000FBEA89518
:10210000EE3F2AE0F20739F08091FE0A9091FF0A33
:1021100091838083A1CF1092FF0A1092FE0A9CCF78
:10212000EE3F8AE0F80731F0808191819093FF0AB9
:102130008093FE0A87E797E7918380839BE088E19D
:102140000FB6F894A895809360000FBE909360003E
:1021500083CF6C960FB6F894DEBF0FBECDBFDF9174
:10216000CF91FF91EF91BF91AF919F918F917F910F
:102170006F915F914F913F912F911F910F91FF9020
:10218000EF90DF90CF900F900FBE0F901F9018959B
:10219000DC01ED91FC910190F081E02D09948F928A
:1021A0009F92AF92BF92CF92DF92EF92FF926B011C
:1021B0007C010E94CB064B015C01C114D104E104F7
:1021C000F104F1F00E94CB06DC01CB0188199909DA
:1021D000AA09BB09883E9340A105B10570F321E02F
:1021E000C21AD108E108F10888EE880E83E0981E33
:1021F000A11CB11CC114D104E104F10419F7DDCF15
:10220000FF90EF90DF90CF90BF90AF909F908F9016
:1022100008958F929F92AF92BF92CF92DF92EF92EA
:10222000FF920F931F93CF93DF935C016B017A01B1
:1022300080911701882309F45BC0809143028823B1
:1022400009F456C08091230280FF05C08091E00010
:1022500082608093E000E70110E00AEF83E0882EBF
:102260009AE3992E2097D9F10E94271281110AC072
:10227000015009F43DC061E070E080E090E00E9410
:10228000CF10F0CF282F30E0C217D3070CF48C2FDB
:102290004FB7F8948092E9009091E80095FF1DC037
:1022A000282F30E0C21BD30BF601982F915020F05D
:1022B00081918093F100FACFC20ED31E112319F041
:1022C0009092E80009C08091E80085FD06C09092D8
:1022D000E80011E0209709F010E04FBFC3CF1111C3
:1022E000C3CF5D9884E6809341021E141F0444F01E
:1022F00081E090E0F5019383828380E090E001C06B
:10230000C701DF91CF911F910F91FF90EF90DF9068
:10231000CF90BF90AF909F908F900895809144028E
:102320008EBDE5E4F2E081910DB407FEFDCF8EBDD8
:1023300086E0E434F807B9F70DB407FEFDCF089541
:102340008F929F92AF92BF92CF92DF92EF92FF92C5
:102350000F931F93CF93DF937C01EB01142FD22EA9
:102360006034710518F4202F0E94A60A4E018D0CCE
:10237000911CB401615071096034710528F4202F5B
:10238000412FC7010E94A60AD7FF02C0C0E0D0E0DB
:102390006E01540181E4881691041CF080E4A82E9B
:1023A000B12CCA14DB045CF4202FA601B7018DE820
:1023B00096E00E94E90A8FEFC81AD80AEACFE10E28
:1023C000F11C81E0E81AF108CA15DB054CF4202F56
:1023D000AE01B7018DE896E00E94E90A2196F4CF9C
:1023E000DF91CF911F910F91FF90EF90DF90CF90F1
:1023F000BF90AF909F908F900895FC018091430211
:10240000811103C08FEF9FEF08959FB7F89482E08A
:102410008093E9002091F20030E01216130614F4C4
:1024200021E030E02115310559F0289884E68093A9
:1024300042028091F10080838091F200882319F09C
:102440009FBFC90108958BE68093E800F9CF2FB7AD
:10245000F89483E08093E9009091E800892F8072DE
:1024600095FF04C09091F20080E4891B2FBF08956E
:102470008091A50681110DC082E08093A10684E0C1
:102480008093A2061092A4061092A30681E0809386
:10249000A50681EA96E00895CF93DF93CDB7DEB726
:1024A000E4970FB6F894DEBF0FBECDBF789484B525
:1024B000826084BD84B5816084BD85B5826085BD40
:1024C00085B5816085BD80916E00816080936E00CE
:1024D00010928100809181008260809381008091C0
:1024E0008100816080938100809180008160809371
:1024F0008000809191008260809391008091910092
:102500008160809391008091900081608093900021
:102510008091C10084608093C1008091C10082607D
:102520008093C1008091C10081608093C10080913F
:10253000C30081608093C3008091C000826080935B
:10254000C0008091C20081608093C20080917A00B7
:10255000846080937A0080917A00826080937A0010
:1025600080917A00816080937A0080917A008068FF
:1025700080937A0010924302109224021092230258
:102580008091D70081608093D70080EA8093D80043
:1025900089B5806189BD89B5826089BD09B400FEB5
:1025A000FDCF61E070E080E090E00E94CF1080916C
:1025B000D8008F7C80618093D8008091E000807F7C
:1025C0008093E0008091E1008E7E8093E1008DE0B9
:1025D0008093E200559A209AEEEFFFE7859194915F
:1025E0008B3F9C4D19F481E08093220281EC809313
:1025F0007C0085B1806F85B9249884B1866E84B9DA
:102600005E9A5F988AB1806D8AB9769A6E9881B326
:10261000806F81BB899880B38D7080BB80E58CBD55
:1026200081E08DBD85E090E00E94730A5F9A85E0AD
:1026300090E00E94730A5E985C980CEA10E06DE0EE
:10264000F62EF00EF80184910E94A00A0F5F1F4F32
:10265000F012F8CF5C9A81E88093640081E0809367
:10266000650000E014E080E00E94A00A015011091A
:10267000D1F70E94780A87FF1FC05C9885EA0E9404
:10268000A00A5C9A2E982F982D9880916400806201
:10269000809364000E94950AFDCF2D980E94780ACD
:1026A0008478843871F00E94780A8471843129F129
:1026B00088EC90E00E94730A0E94780A82FDEDCFB8
:1026C00038C02D9A88EC90E00E94730A2F9882E01F
:1026D00090E00E94FC1C8F3F29F06FEF82E090E0B9
:1026E0000E94041D84EF91E00E94730A2F9A0E94B9
:1026F000780A84788438D9F3D6CF2D9A88EC90E084
:102700000E94730A2E9882E090E00E94FC1C8823AD
:1027100029F060E082E090E00E94041D84EF91E0E7
:102720000E94730A2E9A0E94780A84718431D9F328
:10273000BFCF2D9A82E090E00E94FC1C882331F0EC
:102740003E9A3F9A81E08093250204C010922502B0
:102750003E983F9882E390E00E94730A0E94780AB4
:102760008111F8CF809164008E7F80936400809106
:102770007A00806480937A0080917A0086FDFCCF95
:1027800000917800109179000E94CB0620E030E0A3
:10279000980111270027600F711F821F931F611579
:1027A00071058105910511F00E94FF198091640067
:1027B000816080936400212C312C40EC442E4FE347
:1027C000542E30E1632E712C2FB7F894809126029D
:1027D00090912702A0912802B09129022FBF409129
:1027E000990650919A0660919B0670919C06009103
:1027F0009D06002341F020919506821B80939E0642
:1028000010929D0630C484179507A607B70738F4C1
:10281000481B423008F427C40E94950A24C411E0E2
:1028200010939D068093950690939606A093970625
:10283000B093980620919406820F911DA11DB11DA1
:102840008093990690939A06A0939B06B0939C065A
:1028500080919006909191060196909391068093B5
:10286000900680919206809393060E94780A809346
:102870009206802FE4E4F2E081118FEF002481932F
:102880008193819381930394D1F7609104017091B6
:102890000501209106013091070162177307CCF4FE
:1028A0006F5F7F4F70930501609304018091020177
:1028B00090910301EFE4F3E00491E0E5F3E0E490AC
:1028C0002AEFC22E20E030E041E553E00E944808A4
:1028D000C8C3809190069091910666E970E00E94CD
:1028E000541E892B21F080910001882331F081E072
:1028F0008093000103E310E074C03093050120933E
:10290000040180910101811133C0809171008D7F9C
:102910008093710010922E0284E496E090932D0231
:1029200080932C0290932B0280932A0286E194E0FC
:10293000909345068093440682E390E09093470687
:10294000809346068DE298E090934906809348066E
:1029500084E690E090934B0680934A0680E090E8EE
:1029600090934D0680934C060E943A071093010104
:102970006091040170910501809102019091030121
:10298000E7ECF1E00491E8ECF1E0E4901AEFC12EFD
:1029900020E030E049EC51E00E94480860910A01D3
:1029A00070910B0120E049EB50E08091080190917B
:1029B00009010E942F0A55C32E2DA801B6018DE8EA
:1029C00096E00E94E90A41E0E4265FEFC51AD50AC5
:1029D00080E8C816D10481F70F5F1F4F003411053E
:1029E00049F07801F1E0EF22FF2421E0E226C12C3A
:1029F000D12CE2CF0E94FA1924E630E040E050E00A
:102A00000E94121D62307105810591050CF0AEC067
:102A100086E0E2E2F1E0DE011D9601900D928A95DA
:102A2000E1F7E0905806F090590687010F5F1F4FBD
:102A3000E016F10608F093C0209156063091570633
:102A400020173107B0F5C70109962817390788F50F
:102A5000C0905406D0905506909357068093560622
:102A60002EE2FC012E9FC0012F9F900D11240E9489
:102A7000941A8093540690935506A6019C0160E039
:102A800070E08EE26E157F0589F02115310539F071
:102A9000FA01D901982F01900D929A95E1F76F5F95
:102AA0007F4F425D5F4F225D3F4FECCFC6010E94DA
:102AB000291B20915806309159068EE2829FB00161
:102AC000839F700D112440E050E0A8E1EA2EF12C24
:102AD000B2E0CB2ED12C2017310708F043C0A091D3
:102AE0005406B0915506CA01860F971FA80FB91F4B
:102AF000109781F1812C912CE0E1AE2EE3E4BE2E03
:102B000089829A82AB82BC821D821E821F821886B5
:102B10007A866986FC86EB86198E1A8E1B8E1C8E31
:102B2000812C912CA12CFFE3BF2E8D8E9E8EAF8E1B
:102B3000B8A229A23AA24BA25CA2DAA6C9A61CA6F8
:102B40001BA67EA66DA6FE0131968EE201900D9227
:102B50008A95E1F72F5F3F4F425D5F4FBCCF0E1567
:102B60001F0520F4109359060093580680918B0698
:102B700090918C0618AA1FA61AAA19AA1CAA1BAA09
:102B80004AE08E010F5F1F4FB8010E94081AF8013A
:102B900001900020E9F73197AF01401B510BB801BC
:102BA000CE018F960E94050E4BA95CA92091890643
:102BB00030918A064217530708F042C01A821982E0
:102BC0001C821B821E821D8241E050E06FE172E098
:102BD000C8010E94050E8BA99CA9CFA4D8A8ED809E
:102BE000FE80C114D10409F446C20097A1F0E80E9A
:102BF000F91EB701C8010E94CC0D882309F43BC21D
:102C000029813A818D819E81B601820F931F0E9496
:102C1000461FFE82ED8269817A816115710539F066
:102C20004D815E81CE018F960E94050E04C0CE01BB
:102C30008F960E94F30D89819A810E94291BB4CF3F
:102C400069EF62037001639FF00C11242DE7E20E1F
:102C5000F11C1A8219821C821B821E821D826FA5A2
:102C600078A9C8016115710519F00E94050E02C00E
:102C70000E94F30D00E010E02D813E8189819A8150
:102C800002171307B0F4009729F0FC01E00FF11FC1
:102C9000208101C020E020534BE157E063E070E069
:102CA000C7010E942F0A47E0E40EF11C0F5F1F4F7F
:102CB000E3CF0E94291B8FA598A90E94291BE12C14
:102CC000F12CA0905806B0905906EA14FB0408F0C5
:102CD000C7C080905406909055065EE25E9D6001EC
:102CE0005F9DD00C112484010C0D1D1DF801608521
:102CF0007185719561957109072E000C880B990BF0
:102D00000E94DF1B9B01AC01F8016081718182810F
:102D100093810E944F1E18160CF070C0C8010E94CB
:102D2000C30BC8010E94DF0BC8010E94410CF801CF
:102D300020A131A142A153A160817181828193813F
:102D40000E94AC1DF801608371838283938300919C
:102D50005406109155060C0D1D1DF80164817581F6
:102D6000868197810E94191E4B015C01F8016081E8
:102D70007181828193810E94191EDC01CB01F801CF
:102D800022A549E556E0B4010E942F0A809154061D
:102D9000909155068C0D9D1D0E940A0BE0915406E2
:102DA000F0915506EC0DFD1D60916D0670916E065B
:102DB00040916F0650917006B09172062289338956
:102DC000848995891689A789E09171064B018E0E39
:102DD000911C281539050CF03FC0210F311D6217D9
:102DE0007307D4F59A012B0F311D82179307A4F5B1
:102DF0008A0F911D481759077CF541C1C601959569
:102E0000879547EA57E3849F9001859F300D949FF3
:102E1000300D112440E050E0C50101972817390713
:102E200088F42F5F3F4FDA01AC0DBD1DA80DB91D11
:102E3000FD01BE966EE201900D926A95E1F7425D4A
:102E40005F4FECCF8A159B0520F490935906809331
:102E5000580651E0E51AF1088FEFE81AF80A31CF69
:102E6000809193068C78D1F5809192068C78B1F19F
:102E70006091650670916606072E000C880B990B11
:102E80000E94DF1B20915F06309160064091610631
:102E9000509162060E94AD1D20E030E048E552E40A
:102EA0000E94D81B81111AC020917F0630918006A4
:102EB000409181065091820660917306709174066C
:102EC00080917506909176060E94AC1D6093730602
:102ED0007093740680937506909376060E94780A24
:102EE00085FF1FC020917B0630917C0640917D06B6
:102EF00050917E0660915B0670915C0680915D0644
:102F000090915E060E94AC1D6B017C0120E030E0D8
:102F1000A9010E944F1E18160CF048C084E090E0F2
:102F200032C00E94780A86FF3BC020917B06309118
:102F30007C0640917D0650917E0660915B06709103
:102F40005C0680915D0690915E060E94AD1D6B014E
:102F50007C016091630670916406072E000C880B5B
:102F6000990B0E94DF1B9B01AC01C701B6010E94B7
:102F7000AD1D20E030E040E053E40E94D81B87FF05
:102F800015C082E090E09093880680938706C092F7
:102F90005B06D0925C06E0925D06F0925E0606C08B
:102FA00083E090E090938806809387068BE596E017
:102FB0000E94C30B8BE596E00E94DF0B8BE596E049
:102FC0000E94410C80919006909191066CE370E014
:102FD0000E94541E892B11F520E030E040E05CE3B4
:102FE00060915B0670915C0680915D0690915E0633
:102FF0000E943E1C20E030E040E850E40E943E1C6D
:103000000E94191E6F5F7F4F80918B0690918C06F6
:10301000680F791F70938C0660938B0660915F0632
:103020007091600680916106909162060E94191E5F
:103030006B017C0160915B0670915C0680915D067E
:1030400090915E060E94191EDC01CB01209185063D
:1030500047ED54E0B6010E942F0A8BE596E00E94EE
:103060000A0B0E948E1180E090E0892B09F4ACCB12
:103070000E940000A6CBC8010E94F30DCCCD809128
:103080008B0690918C0688519C4F90938C06809370
:103090008B06E2CECF92DF92EF92FF920F931F93B7
:1030A000CF93DF931F92CDB7DEB7182F062FE42EF4
:1030B000862F880F8E5F99830E948A0C83E00E947E
:1030C0008A0CF12EC12E9981D92E8C2D8F19801743
:1030D00098F4F601E7FE02C0849101C080810E944D
:1030E0008A0C182F80E00E948A0C8123FFEFCF1AF0
:1030F000DF0A8111EACF01C081E00F90DF91CF910B
:103100001F910F91FF90EF90DF90CF9008958091E5
:103110005406909155060E94291B8DEA96E00E9464
:1031200042068BE297E00C949006EF92FF921F9379
:10313000CF93DF93ABEDB6E013961C921E921297DD
:1031400048EE53E060E070E014964D935D936D930C
:103150007C93179783E691E011969C938E93CFEF23
:10316000DFEF1D96DC93CE931C97EBE2F7E081E254
:10317000E82EF12CF08EE78A118E128E138E46E027
:1031800050E060E070E0448F558F668F778F10A21B
:1031900011A212A213A220E224A316A215A211A624
:1031A0008DE297E090A787A383E092E091838083EC
:1031B0008DE092E0958B848B1682158210861782A3
:1031C000128611861486138616861586108A17862F
:1031D00081EE91E093838283B38BA28B10E1118BFC
:1031E000EDEAF6E0F48EE38E158E168E178E40A370
:1031F00051A362A373A314A215A216A217A220A71B
:1032000012A611A615A6128213821482158223EB30
:1032100036E034A723A72BE831E03183208325E96A
:1032200031E0318F208F1286118614861386168620
:103230001586108A1786128A118A148A138A978330
:103240008683B78BA68B88E0858BB093A006A0936E
:103250009F066CE775E084E995E00E942D1AEDE881
:10326000F6E08DE192E091838083158216821783C8
:10327000D483C3831486158616861786108A83E640
:1032800094E0909353068093520680E090E89093E8
:1032900051068093500646983E9A47983F9ACBE550
:1032A000D6E087E090E09FA78EA719AA18AA80E031
:1032B00090E0A0E2B1E488839983AA83BB831C8257
:1032C0001D821E821F8280E190E0998788879B87FC
:1032D0008A8786E0E1E3F1E0A7E6B6E001900D928F
:1032E0008A95E1F7188E198E1A8E1B8E83E393E36D
:1032F000A3EBBEE38C8F9D8FAE8FBF8F80E090E0FD
:10330000A0ECBFE388A399A3AAA3BBA380E090E0AD
:10331000A0EAB0E48CA39DA3AEA3BFA386E090E097
:1033200099A788A71BA61AA683E090E09DA78CA763
:10333000C4E5D6E088E090E09B838A831D821C82EE
:1033400080E791E00E94941A99838883DF91CF915E
:103350001F91FF90EF9008958F929F92AF92BF922E
:10336000CF92DF92EF92FF92CF93DF93EC016881CF
:1033700079818A819B81611571058105910521F40F
:1033800064E279ED8BE597E02DE133EF41E050E029
:103390000E94121D49015A019B01AC01A7EAB1E448
:1033A0000E94311D6B017C01ACEEB4EFA5019401CC
:1033B0000E943F1DDC01CB018C0D9D1DAE1DBF1D6C
:1033C000B7FF03C00197A109B04888839983AA83F6
:1033D000BB83BC01CD019F77DF91CF91FF90EF9030
:1033E000DF90CF90BF90AF909F908F9008950E94F4
:1033F000AC19089588E191E00E94AC19089560939A
:1034000018017093190180931A0190931B0108957C
:10341000BB274A3031F4992322F4BDE2909581957F
:103420009F4F0C94141ABB27FB015527AA27880F1E
:10343000991FAA1FA41710F0A41B83955051B9F728
:10344000A05DAA3308F0A95DA193009779F7B111A7
:10345000B1931192CB010C94C81B0F931F93CF9380
:10346000DF93009731F46115710519F480E090E065
:103470003AC08B01EC016EE070E081E090E00E94C8
:10348000781AFC01892B91F380E8838301151105DB
:1034900071F01387028781E88383809155079091AB
:1034A0005607892B21F4F0935607E0935507209790
:1034B000C9F0D187C0878381826083838091570759
:1034C00090915807892B71F4F0935807E0935707B0
:1034D0008091590790915A07892B21F4F0935A074C
:1034E000E0935907CF01DF91CF911F910F9108957C
:1034F0000F931F93CF93DF93869F8001879F100DBB
:10350000969F100D1124C8010E94941AEC01009797
:1035100029F0A80160E070E00E94C11BCE01DF919C
:10352000CF911F910F910895CF93DF938230910532
:1035300010F482E090E0E0915D07F0915E0720E0FA
:1035400030E0C0E0D0E0309711F140815181481760
:103550005907C0F04817590761F482819381209779
:1035600019F09B838A832BC090935E0780935D073D
:1035700026C02115310519F04217530718F49A0196
:10358000BE01DF01EF010280F381E02DDCCF2115C8
:10359000310509F1281B390B2430310590F41296BE
:1035A0008D919C9113976115710521F0FB01938317
:1035B000828304C090935E0780935D07FD0132967D
:1035C00044C0FD01E20FF31F819391932250310912
:1035D0002D933C933AC020915B0730915C07232BDD
:1035E00041F420911E0130911F0130935C0720931C
:1035F0005B0720911C0130911D012115310541F41B
:103600002DB73EB74091200150912101241B350B6D
:10361000E0915B07F0915C07E217F307A0F42E1B23
:103620003F0B2817390778F0AC014E5F5F4F241726
:10363000350748F04E0F5F1F50935C0740935B07C0
:103640008193919302C0E0E0F0E0CF01DF91CF9150
:1036500008950F931F93CF93DF93009709F48CC0C5
:10366000FC0132971382128200915D0710915E0770
:103670000115110581F420813181820F931F209162
:103680005B0730915C072817390779F5F0935C07E1
:10369000E0935B0771C0D80140E050E0AE17BF0770
:1036A00050F412962D913C911397AD0121153105DF
:1036B00009F1D901F3CF9D01DA01338322836081BF
:1036C0007181860F971F8217930769F4EC01288197
:1036D0003981260F371F2E5F3F4F318320838A8128
:1036E0009B8193838283452B29F4F0935E07E093BB
:1036F0005D0742C01396FC93EE931297ED0149913A
:1037000059919E01240F351FE217F30771F4808150
:103710009181840F951F029611969C938E938281BE
:10372000938113969C938E931297E0E0F0E0D8017A
:1037300012968D919C911397009719F0F8018C01C6
:10374000F6CF8D919C9198012E5F3F4F820F931F72
:1037500020915B0730915C072817390769F430978F
:1037600029F410925E0710925D0702C01382128244
:1037700010935C0700935B07DF91CF911F910F912E
:103780000895DC0101C06D9341505040E0F7089569
:10379000DC01FC01672F71917723E1F7329704C0B8
:1037A0007C916D9370836291AE17BF07C8F3089543
:1037B0000E941A1C08F481E00895E89409C097FB60
:1037C0003EF490958095709561957F4F8F4F9F4FF8
:1037D0009923A9F0F92F96E9BB279395F69587953C
:1037E00077956795B795F111F8CFFAF4BB0F11F4FF
:1037F00060FF1BC06F5F7F4F8F4F9F4F16C08823A6
:1038000011F096E911C0772321F09EE8872F762FDB
:1038100005C0662371F096E8862F70E060E02AF01C
:103820009A95660F771F881FDAF7880F9695879508
:1038300097F90895990F0008550FAA0BE0E8FEEFDD
:1038400016161706E807F907C0F012161306E40764
:10385000F50798F0621B730B840B950B39F40A265D
:1038600061F0232B242B252B21F408950A2609F43B
:10387000A140A6958FEF811D811D08950E94511CC6
:103880000C94C21C0E94B41C38F00E94BB1C20F097
:10389000952311F00C94AB1C0C94B11C11240C94C6
:1038A000F61C0E94D31C70F3959FC1F3950F50E056
:1038B000551F629FF001729FBB27F00DB11D639FE2
:1038C000AA27F00DB11DAA1F649F6627B00DA11D88
:1038D000661F829F2227B00DA11D621F739FB00D2E
:1038E000A11D621F839FA00D611D221F749F33279E
:1038F000A00D611D231F849F600D211D822F762F37
:103900006A2F11249F5750409AF0F1F088234AF013
:10391000EE0FFF1FBB1F661F771F881F915050407F
:10392000A9F79E3F510580F00C94AB1C0C94F61C3B
:103930005F3FE4F3983ED4F3869577956795B79506
:10394000F795E7959F5FC1F7FE2B880F911D969520
:10395000879597F9089597F99F6780E870E060E090
:1039600008959FEF80EC089500240A941616170618
:1039700018060906089500240A9412161306140660
:1039800005060895092E0394000C11F4882352F0C3
:10399000BB0F40F4BF2B11F460FF04C06F5F7F4F7B
:1039A0008F4F9F4F089557FD9058440F551F59F062
:1039B0005F3F71F04795880F97FB991F61F09F3F1C
:1039C00079F087950895121613061406551FF2CF45
:1039D0004695F1DF08C0161617061806991FF1CF95
:1039E00086957105610508940895E894BB276627BC
:1039F0007727CB0197F90895F999FECF92BD81BD44
:103A0000F89A992780B50895262FF999FECF1FBA05
:103A100092BD81BD20BD0FB6F894FA9AF99A0FBEF7
:103A200001960895052E97FB1EF400940E94291D0F
:103A300057FD07D00E947B1D07FC03D04EF40C9469
:103A4000291D50954095309521953F4F4F4F5F4F21
:103A5000089590958095709561957F4F8F4F9F4FFA
:103A600008950E949D1DA59F900DB49F900DA49F49
:103A7000800D911D11240895B7FF0C94311D0E94F3
:103A8000311D821B930B08952F923F924F925F92AC
:103A90006F927F928F929F92AF92BF92CF92DF925E
:103AA000EF92FF920F931F93CF93DF93CDB7DEB7C3
:103AB000CA1BDB0B0FB6F894DEBF0FBECDBF099457
:103AC0002A88398848885F846E847D848C849B84AE
:103AD000AA84B984C884DF80EE80FD800C811B81BC
:103AE000AA81B981CE0FD11D0FB6F894DEBF0FBEEB
:103AF000CDBFED010895A1E21A2EAA1BBB1BFD014B
:103B00000DC0AA1FBB1FEE1FFF1FA217B307E407BC
:103B1000F50720F0A21BB30BE40BF50B661F771F14
:103B2000881F991F1A9469F76095709580959095F4
:103B30009B01AC01BD01CF010895A29FB001B39FCD
:103B4000C001A39F700D811D1124911DB29F700DA6
:103B5000811D1124911D08955058BB27AA270E944A
:103B6000C41D0C94C21C0E94B41C38F00E94BB1CE3
:103B700020F039F49F3F19F426F40C94B11C0EF494
:103B8000E095E7FB0C94AB1CE92F0E94D31C58F383
:103B9000BA17620773078407950720F079F4A6F532
:103BA0000C94F51C0EF4E0950B2EBA2FA02D0B01F2
:103BB000B90190010C01CA01A0011124FF27591B72
:103BC00099F0593F50F4503E68F11A16F040A22F78
:103BD000232F342F4427585FF3CF469537952795E9
:103BE000A795F0405395C9F77EF41F16BA0B620BE8
:103BF000730B840BBAF09150A1F0FF0FBB1F661F2F
:103C0000771F881FC2F70EC0BA0F621F731F841F71
:103C100048F4879577956795B795F7959E3F08F097
:103C2000B0CF9395880F08F09927EE0F9795879559
:103C300008950E94201E6894B1110C94F61C0895FA
:103C40000E94DB1C88F09F5798F0B92F9927B75135
:103C5000B0F0E1F0660F771F881F991F1AF0BA9530
:103C6000C9F714C0B13091F00E94F51CB1E008957D
:103C70000C94F51C672F782F8827B85F39F0B93F6F
:103C8000CCF3869577956795B395D9F73EF49095E3
:103C90008095709561957F4F8F4F9F4F08950E943B
:103CA0001A1C08F48FEF0895AA1BBB1B51E107C033
:103CB000AA1FBB1FA617B70710F0A61BB70B881FBC
:103CC000991F5A95A9F780959095BC01CD0108954B
:103CD000EE0FFF1F0590F491E02D0994A0E0B0E0F5
:103CE000E4E7FEE10C94481DEC01009721F4CB01C0
:103CF0000E94941AB8C0FC01E60FF71F9C012250E5
:103D00003109E217F30708F4ACC0D9010D911C91F9
:103D1000119706171707B0F00530110508F49FC07A
:103D2000C80104978617970708F499C00250110933
:103D3000061B170B019311936D937C93CF010E9487
:103D4000291B8DC05B01A01AB10A4C01800E911E87
:103D5000A0915D07B0915E0740E050E0E12CF12CAE
:103D6000109709F44AC0A815B905D1F56D907C905B
:103D70001197630182E0C80ED11CCA14DB0480F1E4
:103D8000A3014A195B096A0182E0C80ED11C129690
:103D9000BC9012971396AC91B5E0CB16D10440F0CD
:103DA000B282A38351834083D9016D937C930AC06F
:103DB0000E5F1F4FC301800F911FF9019183808314
:103DC000EB2DFA2FE114F10431F0D7011396FC9397
:103DD000EE93129744C0F0935E07E0935D073FC0F7
:103DE0008D919C9111974817590708F4AC017D01FA
:103DF00012960D90BC91A02DB3CF80915B0790914E
:103E00005C0788159905E1F446175707C8F48091B7
:103E10001C0190911D01009741F48DB79EB7409110
:103E2000200150912101841B950BE817F907C8F474
:103E3000F0935C07E0935B07F901718360830FC027
:103E4000CB010E94941A7C01009759F0A801BE0191
:103E50000E943D1FCE010E94291BC70104C0CE0154
:103E600002C080E090E0CDB7DEB7EEE00C94641DB8
:103E700081E090E0F8940C944D1FFB01DC0102C03E
:103E800001900D9241505040D8F70895FB01DC019C
:103E900001900D920020E1F7089514E0CEE1D4E006
:103EA00004C0FE010E94681E2196CF31D107C9F7D8
:043EB000F894FFCFB4
:103EB40000001D00D2FF05001E002E00FFFFFFFFC3
:103EC40000E10000000000000100000000005F07A6
:103ED4008000050004000614360000C18081000043
:103EE400000400080008081800000000000000009A
:103EF40000E8FFE8FF0000000000001400000000DC
:103F04000000000000ECFFECFF00000000000000D7
:103F1400000000170D0911860D2D0D380D8A0DA80E
:103F24000D0600000000006D066F06FAFFFAFF00A0
:103F3400006E06710618000000000042065906E8EB
:103F4400FFE8FF00004F0663068B013D0147019522
:103F54000100000000070B2D067B0578057505722E
:103F6400056F05E604E204DF04C904E9046D046B8B
:103F740004020000000000BB06BD06FEFFFEFF00B9
:103F840000BC06BF0600000000090BC906000000C3
:103F940000080B7B067B057805750572056F0563C4
:103FA400051D050405EB04E904DA05B90514000050
:103FB4000000009006A706ECFFECFF00009D06B190
:103FC40006030251015B010D02000000006604308B
:023FD4000000EB
:2070000055C000006EC000006CC000006AC0000068C0000066C0000064C0000062C0000043
:2070200060C000005EC00000F2C400005AC0000058C0000056C0000054C0000052C00000EE
:2070400050C0000078C000004CC000004AC0000048C0000046C0000044C0000042C00000BE
:2070600040C000003EC000003CC000003AC0000038C0000036C0000034C0000032C0000048
:2070800030C000002EC000002CC000002AC0000028C0000026C0000024C0000022C00000A8
:2070A00020C000001EC000001CC0000011241FBECFEFDAE0DEBFCDBF11E0A0E0B1E0E2E3BC
:2070C000FFE702C005900D92A83AB107D9F711E0A8EAB1E001C01D92AE3BB107E1F78FD30B
:2070E00026C78ECFF89410926F0010928100109285001092840081E085BF15BE47985D9AEB
:20710000289A0C94000008952091B2013091B3012F5F3F4F3093B3012093B201932F37FFA6
:2071200003C08EEF831B982F990F921710F447980895479A08951F920F920FB60F9211246E
:207140002F938F939F93EF93FF9310928500109284008091A8019091A901009741F00197D3
:207160009093A9018093A801892B09F45D9A8091AA019091AB01009741F001979093AB0126
:207180008093AA01892B09F4289AE0E0F0E0859194918F5F9F4F49F08091AC019091AD0151
:2071A00001969093AD018093AC01FF91EF919F918F912F910F900FBE0F901F90189584E0BC
:2071C0008093E9000DC08091E8008B778093E80003C08EB3882351F08091E80082FFF9CFBE
:2071E0008091E80085FFEFCF8091F1000895982F83E08093E9008091E80085FD0DC0809136
:20720000E8008E778093E80003C08EB3882369F08091E80080FFF9CF9093F1005D9884E6CB
:2072200090E09093A9018093A80108954F925F926F927F928F929F92AF92BF92CF92DF921E
:20724000EF92FF920F931F93CF93DF9384E08093E9008091E80082FF57C2289884E690E067
:207260009093AB018093AA01AADF182F853481F48CE49DE19093AD018093AC0107B600FC4B
:20728000FDCFF999FECF81E180935700E89503C0843519F494DF8DE00DC28C34E1F38035F9
:2072A000D1F3843721F484E4A2DF80E003C2813611F489E5FFC18134B1F481DF182F7FDFE3
:2072C00090E0880F991FAA2797FDA095BA2F312F330F20E0442737FD4095542F822B932B68
:2072E000A42BB52BB8C1803711F483E5E3C1833549F4C0E0D1E089917ADF21E0C730D20714
:20730000D1F7D9C1863521F481E371DF80E3D2C1833731F487E86BDF85E969DF8EE1CAC149
:207320008536B9F4E0E0F0E093E085E090935700E89507B600FCFDCF80935700E89507B65D
:2073400000FCFDCFE058FF4FA0E7E030FA0771F7A2CF823739F4E1E0F0E089E08093570024
:207360008491A8C1863439F4E0E0F0E089E08093570084919FC18E3439F4E3E0F0E089E0E5
:2073800080935700849196C1813539F4E2E0F0E089E08093570084918DC1823631F489E521
:2073A00026DF80E024DF80E885C1823419F0873609F0E5C01092AD011092AC0100DF082FE8
:2073C000FEDEF82EFCDE682E8554823008F071C1902F80E0CF2DD0E0C82BD92B10926F00B3
:2073E000173609F04BC081E180935700E895DD24CC24C3943FC0E090AE01F090AF010091CC
:20740000B0011091B101B6E46B16D9F4ED2DF0E0EE29FF29E4918E2FEADEDD2081F082E08D
:2074200090E0A0E0B0E0E80EF91E0A1F1B1FE092AE01F092AF010093B0011093B101DC2470
:2074400018C0D801C701B695A7959795879559D5CEDE82E090E0A0E0B0E0E80EF91E0A1FF2
:207460001B1FE092AE01F092AF010093B0011093B1012197209709F0BECF7DC08090AE01F5
:207480009090AF01A090B001B090B10196E4691609F05DC083E0F40180935700E89507B63E
:2074A00000FCFDCF54C0F6E46F1661F5772031F1E090AE01F090AF010091B0011091B1019E
:2074C0007EDED82ECC24852D90E08C299D29F7010C0140925700E895112482E090E0A0E08B
:2074E000B0E0E80EF91E0A1F1B1FE092AE01F092AF010093B0011093B10102C060DE582E1A
:20750000742423C0E090AE01F090AF010091B0011091B10116950795F794E79450DE682FFA
:20752000C701F7D48091AE019091AF01A091B001B091B1010296A11DB11D8093AE01909349
:20754000AF01A093B001B093B101219704C05524772444244394209709F0A5CF96E46916B6
:2075600041F485E0F40180935700E89507B600FCFDCF8DE03CDE82E080936F009CC0833492
:2075800071F40091AE011091AF0119DE90E021E0F8010C0120935700E89511247CCE8336C8
:2075A00019F5E090AE01F090AF010091B0011091B10105DEF701E16090E021E00C0120938C
:2075C0005700E895112482E090E0A0E0B0E0E80EF91E0A1F1B1FE092AE01F092AF0100936A
:2075E000B0011093B10157CE8D3661F4E091AE01F091AF0185E080935700E89507B600FCF2
:20760000FDCF49CE823551F4E091AE01F091AF0105911491812FEBDD802F4CC0843421F5FE
:20762000E090AE01F090AF010091B0011091B10116950795F794E794C2DD682FC70169D4DE
:207640008091AE019091AF01A091B001B091B1010296A11DB11D8093AE019093AF01A093D8
:20766000B001B093B10117CE843609F5E090AE01F090AF010091B0011091B101D801C70142
:20768000B695A795979587953CD4B1DD82E090E0A0E0B0E0E80EF91E0A1F1B1FE092AE010A
:2076A000F092AF010093B0011093B10104C08B3111F08FE39CDD83E08093E9009091E8002B
:2076C0008091E8008E778093E80095FF04C010C08EB38823C9F08091E80080FFF9CF809193
:2076E000E8008E778093E80003C08EB3882361F08091E80080FFF9CF84E08093E9008091F1
:20770000E8008B778093E800DF91CF911F910F91FF90EF90DF90CF90BF90AF909F908F90AC
:207720007F906F905F904F9008959091B601892F8F77813249F58091B7018032A1F081328A
:2077400019F5913A09F58091E800877F8093E8008DE091E067E070E00BD28091E8008B770B
:207760008093E8000895913279F48091E800877F8093E8008DE091E067E070E05DD2809192
:20778000E8008E778093E800089582E061EC42E0B5D083E061E842E1B1D084E060E842E1EF
:2077A000ADC084B7877F84BF88E10FB6F89480936000109260000FBE20E880E090E00FB63F
:2077C000F89420936100809361000FBE81E085BF92E095BF3F9A209A559AE1E6F0E02083A1
:2077E000108247985D9A289A109289008AEF8093880090936F0083E080938100F0C0409116
:20780000000850910108109201081092000894B714BE88E10FB6F8948093600010926000D5
:207820000FBE292F30E0F901E270F07091FD18C090FF05C0859194918F5F9F4F81F423FFFF
:207840000FC08091090190910A014817590741F0E0E0F0E0859194918F5F9F4F09F042DC64
:20786000A0DF78941092AD011092AC010CC0DEDC36D38091AC019091AD0181549F4110F00D
:207880001092140141DC80911401882381F78091E00081608093E00025DC80E090E0089598
:2078A000FA01923049F0933061F09130F9F485E191E022E130E01EC087E291E02EE330E04D
:2078C00019C0882329F485E691E024E030E012C0813029F489E691E022E230E00BC0823006
:2078E00029F48DE891E028E130E004C080E090E020E030E091838083C90108958093E9004E
:207900008091EB0081608093EB001092ED006093EC004093ED008091EE00881F8827881F62
:2079200008958091B60188238CF403C08EB38823B1F08091E80082FFF9CF8091E8008B772A
:207940008093E80008958EB3882349F08091E80080FFF9CF8091E8008E778093E800089594
:20796000EF92FF920F931F9345D04CD008ED10E0F80180818F77808380818068808380819B
:207980008F7D808319BC1EBA1092B40180EEE82EF12CF70180818B7F8083F8018081816052
:2079A000808380E060E042E0A9DFE1EEF0E080818E7F8083E2EEF0E0808181608083808144
:2079C00088608083F70180818E7F8083F8018081806180831F910F91FF90EF900895E7ED06
:2079E000F0E08081816080838AE482BF81E08093B501B6CFE8EDF0E080818E7F808310921C
:207A0000E20008951092DA001092E10008951F920F920FB60F9211242F933F934F935F93F6
:207A20006F937F938F939F93AF93BF93EF93FF938091DA0080FF1BC08091D80080FF17C0B2
:207A40008091DA008E7F8093DA008091D90080FF0BC080E189BD82E189BD09B400FEFDCF36
:207A600081E08EBB3BD203C019BC1EBA37D28091E10080FF17C08091E20080FF13C0809138
:207A8000E2008E7F8093E2008091E20080618093E2008091D80080628093D80019BC85E049
:207AA0008EBB1CD28091E10084FF2CC08091E20084FF28C080E189BD82E189BD09B400FEC5
:207AC000FDCF8091D8008F7D8093D8008091E1008F7E8093E1008091E2008F7E8093E20012
:207AE0008091E20081608093E2008091B401882331F48091E30087FD02C081E001C084E067
:207B00008EBBECD18091E10083FF21C08091E20083FF1DC08091E100877F8093E10082E06A
:207B20008EBB1092B4018091E1008E7F8093E1008091E2008E7F8093E2008091E2008061E9
:207B40008093E20080E060E042E0D8DEC7D1FF91EF91BF91AF919F918F917F916F915F9130
:207B60004F913F912F910F900FBE0F901F9018959C014091BC015091BD014617570718F49D
:207B8000F90190E044C06115710511F0AB01F8CF8091E8008E778093E80040E050E0F0CF0F
:207BA0008EB3882309F444C0853009F443C08091E80083FF02C081E008958091E80082FD70
:207BC00031C08091E80080FF22C08091F3009091F200782F60E0292F30E0262B372B07C07A
:207BE00081918093F100415050402F5F3F4F4115510519F02830310598F390E02830310566
:207C000009F491E08091E8008E778093E8004115510531F6992321F605C08EB3882341F075
:207C2000853041F08091E80082FFF7CF80E0089582E0089583E008959C016115710529F47C
:207C40008091E8008B778093E800F90126C08EB3882391F1853091F18091E80083FF02C06C
:207C600081E008958091E80082FFF1CF06C08091F10081936150704059F02091F300809191
:207C8000F200322F20E090E0822B932B892B79F78091E8008B778093E80061157105B9F601
:207CA00005C08EB3882341F0853041F08091E80080FFF7CF80E0089582E0089583E00895C2
:207CC0000F931F93DF93CF9300D0CDB7DEB7E6EBF1E08091F100819381E0EE3BF807C9F792
:207CE00024DD8091E80083FFE4C08091B6019091B701953009F46DC0963040F4913081F1A7
:207D0000913070F0933009F0D4C02AC0983009F4A3C0993009F4B2C0963009F0CAC07CC023
:207D2000803809F4C6C0823809F0C3C08091BA0187708093E9008091EB001092E9002091DB
:207D4000E800277F2093E80090E025E0969587952A95E1F781708093F1001092F10087C0D8
:207D6000882319F0823009F0A4C08F71823009F0A0C08091B801882331F52091BA01277097
:207D800009F497C02093E9008091EB0080FF1BC0933021F48091EB00806213C08091EB0018
:207DA00080618093EB0081E090E002C0880F991F2A95E2F78093EA001092EA008091EB00E5
:207DC00088608093EB001092E9008091E800877F51C0882309F06DC01091B8011F770FB79B
:207DE000F8948091E800877F8093E8009ADD8091E80080FFFCCF8091E3008078812B809398
:207E0000E30080688093E300112311F482E001C083E08EBB0FBF4DC08058823008F049C033
:207E20008091B8019091B9016091BA01AE014F5F5F4F36DDBC01009709F43BC08091E8008E
:207E4000877F8093E80089819A8192DE8091E8008B778093E8002DC0803859F58091E800AA
:207E6000877F8093E8008091B4018093F1008091E8008E778093E80054DD1BC08823C9F4CA
:207E80009091B8019230A8F48091E800877F8093E8009093B40145DD8091B401882331F420
:207EA0008091E30087FD02C081E001C084E08EBB6CDC8091E80083FF0AC08091EB0080624E
:207EC0008093EB008091E800877F8093E8000F900F90CF91DF911F910F91089508951F9360
:207EE0008EB3882361F01091E9001092E9008091E80083FF01C0E4DE17701093E9001F916F
:207F00000895F999FECF92BD81BDF89A992780B50895262FF999FECF1FBA92BD81BD20BDBD
:207F20000FB6F894FA9AF99A0FBE01960895F894FFCF4341544552494E4100777700080031
:207F40000000000000080112011001020000084123360001000201000109023E00020100FF
:207F600080320904000001020201000524001001042402040524060001070582030800FF0C
:207F800009040100020A000000070504021000010705830210000104030904220341007216
:207FA000006400750069006E006F0020004C0065006F006E006100720064006F0000001836
:1A7FC00003410072006400750069006E006F0020004C004C004300000000D7
:00000001FF
